{
	"contracts/11_Auction.sol": {
		"MyAuction": {
			"abi": [
				{
					"inputs": [
						{
							"internalType": "uint256",
							"name": "_biddingTime",
							"type": "uint256"
						},
						{
							"internalType": "address",
							"name": "_owner",
							"type": "address"
						},
						{
							"internalType": "string",
							"name": "_brand",
							"type": "string"
						},
						{
							"internalType": "string",
							"name": "_Rnumber",
							"type": "string"
						}
					],
					"stateMutability": "nonpayable",
					"type": "constructor"
				},
				{
					"anonymous": false,
					"inputs": [
						{
							"indexed": true,
							"internalType": "address",
							"name": "highestBidder",
							"type": "address"
						},
						{
							"indexed": false,
							"internalType": "uint256",
							"name": "highestBid",
							"type": "uint256"
						}
					],
					"name": "BidEvent",
					"type": "event"
				},
				{
					"anonymous": false,
					"inputs": [
						{
							"indexed": false,
							"internalType": "uint256",
							"name": "message",
							"type": "uint256"
						},
						{
							"indexed": false,
							"internalType": "uint256",
							"name": "time",
							"type": "uint256"
						}
					],
					"name": "CanceledEvent",
					"type": "event"
				},
				{
					"anonymous": false,
					"inputs": [
						{
							"indexed": false,
							"internalType": "enum Auction.auction_state",
							"name": "newState",
							"type": "uint8"
						}
					],
					"name": "StateUpdated",
					"type": "event"
				},
				{
					"anonymous": false,
					"inputs": [
						{
							"indexed": false,
							"internalType": "address",
							"name": "withdrawer",
							"type": "address"
						},
						{
							"indexed": false,
							"internalType": "uint256",
							"name": "amount",
							"type": "uint256"
						}
					],
					"name": "WithdrawalEvent",
					"type": "event"
				},
				{
					"inputs": [],
					"name": "Mycar",
					"outputs": [
						{
							"internalType": "string",
							"name": "Brand",
							"type": "string"
						},
						{
							"internalType": "string",
							"name": "Rnumber",
							"type": "string"
						}
					],
					"stateMutability": "view",
					"type": "function"
				},
				{
					"inputs": [],
					"name": "STATE",
					"outputs": [
						{
							"internalType": "enum Auction.auction_state",
							"name": "",
							"type": "uint8"
						}
					],
					"stateMutability": "view",
					"type": "function"
				},
				{
					"inputs": [],
					"name": "auction_end",
					"outputs": [
						{
							"internalType": "uint256",
							"name": "",
							"type": "uint256"
						}
					],
					"stateMutability": "view",
					"type": "function"
				},
				{
					"inputs": [],
					"name": "auction_start",
					"outputs": [
						{
							"internalType": "uint256",
							"name": "",
							"type": "uint256"
						}
					],
					"stateMutability": "view",
					"type": "function"
				},
				{
					"inputs": [],
					"name": "bid",
					"outputs": [
						{
							"internalType": "bool",
							"name": "",
							"type": "bool"
						}
					],
					"stateMutability": "payable",
					"type": "function"
				},
				{
					"inputs": [
						{
							"internalType": "address",
							"name": "",
							"type": "address"
						}
					],
					"name": "bids",
					"outputs": [
						{
							"internalType": "uint256",
							"name": "",
							"type": "uint256"
						}
					],
					"stateMutability": "view",
					"type": "function"
				},
				{
					"inputs": [],
					"name": "cancelBid",
					"outputs": [
						{
							"internalType": "bool",
							"name": "",
							"type": "bool"
						}
					],
					"stateMutability": "nonpayable",
					"type": "function"
				},
				{
					"inputs": [],
					"name": "cancel_auction",
					"outputs": [
						{
							"internalType": "bool",
							"name": "",
							"type": "bool"
						}
					],
					"stateMutability": "nonpayable",
					"type": "function"
				},
				{
					"inputs": [],
					"name": "deactivateAuction",
					"outputs": [],
					"stateMutability": "nonpayable",
					"type": "function"
				},
				{
					"inputs": [],
					"name": "get_owner",
					"outputs": [
						{
							"internalType": "address",
							"name": "",
							"type": "address"
						}
					],
					"stateMutability": "view",
					"type": "function"
				},
				{
					"inputs": [],
					"name": "highestBid",
					"outputs": [
						{
							"internalType": "uint256",
							"name": "",
							"type": "uint256"
						}
					],
					"stateMutability": "view",
					"type": "function"
				},
				{
					"inputs": [],
					"name": "highestBidder",
					"outputs": [
						{
							"internalType": "address",
							"name": "",
							"type": "address"
						}
					],
					"stateMutability": "view",
					"type": "function"
				},
				{
					"inputs": [],
					"name": "withdraw",
					"outputs": [
						{
							"internalType": "bool",
							"name": "",
							"type": "bool"
						}
					],
					"stateMutability": "nonpayable",
					"type": "function"
				},
				{
					"inputs": [],
					"name": "withdrawRemainingFunds",
					"outputs": [],
					"stateMutability": "nonpayable",
					"type": "function"
				}
			],
			"devdoc": {
				"kind": "dev",
				"methods": {},
				"version": 1
			},
			"evm": {
				"assembly": "    /* \"contracts/11_Auction.sol\":3173:9012  contract MyAuction is Auction {\r... */\n  mstore(0x40, 0x80)\n    /* \"contracts/11_Auction.sol\":3288:3933  constructor(uint _biddingTime, address _owner, string memory _brand, string memory _Rnumber) {\r... */\n  callvalue\n  dup1\n  iszero\n  tag_1\n  jumpi\n  0x00\n  dup1\n  revert\ntag_1:\n  pop\n  mload(0x40)\n  sub(codesize, bytecodeSize)\n  dup1\n  bytecodeSize\n  dup4\n  codecopy\n  dup2\n  dup2\n  add\n  0x40\n  mstore\n  dup2\n  add\n  swap1\n  tag_2\n  swap2\n  swap1\n  tag_3\n  jump\t// in\ntag_2:\n    /* \"contracts/11_Auction.sol\":3447:3453  _owner */\n  dup3\n    /* \"contracts/11_Auction.sol\":3431:3444  auction_owner */\n  0x00\n  dup1\n    /* \"contracts/11_Auction.sol\":3431:3453  auction_owner = _owner */\n  0x0100\n  exp\n  dup2\n  sload\n  dup2\n  0xffffffffffffffffffffffffffffffffffffffff\n  mul\n  not\n  and\n  swap1\n  dup4\n  0xffffffffffffffffffffffffffffffffffffffff\n  and\n  mul\n  or\n  swap1\n  sstore\n  pop\n    /* \"contracts/11_Auction.sol\":3545:3560  block.timestamp */\n  timestamp\n    /* \"contracts/11_Auction.sol\":3529:3542  auction_start */\n  0x01\n    /* \"contracts/11_Auction.sol\":3529:3560  auction_start = block.timestamp */\n  dup2\n  swap1\n  sstore\n  pop\n    /* \"contracts/11_Auction.sol\":3717:3724  1 hours */\n  0x0e10\n    /* \"contracts/11_Auction.sol\":3702:3714  _biddingTime */\n  dup5\n    /* \"contracts/11_Auction.sol\":3702:3724  _biddingTime * 1 hours */\n  tag_6\n  swap2\n  swap1\n  tag_7\n  jump\t// in\ntag_6:\n    /* \"contracts/11_Auction.sol\":3686:3699  auction_start */\n  sload(0x01)\n    /* \"contracts/11_Auction.sol\":3686:3724  auction_start + _biddingTime * 1 hours */\n  tag_8\n  swap2\n  swap1\n  tag_9\n  jump\t// in\ntag_8:\n    /* \"contracts/11_Auction.sol\":3672:3683  auction_end */\n  0x02\n    /* \"contracts/11_Auction.sol\":3672:3724  auction_end = auction_start + _biddingTime * 1 hours */\n  dup2\n  swap1\n  sstore\n  pop\n    /* \"contracts/11_Auction.sol\":3797:3818  auction_state.STARTED */\n  0x01\n    /* \"contracts/11_Auction.sol\":3789:3794  STATE */\n  0x09\n  0x00\n    /* \"contracts/11_Auction.sol\":3789:3818  STATE = auction_state.STARTED */\n  0x0100\n  exp\n  dup2\n  sload\n  dup2\n  0xff\n  mul\n  not\n  and\n  swap1\n  dup4\n  0x01\n  dup2\n  gt\n  iszero\n  tag_10\n  jumpi\n  mstore(0x00, 0x4e487b7100000000000000000000000000000000000000000000000000000000)\n  mstore(0x04, 0x21)\n  revert(0x00, 0x24)\ntag_10:\n  mul\n  or\n  swap1\n  sstore\n  pop\n    /* \"contracts/11_Auction.sol\":3884:3890  _brand */\n  dup2\n    /* \"contracts/11_Auction.sol\":3870:3875  Mycar */\n  0x05\n    /* \"contracts/11_Auction.sol\":3870:3881  Mycar.Brand */\n  0x00\n  add\n    /* \"contracts/11_Auction.sol\":3870:3890  Mycar.Brand = _brand */\n  swap1\n  dup1\n  mload\n  swap1\n  0x20\n  add\n  swap1\n  tag_11\n  swap3\n  swap2\n  swap1\n  tag_12\n  jump\t// in\ntag_11:\n  pop\n    /* \"contracts/11_Auction.sol\":3917:3925  _Rnumber */\n  dup1\n    /* \"contracts/11_Auction.sol\":3901:3906  Mycar */\n  0x05\n    /* \"contracts/11_Auction.sol\":3901:3914  Mycar.Rnumber */\n  0x01\n  add\n    /* \"contracts/11_Auction.sol\":3901:3925  Mycar.Rnumber = _Rnumber */\n  swap1\n  dup1\n  mload\n  swap1\n  0x20\n  add\n  swap1\n  tag_13\n  swap3\n  swap2\n  swap1\n  tag_12\n  jump\t// in\ntag_13:\n  pop\n    /* \"contracts/11_Auction.sol\":3288:3933  constructor(uint _biddingTime, address _owner, string memory _brand, string memory _Rnumber) {\r... */\n  pop\n  pop\n  pop\n  pop\n    /* \"contracts/11_Auction.sol\":3173:9012  contract MyAuction is Auction {\r... */\n  jump(tag_14)\ntag_12:\n  dup3\n  dup1\n  sload\n  tag_15\n  swap1\n  tag_16\n  jump\t// in\ntag_15:\n  swap1\n  0x00\n  mstore\n  keccak256(0x00, 0x20)\n  swap1\n  0x1f\n  add\n  0x20\n  swap1\n  div\n  dup2\n  add\n  swap3\n  dup3\n  tag_18\n  jumpi\n  0x00\n  dup6\n  sstore\n  jump(tag_17)\ntag_18:\n  dup3\n  0x1f\n  lt\n  tag_19\n  jumpi\n  dup1\n  mload\n  not(0xff)\n  and\n  dup4\n  dup1\n  add\n  or\n  dup6\n  sstore\n  jump(tag_17)\ntag_19:\n  dup3\n  dup1\n  add\n  0x01\n  add\n  dup6\n  sstore\n  dup3\n  iszero\n  tag_17\n  jumpi\n  swap2\n  dup3\n  add\ntag_20:\n  dup3\n  dup2\n  gt\n  iszero\n  tag_21\n  jumpi\n  dup3\n  mload\n  dup3\n  sstore\n  swap2\n  0x20\n  add\n  swap2\n  swap1\n  0x01\n  add\n  swap1\n  jump(tag_20)\ntag_21:\ntag_17:\n  pop\n  swap1\n  pop\n  tag_22\n  swap2\n  swap1\n  tag_23\n  jump\t// in\ntag_22:\n  pop\n  swap1\n  jump\t// out\ntag_23:\ntag_24:\n  dup1\n  dup3\n  gt\n  iszero\n  tag_25\n  jumpi\n  0x00\n  dup2\n  0x00\n  swap1\n  sstore\n  pop\n  0x01\n  add\n  jump(tag_24)\ntag_25:\n  pop\n  swap1\n  jump\t// out\n    /* \"#utility.yul\":7:361   */\ntag_27:\n  0x00\n    /* \"#utility.yul\":121:187   */\n  tag_29\n    /* \"#utility.yul\":137:186   */\n  tag_30\n    /* \"#utility.yul\":179:185   */\n  dup5\n    /* \"#utility.yul\":137:186   */\n  tag_31\n  jump\t// in\ntag_30:\n    /* \"#utility.yul\":121:187   */\n  tag_32\n  jump\t// in\ntag_29:\n    /* \"#utility.yul\":112:187   */\n  swap1\n  pop\n    /* \"#utility.yul\":210:216   */\n  dup3\n    /* \"#utility.yul\":203:208   */\n  dup2\n    /* \"#utility.yul\":196:217   */\n  mstore\n    /* \"#utility.yul\":248:252   */\n  0x20\n    /* \"#utility.yul\":241:246   */\n  dup2\n    /* \"#utility.yul\":237:253   */\n  add\n    /* \"#utility.yul\":286:289   */\n  dup5\n    /* \"#utility.yul\":277:283   */\n  dup5\n    /* \"#utility.yul\":272:275   */\n  dup5\n    /* \"#utility.yul\":268:284   */\n  add\n    /* \"#utility.yul\":265:290   */\n  gt\n    /* \"#utility.yul\":262:264   */\n  iszero\n  tag_33\n  jumpi\n    /* \"#utility.yul\":303:304   */\n  0x00\n    /* \"#utility.yul\":300:301   */\n  dup1\n    /* \"#utility.yul\":293:305   */\n  revert\n    /* \"#utility.yul\":262:264   */\ntag_33:\n    /* \"#utility.yul\":316:355   */\n  tag_34\n    /* \"#utility.yul\":348:354   */\n  dup5\n    /* \"#utility.yul\":343:346   */\n  dup3\n    /* \"#utility.yul\":338:341   */\n  dup6\n    /* \"#utility.yul\":316:355   */\n  tag_35\n  jump\t// in\ntag_34:\n    /* \"#utility.yul\":102:361   */\n  pop\n  swap4\n  swap3\n  pop\n  pop\n  pop\n  jump\t// out\n    /* \"#utility.yul\":367:510   */\ntag_36:\n  0x00\n    /* \"#utility.yul\":455:461   */\n  dup2\n    /* \"#utility.yul\":449:462   */\n  mload\n    /* \"#utility.yul\":440:462   */\n  swap1\n  pop\n    /* \"#utility.yul\":471:504   */\n  tag_38\n    /* \"#utility.yul\":498:503   */\n  dup2\n    /* \"#utility.yul\":471:504   */\n  tag_39\n  jump\t// in\ntag_38:\n    /* \"#utility.yul\":430:510   */\n  swap3\n  swap2\n  pop\n  pop\n  jump\t// out\n    /* \"#utility.yul\":530:818   */\ntag_40:\n  0x00\n    /* \"#utility.yul\":646:649   */\n  dup3\n    /* \"#utility.yul\":639:643   */\n  0x1f\n    /* \"#utility.yul\":631:637   */\n  dup4\n    /* \"#utility.yul\":627:644   */\n  add\n    /* \"#utility.yul\":623:650   */\n  slt\n    /* \"#utility.yul\":613:615   */\n  tag_42\n  jumpi\n    /* \"#utility.yul\":664:665   */\n  0x00\n    /* \"#utility.yul\":661:662   */\n  dup1\n    /* \"#utility.yul\":654:666   */\n  revert\n    /* \"#utility.yul\":613:615   */\ntag_42:\n    /* \"#utility.yul\":697:703   */\n  dup2\n    /* \"#utility.yul\":691:704   */\n  mload\n    /* \"#utility.yul\":722:812   */\n  tag_43\n    /* \"#utility.yul\":808:811   */\n  dup5\n    /* \"#utility.yul\":800:806   */\n  dup3\n    /* \"#utility.yul\":793:797   */\n  0x20\n    /* \"#utility.yul\":785:791   */\n  dup7\n    /* \"#utility.yul\":781:798   */\n  add\n    /* \"#utility.yul\":722:812   */\n  tag_27\n  jump\t// in\ntag_43:\n    /* \"#utility.yul\":713:812   */\n  swap2\n  pop\n    /* \"#utility.yul\":603:818   */\n  pop\n  swap3\n  swap2\n  pop\n  pop\n  jump\t// out\n    /* \"#utility.yul\":824:967   */\ntag_44:\n  0x00\n    /* \"#utility.yul\":912:918   */\n  dup2\n    /* \"#utility.yul\":906:919   */\n  mload\n    /* \"#utility.yul\":897:919   */\n  swap1\n  pop\n    /* \"#utility.yul\":928:961   */\n  tag_46\n    /* \"#utility.yul\":955:960   */\n  dup2\n    /* \"#utility.yul\":928:961   */\n  tag_47\n  jump\t// in\ntag_46:\n    /* \"#utility.yul\":887:967   */\n  swap3\n  swap2\n  pop\n  pop\n  jump\t// out\n    /* \"#utility.yul\":973:1938   */\ntag_3:\n  0x00\n  dup1\n  0x00\n  dup1\n    /* \"#utility.yul\":1163:1166   */\n  0x80\n    /* \"#utility.yul\":1151:1160   */\n  dup6\n    /* \"#utility.yul\":1142:1149   */\n  dup8\n    /* \"#utility.yul\":1138:1161   */\n  sub\n    /* \"#utility.yul\":1134:1167   */\n  slt\n    /* \"#utility.yul\":1131:1133   */\n  iszero\n  tag_49\n  jumpi\n    /* \"#utility.yul\":1180:1181   */\n  0x00\n    /* \"#utility.yul\":1177:1178   */\n  dup1\n    /* \"#utility.yul\":1170:1182   */\n  revert\n    /* \"#utility.yul\":1131:1133   */\ntag_49:\n    /* \"#utility.yul\":1223:1224   */\n  0x00\n    /* \"#utility.yul\":1248:1312   */\n  tag_50\n    /* \"#utility.yul\":1304:1311   */\n  dup8\n    /* \"#utility.yul\":1295:1301   */\n  dup3\n    /* \"#utility.yul\":1284:1293   */\n  dup9\n    /* \"#utility.yul\":1280:1302   */\n  add\n    /* \"#utility.yul\":1248:1312   */\n  tag_44\n  jump\t// in\ntag_50:\n    /* \"#utility.yul\":1238:1312   */\n  swap5\n  pop\n    /* \"#utility.yul\":1194:1322   */\n  pop\n    /* \"#utility.yul\":1361:1363   */\n  0x20\n    /* \"#utility.yul\":1387:1451   */\n  tag_51\n    /* \"#utility.yul\":1443:1450   */\n  dup8\n    /* \"#utility.yul\":1434:1440   */\n  dup3\n    /* \"#utility.yul\":1423:1432   */\n  dup9\n    /* \"#utility.yul\":1419:1441   */\n  add\n    /* \"#utility.yul\":1387:1451   */\n  tag_36\n  jump\t// in\ntag_51:\n    /* \"#utility.yul\":1377:1451   */\n  swap4\n  pop\n    /* \"#utility.yul\":1332:1461   */\n  pop\n    /* \"#utility.yul\":1521:1523   */\n  0x40\n    /* \"#utility.yul\":1510:1519   */\n  dup6\n    /* \"#utility.yul\":1506:1524   */\n  add\n    /* \"#utility.yul\":1500:1525   */\n  mload\n    /* \"#utility.yul\":1552:1570   */\n  0xffffffffffffffff\n    /* \"#utility.yul\":1544:1550   */\n  dup2\n    /* \"#utility.yul\":1541:1571   */\n  gt\n    /* \"#utility.yul\":1538:1540   */\n  iszero\n  tag_52\n  jumpi\n    /* \"#utility.yul\":1584:1585   */\n  0x00\n    /* \"#utility.yul\":1581:1582   */\n  dup1\n    /* \"#utility.yul\":1574:1586   */\n  revert\n    /* \"#utility.yul\":1538:1540   */\ntag_52:\n    /* \"#utility.yul\":1612:1686   */\n  tag_53\n    /* \"#utility.yul\":1678:1685   */\n  dup8\n    /* \"#utility.yul\":1669:1675   */\n  dup3\n    /* \"#utility.yul\":1658:1667   */\n  dup9\n    /* \"#utility.yul\":1654:1676   */\n  add\n    /* \"#utility.yul\":1612:1686   */\n  tag_40\n  jump\t// in\ntag_53:\n    /* \"#utility.yul\":1602:1686   */\n  swap3\n  pop\n    /* \"#utility.yul\":1471:1696   */\n  pop\n    /* \"#utility.yul\":1756:1758   */\n  0x60\n    /* \"#utility.yul\":1745:1754   */\n  dup6\n    /* \"#utility.yul\":1741:1759   */\n  add\n    /* \"#utility.yul\":1735:1760   */\n  mload\n    /* \"#utility.yul\":1787:1805   */\n  0xffffffffffffffff\n    /* \"#utility.yul\":1779:1785   */\n  dup2\n    /* \"#utility.yul\":1776:1806   */\n  gt\n    /* \"#utility.yul\":1773:1775   */\n  iszero\n  tag_54\n  jumpi\n    /* \"#utility.yul\":1819:1820   */\n  0x00\n    /* \"#utility.yul\":1816:1817   */\n  dup1\n    /* \"#utility.yul\":1809:1821   */\n  revert\n    /* \"#utility.yul\":1773:1775   */\ntag_54:\n    /* \"#utility.yul\":1847:1921   */\n  tag_55\n    /* \"#utility.yul\":1913:1920   */\n  dup8\n    /* \"#utility.yul\":1904:1910   */\n  dup3\n    /* \"#utility.yul\":1893:1902   */\n  dup9\n    /* \"#utility.yul\":1889:1911   */\n  add\n    /* \"#utility.yul\":1847:1921   */\n  tag_40\n  jump\t// in\ntag_55:\n    /* \"#utility.yul\":1837:1921   */\n  swap2\n  pop\n    /* \"#utility.yul\":1706:1931   */\n  pop\n    /* \"#utility.yul\":1121:1938   */\n  swap3\n  swap6\n  swap2\n  swap5\n  pop\n  swap3\n  pop\n  jump\t// out\n    /* \"#utility.yul\":1944:2073   */\ntag_32:\n  0x00\n    /* \"#utility.yul\":2005:2025   */\n  tag_57\n  tag_58\n  jump\t// in\ntag_57:\n    /* \"#utility.yul\":1995:2025   */\n  swap1\n  pop\n    /* \"#utility.yul\":2034:2067   */\n  tag_59\n    /* \"#utility.yul\":2062:2066   */\n  dup3\n    /* \"#utility.yul\":2054:2060   */\n  dup3\n    /* \"#utility.yul\":2034:2067   */\n  tag_60\n  jump\t// in\ntag_59:\n    /* \"#utility.yul\":1985:2073   */\n  swap2\n  swap1\n  pop\n  jump\t// out\n    /* \"#utility.yul\":2079:2154   */\ntag_58:\n  0x00\n    /* \"#utility.yul\":2145:2147   */\n  0x40\n    /* \"#utility.yul\":2139:2148   */\n  mload\n    /* \"#utility.yul\":2129:2148   */\n  swap1\n  pop\n    /* \"#utility.yul\":2119:2154   */\n  swap1\n  jump\t// out\n    /* \"#utility.yul\":2160:2468   */\ntag_31:\n  0x00\n    /* \"#utility.yul\":2312:2330   */\n  0xffffffffffffffff\n    /* \"#utility.yul\":2304:2310   */\n  dup3\n    /* \"#utility.yul\":2301:2331   */\n  gt\n    /* \"#utility.yul\":2298:2300   */\n  iszero\n  tag_63\n  jumpi\n    /* \"#utility.yul\":2334:2352   */\n  tag_64\n  tag_65\n  jump\t// in\ntag_64:\n    /* \"#utility.yul\":2298:2300   */\ntag_63:\n    /* \"#utility.yul\":2372:2401   */\n  tag_66\n    /* \"#utility.yul\":2394:2400   */\n  dup3\n    /* \"#utility.yul\":2372:2401   */\n  tag_67\n  jump\t// in\ntag_66:\n    /* \"#utility.yul\":2364:2401   */\n  swap1\n  pop\n    /* \"#utility.yul\":2456:2460   */\n  0x20\n    /* \"#utility.yul\":2450:2454   */\n  dup2\n    /* \"#utility.yul\":2446:2461   */\n  add\n    /* \"#utility.yul\":2438:2461   */\n  swap1\n  pop\n    /* \"#utility.yul\":2227:2468   */\n  swap2\n  swap1\n  pop\n  jump\t// out\n    /* \"#utility.yul\":2474:2779   */\ntag_9:\n  0x00\n    /* \"#utility.yul\":2533:2553   */\n  tag_69\n    /* \"#utility.yul\":2551:2552   */\n  dup3\n    /* \"#utility.yul\":2533:2553   */\n  tag_70\n  jump\t// in\ntag_69:\n    /* \"#utility.yul\":2528:2553   */\n  swap2\n  pop\n    /* \"#utility.yul\":2567:2587   */\n  tag_71\n    /* \"#utility.yul\":2585:2586   */\n  dup4\n    /* \"#utility.yul\":2567:2587   */\n  tag_70\n  jump\t// in\ntag_71:\n    /* \"#utility.yul\":2562:2587   */\n  swap3\n  pop\n    /* \"#utility.yul\":2721:2722   */\n  dup3\n    /* \"#utility.yul\":2653:2719   */\n  0xffffffffffffffffffffffffffffffffffffffffffffffffffffffffffffffff\n    /* \"#utility.yul\":2649:2723   */\n  sub\n    /* \"#utility.yul\":2646:2647   */\n  dup3\n    /* \"#utility.yul\":2643:2724   */\n  gt\n    /* \"#utility.yul\":2640:2642   */\n  iszero\n  tag_72\n  jumpi\n    /* \"#utility.yul\":2727:2745   */\n  tag_73\n  tag_74\n  jump\t// in\ntag_73:\n    /* \"#utility.yul\":2640:2642   */\ntag_72:\n    /* \"#utility.yul\":2771:2772   */\n  dup3\n    /* \"#utility.yul\":2768:2769   */\n  dup3\n    /* \"#utility.yul\":2764:2773   */\n  add\n    /* \"#utility.yul\":2757:2773   */\n  swap1\n  pop\n    /* \"#utility.yul\":2518:2779   */\n  swap3\n  swap2\n  pop\n  pop\n  jump\t// out\n    /* \"#utility.yul\":2785:3133   */\ntag_7:\n  0x00\n    /* \"#utility.yul\":2848:2868   */\n  tag_76\n    /* \"#utility.yul\":2866:2867   */\n  dup3\n    /* \"#utility.yul\":2848:2868   */\n  tag_70\n  jump\t// in\ntag_76:\n    /* \"#utility.yul\":2843:2868   */\n  swap2\n  pop\n    /* \"#utility.yul\":2882:2902   */\n  tag_77\n    /* \"#utility.yul\":2900:2901   */\n  dup4\n    /* \"#utility.yul\":2882:2902   */\n  tag_70\n  jump\t// in\ntag_77:\n    /* \"#utility.yul\":2877:2902   */\n  swap3\n  pop\n    /* \"#utility.yul\":3070:3071   */\n  dup2\n    /* \"#utility.yul\":3002:3068   */\n  0xffffffffffffffffffffffffffffffffffffffffffffffffffffffffffffffff\n    /* \"#utility.yul\":2998:3072   */\n  div\n    /* \"#utility.yul\":2995:2996   */\n  dup4\n    /* \"#utility.yul\":2992:3073   */\n  gt\n    /* \"#utility.yul\":2987:2988   */\n  dup3\n    /* \"#utility.yul\":2980:2989   */\n  iszero\n    /* \"#utility.yul\":2973:2990   */\n  iszero\n    /* \"#utility.yul\":2969:3074   */\n  and\n    /* \"#utility.yul\":2966:2968   */\n  iszero\n  tag_78\n  jumpi\n    /* \"#utility.yul\":3077:3095   */\n  tag_79\n  tag_74\n  jump\t// in\ntag_79:\n    /* \"#utility.yul\":2966:2968   */\ntag_78:\n    /* \"#utility.yul\":3125:3126   */\n  dup3\n    /* \"#utility.yul\":3122:3123   */\n  dup3\n    /* \"#utility.yul\":3118:3127   */\n  mul\n    /* \"#utility.yul\":3107:3127   */\n  swap1\n  pop\n    /* \"#utility.yul\":2833:3133   */\n  swap3\n  swap2\n  pop\n  pop\n  jump\t// out\n    /* \"#utility.yul\":3139:3235   */\ntag_80:\n  0x00\n    /* \"#utility.yul\":3205:3229   */\n  tag_82\n    /* \"#utility.yul\":3223:3228   */\n  dup3\n    /* \"#utility.yul\":3205:3229   */\n  tag_83\n  jump\t// in\ntag_82:\n    /* \"#utility.yul\":3194:3229   */\n  swap1\n  pop\n    /* \"#utility.yul\":3184:3235   */\n  swap2\n  swap1\n  pop\n  jump\t// out\n    /* \"#utility.yul\":3241:3367   */\ntag_83:\n  0x00\n    /* \"#utility.yul\":3318:3360   */\n  0xffffffffffffffffffffffffffffffffffffffff\n    /* \"#utility.yul\":3311:3316   */\n  dup3\n    /* \"#utility.yul\":3307:3361   */\n  and\n    /* \"#utility.yul\":3296:3361   */\n  swap1\n  pop\n    /* \"#utility.yul\":3286:3367   */\n  swap2\n  swap1\n  pop\n  jump\t// out\n    /* \"#utility.yul\":3373:3450   */\ntag_70:\n  0x00\n    /* \"#utility.yul\":3439:3444   */\n  dup2\n    /* \"#utility.yul\":3428:3444   */\n  swap1\n  pop\n    /* \"#utility.yul\":3418:3450   */\n  swap2\n  swap1\n  pop\n  jump\t// out\n    /* \"#utility.yul\":3456:3763   */\ntag_35:\n    /* \"#utility.yul\":3524:3525   */\n  0x00\n    /* \"#utility.yul\":3534:3647   */\ntag_87:\n    /* \"#utility.yul\":3548:3554   */\n  dup4\n    /* \"#utility.yul\":3545:3546   */\n  dup2\n    /* \"#utility.yul\":3542:3555   */\n  lt\n    /* \"#utility.yul\":3534:3647   */\n  iszero\n  tag_89\n  jumpi\n    /* \"#utility.yul\":3633:3634   */\n  dup1\n    /* \"#utility.yul\":3628:3631   */\n  dup3\n    /* \"#utility.yul\":3624:3635   */\n  add\n    /* \"#utility.yul\":3618:3636   */\n  mload\n    /* \"#utility.yul\":3614:3615   */\n  dup2\n    /* \"#utility.yul\":3609:3612   */\n  dup5\n    /* \"#utility.yul\":3605:3616   */\n  add\n    /* \"#utility.yul\":3598:3637   */\n  mstore\n    /* \"#utility.yul\":3570:3572   */\n  0x20\n    /* \"#utility.yul\":3567:3568   */\n  dup2\n    /* \"#utility.yul\":3563:3573   */\n  add\n    /* \"#utility.yul\":3558:3573   */\n  swap1\n  pop\n    /* \"#utility.yul\":3534:3647   */\n  jump(tag_87)\ntag_89:\n    /* \"#utility.yul\":3665:3671   */\n  dup4\n    /* \"#utility.yul\":3662:3663   */\n  dup2\n    /* \"#utility.yul\":3659:3672   */\n  gt\n    /* \"#utility.yul\":3656:3658   */\n  iszero\n  tag_90\n  jumpi\n    /* \"#utility.yul\":3745:3746   */\n  0x00\n    /* \"#utility.yul\":3736:3742   */\n  dup5\n    /* \"#utility.yul\":3731:3734   */\n  dup5\n    /* \"#utility.yul\":3727:3743   */\n  add\n    /* \"#utility.yul\":3720:3747   */\n  mstore\n    /* \"#utility.yul\":3656:3658   */\ntag_90:\n    /* \"#utility.yul\":3505:3763   */\n  pop\n  pop\n  pop\n  pop\n  jump\t// out\n    /* \"#utility.yul\":3769:4089   */\ntag_16:\n  0x00\n    /* \"#utility.yul\":3850:3851   */\n  0x02\n    /* \"#utility.yul\":3844:3848   */\n  dup3\n    /* \"#utility.yul\":3840:3852   */\n  div\n    /* \"#utility.yul\":3830:3852   */\n  swap1\n  pop\n    /* \"#utility.yul\":3897:3898   */\n  0x01\n    /* \"#utility.yul\":3891:3895   */\n  dup3\n    /* \"#utility.yul\":3887:3899   */\n  and\n    /* \"#utility.yul\":3918:3936   */\n  dup1\n    /* \"#utility.yul\":3908:3910   */\n  tag_92\n  jumpi\n    /* \"#utility.yul\":3974:3978   */\n  0x7f\n    /* \"#utility.yul\":3966:3972   */\n  dup3\n    /* \"#utility.yul\":3962:3979   */\n  and\n    /* \"#utility.yul\":3952:3979   */\n  swap2\n  pop\n    /* \"#utility.yul\":3908:3910   */\ntag_92:\n    /* \"#utility.yul\":4036:4038   */\n  0x20\n    /* \"#utility.yul\":4028:4034   */\n  dup3\n    /* \"#utility.yul\":4025:4039   */\n  lt\n    /* \"#utility.yul\":4005:4023   */\n  dup2\n    /* \"#utility.yul\":4002:4040   */\n  eq\n    /* \"#utility.yul\":3999:4001   */\n  iszero\n  tag_93\n  jumpi\n    /* \"#utility.yul\":4055:4073   */\n  tag_94\n  tag_95\n  jump\t// in\ntag_94:\n    /* \"#utility.yul\":3999:4001   */\ntag_93:\n    /* \"#utility.yul\":3820:4089   */\n  pop\n  swap2\n  swap1\n  pop\n  jump\t// out\n    /* \"#utility.yul\":4095:4376   */\ntag_60:\n    /* \"#utility.yul\":4178:4205   */\n  tag_97\n    /* \"#utility.yul\":4200:4204   */\n  dup3\n    /* \"#utility.yul\":4178:4205   */\n  tag_67\n  jump\t// in\ntag_97:\n    /* \"#utility.yul\":4170:4176   */\n  dup2\n    /* \"#utility.yul\":4166:4206   */\n  add\n    /* \"#utility.yul\":4308:4314   */\n  dup2\n    /* \"#utility.yul\":4296:4306   */\n  dup2\n    /* \"#utility.yul\":4293:4315   */\n  lt\n    /* \"#utility.yul\":4272:4290   */\n  0xffffffffffffffff\n    /* \"#utility.yul\":4260:4270   */\n  dup3\n    /* \"#utility.yul\":4257:4291   */\n  gt\n    /* \"#utility.yul\":4254:4316   */\n  or\n    /* \"#utility.yul\":4251:4253   */\n  iszero\n  tag_98\n  jumpi\n    /* \"#utility.yul\":4319:4337   */\n  tag_99\n  tag_65\n  jump\t// in\ntag_99:\n    /* \"#utility.yul\":4251:4253   */\ntag_98:\n    /* \"#utility.yul\":4359:4369   */\n  dup1\n    /* \"#utility.yul\":4355:4357   */\n  0x40\n    /* \"#utility.yul\":4348:4370   */\n  mstore\n    /* \"#utility.yul\":4138:4376   */\n  pop\n  pop\n  pop\n  jump\t// out\n    /* \"#utility.yul\":4382:4562   */\ntag_74:\n    /* \"#utility.yul\":4430:4507   */\n  0x4e487b7100000000000000000000000000000000000000000000000000000000\n    /* \"#utility.yul\":4427:4428   */\n  0x00\n    /* \"#utility.yul\":4420:4508   */\n  mstore\n    /* \"#utility.yul\":4527:4531   */\n  0x11\n    /* \"#utility.yul\":4524:4525   */\n  0x04\n    /* \"#utility.yul\":4517:4532   */\n  mstore\n    /* \"#utility.yul\":4551:4555   */\n  0x24\n    /* \"#utility.yul\":4548:4549   */\n  0x00\n    /* \"#utility.yul\":4541:4556   */\n  revert\n    /* \"#utility.yul\":4568:4748   */\ntag_95:\n    /* \"#utility.yul\":4616:4693   */\n  0x4e487b7100000000000000000000000000000000000000000000000000000000\n    /* \"#utility.yul\":4613:4614   */\n  0x00\n    /* \"#utility.yul\":4606:4694   */\n  mstore\n    /* \"#utility.yul\":4713:4717   */\n  0x22\n    /* \"#utility.yul\":4710:4711   */\n  0x04\n    /* \"#utility.yul\":4703:4718   */\n  mstore\n    /* \"#utility.yul\":4737:4741   */\n  0x24\n    /* \"#utility.yul\":4734:4735   */\n  0x00\n    /* \"#utility.yul\":4727:4742   */\n  revert\n    /* \"#utility.yul\":4754:4934   */\ntag_65:\n    /* \"#utility.yul\":4802:4879   */\n  0x4e487b7100000000000000000000000000000000000000000000000000000000\n    /* \"#utility.yul\":4799:4800   */\n  0x00\n    /* \"#utility.yul\":4792:4880   */\n  mstore\n    /* \"#utility.yul\":4899:4903   */\n  0x41\n    /* \"#utility.yul\":4896:4897   */\n  0x04\n    /* \"#utility.yul\":4889:4904   */\n  mstore\n    /* \"#utility.yul\":4923:4927   */\n  0x24\n    /* \"#utility.yul\":4920:4921   */\n  0x00\n    /* \"#utility.yul\":4913:4928   */\n  revert\n    /* \"#utility.yul\":4940:5042   */\ntag_67:\n  0x00\n    /* \"#utility.yul\":5032:5034   */\n  0x1f\n    /* \"#utility.yul\":5028:5035   */\n  not\n    /* \"#utility.yul\":5023:5025   */\n  0x1f\n    /* \"#utility.yul\":5016:5021   */\n  dup4\n    /* \"#utility.yul\":5012:5026   */\n  add\n    /* \"#utility.yul\":5008:5036   */\n  and\n    /* \"#utility.yul\":4998:5036   */\n  swap1\n  pop\n    /* \"#utility.yul\":4988:5042   */\n  swap2\n  swap1\n  pop\n  jump\t// out\n    /* \"#utility.yul\":5048:5170   */\ntag_39:\n    /* \"#utility.yul\":5121:5145   */\n  tag_105\n    /* \"#utility.yul\":5139:5144   */\n  dup2\n    /* \"#utility.yul\":5121:5145   */\n  tag_80\n  jump\t// in\ntag_105:\n    /* \"#utility.yul\":5114:5119   */\n  dup2\n    /* \"#utility.yul\":5111:5146   */\n  eq\n    /* \"#utility.yul\":5101:5103   */\n  tag_106\n  jumpi\n    /* \"#utility.yul\":5160:5161   */\n  0x00\n    /* \"#utility.yul\":5157:5158   */\n  dup1\n    /* \"#utility.yul\":5150:5162   */\n  revert\n    /* \"#utility.yul\":5101:5103   */\ntag_106:\n    /* \"#utility.yul\":5091:5170   */\n  pop\n  jump\t// out\n    /* \"#utility.yul\":5176:5298   */\ntag_47:\n    /* \"#utility.yul\":5249:5273   */\n  tag_108\n    /* \"#utility.yul\":5267:5272   */\n  dup2\n    /* \"#utility.yul\":5249:5273   */\n  tag_70\n  jump\t// in\ntag_108:\n    /* \"#utility.yul\":5242:5247   */\n  dup2\n    /* \"#utility.yul\":5239:5274   */\n  eq\n    /* \"#utility.yul\":5229:5231   */\n  tag_109\n  jumpi\n    /* \"#utility.yul\":5288:5289   */\n  0x00\n    /* \"#utility.yul\":5285:5286   */\n  dup1\n    /* \"#utility.yul\":5278:5290   */\n  revert\n    /* \"#utility.yul\":5229:5231   */\ntag_109:\n    /* \"#utility.yul\":5219:5298   */\n  pop\n  jump\t// out\n    /* \"contracts/11_Auction.sol\":3173:9012  contract MyAuction is Auction {\r... */\ntag_14:\n  dataSize(sub_0)\n  dup1\n  dataOffset(sub_0)\n  0x00\n  codecopy\n  0x00\n  return\nstop\n\nsub_0: assembly {\n        /* \"contracts/11_Auction.sol\":3173:9012  contract MyAuction is Auction {\r... */\n      mstore(0x40, 0x80)\n      jumpi(tag_1, lt(calldatasize, 0x04))\n      shr(0xe0, calldataload(0x00))\n      dup1\n      0x78f45340\n      gt\n      tag_16\n      jumpi\n      dup1\n      0xc458b65a\n      gt\n      tag_17\n      jumpi\n      dup1\n      0xc458b65a\n      eq\n      tag_12\n      jumpi\n      dup1\n      0xc486456c\n      eq\n      tag_13\n      jumpi\n      dup1\n      0xd57bde79\n      eq\n      tag_14\n      jumpi\n      dup1\n      0xef86ce8e\n      eq\n      tag_15\n      jumpi\n      jump(tag_1)\n    tag_17:\n      dup1\n      0x78f45340\n      eq\n      tag_9\n      jumpi\n      dup1\n      0x91f90157\n      eq\n      tag_10\n      jumpi\n      dup1\n      0x9435c887\n      eq\n      tag_11\n      jumpi\n      jump(tag_1)\n    tag_16:\n      dup1\n      0x389009f0\n      gt\n      tag_18\n      jumpi\n      dup1\n      0x389009f0\n      eq\n      tag_5\n      jumpi\n      dup1\n      0x3ba88ca1\n      eq\n      tag_6\n      jumpi\n      dup1\n      0x3ccfd60b\n      eq\n      tag_7\n      jumpi\n      dup1\n      0x62ea82db\n      eq\n      tag_8\n      jumpi\n      jump(tag_1)\n    tag_18:\n      dup1\n      0x0216f202\n      eq\n      tag_2\n      jumpi\n      dup1\n      0x0ac298dc\n      eq\n      tag_3\n      jumpi\n      dup1\n      0x1998aeef\n      eq\n      tag_4\n      jumpi\n    tag_1:\n      0x00\n      dup1\n      revert\n        /* \"contracts/11_Auction.sol\":1034:1050  car public Mycar */\n    tag_2:\n      callvalue\n      dup1\n      iszero\n      tag_19\n      jumpi\n      0x00\n      dup1\n      revert\n    tag_19:\n      pop\n      tag_20\n      tag_21\n      jump\t// in\n    tag_20:\n      mload(0x40)\n      tag_22\n      swap3\n      swap2\n      swap1\n      tag_23\n      jump\t// in\n    tag_22:\n      mload(0x40)\n      dup1\n      swap2\n      sub\n      swap1\n      return\n        /* \"contracts/11_Auction.sol\":8718:8808  function get_owner() public view returns (address) {\r... */\n    tag_3:\n      callvalue\n      dup1\n      iszero\n      tag_24\n      jumpi\n      0x00\n      dup1\n      revert\n    tag_24:\n      pop\n      tag_25\n      tag_26\n      jump\t// in\n    tag_25:\n      mload(0x40)\n      tag_27\n      swap2\n      swap1\n      tag_28\n      jump\t// in\n    tag_27:\n      mload(0x40)\n      dup1\n      swap2\n      sub\n      swap1\n      return\n        /* \"contracts/11_Auction.sol\":3984:5132  function bid() public payable override an_ongoing_auction returns (bool) {\r... */\n    tag_4:\n      tag_29\n      tag_30\n      jump\t// in\n    tag_29:\n      mload(0x40)\n      tag_31\n      swap2\n      swap1\n      tag_32\n      jump\t// in\n    tag_31:\n      mload(0x40)\n      dup1\n      swap2\n      sub\n      swap1\n      return\n        /* \"contracts/11_Auction.sol\":7145:7535  function deactivateAuction() external only_owner {\r... */\n    tag_5:\n      callvalue\n      dup1\n      iszero\n      tag_33\n      jumpi\n      0x00\n      dup1\n      revert\n    tag_33:\n      pop\n      tag_34\n      tag_35\n      jump\t// in\n    tag_34:\n      stop\n        /* \"contracts/11_Auction.sol\":6761:7065  function cancel_auction() external override only_owner returns (bool) {\r... */\n    tag_6:\n      callvalue\n      dup1\n      iszero\n      tag_36\n      jumpi\n      0x00\n      dup1\n      revert\n    tag_36:\n      pop\n      tag_37\n      tag_38\n      jump\t// in\n    tag_37:\n      mload(0x40)\n      tag_39\n      swap2\n      swap1\n      tag_32\n      jump\t// in\n    tag_39:\n      mload(0x40)\n      dup1\n      swap2\n      sub\n      swap1\n      return\n        /* \"contracts/11_Auction.sol\":8067:8652  function withdraw() public override returns (bool) {\r... */\n    tag_7:\n      callvalue\n      dup1\n      iszero\n      tag_40\n      jumpi\n      0x00\n      dup1\n      revert\n    tag_40:\n      pop\n      tag_41\n      tag_42\n      jump\t// in\n    tag_41:\n      mload(0x40)\n      tag_43\n      swap2\n      swap1\n      tag_32\n      jump\t// in\n    tag_43:\n      mload(0x40)\n      dup1\n      swap2\n      sub\n      swap1\n      return\n        /* \"contracts/11_Auction.sol\":1230:1266  mapping(address => uint) public bids */\n    tag_8:\n      callvalue\n      dup1\n      iszero\n      tag_44\n      jumpi\n      0x00\n      dup1\n      revert\n    tag_44:\n      pop\n      tag_45\n      0x04\n      dup1\n      calldatasize\n      sub\n      dup2\n      add\n      swap1\n      tag_46\n      swap2\n      swap1\n      tag_47\n      jump\t// in\n    tag_46:\n      tag_48\n      jump\t// in\n    tag_45:\n      mload(0x40)\n      tag_49\n      swap2\n      swap1\n      tag_50\n      jump\t// in\n    tag_49:\n      mload(0x40)\n      dup1\n      swap2\n      sub\n      swap1\n      return\n        /* \"contracts/11_Auction.sol\":410:438  uint256 public auction_start */\n    tag_9:\n      callvalue\n      dup1\n      iszero\n      tag_51\n      jumpi\n      0x00\n      dup1\n      revert\n    tag_51:\n      pop\n      tag_52\n      tag_53\n      jump\t// in\n    tag_52:\n      mload(0x40)\n      tag_54\n      swap2\n      swap1\n      tag_50\n      jump\t// in\n    tag_54:\n      mload(0x40)\n      dup1\n      swap2\n      sub\n      swap1\n      return\n        /* \"contracts/11_Auction.sol\":619:647  address public highestBidder */\n    tag_10:\n      callvalue\n      dup1\n      iszero\n      tag_55\n      jumpi\n      0x00\n      dup1\n      revert\n    tag_55:\n      pop\n      tag_56\n      tag_57\n      jump\t// in\n    tag_56:\n      mload(0x40)\n      tag_58\n      swap2\n      swap1\n      tag_28\n      jump\t// in\n    tag_58:\n      mload(0x40)\n      dup1\n      swap2\n      sub\n      swap1\n      return\n        /* \"contracts/11_Auction.sol\":5162:5728  function cancelBid() public returns (bool) {\r... */\n    tag_11:\n      callvalue\n      dup1\n      iszero\n      tag_59\n      jumpi\n      0x00\n      dup1\n      revert\n    tag_59:\n      pop\n      tag_60\n      tag_61\n      jump\t// in\n    tag_60:\n      mload(0x40)\n      tag_62\n      swap2\n      swap1\n      tag_32\n      jump\t// in\n    tag_62:\n      mload(0x40)\n      dup1\n      swap2\n      sub\n      swap1\n      return\n        /* \"contracts/11_Auction.sol\":476:502  uint256 public auction_end */\n    tag_12:\n      callvalue\n      dup1\n      iszero\n      tag_63\n      jumpi\n      0x00\n      dup1\n      revert\n    tag_63:\n      pop\n      tag_64\n      tag_65\n      jump\t// in\n    tag_64:\n      mload(0x40)\n      tag_66\n      swap2\n      swap1\n      tag_50\n      jump\t// in\n    tag_66:\n      mload(0x40)\n      dup1\n      swap2\n      sub\n      swap1\n      return\n        /* \"contracts/11_Auction.sol\":1417:1443  auction_state public STATE */\n    tag_13:\n      callvalue\n      dup1\n      iszero\n      tag_67\n      jumpi\n      0x00\n      dup1\n      revert\n    tag_67:\n      pop\n      tag_68\n      tag_69\n      jump\t// in\n    tag_68:\n      mload(0x40)\n      tag_70\n      swap2\n      swap1\n      tag_71\n      jump\t// in\n    tag_70:\n      mload(0x40)\n      dup1\n      swap2\n      sub\n      swap1\n      return\n        /* \"contracts/11_Auction.sol\":543:568  uint256 public highestBid */\n    tag_14:\n      callvalue\n      dup1\n      iszero\n      tag_72\n      jumpi\n      0x00\n      dup1\n      revert\n    tag_72:\n      pop\n      tag_73\n      tag_74\n      jump\t// in\n    tag_73:\n      mload(0x40)\n      tag_75\n      swap2\n      swap1\n      tag_50\n      jump\t// in\n    tag_75:\n      mload(0x40)\n      dup1\n      swap2\n      sub\n      swap1\n      return\n        /* \"contracts/11_Auction.sol\":7608:7981  function withdrawRemainingFunds() external only_owner {\r... */\n    tag_15:\n      callvalue\n      dup1\n      iszero\n      tag_76\n      jumpi\n      0x00\n      dup1\n      revert\n    tag_76:\n      pop\n      tag_77\n      tag_78\n      jump\t// in\n    tag_77:\n      stop\n        /* \"contracts/11_Auction.sol\":1034:1050  car public Mycar */\n    tag_21:\n      0x05\n      dup1\n      0x00\n      add\n      dup1\n      sload\n      tag_79\n      swap1\n      tag_80\n      jump\t// in\n    tag_79:\n      dup1\n      0x1f\n      add\n      0x20\n      dup1\n      swap2\n      div\n      mul\n      0x20\n      add\n      mload(0x40)\n      swap1\n      dup2\n      add\n      0x40\n      mstore\n      dup1\n      swap3\n      swap2\n      swap1\n      dup2\n      dup2\n      mstore\n      0x20\n      add\n      dup3\n      dup1\n      sload\n      tag_81\n      swap1\n      tag_80\n      jump\t// in\n    tag_81:\n      dup1\n      iszero\n      tag_82\n      jumpi\n      dup1\n      0x1f\n      lt\n      tag_83\n      jumpi\n      0x0100\n      dup1\n      dup4\n      sload\n      div\n      mul\n      dup4\n      mstore\n      swap2\n      0x20\n      add\n      swap2\n      jump(tag_82)\n    tag_83:\n      dup3\n      add\n      swap2\n      swap1\n      0x00\n      mstore\n      keccak256(0x00, 0x20)\n      swap1\n    tag_84:\n      dup2\n      sload\n      dup2\n      mstore\n      swap1\n      0x01\n      add\n      swap1\n      0x20\n      add\n      dup1\n      dup4\n      gt\n      tag_84\n      jumpi\n      dup3\n      swap1\n      sub\n      0x1f\n      and\n      dup3\n      add\n      swap2\n    tag_82:\n      pop\n      pop\n      pop\n      pop\n      pop\n      swap1\n      dup1\n      0x01\n      add\n      dup1\n      sload\n      tag_85\n      swap1\n      tag_80\n      jump\t// in\n    tag_85:\n      dup1\n      0x1f\n      add\n      0x20\n      dup1\n      swap2\n      div\n      mul\n      0x20\n      add\n      mload(0x40)\n      swap1\n      dup2\n      add\n      0x40\n      mstore\n      dup1\n      swap3\n      swap2\n      swap1\n      dup2\n      dup2\n      mstore\n      0x20\n      add\n      dup3\n      dup1\n      sload\n      tag_86\n      swap1\n      tag_80\n      jump\t// in\n    tag_86:\n      dup1\n      iszero\n      tag_87\n      jumpi\n      dup1\n      0x1f\n      lt\n      tag_88\n      jumpi\n      0x0100\n      dup1\n      dup4\n      sload\n      div\n      mul\n      dup4\n      mstore\n      swap2\n      0x20\n      add\n      swap2\n      jump(tag_87)\n    tag_88:\n      dup3\n      add\n      swap2\n      swap1\n      0x00\n      mstore\n      keccak256(0x00, 0x20)\n      swap1\n    tag_89:\n      dup2\n      sload\n      dup2\n      mstore\n      swap1\n      0x01\n      add\n      swap1\n      0x20\n      add\n      dup1\n      dup4\n      gt\n      tag_89\n      jumpi\n      dup3\n      swap1\n      sub\n      0x1f\n      and\n      dup3\n      add\n      swap2\n    tag_87:\n      pop\n      pop\n      pop\n      pop\n      pop\n      swap1\n      pop\n      dup3\n      jump\t// out\n        /* \"contracts/11_Auction.sol\":8718:8808  function get_owner() public view returns (address) {\r... */\n    tag_26:\n        /* \"contracts/11_Auction.sol\":8760:8767  address */\n      0x00\n        /* \"contracts/11_Auction.sol\":8787:8800  auction_owner */\n      dup1\n      0x00\n      swap1\n      sload\n      swap1\n      0x0100\n      exp\n      swap1\n      div\n      0xffffffffffffffffffffffffffffffffffffffff\n      and\n        /* \"contracts/11_Auction.sol\":8780:8800  return auction_owner */\n      swap1\n      pop\n        /* \"contracts/11_Auction.sol\":8718:8808  function get_owner() public view returns (address) {\r... */\n      swap1\n      jump\t// out\n        /* \"contracts/11_Auction.sol\":3984:5132  function bid() public payable override an_ongoing_auction returns (bool) {\r... */\n    tag_30:\n        /* \"contracts/11_Auction.sol\":4051:4055  bool */\n      0x00\n        /* \"contracts/11_Auction.sol\":1703:1714  auction_end */\n      sload(0x02)\n        /* \"contracts/11_Auction.sol\":1684:1699  block.timestamp */\n      timestamp\n        /* \"contracts/11_Auction.sol\":1684:1714  block.timestamp <= auction_end */\n      gt\n      iszero\n        /* \"contracts/11_Auction.sol\":1684:1748  block.timestamp <= auction_end && STATE == auction_state.STARTED */\n      dup1\n      iszero\n      tag_92\n      jumpi\n      pop\n        /* \"contracts/11_Auction.sol\":1727:1748  auction_state.STARTED */\n      0x01\n        /* \"contracts/11_Auction.sol\":1718:1748  STATE == auction_state.STARTED */\n      dup1\n      dup2\n      gt\n      iszero\n      tag_93\n      jumpi\n      mstore(0x00, 0x4e487b7100000000000000000000000000000000000000000000000000000000)\n      mstore(0x04, 0x21)\n      revert(0x00, 0x24)\n    tag_93:\n        /* \"contracts/11_Auction.sol\":1718:1723  STATE */\n      0x09\n      0x00\n      swap1\n      sload\n      swap1\n      0x0100\n      exp\n      swap1\n      div\n      0xff\n      and\n        /* \"contracts/11_Auction.sol\":1718:1748  STATE == auction_state.STARTED */\n      0x01\n      dup2\n      gt\n      iszero\n      tag_94\n      jumpi\n      mstore(0x00, 0x4e487b7100000000000000000000000000000000000000000000000000000000)\n      mstore(0x04, 0x21)\n      revert(0x00, 0x24)\n    tag_94:\n      eq\n        /* \"contracts/11_Auction.sol\":1684:1748  block.timestamp <= auction_end && STATE == auction_state.STARTED */\n    tag_92:\n        /* \"contracts/11_Auction.sol\":1676:1770  require(block.timestamp <= auction_end && STATE == auction_state.STARTED, \"Auction has ended\") */\n      tag_95\n      jumpi\n      mload(0x40)\n      0x08c379a000000000000000000000000000000000000000000000000000000000\n      dup2\n      mstore\n      0x04\n      add\n      tag_96\n      swap1\n      tag_97\n      jump\t// in\n    tag_96:\n      mload(0x40)\n      dup1\n      swap2\n      sub\n      swap1\n      revert\n    tag_95:\n        /* \"contracts/11_Auction.sol\":4132:4133  0 */\n      0x00\n        /* \"contracts/11_Auction.sol\":4120:4129  msg.value */\n      callvalue\n        /* \"contracts/11_Auction.sol\":4120:4133  msg.value > 0 */\n      gt\n        /* \"contracts/11_Auction.sol\":4112:4173  require(msg.value > 0, \"Bid value must be greater than zero\") */\n      tag_99\n      jumpi\n      mload(0x40)\n      0x08c379a000000000000000000000000000000000000000000000000000000000\n      dup2\n      mstore\n      0x04\n      add\n      tag_100\n      swap1\n      tag_101\n      jump\t// in\n    tag_100:\n      mload(0x40)\n      dup1\n      swap2\n      sub\n      swap1\n      revert\n    tag_99:\n        /* \"contracts/11_Auction.sol\":4320:4330  highestBid */\n      sload(0x03)\n        /* \"contracts/11_Auction.sol\":4308:4317  msg.value */\n      callvalue\n        /* \"contracts/11_Auction.sol\":4308:4330  msg.value > highestBid */\n      gt\n        /* \"contracts/11_Auction.sol\":4300:4367  require(msg.value > highestBid, \"You can't bid, make a higher bid\") */\n      tag_102\n      jumpi\n      mload(0x40)\n      0x08c379a000000000000000000000000000000000000000000000000000000000\n      dup2\n      mstore\n      0x04\n      add\n      tag_103\n      swap1\n      tag_104\n      jump\t// in\n    tag_103:\n      mload(0x40)\n      dup1\n      swap2\n      sub\n      swap1\n      revert\n    tag_102:\n        /* \"contracts/11_Auction.sol\":4397:4398  0 */\n      0x00\n        /* \"contracts/11_Auction.sol\":4384:4394  highestBid */\n      sload(0x03)\n        /* \"contracts/11_Auction.sol\":4384:4398  highestBid > 0 */\n      gt\n        /* \"contracts/11_Auction.sol\":4380:4533  if (highestBid > 0) {\r... */\n      iszero\n      tag_105\n      jumpi\n        /* \"contracts/11_Auction.sol\":4486:4499  highestBidder */\n      0x04\n      0x00\n      swap1\n      sload\n      swap1\n      0x0100\n      exp\n      swap1\n      div\n      0xffffffffffffffffffffffffffffffffffffffff\n      and\n        /* \"contracts/11_Auction.sol\":4478:4509  payable(highestBidder).transfer */\n      0xffffffffffffffffffffffffffffffffffffffff\n      and\n        /* \"contracts/11_Auction.sol\":4478:4521  payable(highestBidder).transfer(highestBid) */\n      0x08fc\n        /* \"contracts/11_Auction.sol\":4510:4520  highestBid */\n      sload(0x03)\n        /* \"contracts/11_Auction.sol\":4478:4521  payable(highestBidder).transfer(highestBid) */\n      swap1\n      dup2\n      iszero\n      mul\n      swap1\n      mload(0x40)\n      0x00\n      mload(0x40)\n      dup1\n      dup4\n      sub\n      dup2\n      dup6\n      dup9\n      dup9\n      call\n      swap4\n      pop\n      pop\n      pop\n      pop\n      iszero\n      dup1\n      iszero\n      tag_107\n      jumpi\n      returndatasize\n      0x00\n      dup1\n      returndatacopy\n      revert(0x00, returndatasize)\n    tag_107:\n      pop\n        /* \"contracts/11_Auction.sol\":4380:4533  if (highestBid > 0) {\r... */\n    tag_105:\n        /* \"contracts/11_Auction.sol\":4633:4643  msg.sender */\n      caller\n        /* \"contracts/11_Auction.sol\":4617:4630  highestBidder */\n      0x04\n      0x00\n        /* \"contracts/11_Auction.sol\":4617:4643  highestBidder = msg.sender */\n      0x0100\n      exp\n      dup2\n      sload\n      dup2\n      0xffffffffffffffffffffffffffffffffffffffff\n      mul\n      not\n      and\n      swap1\n      dup4\n      0xffffffffffffffffffffffffffffffffffffffff\n      and\n      mul\n      or\n      swap1\n      sstore\n      pop\n        /* \"contracts/11_Auction.sol\":4667:4676  msg.value */\n      callvalue\n        /* \"contracts/11_Auction.sol\":4654:4664  highestBid */\n      0x03\n        /* \"contracts/11_Auction.sol\":4654:4676  highestBid = msg.value */\n      dup2\n      swap1\n      sstore\n      pop\n        /* \"contracts/11_Auction.sol\":4770:4779  msg.value */\n      callvalue\n        /* \"contracts/11_Auction.sol\":4751:4755  bids */\n      0x08\n        /* \"contracts/11_Auction.sol\":4751:4767  bids[msg.sender] */\n      0x00\n        /* \"contracts/11_Auction.sol\":4756:4766  msg.sender */\n      caller\n        /* \"contracts/11_Auction.sol\":4751:4767  bids[msg.sender] */\n      0xffffffffffffffffffffffffffffffffffffffff\n      and\n      0xffffffffffffffffffffffffffffffffffffffff\n      and\n      dup2\n      mstore\n      0x20\n      add\n      swap1\n      dup2\n      mstore\n      0x20\n      add\n      0x00\n      keccak256\n        /* \"contracts/11_Auction.sol\":4751:4779  bids[msg.sender] = msg.value */\n      dup2\n      swap1\n      sstore\n      pop\n        /* \"contracts/11_Auction.sol\":4889:4890  0 */\n      0x00\n        /* \"contracts/11_Auction.sol\":4869:4873  bids */\n      0x08\n        /* \"contracts/11_Auction.sol\":4869:4885  bids[msg.sender] */\n      0x00\n        /* \"contracts/11_Auction.sol\":4874:4884  msg.sender */\n      caller\n        /* \"contracts/11_Auction.sol\":4869:4885  bids[msg.sender] */\n      0xffffffffffffffffffffffffffffffffffffffff\n      and\n      0xffffffffffffffffffffffffffffffffffffffff\n      and\n      dup2\n      mstore\n      0x20\n      add\n      swap1\n      dup2\n      mstore\n      0x20\n      add\n      0x00\n      keccak256\n      sload\n        /* \"contracts/11_Auction.sol\":4869:4890  bids[msg.sender] == 0 */\n      eq\n        /* \"contracts/11_Auction.sol\":4869:4928  bids[msg.sender] == 0 && !_isBidderAlreadyAdded(msg.sender) */\n      dup1\n      iszero\n      tag_108\n      jumpi\n      pop\n        /* \"contracts/11_Auction.sol\":4895:4928  _isBidderAlreadyAdded(msg.sender) */\n      tag_109\n        /* \"contracts/11_Auction.sol\":4917:4927  msg.sender */\n      caller\n        /* \"contracts/11_Auction.sol\":4895:4916  _isBidderAlreadyAdded */\n      tag_110\n        /* \"contracts/11_Auction.sol\":4895:4928  _isBidderAlreadyAdded(msg.sender) */\n      jump\t// in\n    tag_109:\n        /* \"contracts/11_Auction.sol\":4894:4928  !_isBidderAlreadyAdded(msg.sender) */\n      iszero\n        /* \"contracts/11_Auction.sol\":4869:4928  bids[msg.sender] == 0 && !_isBidderAlreadyAdded(msg.sender) */\n    tag_108:\n        /* \"contracts/11_Auction.sol\":4865:4981  if (bids[msg.sender] == 0 && !_isBidderAlreadyAdded(msg.sender)) {\r... */\n      iszero\n      tag_111\n      jumpi\n        /* \"contracts/11_Auction.sol\":4945:4952  bidders */\n      0x07\n        /* \"contracts/11_Auction.sol\":4958:4968  msg.sender */\n      caller\n        /* \"contracts/11_Auction.sol\":4945:4969  bidders.push(msg.sender) */\n      swap1\n      dup1\n      0x01\n      dup2\n      sload\n      add\n      dup1\n      dup3\n      sstore\n      dup1\n      swap2\n      pop\n      pop\n      0x01\n      swap1\n      sub\n      swap1\n      0x00\n      mstore\n      keccak256(0x00, 0x20)\n      add\n      0x00\n      swap1\n      swap2\n      swap1\n      swap2\n      swap1\n      swap2\n      0x0100\n      exp\n      dup2\n      sload\n      dup2\n      0xffffffffffffffffffffffffffffffffffffffff\n      mul\n      not\n      and\n      swap1\n      dup4\n      0xffffffffffffffffffffffffffffffffffffffff\n      and\n      mul\n      or\n      swap1\n      sstore\n      pop\n        /* \"contracts/11_Auction.sol\":4865:4981  if (bids[msg.sender] == 0 && !_isBidderAlreadyAdded(msg.sender)) {\r... */\n    tag_111:\n        /* \"contracts/11_Auction.sol\":5043:5056  highestBidder */\n      0x04\n      0x00\n      swap1\n      sload\n      swap1\n      0x0100\n      exp\n      swap1\n      div\n      0xffffffffffffffffffffffffffffffffffffffff\n      and\n        /* \"contracts/11_Auction.sol\":5034:5069  BidEvent(highestBidder, highestBid) */\n      0xffffffffffffffffffffffffffffffffffffffff\n      and\n      0x0d993d4f8a84158f5329713d6d13ef54e77b325040c887c8b3e565cfd0cd3e21\n        /* \"contracts/11_Auction.sol\":5058:5068  highestBid */\n      sload(0x03)\n        /* \"contracts/11_Auction.sol\":5034:5069  BidEvent(highestBidder, highestBid) */\n      mload(0x40)\n      tag_113\n      swap2\n      swap1\n      tag_50\n      jump\t// in\n    tag_113:\n      mload(0x40)\n      dup1\n      swap2\n      sub\n      swap1\n      log2\n        /* \"contracts/11_Auction.sol\":5082:5100  _checkAuctionEnd() */\n      tag_114\n        /* \"contracts/11_Auction.sol\":5082:5098  _checkAuctionEnd */\n      tag_115\n        /* \"contracts/11_Auction.sol\":5082:5100  _checkAuctionEnd() */\n      jump\t// in\n    tag_114:\n        /* \"contracts/11_Auction.sol\":5120:5124  true */\n      0x01\n        /* \"contracts/11_Auction.sol\":5113:5124  return true */\n      swap1\n      pop\n        /* \"contracts/11_Auction.sol\":3984:5132  function bid() public payable override an_ongoing_auction returns (bool) {\r... */\n      swap1\n      jump\t// out\n        /* \"contracts/11_Auction.sol\":7145:7535  function deactivateAuction() external only_owner {\r... */\n    tag_35:\n        /* \"contracts/11_Auction.sol\":2020:2033  auction_owner */\n      0x00\n      dup1\n      sload\n      swap1\n      0x0100\n      exp\n      swap1\n      div\n      0xffffffffffffffffffffffffffffffffffffffff\n      and\n        /* \"contracts/11_Auction.sol\":2006:2033  msg.sender == auction_owner */\n      0xffffffffffffffffffffffffffffffffffffffff\n      and\n        /* \"contracts/11_Auction.sol\":2006:2016  msg.sender */\n      caller\n        /* \"contracts/11_Auction.sol\":2006:2033  msg.sender == auction_owner */\n      0xffffffffffffffffffffffffffffffffffffffff\n      and\n      eq\n        /* \"contracts/11_Auction.sol\":1998:2070  require(msg.sender == auction_owner, \"Only auction owner can call this\") */\n      tag_117\n      jumpi\n      mload(0x40)\n      0x08c379a000000000000000000000000000000000000000000000000000000000\n      dup2\n      mstore\n      0x04\n      add\n      tag_118\n      swap1\n      tag_119\n      jump\t// in\n    tag_118:\n      mload(0x40)\n      dup1\n      swap2\n      sub\n      swap1\n      revert\n    tag_117:\n        /* \"contracts/11_Auction.sol\":7279:7290  auction_end */\n      sload(0x02)\n        /* \"contracts/11_Auction.sol\":7261:7276  block.timestamp */\n      timestamp\n        /* \"contracts/11_Auction.sol\":7261:7290  block.timestamp > auction_end */\n      gt\n        /* \"contracts/11_Auction.sol\":7253:7319  require(block.timestamp > auction_end, \"Auction is still ongoing\") */\n      tag_121\n      jumpi\n      mload(0x40)\n      0x08c379a000000000000000000000000000000000000000000000000000000000\n      dup2\n      mstore\n      0x04\n      add\n      tag_122\n      swap1\n      tag_123\n      jump\t// in\n    tag_122:\n      mload(0x40)\n      dup1\n      swap2\n      sub\n      swap1\n      revert\n    tag_121:\n        /* \"contracts/11_Auction.sol\":7390:7433  updateAuctionState(auction_state.CANCELLED) */\n      tag_124\n        /* \"contracts/11_Auction.sol\":7409:7432  auction_state.CANCELLED */\n      0x00\n        /* \"contracts/11_Auction.sol\":7390:7408  updateAuctionState */\n      tag_125\n        /* \"contracts/11_Auction.sol\":7390:7433  updateAuctionState(auction_state.CANCELLED) */\n      jump\t// in\n    tag_124:\n        /* \"contracts/11_Auction.sol\":7494:7527  CanceledEvent(2, block.timestamp) */\n      0xcb3c98892a5c11582e6b5e5caa647ef56c5d646f1bf6884c2cae5aff754639e3\n        /* \"contracts/11_Auction.sol\":7508:7509  2 */\n      0x02\n        /* \"contracts/11_Auction.sol\":7511:7526  block.timestamp */\n      timestamp\n        /* \"contracts/11_Auction.sol\":7494:7527  CanceledEvent(2, block.timestamp) */\n      mload(0x40)\n      tag_126\n      swap3\n      swap2\n      swap1\n      tag_127\n      jump\t// in\n    tag_126:\n      mload(0x40)\n      dup1\n      swap2\n      sub\n      swap1\n      log1\n        /* \"contracts/11_Auction.sol\":7145:7535  function deactivateAuction() external only_owner {\r... */\n      jump\t// out\n        /* \"contracts/11_Auction.sol\":6761:7065  function cancel_auction() external override only_owner returns (bool) {\r... */\n    tag_38:\n        /* \"contracts/11_Auction.sol\":6825:6829  bool */\n      0x00\n        /* \"contracts/11_Auction.sol\":2020:2033  auction_owner */\n      dup1\n      0x00\n      swap1\n      sload\n      swap1\n      0x0100\n      exp\n      swap1\n      div\n      0xffffffffffffffffffffffffffffffffffffffff\n      and\n        /* \"contracts/11_Auction.sol\":2006:2033  msg.sender == auction_owner */\n      0xffffffffffffffffffffffffffffffffffffffff\n      and\n        /* \"contracts/11_Auction.sol\":2006:2016  msg.sender */\n      caller\n        /* \"contracts/11_Auction.sol\":2006:2033  msg.sender == auction_owner */\n      0xffffffffffffffffffffffffffffffffffffffff\n      and\n      eq\n        /* \"contracts/11_Auction.sol\":1998:2070  require(msg.sender == auction_owner, \"Only auction owner can call this\") */\n      tag_129\n      jumpi\n      mload(0x40)\n      0x08c379a000000000000000000000000000000000000000000000000000000000\n      dup2\n      mstore\n      0x04\n      add\n      tag_130\n      swap1\n      tag_119\n      jump\t// in\n    tag_130:\n      mload(0x40)\n      dup1\n      swap2\n      sub\n      swap1\n      revert\n    tag_129:\n        /* \"contracts/11_Auction.sol\":6900:6943  updateAuctionState(auction_state.CANCELLED) */\n      tag_132\n        /* \"contracts/11_Auction.sol\":6919:6942  auction_state.CANCELLED */\n      0x00\n        /* \"contracts/11_Auction.sol\":6900:6918  updateAuctionState */\n      tag_125\n        /* \"contracts/11_Auction.sol\":6900:6943  updateAuctionState(auction_state.CANCELLED) */\n      jump\t// in\n    tag_132:\n        /* \"contracts/11_Auction.sol\":7002:7035  CanceledEvent(1, block.timestamp) */\n      0xcb3c98892a5c11582e6b5e5caa647ef56c5d646f1bf6884c2cae5aff754639e3\n        /* \"contracts/11_Auction.sol\":7016:7017  1 */\n      0x01\n        /* \"contracts/11_Auction.sol\":7019:7034  block.timestamp */\n      timestamp\n        /* \"contracts/11_Auction.sol\":7002:7035  CanceledEvent(1, block.timestamp) */\n      mload(0x40)\n      tag_133\n      swap3\n      swap2\n      swap1\n      tag_134\n      jump\t// in\n    tag_133:\n      mload(0x40)\n      dup1\n      swap2\n      sub\n      swap1\n      log1\n        /* \"contracts/11_Auction.sol\":7053:7057  true */\n      0x01\n        /* \"contracts/11_Auction.sol\":7046:7057  return true */\n      swap1\n      pop\n        /* \"contracts/11_Auction.sol\":6761:7065  function cancel_auction() external override only_owner returns (bool) {\r... */\n      swap1\n      jump\t// out\n        /* \"contracts/11_Auction.sol\":8067:8652  function withdraw() public override returns (bool) {\r... */\n    tag_42:\n        /* \"contracts/11_Auction.sol\":8112:8116  bool */\n      0x00\n        /* \"contracts/11_Auction.sol\":8175:8186  uint amount */\n      dup1\n        /* \"contracts/11_Auction.sol\":8189:8193  bids */\n      0x08\n        /* \"contracts/11_Auction.sol\":8189:8205  bids[msg.sender] */\n      0x00\n        /* \"contracts/11_Auction.sol\":8194:8204  msg.sender */\n      caller\n        /* \"contracts/11_Auction.sol\":8189:8205  bids[msg.sender] */\n      0xffffffffffffffffffffffffffffffffffffffff\n      and\n      0xffffffffffffffffffffffffffffffffffffffff\n      and\n      dup2\n      mstore\n      0x20\n      add\n      swap1\n      dup2\n      mstore\n      0x20\n      add\n      0x00\n      keccak256\n      sload\n        /* \"contracts/11_Auction.sol\":8175:8205  uint amount = bids[msg.sender] */\n      swap1\n      pop\n        /* \"contracts/11_Auction.sol\":8233:8234  0 */\n      0x00\n        /* \"contracts/11_Auction.sol\":8224:8230  amount */\n      dup2\n        /* \"contracts/11_Auction.sol\":8224:8234  amount > 0 */\n      gt\n        /* \"contracts/11_Auction.sol\":8216:8259  require(amount > 0, \"No funds to withdraw\") */\n      tag_136\n      jumpi\n      mload(0x40)\n      0x08c379a000000000000000000000000000000000000000000000000000000000\n      dup2\n      mstore\n      0x04\n      add\n      tag_137\n      swap1\n      tag_138\n      jump\t// in\n    tag_137:\n      mload(0x40)\n      dup1\n      swap2\n      sub\n      swap1\n      revert\n    tag_136:\n        /* \"contracts/11_Auction.sol\":8335:8336  0 */\n      0x00\n        /* \"contracts/11_Auction.sol\":8316:8320  bids */\n      0x08\n        /* \"contracts/11_Auction.sol\":8316:8332  bids[msg.sender] */\n      0x00\n        /* \"contracts/11_Auction.sol\":8321:8331  msg.sender */\n      caller\n        /* \"contracts/11_Auction.sol\":8316:8332  bids[msg.sender] */\n      0xffffffffffffffffffffffffffffffffffffffff\n      and\n      0xffffffffffffffffffffffffffffffffffffffff\n      and\n      dup2\n      mstore\n      0x20\n      add\n      swap1\n      dup2\n      mstore\n      0x20\n      add\n      0x00\n      keccak256\n        /* \"contracts/11_Auction.sol\":8316:8336  bids[msg.sender] = 0 */\n      dup2\n      swap1\n      sstore\n      pop\n        /* \"contracts/11_Auction.sol\":8392:8404  bool success */\n      0x00\n        /* \"contracts/11_Auction.sol\":8418:8428  msg.sender */\n      caller\n        /* \"contracts/11_Auction.sol\":8410:8434  payable(msg.sender).call */\n      0xffffffffffffffffffffffffffffffffffffffff\n      and\n        /* \"contracts/11_Auction.sol\":8442:8448  amount */\n      dup3\n        /* \"contracts/11_Auction.sol\":8410:8453  payable(msg.sender).call{value: amount}(\"\") */\n      mload(0x40)\n      tag_139\n      swap1\n      tag_140\n      jump\t// in\n    tag_139:\n      0x00\n      mload(0x40)\n      dup1\n      dup4\n      sub\n      dup2\n      dup6\n      dup8\n      gas\n      call\n      swap3\n      pop\n      pop\n      pop\n      returndatasize\n      dup1\n      0x00\n      dup2\n      eq\n      tag_143\n      jumpi\n      mload(0x40)\n      swap2\n      pop\n      and(add(returndatasize, 0x3f), not(0x1f))\n      dup3\n      add\n      0x40\n      mstore\n      returndatasize\n      dup3\n      mstore\n      returndatasize\n      0x00\n      0x20\n      dup5\n      add\n      returndatacopy\n      jump(tag_142)\n    tag_143:\n      0x60\n      swap2\n      pop\n    tag_142:\n      pop\n        /* \"contracts/11_Auction.sol\":8391:8453  (bool success, ) = payable(msg.sender).call{value: amount}(\"\") */\n      pop\n      swap1\n      pop\n        /* \"contracts/11_Auction.sol\":8506:8513  success */\n      dup1\n        /* \"contracts/11_Auction.sol\":8498:8533  require(success, \"Transfer failed\") */\n      tag_144\n      jumpi\n      mload(0x40)\n      0x08c379a000000000000000000000000000000000000000000000000000000000\n      dup2\n      mstore\n      0x04\n      add\n      tag_145\n      swap1\n      tag_146\n      jump\t// in\n    tag_145:\n      mload(0x40)\n      dup1\n      swap2\n      sub\n      swap1\n      revert\n    tag_144:\n        /* \"contracts/11_Auction.sol\":8587:8622  WithdrawalEvent(msg.sender, amount) */\n      0x2f174ca282119315c59efaf21147aef438581dabdeb498198ae28964373dd8bc\n        /* \"contracts/11_Auction.sol\":8603:8613  msg.sender */\n      caller\n        /* \"contracts/11_Auction.sol\":8615:8621  amount */\n      dup4\n        /* \"contracts/11_Auction.sol\":8587:8622  WithdrawalEvent(msg.sender, amount) */\n      mload(0x40)\n      tag_147\n      swap3\n      swap2\n      swap1\n      tag_148\n      jump\t// in\n    tag_147:\n      mload(0x40)\n      dup1\n      swap2\n      sub\n      swap1\n      log1\n        /* \"contracts/11_Auction.sol\":8640:8644  true */\n      0x01\n        /* \"contracts/11_Auction.sol\":8633:8644  return true */\n      swap3\n      pop\n      pop\n      pop\n        /* \"contracts/11_Auction.sol\":8067:8652  function withdraw() public override returns (bool) {\r... */\n      swap1\n      jump\t// out\n        /* \"contracts/11_Auction.sol\":1230:1266  mapping(address => uint) public bids */\n    tag_48:\n      mstore(0x20, 0x08)\n      dup1\n      0x00\n      mstore\n      keccak256(0x00, 0x40)\n      0x00\n      swap2\n      pop\n      swap1\n      pop\n      sload\n      dup2\n      jump\t// out\n        /* \"contracts/11_Auction.sol\":410:438  uint256 public auction_start */\n    tag_53:\n      sload(0x01)\n      dup2\n      jump\t// out\n        /* \"contracts/11_Auction.sol\":619:647  address public highestBidder */\n    tag_57:\n      0x04\n      0x00\n      swap1\n      sload\n      swap1\n      0x0100\n      exp\n      swap1\n      div\n      0xffffffffffffffffffffffffffffffffffffffff\n      and\n      dup2\n      jump\t// out\n        /* \"contracts/11_Auction.sol\":5162:5728  function cancelBid() public returns (bool) {\r... */\n    tag_61:\n        /* \"contracts/11_Auction.sol\":5199:5203  bool */\n      0x00\n        /* \"contracts/11_Auction.sol\":5243:5244  0 */\n      dup1\n        /* \"contracts/11_Auction.sol\":5224:5228  bids */\n      0x08\n        /* \"contracts/11_Auction.sol\":5224:5240  bids[msg.sender] */\n      0x00\n        /* \"contracts/11_Auction.sol\":5229:5239  msg.sender */\n      caller\n        /* \"contracts/11_Auction.sol\":5224:5240  bids[msg.sender] */\n      0xffffffffffffffffffffffffffffffffffffffff\n      and\n      0xffffffffffffffffffffffffffffffffffffffff\n      and\n      dup2\n      mstore\n      0x20\n      add\n      swap1\n      dup2\n      mstore\n      0x20\n      add\n      0x00\n      keccak256\n      sload\n        /* \"contracts/11_Auction.sol\":5224:5244  bids[msg.sender] > 0 */\n      gt\n        /* \"contracts/11_Auction.sol\":5216:5281  require(bids[msg.sender] > 0, \"You have no active bid to cancel\") */\n      tag_150\n      jumpi\n      mload(0x40)\n      0x08c379a000000000000000000000000000000000000000000000000000000000\n      dup2\n      mstore\n      0x04\n      add\n      tag_151\n      swap1\n      tag_152\n      jump\t// in\n    tag_151:\n      mload(0x40)\n      dup1\n      swap2\n      sub\n      swap1\n      revert\n    tag_150:\n        /* \"contracts/11_Auction.sol\":5314:5327  highestBidder */\n      0x04\n      0x00\n      swap1\n      sload\n      swap1\n      0x0100\n      exp\n      swap1\n      div\n      0xffffffffffffffffffffffffffffffffffffffff\n      and\n        /* \"contracts/11_Auction.sol\":5300:5327  msg.sender != highestBidder */\n      0xffffffffffffffffffffffffffffffffffffffff\n      and\n        /* \"contracts/11_Auction.sol\":5300:5310  msg.sender */\n      caller\n        /* \"contracts/11_Auction.sol\":5300:5327  msg.sender != highestBidder */\n      0xffffffffffffffffffffffffffffffffffffffff\n      and\n      eq\n      iszero\n        /* \"contracts/11_Auction.sol\":5292:5361  require(msg.sender != highestBidder, \"Cannot cancel the highest bid\") */\n      tag_153\n      jumpi\n      mload(0x40)\n      0x08c379a000000000000000000000000000000000000000000000000000000000\n      dup2\n      mstore\n      0x04\n      add\n      tag_154\n      swap1\n      tag_155\n      jump\t// in\n    tag_154:\n      mload(0x40)\n      dup1\n      swap2\n      sub\n      swap1\n      revert\n    tag_153:\n        /* \"contracts/11_Auction.sol\":5374:5385  uint amount */\n      0x00\n        /* \"contracts/11_Auction.sol\":5388:5392  bids */\n      0x08\n        /* \"contracts/11_Auction.sol\":5388:5404  bids[msg.sender] */\n      0x00\n        /* \"contracts/11_Auction.sol\":5393:5403  msg.sender */\n      caller\n        /* \"contracts/11_Auction.sol\":5388:5404  bids[msg.sender] */\n      0xffffffffffffffffffffffffffffffffffffffff\n      and\n      0xffffffffffffffffffffffffffffffffffffffff\n      and\n      dup2\n      mstore\n      0x20\n      add\n      swap1\n      dup2\n      mstore\n      0x20\n      add\n      0x00\n      keccak256\n      sload\n        /* \"contracts/11_Auction.sol\":5374:5404  uint amount = bids[msg.sender] */\n      swap1\n      pop\n        /* \"contracts/11_Auction.sol\":5434:5435  0 */\n      0x00\n        /* \"contracts/11_Auction.sol\":5415:5419  bids */\n      0x08\n        /* \"contracts/11_Auction.sol\":5415:5431  bids[msg.sender] */\n      0x00\n        /* \"contracts/11_Auction.sol\":5420:5430  msg.sender */\n      caller\n        /* \"contracts/11_Auction.sol\":5415:5431  bids[msg.sender] */\n      0xffffffffffffffffffffffffffffffffffffffff\n      and\n      0xffffffffffffffffffffffffffffffffffffffff\n      and\n      dup2\n      mstore\n      0x20\n      add\n      swap1\n      dup2\n      mstore\n      0x20\n      add\n      0x00\n      keccak256\n        /* \"contracts/11_Auction.sol\":5415:5435  bids[msg.sender] = 0 */\n      dup2\n      swap1\n      sstore\n      pop\n        /* \"contracts/11_Auction.sol\":5520:5545  _removeBidder(msg.sender) */\n      tag_156\n        /* \"contracts/11_Auction.sol\":5534:5544  msg.sender */\n      caller\n        /* \"contracts/11_Auction.sol\":5520:5533  _removeBidder */\n      tag_157\n        /* \"contracts/11_Auction.sol\":5520:5545  _removeBidder(msg.sender) */\n      jump\t// in\n    tag_156:\n        /* \"contracts/11_Auction.sol\":5566:5576  msg.sender */\n      caller\n        /* \"contracts/11_Auction.sol\":5558:5586  payable(msg.sender).transfer */\n      0xffffffffffffffffffffffffffffffffffffffff\n      and\n        /* \"contracts/11_Auction.sol\":5558:5594  payable(msg.sender).transfer(amount) */\n      0x08fc\n        /* \"contracts/11_Auction.sol\":5587:5593  amount */\n      dup3\n        /* \"contracts/11_Auction.sol\":5558:5594  payable(msg.sender).transfer(amount) */\n      swap1\n      dup2\n      iszero\n      mul\n      swap1\n      mload(0x40)\n      0x00\n      mload(0x40)\n      dup1\n      dup4\n      sub\n      dup2\n      dup6\n      dup9\n      dup9\n      call\n      swap4\n      pop\n      pop\n      pop\n      pop\n      iszero\n      dup1\n      iszero\n      tag_159\n      jumpi\n      returndatasize\n      0x00\n      dup1\n      returndatacopy\n      revert(0x00, returndatasize)\n    tag_159:\n      pop\n        /* \"contracts/11_Auction.sol\":5629:5664  WithdrawalEvent(msg.sender, amount) */\n      0x2f174ca282119315c59efaf21147aef438581dabdeb498198ae28964373dd8bc\n        /* \"contracts/11_Auction.sol\":5645:5655  msg.sender */\n      caller\n        /* \"contracts/11_Auction.sol\":5657:5663  amount */\n      dup3\n        /* \"contracts/11_Auction.sol\":5629:5664  WithdrawalEvent(msg.sender, amount) */\n      mload(0x40)\n      tag_160\n      swap3\n      swap2\n      swap1\n      tag_148\n      jump\t// in\n    tag_160:\n      mload(0x40)\n      dup1\n      swap2\n      sub\n      swap1\n      log1\n        /* \"contracts/11_Auction.sol\":5716:5720  true */\n      0x01\n        /* \"contracts/11_Auction.sol\":5709:5720  return true */\n      swap2\n      pop\n      pop\n        /* \"contracts/11_Auction.sol\":5162:5728  function cancelBid() public returns (bool) {\r... */\n      swap1\n      jump\t// out\n        /* \"contracts/11_Auction.sol\":476:502  uint256 public auction_end */\n    tag_65:\n      sload(0x02)\n      dup2\n      jump\t// out\n        /* \"contracts/11_Auction.sol\":1417:1443  auction_state public STATE */\n    tag_69:\n      0x09\n      0x00\n      swap1\n      sload\n      swap1\n      0x0100\n      exp\n      swap1\n      div\n      0xff\n      and\n      dup2\n      jump\t// out\n        /* \"contracts/11_Auction.sol\":543:568  uint256 public highestBid */\n    tag_74:\n      sload(0x03)\n      dup2\n      jump\t// out\n        /* \"contracts/11_Auction.sol\":7608:7981  function withdrawRemainingFunds() external only_owner {\r... */\n    tag_78:\n        /* \"contracts/11_Auction.sol\":2020:2033  auction_owner */\n      0x00\n      dup1\n      sload\n      swap1\n      0x0100\n      exp\n      swap1\n      div\n      0xffffffffffffffffffffffffffffffffffffffff\n      and\n        /* \"contracts/11_Auction.sol\":2006:2033  msg.sender == auction_owner */\n      0xffffffffffffffffffffffffffffffffffffffff\n      and\n        /* \"contracts/11_Auction.sol\":2006:2016  msg.sender */\n      caller\n        /* \"contracts/11_Auction.sol\":2006:2033  msg.sender == auction_owner */\n      0xffffffffffffffffffffffffffffffffffffffff\n      and\n      eq\n        /* \"contracts/11_Auction.sol\":1998:2070  require(msg.sender == auction_owner, \"Only auction owner can call this\") */\n      tag_162\n      jumpi\n      mload(0x40)\n      0x08c379a000000000000000000000000000000000000000000000000000000000\n      dup2\n      mstore\n      0x04\n      add\n      tag_163\n      swap1\n      tag_119\n      jump\t// in\n    tag_163:\n      mload(0x40)\n      dup1\n      swap2\n      sub\n      swap1\n      revert\n    tag_162:\n        /* \"contracts/11_Auction.sol\":7706:7718  uint balance */\n      0x00\n        /* \"contracts/11_Auction.sol\":7721:7742  address(this).balance */\n      selfbalance\n        /* \"contracts/11_Auction.sol\":7706:7742  uint balance = address(this).balance */\n      swap1\n      pop\n        /* \"contracts/11_Auction.sol\":7771:7772  0 */\n      0x00\n        /* \"contracts/11_Auction.sol\":7761:7768  balance */\n      dup2\n        /* \"contracts/11_Auction.sol\":7761:7772  balance > 0 */\n      gt\n        /* \"contracts/11_Auction.sol\":7753:7806  require(balance > 0, \"No funds left in the contract\") */\n      tag_165\n      jumpi\n      mload(0x40)\n      0x08c379a000000000000000000000000000000000000000000000000000000000\n      dup2\n      mstore\n      0x04\n      add\n      tag_166\n      swap1\n      tag_167\n      jump\t// in\n    tag_166:\n      mload(0x40)\n      dup1\n      swap2\n      sub\n      swap1\n      revert\n    tag_165:\n        /* \"contracts/11_Auction.sol\":7862:7874  bool success */\n      0x00\n        /* \"contracts/11_Auction.sol\":7888:7901  auction_owner */\n      dup1\n      0x00\n      swap1\n      sload\n      swap1\n      0x0100\n      exp\n      swap1\n      div\n      0xffffffffffffffffffffffffffffffffffffffff\n      and\n        /* \"contracts/11_Auction.sol\":7880:7907  payable(auction_owner).call */\n      0xffffffffffffffffffffffffffffffffffffffff\n      and\n        /* \"contracts/11_Auction.sol\":7915:7922  balance */\n      dup3\n        /* \"contracts/11_Auction.sol\":7880:7927  payable(auction_owner).call{value: balance}(\"\") */\n      mload(0x40)\n      tag_168\n      swap1\n      tag_140\n      jump\t// in\n    tag_168:\n      0x00\n      mload(0x40)\n      dup1\n      dup4\n      sub\n      dup2\n      dup6\n      dup8\n      gas\n      call\n      swap3\n      pop\n      pop\n      pop\n      returndatasize\n      dup1\n      0x00\n      dup2\n      eq\n      tag_171\n      jumpi\n      mload(0x40)\n      swap2\n      pop\n      and(add(returndatasize, 0x3f), not(0x1f))\n      dup3\n      add\n      0x40\n      mstore\n      returndatasize\n      dup3\n      mstore\n      returndatasize\n      0x00\n      0x20\n      dup5\n      add\n      returndatacopy\n      jump(tag_170)\n    tag_171:\n      0x60\n      swap2\n      pop\n    tag_170:\n      pop\n        /* \"contracts/11_Auction.sol\":7861:7927  (bool success, ) = payable(auction_owner).call{value: balance}(\"\") */\n      pop\n      swap1\n      pop\n        /* \"contracts/11_Auction.sol\":7946:7953  success */\n      dup1\n        /* \"contracts/11_Auction.sol\":7938:7973  require(success, \"Transfer failed\") */\n      tag_172\n      jumpi\n      mload(0x40)\n      0x08c379a000000000000000000000000000000000000000000000000000000000\n      dup2\n      mstore\n      0x04\n      add\n      tag_173\n      swap1\n      tag_146\n      jump\t// in\n    tag_173:\n      mload(0x40)\n      dup1\n      swap2\n      sub\n      swap1\n      revert\n    tag_172:\n        /* \"contracts/11_Auction.sol\":2081:2082  _ */\n      pop\n      pop\n        /* \"contracts/11_Auction.sol\":7608:7981  function withdrawRemainingFunds() external only_owner {\r... */\n      jump\t// out\n        /* \"contracts/11_Auction.sol\":6446:6703  function _isBidderAlreadyAdded(address bidder) internal view returns (bool) {\r... */\n    tag_110:\n        /* \"contracts/11_Auction.sol\":6516:6520  bool */\n      0x00\n        /* \"contracts/11_Auction.sol\":6538:6544  uint i */\n      dup1\n        /* \"contracts/11_Auction.sol\":6547:6548  0 */\n      0x00\n        /* \"contracts/11_Auction.sol\":6538:6548  uint i = 0 */\n      swap1\n      pop\n        /* \"contracts/11_Auction.sol\":6533:6673  for (uint i = 0; i < bidders.length; i++) {\r... */\n    tag_175:\n        /* \"contracts/11_Auction.sol\":6554:6561  bidders */\n      0x07\n        /* \"contracts/11_Auction.sol\":6554:6568  bidders.length */\n      dup1\n      sload\n      swap1\n      pop\n        /* \"contracts/11_Auction.sol\":6550:6551  i */\n      dup2\n        /* \"contracts/11_Auction.sol\":6550:6568  i < bidders.length */\n      lt\n        /* \"contracts/11_Auction.sol\":6533:6673  for (uint i = 0; i < bidders.length; i++) {\r... */\n      iszero\n      tag_176\n      jumpi\n        /* \"contracts/11_Auction.sol\":6608:6614  bidder */\n      dup3\n        /* \"contracts/11_Auction.sol\":6594:6614  bidders[i] == bidder */\n      0xffffffffffffffffffffffffffffffffffffffff\n      and\n        /* \"contracts/11_Auction.sol\":6594:6601  bidders */\n      0x07\n        /* \"contracts/11_Auction.sol\":6602:6603  i */\n      dup3\n        /* \"contracts/11_Auction.sol\":6594:6604  bidders[i] */\n      dup2\n      sload\n      dup2\n      lt\n      tag_178\n      jumpi\n      mstore(0x00, 0x4e487b7100000000000000000000000000000000000000000000000000000000)\n      mstore(0x04, 0x32)\n      revert(0x00, 0x24)\n    tag_178:\n      swap1\n      0x00\n      mstore\n      keccak256(0x00, 0x20)\n      add\n      0x00\n      swap1\n      sload\n      swap1\n      0x0100\n      exp\n      swap1\n      div\n      0xffffffffffffffffffffffffffffffffffffffff\n      and\n        /* \"contracts/11_Auction.sol\":6594:6614  bidders[i] == bidder */\n      0xffffffffffffffffffffffffffffffffffffffff\n      and\n      eq\n        /* \"contracts/11_Auction.sol\":6590:6662  if (bidders[i] == bidder) {\r... */\n      iszero\n      tag_180\n      jumpi\n        /* \"contracts/11_Auction.sol\":6642:6646  true */\n      0x01\n        /* \"contracts/11_Auction.sol\":6635:6646  return true */\n      swap2\n      pop\n      pop\n      jump(tag_174)\n        /* \"contracts/11_Auction.sol\":6590:6662  if (bidders[i] == bidder) {\r... */\n    tag_180:\n        /* \"contracts/11_Auction.sol\":6570:6573  i++ */\n      dup1\n      dup1\n      tag_181\n      swap1\n      tag_182\n      jump\t// in\n    tag_181:\n      swap2\n      pop\n      pop\n        /* \"contracts/11_Auction.sol\":6533:6673  for (uint i = 0; i < bidders.length; i++) {\r... */\n      jump(tag_175)\n    tag_176:\n      pop\n        /* \"contracts/11_Auction.sol\":6690:6695  false */\n      0x00\n        /* \"contracts/11_Auction.sol\":6683:6695  return false */\n      swap1\n      pop\n        /* \"contracts/11_Auction.sol\":6446:6703  function _isBidderAlreadyAdded(address bidder) internal view returns (bool) {\r... */\n    tag_174:\n      swap2\n      swap1\n      pop\n      jump\t// out\n        /* \"contracts/11_Auction.sol\":6217:6378  function _checkAuctionEnd() internal {\r... */\n    tag_115:\n        /* \"contracts/11_Auction.sol\":6288:6299  auction_end */\n      sload(0x02)\n        /* \"contracts/11_Auction.sol\":6269:6284  block.timestamp */\n      timestamp\n        /* \"contracts/11_Auction.sol\":6269:6299  block.timestamp >= auction_end */\n      lt\n        /* \"contracts/11_Auction.sol\":6265:6371  if (block.timestamp >= auction_end) {\r... */\n      tag_184\n      jumpi\n        /* \"contracts/11_Auction.sol\":6316:6359  updateAuctionState(auction_state.CANCELLED) */\n      tag_185\n        /* \"contracts/11_Auction.sol\":6335:6358  auction_state.CANCELLED */\n      0x00\n        /* \"contracts/11_Auction.sol\":6316:6334  updateAuctionState */\n      tag_125\n        /* \"contracts/11_Auction.sol\":6316:6359  updateAuctionState(auction_state.CANCELLED) */\n      jump\t// in\n    tag_185:\n        /* \"contracts/11_Auction.sol\":6265:6371  if (block.timestamp >= auction_end) {\r... */\n    tag_184:\n        /* \"contracts/11_Auction.sol\":6217:6378  function _checkAuctionEnd() internal {\r... */\n      jump\t// out\n        /* \"contracts/11_Auction.sol\":8867:9009  function updateAuctionState(auction_state newState) internal only_owner {\r... */\n    tag_125:\n        /* \"contracts/11_Auction.sol\":2020:2033  auction_owner */\n      0x00\n      dup1\n      sload\n      swap1\n      0x0100\n      exp\n      swap1\n      div\n      0xffffffffffffffffffffffffffffffffffffffff\n      and\n        /* \"contracts/11_Auction.sol\":2006:2033  msg.sender == auction_owner */\n      0xffffffffffffffffffffffffffffffffffffffff\n      and\n        /* \"contracts/11_Auction.sol\":2006:2016  msg.sender */\n      caller\n        /* \"contracts/11_Auction.sol\":2006:2033  msg.sender == auction_owner */\n      0xffffffffffffffffffffffffffffffffffffffff\n      and\n      eq\n        /* \"contracts/11_Auction.sol\":1998:2070  require(msg.sender == auction_owner, \"Only auction owner can call this\") */\n      tag_187\n      jumpi\n      mload(0x40)\n      0x08c379a000000000000000000000000000000000000000000000000000000000\n      dup2\n      mstore\n      0x04\n      add\n      tag_188\n      swap1\n      tag_119\n      jump\t// in\n    tag_188:\n      mload(0x40)\n      dup1\n      swap2\n      sub\n      swap1\n      revert\n    tag_187:\n        /* \"contracts/11_Auction.sol\":8958:8966  newState */\n      dup1\n        /* \"contracts/11_Auction.sol\":8950:8955  STATE */\n      0x09\n      0x00\n        /* \"contracts/11_Auction.sol\":8950:8966  STATE = newState */\n      0x0100\n      exp\n      dup2\n      sload\n      dup2\n      0xff\n      mul\n      not\n      and\n      swap1\n      dup4\n      0x01\n      dup2\n      gt\n      iszero\n      tag_190\n      jumpi\n      mstore(0x00, 0x4e487b7100000000000000000000000000000000000000000000000000000000)\n      mstore(0x04, 0x21)\n      revert(0x00, 0x24)\n    tag_190:\n      mul\n      or\n      swap1\n      sstore\n      pop\n        /* \"contracts/11_Auction.sol\":8982:9001  StateUpdated(STATE) */\n      0x23ad33ab6a13a00aa7d06cd167b2abd03dec86af3cf3cc91759dcd3ae8411887\n        /* \"contracts/11_Auction.sol\":8995:9000  STATE */\n      0x09\n      0x00\n      swap1\n      sload\n      swap1\n      0x0100\n      exp\n      swap1\n      div\n      0xff\n      and\n        /* \"contracts/11_Auction.sol\":8982:9001  StateUpdated(STATE) */\n      mload(0x40)\n      tag_191\n      swap2\n      swap1\n      tag_71\n      jump\t// in\n    tag_191:\n      mload(0x40)\n      dup1\n      swap2\n      sub\n      swap1\n      log1\n        /* \"contracts/11_Auction.sol\":8867:9009  function updateAuctionState(auction_state newState) internal only_owner {\r... */\n      pop\n      jump\t// out\n        /* \"contracts/11_Auction.sol\":5777:6128  function _removeBidder(address bidder) internal {\r... */\n    tag_157:\n        /* \"contracts/11_Auction.sol\":5841:5847  uint i */\n      0x00\n        /* \"contracts/11_Auction.sol\":5836:6121  for (uint i = 0; i < bidders.length; i++) {\r... */\n    tag_193:\n        /* \"contracts/11_Auction.sol\":5857:5864  bidders */\n      0x07\n        /* \"contracts/11_Auction.sol\":5857:5871  bidders.length */\n      dup1\n      sload\n      swap1\n      pop\n        /* \"contracts/11_Auction.sol\":5853:5854  i */\n      dup2\n        /* \"contracts/11_Auction.sol\":5853:5871  i < bidders.length */\n      lt\n        /* \"contracts/11_Auction.sol\":5836:6121  for (uint i = 0; i < bidders.length; i++) {\r... */\n      iszero\n      tag_194\n      jumpi\n        /* \"contracts/11_Auction.sol\":5911:5917  bidder */\n      dup2\n        /* \"contracts/11_Auction.sol\":5897:5917  bidders[i] == bidder */\n      0xffffffffffffffffffffffffffffffffffffffff\n      and\n        /* \"contracts/11_Auction.sol\":5897:5904  bidders */\n      0x07\n        /* \"contracts/11_Auction.sol\":5905:5906  i */\n      dup3\n        /* \"contracts/11_Auction.sol\":5897:5907  bidders[i] */\n      dup2\n      sload\n      dup2\n      lt\n      tag_196\n      jumpi\n      mstore(0x00, 0x4e487b7100000000000000000000000000000000000000000000000000000000)\n      mstore(0x04, 0x32)\n      revert(0x00, 0x24)\n    tag_196:\n      swap1\n      0x00\n      mstore\n      keccak256(0x00, 0x20)\n      add\n      0x00\n      swap1\n      sload\n      swap1\n      0x0100\n      exp\n      swap1\n      div\n      0xffffffffffffffffffffffffffffffffffffffff\n      and\n        /* \"contracts/11_Auction.sol\":5897:5917  bidders[i] == bidder */\n      0xffffffffffffffffffffffffffffffffffffffff\n      and\n      eq\n        /* \"contracts/11_Auction.sol\":5893:6110  if (bidders[i] == bidder) {\r... */\n      iszero\n      tag_198\n      jumpi\n        /* \"contracts/11_Auction.sol\":5951:5958  bidders */\n      0x07\n        /* \"contracts/11_Auction.sol\":5976:5977  1 */\n      0x01\n        /* \"contracts/11_Auction.sol\":5959:5966  bidders */\n      0x07\n        /* \"contracts/11_Auction.sol\":5959:5973  bidders.length */\n      dup1\n      sload\n      swap1\n      pop\n        /* \"contracts/11_Auction.sol\":5959:5977  bidders.length - 1 */\n      tag_199\n      swap2\n      swap1\n      tag_200\n      jump\t// in\n    tag_199:\n        /* \"contracts/11_Auction.sol\":5951:5978  bidders[bidders.length - 1] */\n      dup2\n      sload\n      dup2\n      lt\n      tag_201\n      jumpi\n      mstore(0x00, 0x4e487b7100000000000000000000000000000000000000000000000000000000)\n      mstore(0x04, 0x32)\n      revert(0x00, 0x24)\n    tag_201:\n      swap1\n      0x00\n      mstore\n      keccak256(0x00, 0x20)\n      add\n      0x00\n      swap1\n      sload\n      swap1\n      0x0100\n      exp\n      swap1\n      div\n      0xffffffffffffffffffffffffffffffffffffffff\n      and\n        /* \"contracts/11_Auction.sol\":5938:5945  bidders */\n      0x07\n        /* \"contracts/11_Auction.sol\":5946:5947  i */\n      dup3\n        /* \"contracts/11_Auction.sol\":5938:5948  bidders[i] */\n      dup2\n      sload\n      dup2\n      lt\n      tag_203\n      jumpi\n      mstore(0x00, 0x4e487b7100000000000000000000000000000000000000000000000000000000)\n      mstore(0x04, 0x32)\n      revert(0x00, 0x24)\n    tag_203:\n      swap1\n      0x00\n      mstore\n      keccak256(0x00, 0x20)\n      add\n      0x00\n        /* \"contracts/11_Auction.sol\":5938:5978  bidders[i] = bidders[bidders.length - 1] */\n      0x0100\n      exp\n      dup2\n      sload\n      dup2\n      0xffffffffffffffffffffffffffffffffffffffff\n      mul\n      not\n      and\n      swap1\n      dup4\n      0xffffffffffffffffffffffffffffffffffffffff\n      and\n      mul\n      or\n      swap1\n      sstore\n      pop\n        /* \"contracts/11_Auction.sol\":6030:6037  bidders */\n      0x07\n        /* \"contracts/11_Auction.sol\":6030:6043  bidders.pop() */\n      dup1\n      sload\n      dup1\n      tag_205\n      jumpi\n      mstore(0x00, 0x4e487b7100000000000000000000000000000000000000000000000000000000)\n      mstore(0x04, 0x31)\n      revert(0x00, 0x24)\n    tag_205:\n      0x01\n      swap1\n      sub\n      dup2\n      dup2\n      swap1\n      0x00\n      mstore\n      keccak256(0x00, 0x20)\n      add\n      exp(0x0100, 0x00)\n      dup2\n      sload\n      swap1\n      0xffffffffffffffffffffffffffffffffffffffff\n      mul\n      not\n      and\n      swap1\n      sstore\n      swap1\n      sstore\n        /* \"contracts/11_Auction.sol\":6089:6094  break */\n      jump(tag_194)\n        /* \"contracts/11_Auction.sol\":5893:6110  if (bidders[i] == bidder) {\r... */\n    tag_198:\n        /* \"contracts/11_Auction.sol\":5873:5876  i++ */\n      dup1\n      dup1\n      tag_207\n      swap1\n      tag_182\n      jump\t// in\n    tag_207:\n      swap2\n      pop\n      pop\n        /* \"contracts/11_Auction.sol\":5836:6121  for (uint i = 0; i < bidders.length; i++) {\r... */\n      jump(tag_193)\n    tag_194:\n      pop\n        /* \"contracts/11_Auction.sol\":5777:6128  function _removeBidder(address bidder) internal {\r... */\n      pop\n      jump\t// out\n        /* \"#utility.yul\":7:146   */\n    tag_209:\n      0x00\n        /* \"#utility.yul\":91:97   */\n      dup2\n        /* \"#utility.yul\":78:98   */\n      calldataload\n        /* \"#utility.yul\":69:98   */\n      swap1\n      pop\n        /* \"#utility.yul\":107:140   */\n      tag_211\n        /* \"#utility.yul\":134:139   */\n      dup2\n        /* \"#utility.yul\":107:140   */\n      tag_212\n      jump\t// in\n    tag_211:\n        /* \"#utility.yul\":59:146   */\n      swap3\n      swap2\n      pop\n      pop\n      jump\t// out\n        /* \"#utility.yul\":152:414   */\n    tag_47:\n      0x00\n        /* \"#utility.yul\":260:262   */\n      0x20\n        /* \"#utility.yul\":248:257   */\n      dup3\n        /* \"#utility.yul\":239:246   */\n      dup5\n        /* \"#utility.yul\":235:258   */\n      sub\n        /* \"#utility.yul\":231:263   */\n      slt\n        /* \"#utility.yul\":228:230   */\n      iszero\n      tag_214\n      jumpi\n        /* \"#utility.yul\":276:277   */\n      0x00\n        /* \"#utility.yul\":273:274   */\n      dup1\n        /* \"#utility.yul\":266:278   */\n      revert\n        /* \"#utility.yul\":228:230   */\n    tag_214:\n        /* \"#utility.yul\":319:320   */\n      0x00\n        /* \"#utility.yul\":344:397   */\n      tag_215\n        /* \"#utility.yul\":389:396   */\n      dup5\n        /* \"#utility.yul\":380:386   */\n      dup3\n        /* \"#utility.yul\":369:378   */\n      dup6\n        /* \"#utility.yul\":365:387   */\n      add\n        /* \"#utility.yul\":344:397   */\n      tag_209\n      jump\t// in\n    tag_215:\n        /* \"#utility.yul\":334:397   */\n      swap2\n      pop\n        /* \"#utility.yul\":290:407   */\n      pop\n        /* \"#utility.yul\":218:414   */\n      swap3\n      swap2\n      pop\n      pop\n      jump\t// out\n        /* \"#utility.yul\":420:538   */\n    tag_216:\n        /* \"#utility.yul\":507:531   */\n      tag_218\n        /* \"#utility.yul\":525:530   */\n      dup2\n        /* \"#utility.yul\":507:531   */\n      tag_219\n      jump\t// in\n    tag_218:\n        /* \"#utility.yul\":502:505   */\n      dup3\n        /* \"#utility.yul\":495:532   */\n      mstore\n        /* \"#utility.yul\":485:538   */\n      pop\n      pop\n      jump\t// out\n        /* \"#utility.yul\":544:653   */\n    tag_220:\n        /* \"#utility.yul\":625:646   */\n      tag_222\n        /* \"#utility.yul\":640:645   */\n      dup2\n        /* \"#utility.yul\":625:646   */\n      tag_223\n      jump\t// in\n    tag_222:\n        /* \"#utility.yul\":620:623   */\n      dup3\n        /* \"#utility.yul\":613:647   */\n      mstore\n        /* \"#utility.yul\":603:653   */\n      pop\n      pop\n      jump\t// out\n        /* \"#utility.yul\":659:818   */\n    tag_224:\n        /* \"#utility.yul\":760:811   */\n      tag_226\n        /* \"#utility.yul\":805:810   */\n      dup2\n        /* \"#utility.yul\":760:811   */\n      tag_227\n      jump\t// in\n    tag_226:\n        /* \"#utility.yul\":755:758   */\n      dup3\n        /* \"#utility.yul\":748:812   */\n      mstore\n        /* \"#utility.yul\":738:818   */\n      pop\n      pop\n      jump\t// out\n        /* \"#utility.yul\":824:971   */\n    tag_228:\n        /* \"#utility.yul\":919:964   */\n      tag_230\n        /* \"#utility.yul\":958:963   */\n      dup2\n        /* \"#utility.yul\":919:964   */\n      tag_231\n      jump\t// in\n    tag_230:\n        /* \"#utility.yul\":914:917   */\n      dup3\n        /* \"#utility.yul\":907:965   */\n      mstore\n        /* \"#utility.yul\":897:971   */\n      pop\n      pop\n      jump\t// out\n        /* \"#utility.yul\":977:1124   */\n    tag_232:\n        /* \"#utility.yul\":1072:1117   */\n      tag_234\n        /* \"#utility.yul\":1111:1116   */\n      dup2\n        /* \"#utility.yul\":1072:1117   */\n      tag_235\n      jump\t// in\n    tag_234:\n        /* \"#utility.yul\":1067:1070   */\n      dup3\n        /* \"#utility.yul\":1060:1118   */\n      mstore\n        /* \"#utility.yul\":1050:1124   */\n      pop\n      pop\n      jump\t// out\n        /* \"#utility.yul\":1130:1494   */\n    tag_236:\n      0x00\n        /* \"#utility.yul\":1246:1285   */\n      tag_238\n        /* \"#utility.yul\":1279:1284   */\n      dup3\n        /* \"#utility.yul\":1246:1285   */\n      tag_239\n      jump\t// in\n    tag_238:\n        /* \"#utility.yul\":1301:1372   */\n      tag_240\n        /* \"#utility.yul\":1365:1371   */\n      dup2\n        /* \"#utility.yul\":1360:1363   */\n      dup6\n        /* \"#utility.yul\":1301:1372   */\n      tag_241\n      jump\t// in\n    tag_240:\n        /* \"#utility.yul\":1294:1372   */\n      swap4\n      pop\n        /* \"#utility.yul\":1381:1433   */\n      tag_242\n        /* \"#utility.yul\":1426:1432   */\n      dup2\n        /* \"#utility.yul\":1421:1424   */\n      dup6\n        /* \"#utility.yul\":1414:1418   */\n      0x20\n        /* \"#utility.yul\":1407:1412   */\n      dup7\n        /* \"#utility.yul\":1403:1419   */\n      add\n        /* \"#utility.yul\":1381:1433   */\n      tag_243\n      jump\t// in\n    tag_242:\n        /* \"#utility.yul\":1458:1487   */\n      tag_244\n        /* \"#utility.yul\":1480:1486   */\n      dup2\n        /* \"#utility.yul\":1458:1487   */\n      tag_245\n      jump\t// in\n    tag_244:\n        /* \"#utility.yul\":1453:1456   */\n      dup5\n        /* \"#utility.yul\":1449:1488   */\n      add\n        /* \"#utility.yul\":1442:1488   */\n      swap2\n      pop\n        /* \"#utility.yul\":1222:1494   */\n      pop\n      swap3\n      swap2\n      pop\n      pop\n      jump\t// out\n        /* \"#utility.yul\":1500:1866   */\n    tag_246:\n      0x00\n        /* \"#utility.yul\":1663:1730   */\n      tag_248\n        /* \"#utility.yul\":1727:1729   */\n      0x1d\n        /* \"#utility.yul\":1722:1725   */\n      dup4\n        /* \"#utility.yul\":1663:1730   */\n      tag_241\n      jump\t// in\n    tag_248:\n        /* \"#utility.yul\":1656:1730   */\n      swap2\n      pop\n        /* \"#utility.yul\":1739:1832   */\n      tag_249\n        /* \"#utility.yul\":1828:1831   */\n      dup3\n        /* \"#utility.yul\":1739:1832   */\n      tag_250\n      jump\t// in\n    tag_249:\n        /* \"#utility.yul\":1857:1859   */\n      0x20\n        /* \"#utility.yul\":1852:1855   */\n      dup3\n        /* \"#utility.yul\":1848:1860   */\n      add\n        /* \"#utility.yul\":1841:1860   */\n      swap1\n      pop\n        /* \"#utility.yul\":1646:1866   */\n      swap2\n      swap1\n      pop\n      jump\t// out\n        /* \"#utility.yul\":1872:2238   */\n    tag_251:\n      0x00\n        /* \"#utility.yul\":2035:2102   */\n      tag_253\n        /* \"#utility.yul\":2099:2101   */\n      0x20\n        /* \"#utility.yul\":2094:2097   */\n      dup4\n        /* \"#utility.yul\":2035:2102   */\n      tag_241\n      jump\t// in\n    tag_253:\n        /* \"#utility.yul\":2028:2102   */\n      swap2\n      pop\n        /* \"#utility.yul\":2111:2204   */\n      tag_254\n        /* \"#utility.yul\":2200:2203   */\n      dup3\n        /* \"#utility.yul\":2111:2204   */\n      tag_255\n      jump\t// in\n    tag_254:\n        /* \"#utility.yul\":2229:2231   */\n      0x20\n        /* \"#utility.yul\":2224:2227   */\n      dup3\n        /* \"#utility.yul\":2220:2232   */\n      add\n        /* \"#utility.yul\":2213:2232   */\n      swap1\n      pop\n        /* \"#utility.yul\":2018:2238   */\n      swap2\n      swap1\n      pop\n      jump\t// out\n        /* \"#utility.yul\":2244:2610   */\n    tag_256:\n      0x00\n        /* \"#utility.yul\":2407:2474   */\n      tag_258\n        /* \"#utility.yul\":2471:2473   */\n      0x0f\n        /* \"#utility.yul\":2466:2469   */\n      dup4\n        /* \"#utility.yul\":2407:2474   */\n      tag_241\n      jump\t// in\n    tag_258:\n        /* \"#utility.yul\":2400:2474   */\n      swap2\n      pop\n        /* \"#utility.yul\":2483:2576   */\n      tag_259\n        /* \"#utility.yul\":2572:2575   */\n      dup3\n        /* \"#utility.yul\":2483:2576   */\n      tag_260\n      jump\t// in\n    tag_259:\n        /* \"#utility.yul\":2601:2603   */\n      0x20\n        /* \"#utility.yul\":2596:2599   */\n      dup3\n        /* \"#utility.yul\":2592:2604   */\n      add\n        /* \"#utility.yul\":2585:2604   */\n      swap1\n      pop\n        /* \"#utility.yul\":2390:2610   */\n      swap2\n      swap1\n      pop\n      jump\t// out\n        /* \"#utility.yul\":2616:2982   */\n    tag_261:\n      0x00\n        /* \"#utility.yul\":2779:2846   */\n      tag_263\n        /* \"#utility.yul\":2843:2845   */\n      0x18\n        /* \"#utility.yul\":2838:2841   */\n      dup4\n        /* \"#utility.yul\":2779:2846   */\n      tag_241\n      jump\t// in\n    tag_263:\n        /* \"#utility.yul\":2772:2846   */\n      swap2\n      pop\n        /* \"#utility.yul\":2855:2948   */\n      tag_264\n        /* \"#utility.yul\":2944:2947   */\n      dup3\n        /* \"#utility.yul\":2855:2948   */\n      tag_265\n      jump\t// in\n    tag_264:\n        /* \"#utility.yul\":2973:2975   */\n      0x20\n        /* \"#utility.yul\":2968:2971   */\n      dup3\n        /* \"#utility.yul\":2964:2976   */\n      add\n        /* \"#utility.yul\":2957:2976   */\n      swap1\n      pop\n        /* \"#utility.yul\":2762:2982   */\n      swap2\n      swap1\n      pop\n      jump\t// out\n        /* \"#utility.yul\":2988:3354   */\n    tag_266:\n      0x00\n        /* \"#utility.yul\":3151:3218   */\n      tag_268\n        /* \"#utility.yul\":3215:3217   */\n      0x14\n        /* \"#utility.yul\":3210:3213   */\n      dup4\n        /* \"#utility.yul\":3151:3218   */\n      tag_241\n      jump\t// in\n    tag_268:\n        /* \"#utility.yul\":3144:3218   */\n      swap2\n      pop\n        /* \"#utility.yul\":3227:3320   */\n      tag_269\n        /* \"#utility.yul\":3316:3319   */\n      dup3\n        /* \"#utility.yul\":3227:3320   */\n      tag_270\n      jump\t// in\n    tag_269:\n        /* \"#utility.yul\":3345:3347   */\n      0x20\n        /* \"#utility.yul\":3340:3343   */\n      dup3\n        /* \"#utility.yul\":3336:3348   */\n      add\n        /* \"#utility.yul\":3329:3348   */\n      swap1\n      pop\n        /* \"#utility.yul\":3134:3354   */\n      swap2\n      swap1\n      pop\n      jump\t// out\n        /* \"#utility.yul\":3360:3726   */\n    tag_271:\n      0x00\n        /* \"#utility.yul\":3523:3590   */\n      tag_273\n        /* \"#utility.yul\":3587:3589   */\n      0x20\n        /* \"#utility.yul\":3582:3585   */\n      dup4\n        /* \"#utility.yul\":3523:3590   */\n      tag_241\n      jump\t// in\n    tag_273:\n        /* \"#utility.yul\":3516:3590   */\n      swap2\n      pop\n        /* \"#utility.yul\":3599:3692   */\n      tag_274\n        /* \"#utility.yul\":3688:3691   */\n      dup3\n        /* \"#utility.yul\":3599:3692   */\n      tag_275\n      jump\t// in\n    tag_274:\n        /* \"#utility.yul\":3717:3719   */\n      0x20\n        /* \"#utility.yul\":3712:3715   */\n      dup3\n        /* \"#utility.yul\":3708:3720   */\n      add\n        /* \"#utility.yul\":3701:3720   */\n      swap1\n      pop\n        /* \"#utility.yul\":3506:3726   */\n      swap2\n      swap1\n      pop\n      jump\t// out\n        /* \"#utility.yul\":3732:4098   */\n    tag_276:\n      0x00\n        /* \"#utility.yul\":3895:3962   */\n      tag_278\n        /* \"#utility.yul\":3959:3961   */\n      0x23\n        /* \"#utility.yul\":3954:3957   */\n      dup4\n        /* \"#utility.yul\":3895:3962   */\n      tag_241\n      jump\t// in\n    tag_278:\n        /* \"#utility.yul\":3888:3962   */\n      swap2\n      pop\n        /* \"#utility.yul\":3971:4064   */\n      tag_279\n        /* \"#utility.yul\":4060:4063   */\n      dup3\n        /* \"#utility.yul\":3971:4064   */\n      tag_280\n      jump\t// in\n    tag_279:\n        /* \"#utility.yul\":4089:4091   */\n      0x40\n        /* \"#utility.yul\":4084:4087   */\n      dup3\n        /* \"#utility.yul\":4080:4092   */\n      add\n        /* \"#utility.yul\":4073:4092   */\n      swap1\n      pop\n        /* \"#utility.yul\":3878:4098   */\n      swap2\n      swap1\n      pop\n      jump\t// out\n        /* \"#utility.yul\":4104:4470   */\n    tag_281:\n      0x00\n        /* \"#utility.yul\":4267:4334   */\n      tag_283\n        /* \"#utility.yul\":4331:4333   */\n      0x1d\n        /* \"#utility.yul\":4326:4329   */\n      dup4\n        /* \"#utility.yul\":4267:4334   */\n      tag_241\n      jump\t// in\n    tag_283:\n        /* \"#utility.yul\":4260:4334   */\n      swap2\n      pop\n        /* \"#utility.yul\":4343:4436   */\n      tag_284\n        /* \"#utility.yul\":4432:4435   */\n      dup3\n        /* \"#utility.yul\":4343:4436   */\n      tag_285\n      jump\t// in\n    tag_284:\n        /* \"#utility.yul\":4461:4463   */\n      0x20\n        /* \"#utility.yul\":4456:4459   */\n      dup3\n        /* \"#utility.yul\":4452:4464   */\n      add\n        /* \"#utility.yul\":4445:4464   */\n      swap1\n      pop\n        /* \"#utility.yul\":4250:4470   */\n      swap2\n      swap1\n      pop\n      jump\t// out\n        /* \"#utility.yul\":4476:4842   */\n    tag_286:\n      0x00\n        /* \"#utility.yul\":4639:4706   */\n      tag_288\n        /* \"#utility.yul\":4703:4705   */\n      0x11\n        /* \"#utility.yul\":4698:4701   */\n      dup4\n        /* \"#utility.yul\":4639:4706   */\n      tag_241\n      jump\t// in\n    tag_288:\n        /* \"#utility.yul\":4632:4706   */\n      swap2\n      pop\n        /* \"#utility.yul\":4715:4808   */\n      tag_289\n        /* \"#utility.yul\":4804:4807   */\n      dup3\n        /* \"#utility.yul\":4715:4808   */\n      tag_290\n      jump\t// in\n    tag_289:\n        /* \"#utility.yul\":4833:4835   */\n      0x20\n        /* \"#utility.yul\":4828:4831   */\n      dup3\n        /* \"#utility.yul\":4824:4836   */\n      add\n        /* \"#utility.yul\":4817:4836   */\n      swap1\n      pop\n        /* \"#utility.yul\":4622:4842   */\n      swap2\n      swap1\n      pop\n      jump\t// out\n        /* \"#utility.yul\":4848:5214   */\n    tag_291:\n      0x00\n        /* \"#utility.yul\":5011:5078   */\n      tag_293\n        /* \"#utility.yul\":5075:5077   */\n      0x20\n        /* \"#utility.yul\":5070:5073   */\n      dup4\n        /* \"#utility.yul\":5011:5078   */\n      tag_241\n      jump\t// in\n    tag_293:\n        /* \"#utility.yul\":5004:5078   */\n      swap2\n      pop\n        /* \"#utility.yul\":5087:5180   */\n      tag_294\n        /* \"#utility.yul\":5176:5179   */\n      dup3\n        /* \"#utility.yul\":5087:5180   */\n      tag_295\n      jump\t// in\n    tag_294:\n        /* \"#utility.yul\":5205:5207   */\n      0x20\n        /* \"#utility.yul\":5200:5203   */\n      dup3\n        /* \"#utility.yul\":5196:5208   */\n      add\n        /* \"#utility.yul\":5189:5208   */\n      swap1\n      pop\n        /* \"#utility.yul\":4994:5214   */\n      swap2\n      swap1\n      pop\n      jump\t// out\n        /* \"#utility.yul\":5220:5618   */\n    tag_296:\n      0x00\n        /* \"#utility.yul\":5400:5483   */\n      tag_298\n        /* \"#utility.yul\":5481:5482   */\n      0x00\n        /* \"#utility.yul\":5476:5479   */\n      dup4\n        /* \"#utility.yul\":5400:5483   */\n      tag_299\n      jump\t// in\n    tag_298:\n        /* \"#utility.yul\":5393:5483   */\n      swap2\n      pop\n        /* \"#utility.yul\":5492:5585   */\n      tag_300\n        /* \"#utility.yul\":5581:5584   */\n      dup3\n        /* \"#utility.yul\":5492:5585   */\n      tag_301\n      jump\t// in\n    tag_300:\n        /* \"#utility.yul\":5610:5611   */\n      0x00\n        /* \"#utility.yul\":5605:5608   */\n      dup3\n        /* \"#utility.yul\":5601:5612   */\n      add\n        /* \"#utility.yul\":5594:5612   */\n      swap1\n      pop\n        /* \"#utility.yul\":5383:5618   */\n      swap2\n      swap1\n      pop\n      jump\t// out\n        /* \"#utility.yul\":5624:5742   */\n    tag_302:\n        /* \"#utility.yul\":5711:5735   */\n      tag_304\n        /* \"#utility.yul\":5729:5734   */\n      dup2\n        /* \"#utility.yul\":5711:5735   */\n      tag_305\n      jump\t// in\n    tag_304:\n        /* \"#utility.yul\":5706:5709   */\n      dup3\n        /* \"#utility.yul\":5699:5736   */\n      mstore\n        /* \"#utility.yul\":5689:5742   */\n      pop\n      pop\n      jump\t// out\n        /* \"#utility.yul\":5748:6127   */\n    tag_140:\n      0x00\n        /* \"#utility.yul\":5954:6101   */\n      tag_307\n        /* \"#utility.yul\":6097:6100   */\n      dup3\n        /* \"#utility.yul\":5954:6101   */\n      tag_296\n      jump\t// in\n    tag_307:\n        /* \"#utility.yul\":5947:6101   */\n      swap2\n      pop\n        /* \"#utility.yul\":6118:6121   */\n      dup2\n        /* \"#utility.yul\":6111:6121   */\n      swap1\n      pop\n        /* \"#utility.yul\":5936:6127   */\n      swap2\n      swap1\n      pop\n      jump\t// out\n        /* \"#utility.yul\":6133:6355   */\n    tag_28:\n      0x00\n        /* \"#utility.yul\":6264:6266   */\n      0x20\n        /* \"#utility.yul\":6253:6262   */\n      dup3\n        /* \"#utility.yul\":6249:6267   */\n      add\n        /* \"#utility.yul\":6241:6267   */\n      swap1\n      pop\n        /* \"#utility.yul\":6277:6348   */\n      tag_309\n        /* \"#utility.yul\":6345:6346   */\n      0x00\n        /* \"#utility.yul\":6334:6343   */\n      dup4\n        /* \"#utility.yul\":6330:6347   */\n      add\n        /* \"#utility.yul\":6321:6327   */\n      dup5\n        /* \"#utility.yul\":6277:6348   */\n      tag_216\n      jump\t// in\n    tag_309:\n        /* \"#utility.yul\":6231:6355   */\n      swap3\n      swap2\n      pop\n      pop\n      jump\t// out\n        /* \"#utility.yul\":6361:6693   */\n    tag_148:\n      0x00\n        /* \"#utility.yul\":6520:6522   */\n      0x40\n        /* \"#utility.yul\":6509:6518   */\n      dup3\n        /* \"#utility.yul\":6505:6523   */\n      add\n        /* \"#utility.yul\":6497:6523   */\n      swap1\n      pop\n        /* \"#utility.yul\":6533:6604   */\n      tag_311\n        /* \"#utility.yul\":6601:6602   */\n      0x00\n        /* \"#utility.yul\":6590:6599   */\n      dup4\n        /* \"#utility.yul\":6586:6603   */\n      add\n        /* \"#utility.yul\":6577:6583   */\n      dup6\n        /* \"#utility.yul\":6533:6604   */\n      tag_216\n      jump\t// in\n    tag_311:\n        /* \"#utility.yul\":6614:6686   */\n      tag_312\n        /* \"#utility.yul\":6682:6684   */\n      0x20\n        /* \"#utility.yul\":6671:6680   */\n      dup4\n        /* \"#utility.yul\":6667:6685   */\n      add\n        /* \"#utility.yul\":6658:6664   */\n      dup5\n        /* \"#utility.yul\":6614:6686   */\n      tag_302\n      jump\t// in\n    tag_312:\n        /* \"#utility.yul\":6487:6693   */\n      swap4\n      swap3\n      pop\n      pop\n      pop\n      jump\t// out\n        /* \"#utility.yul\":6699:6909   */\n    tag_32:\n      0x00\n        /* \"#utility.yul\":6824:6826   */\n      0x20\n        /* \"#utility.yul\":6813:6822   */\n      dup3\n        /* \"#utility.yul\":6809:6827   */\n      add\n        /* \"#utility.yul\":6801:6827   */\n      swap1\n      pop\n        /* \"#utility.yul\":6837:6902   */\n      tag_314\n        /* \"#utility.yul\":6899:6900   */\n      0x00\n        /* \"#utility.yul\":6888:6897   */\n      dup4\n        /* \"#utility.yul\":6884:6901   */\n      add\n        /* \"#utility.yul\":6875:6881   */\n      dup5\n        /* \"#utility.yul\":6837:6902   */\n      tag_220\n      jump\t// in\n    tag_314:\n        /* \"#utility.yul\":6791:6909   */\n      swap3\n      swap2\n      pop\n      pop\n      jump\t// out\n        /* \"#utility.yul\":6915:7165   */\n    tag_71:\n      0x00\n        /* \"#utility.yul\":7060:7062   */\n      0x20\n        /* \"#utility.yul\":7049:7058   */\n      dup3\n        /* \"#utility.yul\":7045:7063   */\n      add\n        /* \"#utility.yul\":7037:7063   */\n      swap1\n      pop\n        /* \"#utility.yul\":7073:7158   */\n      tag_316\n        /* \"#utility.yul\":7155:7156   */\n      0x00\n        /* \"#utility.yul\":7144:7153   */\n      dup4\n        /* \"#utility.yul\":7140:7157   */\n      add\n        /* \"#utility.yul\":7131:7137   */\n      dup5\n        /* \"#utility.yul\":7073:7158   */\n      tag_224\n      jump\t// in\n    tag_316:\n        /* \"#utility.yul\":7027:7165   */\n      swap3\n      swap2\n      pop\n      pop\n      jump\t// out\n        /* \"#utility.yul\":7171:7519   */\n    tag_134:\n      0x00\n        /* \"#utility.yul\":7338:7340   */\n      0x40\n        /* \"#utility.yul\":7327:7336   */\n      dup3\n        /* \"#utility.yul\":7323:7341   */\n      add\n        /* \"#utility.yul\":7315:7341   */\n      swap1\n      pop\n        /* \"#utility.yul\":7351:7430   */\n      tag_318\n        /* \"#utility.yul\":7427:7428   */\n      0x00\n        /* \"#utility.yul\":7416:7425   */\n      dup4\n        /* \"#utility.yul\":7412:7429   */\n      add\n        /* \"#utility.yul\":7403:7409   */\n      dup6\n        /* \"#utility.yul\":7351:7430   */\n      tag_228\n      jump\t// in\n    tag_318:\n        /* \"#utility.yul\":7440:7512   */\n      tag_319\n        /* \"#utility.yul\":7508:7510   */\n      0x20\n        /* \"#utility.yul\":7497:7506   */\n      dup4\n        /* \"#utility.yul\":7493:7511   */\n      add\n        /* \"#utility.yul\":7484:7490   */\n      dup5\n        /* \"#utility.yul\":7440:7512   */\n      tag_302\n      jump\t// in\n    tag_319:\n        /* \"#utility.yul\":7305:7519   */\n      swap4\n      swap3\n      pop\n      pop\n      pop\n      jump\t// out\n        /* \"#utility.yul\":7525:7873   */\n    tag_127:\n      0x00\n        /* \"#utility.yul\":7692:7694   */\n      0x40\n        /* \"#utility.yul\":7681:7690   */\n      dup3\n        /* \"#utility.yul\":7677:7695   */\n      add\n        /* \"#utility.yul\":7669:7695   */\n      swap1\n      pop\n        /* \"#utility.yul\":7705:7784   */\n      tag_321\n        /* \"#utility.yul\":7781:7782   */\n      0x00\n        /* \"#utility.yul\":7770:7779   */\n      dup4\n        /* \"#utility.yul\":7766:7783   */\n      add\n        /* \"#utility.yul\":7757:7763   */\n      dup6\n        /* \"#utility.yul\":7705:7784   */\n      tag_232\n      jump\t// in\n    tag_321:\n        /* \"#utility.yul\":7794:7866   */\n      tag_322\n        /* \"#utility.yul\":7862:7864   */\n      0x20\n        /* \"#utility.yul\":7851:7860   */\n      dup4\n        /* \"#utility.yul\":7847:7865   */\n      add\n        /* \"#utility.yul\":7838:7844   */\n      dup5\n        /* \"#utility.yul\":7794:7866   */\n      tag_302\n      jump\t// in\n    tag_322:\n        /* \"#utility.yul\":7659:7873   */\n      swap4\n      swap3\n      pop\n      pop\n      pop\n      jump\t// out\n        /* \"#utility.yul\":7879:8393   */\n    tag_23:\n      0x00\n        /* \"#utility.yul\":8078:8080   */\n      0x40\n        /* \"#utility.yul\":8067:8076   */\n      dup3\n        /* \"#utility.yul\":8063:8081   */\n      add\n        /* \"#utility.yul\":8055:8081   */\n      swap1\n      pop\n        /* \"#utility.yul\":8127:8136   */\n      dup2\n        /* \"#utility.yul\":8121:8125   */\n      dup2\n        /* \"#utility.yul\":8117:8137   */\n      sub\n        /* \"#utility.yul\":8113:8114   */\n      0x00\n        /* \"#utility.yul\":8102:8111   */\n      dup4\n        /* \"#utility.yul\":8098:8115   */\n      add\n        /* \"#utility.yul\":8091:8138   */\n      mstore\n        /* \"#utility.yul\":8155:8233   */\n      tag_324\n        /* \"#utility.yul\":8228:8232   */\n      dup2\n        /* \"#utility.yul\":8219:8225   */\n      dup6\n        /* \"#utility.yul\":8155:8233   */\n      tag_236\n      jump\t// in\n    tag_324:\n        /* \"#utility.yul\":8147:8233   */\n      swap1\n      pop\n        /* \"#utility.yul\":8280:8289   */\n      dup2\n        /* \"#utility.yul\":8274:8278   */\n      dup2\n        /* \"#utility.yul\":8270:8290   */\n      sub\n        /* \"#utility.yul\":8265:8267   */\n      0x20\n        /* \"#utility.yul\":8254:8263   */\n      dup4\n        /* \"#utility.yul\":8250:8268   */\n      add\n        /* \"#utility.yul\":8243:8291   */\n      mstore\n        /* \"#utility.yul\":8308:8386   */\n      tag_325\n        /* \"#utility.yul\":8381:8385   */\n      dup2\n        /* \"#utility.yul\":8372:8378   */\n      dup5\n        /* \"#utility.yul\":8308:8386   */\n      tag_236\n      jump\t// in\n    tag_325:\n        /* \"#utility.yul\":8300:8386   */\n      swap1\n      pop\n        /* \"#utility.yul\":8045:8393   */\n      swap4\n      swap3\n      pop\n      pop\n      pop\n      jump\t// out\n        /* \"#utility.yul\":8399:8818   */\n    tag_167:\n      0x00\n        /* \"#utility.yul\":8603:8605   */\n      0x20\n        /* \"#utility.yul\":8592:8601   */\n      dup3\n        /* \"#utility.yul\":8588:8606   */\n      add\n        /* \"#utility.yul\":8580:8606   */\n      swap1\n      pop\n        /* \"#utility.yul\":8652:8661   */\n      dup2\n        /* \"#utility.yul\":8646:8650   */\n      dup2\n        /* \"#utility.yul\":8642:8662   */\n      sub\n        /* \"#utility.yul\":8638:8639   */\n      0x00\n        /* \"#utility.yul\":8627:8636   */\n      dup4\n        /* \"#utility.yul\":8623:8640   */\n      add\n        /* \"#utility.yul\":8616:8663   */\n      mstore\n        /* \"#utility.yul\":8680:8811   */\n      tag_327\n        /* \"#utility.yul\":8806:8810   */\n      dup2\n        /* \"#utility.yul\":8680:8811   */\n      tag_246\n      jump\t// in\n    tag_327:\n        /* \"#utility.yul\":8672:8811   */\n      swap1\n      pop\n        /* \"#utility.yul\":8570:8818   */\n      swap2\n      swap1\n      pop\n      jump\t// out\n        /* \"#utility.yul\":8824:9243   */\n    tag_152:\n      0x00\n        /* \"#utility.yul\":9028:9030   */\n      0x20\n        /* \"#utility.yul\":9017:9026   */\n      dup3\n        /* \"#utility.yul\":9013:9031   */\n      add\n        /* \"#utility.yul\":9005:9031   */\n      swap1\n      pop\n        /* \"#utility.yul\":9077:9086   */\n      dup2\n        /* \"#utility.yul\":9071:9075   */\n      dup2\n        /* \"#utility.yul\":9067:9087   */\n      sub\n        /* \"#utility.yul\":9063:9064   */\n      0x00\n        /* \"#utility.yul\":9052:9061   */\n      dup4\n        /* \"#utility.yul\":9048:9065   */\n      add\n        /* \"#utility.yul\":9041:9088   */\n      mstore\n        /* \"#utility.yul\":9105:9236   */\n      tag_329\n        /* \"#utility.yul\":9231:9235   */\n      dup2\n        /* \"#utility.yul\":9105:9236   */\n      tag_251\n      jump\t// in\n    tag_329:\n        /* \"#utility.yul\":9097:9236   */\n      swap1\n      pop\n        /* \"#utility.yul\":8995:9243   */\n      swap2\n      swap1\n      pop\n      jump\t// out\n        /* \"#utility.yul\":9249:9668   */\n    tag_146:\n      0x00\n        /* \"#utility.yul\":9453:9455   */\n      0x20\n        /* \"#utility.yul\":9442:9451   */\n      dup3\n        /* \"#utility.yul\":9438:9456   */\n      add\n        /* \"#utility.yul\":9430:9456   */\n      swap1\n      pop\n        /* \"#utility.yul\":9502:9511   */\n      dup2\n        /* \"#utility.yul\":9496:9500   */\n      dup2\n        /* \"#utility.yul\":9492:9512   */\n      sub\n        /* \"#utility.yul\":9488:9489   */\n      0x00\n        /* \"#utility.yul\":9477:9486   */\n      dup4\n        /* \"#utility.yul\":9473:9490   */\n      add\n        /* \"#utility.yul\":9466:9513   */\n      mstore\n        /* \"#utility.yul\":9530:9661   */\n      tag_331\n        /* \"#utility.yul\":9656:9660   */\n      dup2\n        /* \"#utility.yul\":9530:9661   */\n      tag_256\n      jump\t// in\n    tag_331:\n        /* \"#utility.yul\":9522:9661   */\n      swap1\n      pop\n        /* \"#utility.yul\":9420:9668   */\n      swap2\n      swap1\n      pop\n      jump\t// out\n        /* \"#utility.yul\":9674:10093   */\n    tag_123:\n      0x00\n        /* \"#utility.yul\":9878:9880   */\n      0x20\n        /* \"#utility.yul\":9867:9876   */\n      dup3\n        /* \"#utility.yul\":9863:9881   */\n      add\n        /* \"#utility.yul\":9855:9881   */\n      swap1\n      pop\n        /* \"#utility.yul\":9927:9936   */\n      dup2\n        /* \"#utility.yul\":9921:9925   */\n      dup2\n        /* \"#utility.yul\":9917:9937   */\n      sub\n        /* \"#utility.yul\":9913:9914   */\n      0x00\n        /* \"#utility.yul\":9902:9911   */\n      dup4\n        /* \"#utility.yul\":9898:9915   */\n      add\n        /* \"#utility.yul\":9891:9938   */\n      mstore\n        /* \"#utility.yul\":9955:10086   */\n      tag_333\n        /* \"#utility.yul\":10081:10085   */\n      dup2\n        /* \"#utility.yul\":9955:10086   */\n      tag_261\n      jump\t// in\n    tag_333:\n        /* \"#utility.yul\":9947:10086   */\n      swap1\n      pop\n        /* \"#utility.yul\":9845:10093   */\n      swap2\n      swap1\n      pop\n      jump\t// out\n        /* \"#utility.yul\":10099:10518   */\n    tag_138:\n      0x00\n        /* \"#utility.yul\":10303:10305   */\n      0x20\n        /* \"#utility.yul\":10292:10301   */\n      dup3\n        /* \"#utility.yul\":10288:10306   */\n      add\n        /* \"#utility.yul\":10280:10306   */\n      swap1\n      pop\n        /* \"#utility.yul\":10352:10361   */\n      dup2\n        /* \"#utility.yul\":10346:10350   */\n      dup2\n        /* \"#utility.yul\":10342:10362   */\n      sub\n        /* \"#utility.yul\":10338:10339   */\n      0x00\n        /* \"#utility.yul\":10327:10336   */\n      dup4\n        /* \"#utility.yul\":10323:10340   */\n      add\n        /* \"#utility.yul\":10316:10363   */\n      mstore\n        /* \"#utility.yul\":10380:10511   */\n      tag_335\n        /* \"#utility.yul\":10506:10510   */\n      dup2\n        /* \"#utility.yul\":10380:10511   */\n      tag_266\n      jump\t// in\n    tag_335:\n        /* \"#utility.yul\":10372:10511   */\n      swap1\n      pop\n        /* \"#utility.yul\":10270:10518   */\n      swap2\n      swap1\n      pop\n      jump\t// out\n        /* \"#utility.yul\":10524:10943   */\n    tag_119:\n      0x00\n        /* \"#utility.yul\":10728:10730   */\n      0x20\n        /* \"#utility.yul\":10717:10726   */\n      dup3\n        /* \"#utility.yul\":10713:10731   */\n      add\n        /* \"#utility.yul\":10705:10731   */\n      swap1\n      pop\n        /* \"#utility.yul\":10777:10786   */\n      dup2\n        /* \"#utility.yul\":10771:10775   */\n      dup2\n        /* \"#utility.yul\":10767:10787   */\n      sub\n        /* \"#utility.yul\":10763:10764   */\n      0x00\n        /* \"#utility.yul\":10752:10761   */\n      dup4\n        /* \"#utility.yul\":10748:10765   */\n      add\n        /* \"#utility.yul\":10741:10788   */\n      mstore\n        /* \"#utility.yul\":10805:10936   */\n      tag_337\n        /* \"#utility.yul\":10931:10935   */\n      dup2\n        /* \"#utility.yul\":10805:10936   */\n      tag_271\n      jump\t// in\n    tag_337:\n        /* \"#utility.yul\":10797:10936   */\n      swap1\n      pop\n        /* \"#utility.yul\":10695:10943   */\n      swap2\n      swap1\n      pop\n      jump\t// out\n        /* \"#utility.yul\":10949:11368   */\n    tag_101:\n      0x00\n        /* \"#utility.yul\":11153:11155   */\n      0x20\n        /* \"#utility.yul\":11142:11151   */\n      dup3\n        /* \"#utility.yul\":11138:11156   */\n      add\n        /* \"#utility.yul\":11130:11156   */\n      swap1\n      pop\n        /* \"#utility.yul\":11202:11211   */\n      dup2\n        /* \"#utility.yul\":11196:11200   */\n      dup2\n        /* \"#utility.yul\":11192:11212   */\n      sub\n        /* \"#utility.yul\":11188:11189   */\n      0x00\n        /* \"#utility.yul\":11177:11186   */\n      dup4\n        /* \"#utility.yul\":11173:11190   */\n      add\n        /* \"#utility.yul\":11166:11213   */\n      mstore\n        /* \"#utility.yul\":11230:11361   */\n      tag_339\n        /* \"#utility.yul\":11356:11360   */\n      dup2\n        /* \"#utility.yul\":11230:11361   */\n      tag_276\n      jump\t// in\n    tag_339:\n        /* \"#utility.yul\":11222:11361   */\n      swap1\n      pop\n        /* \"#utility.yul\":11120:11368   */\n      swap2\n      swap1\n      pop\n      jump\t// out\n        /* \"#utility.yul\":11374:11793   */\n    tag_155:\n      0x00\n        /* \"#utility.yul\":11578:11580   */\n      0x20\n        /* \"#utility.yul\":11567:11576   */\n      dup3\n        /* \"#utility.yul\":11563:11581   */\n      add\n        /* \"#utility.yul\":11555:11581   */\n      swap1\n      pop\n        /* \"#utility.yul\":11627:11636   */\n      dup2\n        /* \"#utility.yul\":11621:11625   */\n      dup2\n        /* \"#utility.yul\":11617:11637   */\n      sub\n        /* \"#utility.yul\":11613:11614   */\n      0x00\n        /* \"#utility.yul\":11602:11611   */\n      dup4\n        /* \"#utility.yul\":11598:11615   */\n      add\n        /* \"#utility.yul\":11591:11638   */\n      mstore\n        /* \"#utility.yul\":11655:11786   */\n      tag_341\n        /* \"#utility.yul\":11781:11785   */\n      dup2\n        /* \"#utility.yul\":11655:11786   */\n      tag_281\n      jump\t// in\n    tag_341:\n        /* \"#utility.yul\":11647:11786   */\n      swap1\n      pop\n        /* \"#utility.yul\":11545:11793   */\n      swap2\n      swap1\n      pop\n      jump\t// out\n        /* \"#utility.yul\":11799:12218   */\n    tag_97:\n      0x00\n        /* \"#utility.yul\":12003:12005   */\n      0x20\n        /* \"#utility.yul\":11992:12001   */\n      dup3\n        /* \"#utility.yul\":11988:12006   */\n      add\n        /* \"#utility.yul\":11980:12006   */\n      swap1\n      pop\n        /* \"#utility.yul\":12052:12061   */\n      dup2\n        /* \"#utility.yul\":12046:12050   */\n      dup2\n        /* \"#utility.yul\":12042:12062   */\n      sub\n        /* \"#utility.yul\":12038:12039   */\n      0x00\n        /* \"#utility.yul\":12027:12036   */\n      dup4\n        /* \"#utility.yul\":12023:12040   */\n      add\n        /* \"#utility.yul\":12016:12063   */\n      mstore\n        /* \"#utility.yul\":12080:12211   */\n      tag_343\n        /* \"#utility.yul\":12206:12210   */\n      dup2\n        /* \"#utility.yul\":12080:12211   */\n      tag_286\n      jump\t// in\n    tag_343:\n        /* \"#utility.yul\":12072:12211   */\n      swap1\n      pop\n        /* \"#utility.yul\":11970:12218   */\n      swap2\n      swap1\n      pop\n      jump\t// out\n        /* \"#utility.yul\":12224:12643   */\n    tag_104:\n      0x00\n        /* \"#utility.yul\":12428:12430   */\n      0x20\n        /* \"#utility.yul\":12417:12426   */\n      dup3\n        /* \"#utility.yul\":12413:12431   */\n      add\n        /* \"#utility.yul\":12405:12431   */\n      swap1\n      pop\n        /* \"#utility.yul\":12477:12486   */\n      dup2\n        /* \"#utility.yul\":12471:12475   */\n      dup2\n        /* \"#utility.yul\":12467:12487   */\n      sub\n        /* \"#utility.yul\":12463:12464   */\n      0x00\n        /* \"#utility.yul\":12452:12461   */\n      dup4\n        /* \"#utility.yul\":12448:12465   */\n      add\n        /* \"#utility.yul\":12441:12488   */\n      mstore\n        /* \"#utility.yul\":12505:12636   */\n      tag_345\n        /* \"#utility.yul\":12631:12635   */\n      dup2\n        /* \"#utility.yul\":12505:12636   */\n      tag_291\n      jump\t// in\n    tag_345:\n        /* \"#utility.yul\":12497:12636   */\n      swap1\n      pop\n        /* \"#utility.yul\":12395:12643   */\n      swap2\n      swap1\n      pop\n      jump\t// out\n        /* \"#utility.yul\":12649:12871   */\n    tag_50:\n      0x00\n        /* \"#utility.yul\":12780:12782   */\n      0x20\n        /* \"#utility.yul\":12769:12778   */\n      dup3\n        /* \"#utility.yul\":12765:12783   */\n      add\n        /* \"#utility.yul\":12757:12783   */\n      swap1\n      pop\n        /* \"#utility.yul\":12793:12864   */\n      tag_347\n        /* \"#utility.yul\":12861:12862   */\n      0x00\n        /* \"#utility.yul\":12850:12859   */\n      dup4\n        /* \"#utility.yul\":12846:12863   */\n      add\n        /* \"#utility.yul\":12837:12843   */\n      dup5\n        /* \"#utility.yul\":12793:12864   */\n      tag_302\n      jump\t// in\n    tag_347:\n        /* \"#utility.yul\":12747:12871   */\n      swap3\n      swap2\n      pop\n      pop\n      jump\t// out\n        /* \"#utility.yul\":12877:12976   */\n    tag_239:\n      0x00\n        /* \"#utility.yul\":12963:12968   */\n      dup2\n        /* \"#utility.yul\":12957:12969   */\n      mload\n        /* \"#utility.yul\":12947:12969   */\n      swap1\n      pop\n        /* \"#utility.yul\":12936:12976   */\n      swap2\n      swap1\n      pop\n      jump\t// out\n        /* \"#utility.yul\":12982:13129   */\n    tag_299:\n      0x00\n        /* \"#utility.yul\":13120:13123   */\n      dup2\n        /* \"#utility.yul\":13105:13123   */\n      swap1\n      pop\n        /* \"#utility.yul\":13095:13129   */\n      swap3\n      swap2\n      pop\n      pop\n      jump\t// out\n        /* \"#utility.yul\":13135:13304   */\n    tag_241:\n      0x00\n        /* \"#utility.yul\":13253:13259   */\n      dup3\n        /* \"#utility.yul\":13248:13251   */\n      dup3\n        /* \"#utility.yul\":13241:13260   */\n      mstore\n        /* \"#utility.yul\":13293:13297   */\n      0x20\n        /* \"#utility.yul\":13288:13291   */\n      dup3\n        /* \"#utility.yul\":13284:13298   */\n      add\n        /* \"#utility.yul\":13269:13298   */\n      swap1\n      pop\n        /* \"#utility.yul\":13231:13304   */\n      swap3\n      swap2\n      pop\n      pop\n      jump\t// out\n        /* \"#utility.yul\":13310:13501   */\n    tag_200:\n      0x00\n        /* \"#utility.yul\":13370:13390   */\n      tag_352\n        /* \"#utility.yul\":13388:13389   */\n      dup3\n        /* \"#utility.yul\":13370:13390   */\n      tag_305\n      jump\t// in\n    tag_352:\n        /* \"#utility.yul\":13365:13390   */\n      swap2\n      pop\n        /* \"#utility.yul\":13404:13424   */\n      tag_353\n        /* \"#utility.yul\":13422:13423   */\n      dup4\n        /* \"#utility.yul\":13404:13424   */\n      tag_305\n      jump\t// in\n    tag_353:\n        /* \"#utility.yul\":13399:13424   */\n      swap3\n      pop\n        /* \"#utility.yul\":13443:13444   */\n      dup3\n        /* \"#utility.yul\":13440:13441   */\n      dup3\n        /* \"#utility.yul\":13437:13445   */\n      lt\n        /* \"#utility.yul\":13434:13436   */\n      iszero\n      tag_354\n      jumpi\n        /* \"#utility.yul\":13448:13466   */\n      tag_355\n      tag_356\n      jump\t// in\n    tag_355:\n        /* \"#utility.yul\":13434:13436   */\n    tag_354:\n        /* \"#utility.yul\":13493:13494   */\n      dup3\n        /* \"#utility.yul\":13490:13491   */\n      dup3\n        /* \"#utility.yul\":13486:13495   */\n      sub\n        /* \"#utility.yul\":13478:13495   */\n      swap1\n      pop\n        /* \"#utility.yul\":13355:13501   */\n      swap3\n      swap2\n      pop\n      pop\n      jump\t// out\n        /* \"#utility.yul\":13507:13603   */\n    tag_219:\n      0x00\n        /* \"#utility.yul\":13573:13597   */\n      tag_358\n        /* \"#utility.yul\":13591:13596   */\n      dup3\n        /* \"#utility.yul\":13573:13597   */\n      tag_359\n      jump\t// in\n    tag_358:\n        /* \"#utility.yul\":13562:13597   */\n      swap1\n      pop\n        /* \"#utility.yul\":13552:13603   */\n      swap2\n      swap1\n      pop\n      jump\t// out\n        /* \"#utility.yul\":13609:13699   */\n    tag_223:\n      0x00\n        /* \"#utility.yul\":13686:13691   */\n      dup2\n        /* \"#utility.yul\":13679:13692   */\n      iszero\n        /* \"#utility.yul\":13672:13693   */\n      iszero\n        /* \"#utility.yul\":13661:13693   */\n      swap1\n      pop\n        /* \"#utility.yul\":13651:13699   */\n      swap2\n      swap1\n      pop\n      jump\t// out\n        /* \"#utility.yul\":13705:13848   */\n    tag_361:\n      0x00\n        /* \"#utility.yul\":13787:13792   */\n      dup2\n        /* \"#utility.yul\":13776:13792   */\n      swap1\n      pop\n        /* \"#utility.yul\":13793:13842   */\n      tag_363\n        /* \"#utility.yul\":13836:13841   */\n      dup3\n        /* \"#utility.yul\":13793:13842   */\n      tag_364\n      jump\t// in\n    tag_363:\n        /* \"#utility.yul\":13766:13848   */\n      swap2\n      swap1\n      pop\n      jump\t// out\n        /* \"#utility.yul\":13854:13980   */\n    tag_359:\n      0x00\n        /* \"#utility.yul\":13931:13973   */\n      0xffffffffffffffffffffffffffffffffffffffff\n        /* \"#utility.yul\":13924:13929   */\n      dup3\n        /* \"#utility.yul\":13920:13974   */\n      and\n        /* \"#utility.yul\":13909:13974   */\n      swap1\n      pop\n        /* \"#utility.yul\":13899:13980   */\n      swap2\n      swap1\n      pop\n      jump\t// out\n        /* \"#utility.yul\":13986:14063   */\n    tag_305:\n      0x00\n        /* \"#utility.yul\":14052:14057   */\n      dup2\n        /* \"#utility.yul\":14041:14057   */\n      swap1\n      pop\n        /* \"#utility.yul\":14031:14063   */\n      swap2\n      swap1\n      pop\n      jump\t// out\n        /* \"#utility.yul\":14069:14212   */\n    tag_227:\n      0x00\n        /* \"#utility.yul\":14166:14206   */\n      tag_368\n        /* \"#utility.yul\":14200:14205   */\n      dup3\n        /* \"#utility.yul\":14166:14206   */\n      tag_361\n      jump\t// in\n    tag_368:\n        /* \"#utility.yul\":14153:14206   */\n      swap1\n      pop\n        /* \"#utility.yul\":14143:14212   */\n      swap2\n      swap1\n      pop\n      jump\t// out\n        /* \"#utility.yul\":14218:14339   */\n    tag_231:\n      0x00\n        /* \"#utility.yul\":14309:14333   */\n      tag_370\n        /* \"#utility.yul\":14327:14332   */\n      dup3\n        /* \"#utility.yul\":14309:14333   */\n      tag_305\n      jump\t// in\n    tag_370:\n        /* \"#utility.yul\":14296:14333   */\n      swap1\n      pop\n        /* \"#utility.yul\":14286:14339   */\n      swap2\n      swap1\n      pop\n      jump\t// out\n        /* \"#utility.yul\":14345:14466   */\n    tag_235:\n      0x00\n        /* \"#utility.yul\":14436:14460   */\n      tag_372\n        /* \"#utility.yul\":14454:14459   */\n      dup3\n        /* \"#utility.yul\":14436:14460   */\n      tag_305\n      jump\t// in\n    tag_372:\n        /* \"#utility.yul\":14423:14460   */\n      swap1\n      pop\n        /* \"#utility.yul\":14413:14466   */\n      swap2\n      swap1\n      pop\n      jump\t// out\n        /* \"#utility.yul\":14472:14779   */\n    tag_243:\n        /* \"#utility.yul\":14540:14541   */\n      0x00\n        /* \"#utility.yul\":14550:14663   */\n    tag_374:\n        /* \"#utility.yul\":14564:14570   */\n      dup4\n        /* \"#utility.yul\":14561:14562   */\n      dup2\n        /* \"#utility.yul\":14558:14571   */\n      lt\n        /* \"#utility.yul\":14550:14663   */\n      iszero\n      tag_376\n      jumpi\n        /* \"#utility.yul\":14649:14650   */\n      dup1\n        /* \"#utility.yul\":14644:14647   */\n      dup3\n        /* \"#utility.yul\":14640:14651   */\n      add\n        /* \"#utility.yul\":14634:14652   */\n      mload\n        /* \"#utility.yul\":14630:14631   */\n      dup2\n        /* \"#utility.yul\":14625:14628   */\n      dup5\n        /* \"#utility.yul\":14621:14632   */\n      add\n        /* \"#utility.yul\":14614:14653   */\n      mstore\n        /* \"#utility.yul\":14586:14588   */\n      0x20\n        /* \"#utility.yul\":14583:14584   */\n      dup2\n        /* \"#utility.yul\":14579:14589   */\n      add\n        /* \"#utility.yul\":14574:14589   */\n      swap1\n      pop\n        /* \"#utility.yul\":14550:14663   */\n      jump(tag_374)\n    tag_376:\n        /* \"#utility.yul\":14681:14687   */\n      dup4\n        /* \"#utility.yul\":14678:14679   */\n      dup2\n        /* \"#utility.yul\":14675:14688   */\n      gt\n        /* \"#utility.yul\":14672:14674   */\n      iszero\n      tag_377\n      jumpi\n        /* \"#utility.yul\":14761:14762   */\n      0x00\n        /* \"#utility.yul\":14752:14758   */\n      dup5\n        /* \"#utility.yul\":14747:14750   */\n      dup5\n        /* \"#utility.yul\":14743:14759   */\n      add\n        /* \"#utility.yul\":14736:14763   */\n      mstore\n        /* \"#utility.yul\":14672:14674   */\n    tag_377:\n        /* \"#utility.yul\":14521:14779   */\n      pop\n      pop\n      pop\n      pop\n      jump\t// out\n        /* \"#utility.yul\":14785:15105   */\n    tag_80:\n      0x00\n        /* \"#utility.yul\":14866:14867   */\n      0x02\n        /* \"#utility.yul\":14860:14864   */\n      dup3\n        /* \"#utility.yul\":14856:14868   */\n      div\n        /* \"#utility.yul\":14846:14868   */\n      swap1\n      pop\n        /* \"#utility.yul\":14913:14914   */\n      0x01\n        /* \"#utility.yul\":14907:14911   */\n      dup3\n        /* \"#utility.yul\":14903:14915   */\n      and\n        /* \"#utility.yul\":14934:14952   */\n      dup1\n        /* \"#utility.yul\":14924:14926   */\n      tag_379\n      jumpi\n        /* \"#utility.yul\":14990:14994   */\n      0x7f\n        /* \"#utility.yul\":14982:14988   */\n      dup3\n        /* \"#utility.yul\":14978:14995   */\n      and\n        /* \"#utility.yul\":14968:14995   */\n      swap2\n      pop\n        /* \"#utility.yul\":14924:14926   */\n    tag_379:\n        /* \"#utility.yul\":15052:15054   */\n      0x20\n        /* \"#utility.yul\":15044:15050   */\n      dup3\n        /* \"#utility.yul\":15041:15055   */\n      lt\n        /* \"#utility.yul\":15021:15039   */\n      dup2\n        /* \"#utility.yul\":15018:15056   */\n      eq\n        /* \"#utility.yul\":15015:15017   */\n      iszero\n      tag_380\n      jumpi\n        /* \"#utility.yul\":15071:15089   */\n      tag_381\n      tag_382\n      jump\t// in\n    tag_381:\n        /* \"#utility.yul\":15015:15017   */\n    tag_380:\n        /* \"#utility.yul\":14836:15105   */\n      pop\n      swap2\n      swap1\n      pop\n      jump\t// out\n        /* \"#utility.yul\":15111:15344   */\n    tag_182:\n      0x00\n        /* \"#utility.yul\":15173:15197   */\n      tag_384\n        /* \"#utility.yul\":15191:15196   */\n      dup3\n        /* \"#utility.yul\":15173:15197   */\n      tag_305\n      jump\t// in\n    tag_384:\n        /* \"#utility.yul\":15164:15197   */\n      swap2\n      pop\n        /* \"#utility.yul\":15219:15285   */\n      0xffffffffffffffffffffffffffffffffffffffffffffffffffffffffffffffff\n        /* \"#utility.yul\":15212:15217   */\n      dup3\n        /* \"#utility.yul\":15209:15286   */\n      eq\n        /* \"#utility.yul\":15206:15208   */\n      iszero\n      tag_385\n      jumpi\n        /* \"#utility.yul\":15289:15307   */\n      tag_386\n      tag_356\n      jump\t// in\n    tag_386:\n        /* \"#utility.yul\":15206:15208   */\n    tag_385:\n        /* \"#utility.yul\":15336:15337   */\n      0x01\n        /* \"#utility.yul\":15329:15334   */\n      dup3\n        /* \"#utility.yul\":15325:15338   */\n      add\n        /* \"#utility.yul\":15318:15338   */\n      swap1\n      pop\n        /* \"#utility.yul\":15154:15344   */\n      swap2\n      swap1\n      pop\n      jump\t// out\n        /* \"#utility.yul\":15350:15530   */\n    tag_356:\n        /* \"#utility.yul\":15398:15475   */\n      0x4e487b7100000000000000000000000000000000000000000000000000000000\n        /* \"#utility.yul\":15395:15396   */\n      0x00\n        /* \"#utility.yul\":15388:15476   */\n      mstore\n        /* \"#utility.yul\":15495:15499   */\n      0x11\n        /* \"#utility.yul\":15492:15493   */\n      0x04\n        /* \"#utility.yul\":15485:15500   */\n      mstore\n        /* \"#utility.yul\":15519:15523   */\n      0x24\n        /* \"#utility.yul\":15516:15517   */\n      0x00\n        /* \"#utility.yul\":15509:15524   */\n      revert\n        /* \"#utility.yul\":15536:15716   */\n    tag_388:\n        /* \"#utility.yul\":15584:15661   */\n      0x4e487b7100000000000000000000000000000000000000000000000000000000\n        /* \"#utility.yul\":15581:15582   */\n      0x00\n        /* \"#utility.yul\":15574:15662   */\n      mstore\n        /* \"#utility.yul\":15681:15685   */\n      0x21\n        /* \"#utility.yul\":15678:15679   */\n      0x04\n        /* \"#utility.yul\":15671:15686   */\n      mstore\n        /* \"#utility.yul\":15705:15709   */\n      0x24\n        /* \"#utility.yul\":15702:15703   */\n      0x00\n        /* \"#utility.yul\":15695:15710   */\n      revert\n        /* \"#utility.yul\":15722:15902   */\n    tag_382:\n        /* \"#utility.yul\":15770:15847   */\n      0x4e487b7100000000000000000000000000000000000000000000000000000000\n        /* \"#utility.yul\":15767:15768   */\n      0x00\n        /* \"#utility.yul\":15760:15848   */\n      mstore\n        /* \"#utility.yul\":15867:15871   */\n      0x22\n        /* \"#utility.yul\":15864:15865   */\n      0x04\n        /* \"#utility.yul\":15857:15872   */\n      mstore\n        /* \"#utility.yul\":15891:15895   */\n      0x24\n        /* \"#utility.yul\":15888:15889   */\n      0x00\n        /* \"#utility.yul\":15881:15896   */\n      revert\n        /* \"#utility.yul\":15908:16010   */\n    tag_245:\n      0x00\n        /* \"#utility.yul\":16000:16002   */\n      0x1f\n        /* \"#utility.yul\":15996:16003   */\n      not\n        /* \"#utility.yul\":15991:15993   */\n      0x1f\n        /* \"#utility.yul\":15984:15989   */\n      dup4\n        /* \"#utility.yul\":15980:15994   */\n      add\n        /* \"#utility.yul\":15976:16004   */\n      and\n        /* \"#utility.yul\":15966:16004   */\n      swap1\n      pop\n        /* \"#utility.yul\":15956:16010   */\n      swap2\n      swap1\n      pop\n      jump\t// out\n        /* \"#utility.yul\":16016:16195   */\n    tag_250:\n        /* \"#utility.yul\":16156:16187   */\n      0x4e6f2066756e6473206c65667420696e2074686520636f6e7472616374000000\n        /* \"#utility.yul\":16152:16153   */\n      0x00\n        /* \"#utility.yul\":16144:16150   */\n      dup3\n        /* \"#utility.yul\":16140:16154   */\n      add\n        /* \"#utility.yul\":16133:16188   */\n      mstore\n        /* \"#utility.yul\":16122:16195   */\n      pop\n      jump\t// out\n        /* \"#utility.yul\":16201:16383   */\n    tag_255:\n        /* \"#utility.yul\":16341:16375   */\n      0x596f752068617665206e6f206163746976652062696420746f2063616e63656c\n        /* \"#utility.yul\":16337:16338   */\n      0x00\n        /* \"#utility.yul\":16329:16335   */\n      dup3\n        /* \"#utility.yul\":16325:16339   */\n      add\n        /* \"#utility.yul\":16318:16376   */\n      mstore\n        /* \"#utility.yul\":16307:16383   */\n      pop\n      jump\t// out\n        /* \"#utility.yul\":16389:16554   */\n    tag_260:\n        /* \"#utility.yul\":16529:16546   */\n      0x5472616e73666572206661696c65640000000000000000000000000000000000\n        /* \"#utility.yul\":16525:16526   */\n      0x00\n        /* \"#utility.yul\":16517:16523   */\n      dup3\n        /* \"#utility.yul\":16513:16527   */\n      add\n        /* \"#utility.yul\":16506:16547   */\n      mstore\n        /* \"#utility.yul\":16495:16554   */\n      pop\n      jump\t// out\n        /* \"#utility.yul\":16560:16734   */\n    tag_265:\n        /* \"#utility.yul\":16700:16726   */\n      0x41756374696f6e206973207374696c6c206f6e676f696e670000000000000000\n        /* \"#utility.yul\":16696:16697   */\n      0x00\n        /* \"#utility.yul\":16688:16694   */\n      dup3\n        /* \"#utility.yul\":16684:16698   */\n      add\n        /* \"#utility.yul\":16677:16727   */\n      mstore\n        /* \"#utility.yul\":16666:16734   */\n      pop\n      jump\t// out\n        /* \"#utility.yul\":16740:16910   */\n    tag_270:\n        /* \"#utility.yul\":16880:16902   */\n      0x4e6f2066756e647320746f207769746864726177000000000000000000000000\n        /* \"#utility.yul\":16876:16877   */\n      0x00\n        /* \"#utility.yul\":16868:16874   */\n      dup3\n        /* \"#utility.yul\":16864:16878   */\n      add\n        /* \"#utility.yul\":16857:16903   */\n      mstore\n        /* \"#utility.yul\":16846:16910   */\n      pop\n      jump\t// out\n        /* \"#utility.yul\":16916:17098   */\n    tag_275:\n        /* \"#utility.yul\":17056:17090   */\n      0x4f6e6c792061756374696f6e206f776e65722063616e2063616c6c2074686973\n        /* \"#utility.yul\":17052:17053   */\n      0x00\n        /* \"#utility.yul\":17044:17050   */\n      dup3\n        /* \"#utility.yul\":17040:17054   */\n      add\n        /* \"#utility.yul\":17033:17091   */\n      mstore\n        /* \"#utility.yul\":17022:17098   */\n      pop\n      jump\t// out\n        /* \"#utility.yul\":17104:17326   */\n    tag_280:\n        /* \"#utility.yul\":17244:17278   */\n      0x4269642076616c7565206d7573742062652067726561746572207468616e207a\n        /* \"#utility.yul\":17240:17241   */\n      0x00\n        /* \"#utility.yul\":17232:17238   */\n      dup3\n        /* \"#utility.yul\":17228:17242   */\n      add\n        /* \"#utility.yul\":17221:17279   */\n      mstore\n        /* \"#utility.yul\":17313:17318   */\n      0x65726f0000000000000000000000000000000000000000000000000000000000\n        /* \"#utility.yul\":17308:17310   */\n      0x20\n        /* \"#utility.yul\":17300:17306   */\n      dup3\n        /* \"#utility.yul\":17296:17311   */\n      add\n        /* \"#utility.yul\":17289:17319   */\n      mstore\n        /* \"#utility.yul\":17210:17326   */\n      pop\n      jump\t// out\n        /* \"#utility.yul\":17332:17511   */\n    tag_285:\n        /* \"#utility.yul\":17472:17503   */\n      0x43616e6e6f742063616e63656c20746865206869676865737420626964000000\n        /* \"#utility.yul\":17468:17469   */\n      0x00\n        /* \"#utility.yul\":17460:17466   */\n      dup3\n        /* \"#utility.yul\":17456:17470   */\n      add\n        /* \"#utility.yul\":17449:17504   */\n      mstore\n        /* \"#utility.yul\":17438:17511   */\n      pop\n      jump\t// out\n        /* \"#utility.yul\":17517:17684   */\n    tag_290:\n        /* \"#utility.yul\":17657:17676   */\n      0x41756374696f6e2068617320656e646564000000000000000000000000000000\n        /* \"#utility.yul\":17653:17654   */\n      0x00\n        /* \"#utility.yul\":17645:17651   */\n      dup3\n        /* \"#utility.yul\":17641:17655   */\n      add\n        /* \"#utility.yul\":17634:17677   */\n      mstore\n        /* \"#utility.yul\":17623:17684   */\n      pop\n      jump\t// out\n        /* \"#utility.yul\":17690:17872   */\n    tag_295:\n        /* \"#utility.yul\":17830:17864   */\n      0x596f752063616e2774206269642c206d616b6520612068696768657220626964\n        /* \"#utility.yul\":17826:17827   */\n      0x00\n        /* \"#utility.yul\":17818:17824   */\n      dup3\n        /* \"#utility.yul\":17814:17828   */\n      add\n        /* \"#utility.yul\":17807:17865   */\n      mstore\n        /* \"#utility.yul\":17796:17872   */\n      pop\n      jump\t// out\n        /* \"#utility.yul\":17878:17992   */\n    tag_301:\n        /* \"#utility.yul\":17984:17992   */\n      pop\n      jump\t// out\n        /* \"#utility.yul\":17998:18119   */\n    tag_364:\n        /* \"#utility.yul\":18087:18088   */\n      0x02\n        /* \"#utility.yul\":18080:18085   */\n      dup2\n        /* \"#utility.yul\":18077:18089   */\n      lt\n        /* \"#utility.yul\":18067:18069   */\n      tag_404\n      jumpi\n        /* \"#utility.yul\":18093:18111   */\n      tag_405\n      tag_388\n      jump\t// in\n    tag_405:\n        /* \"#utility.yul\":18067:18069   */\n    tag_404:\n        /* \"#utility.yul\":18057:18119   */\n      pop\n      jump\t// out\n        /* \"#utility.yul\":18125:18247   */\n    tag_212:\n        /* \"#utility.yul\":18198:18222   */\n      tag_407\n        /* \"#utility.yul\":18216:18221   */\n      dup2\n        /* \"#utility.yul\":18198:18222   */\n      tag_219\n      jump\t// in\n    tag_407:\n        /* \"#utility.yul\":18191:18196   */\n      dup2\n        /* \"#utility.yul\":18188:18223   */\n      eq\n        /* \"#utility.yul\":18178:18180   */\n      tag_408\n      jumpi\n        /* \"#utility.yul\":18237:18238   */\n      0x00\n        /* \"#utility.yul\":18234:18235   */\n      dup1\n        /* \"#utility.yul\":18227:18239   */\n      revert\n        /* \"#utility.yul\":18178:18180   */\n    tag_408:\n        /* \"#utility.yul\":18168:18247   */\n      pop\n      jump\t// out\n\n    auxdata: 0xa26469706673582212202abde17aa6e1ca3b89ccb84a165a5b334ea183233d5ee3f371ea34e807fdc3f364736f6c63430008010033\n}\n",
				"bytecode": {
					"linkReferences": {},
					"object": "60806040523480156200001157600080fd5b506040516200234638038062002346833981810160405281019062000037919062000287565b826000806101000a81548173ffffffffffffffffffffffffffffffffffffffff021916908373ffffffffffffffffffffffffffffffffffffffff16021790555042600181905550610e10846200008e9190620003e1565b6001546200009d919062000384565b6002819055506001600960006101000a81548160ff02191690836001811115620000f0577f4e487b7100000000000000000000000000000000000000000000000000000000600052602160045260246000fd5b021790555081600560000190805190602001906200011092919062000137565b5080600560010190805190602001906200012c92919062000137565b5050505050620005f4565b8280546200014590620004b6565b90600052602060002090601f016020900481019282620001695760008555620001b5565b82601f106200018457805160ff1916838001178555620001b5565b82800160010185558215620001b5579182015b82811115620001b457825182559160200191906001019062000197565b5b509050620001c49190620001c8565b5090565b5b80821115620001e3576000816000905550600101620001c9565b5090565b6000620001fe620001f8846200034e565b62000325565b9050828152602081018484840111156200021757600080fd5b6200022484828562000480565b509392505050565b6000815190506200023d81620005c0565b92915050565b600082601f8301126200025557600080fd5b815162000267848260208601620001e7565b91505092915050565b6000815190506200028181620005da565b92915050565b600080600080608085870312156200029e57600080fd5b6000620002ae8782880162000270565b9450506020620002c1878288016200022c565b935050604085015167ffffffffffffffff811115620002df57600080fd5b620002ed8782880162000243565b925050606085015167ffffffffffffffff8111156200030b57600080fd5b620003198782880162000243565b91505092959194509250565b60006200033162000344565b90506200033f8282620004ec565b919050565b6000604051905090565b600067ffffffffffffffff8211156200036c576200036b62000580565b5b6200037782620005af565b9050602081019050919050565b6000620003918262000476565b91506200039e8362000476565b9250827fffffffffffffffffffffffffffffffffffffffffffffffffffffffffffffffff03821115620003d657620003d562000522565b5b828201905092915050565b6000620003ee8262000476565b9150620003fb8362000476565b9250817fffffffffffffffffffffffffffffffffffffffffffffffffffffffffffffffff048311821515161562000437576200043662000522565b5b828202905092915050565b60006200044f8262000456565b9050919050565b600073ffffffffffffffffffffffffffffffffffffffff82169050919050565b6000819050919050565b60005b83811015620004a057808201518184015260208101905062000483565b83811115620004b0576000848401525b50505050565b60006002820490506001821680620004cf57607f821691505b60208210811415620004e657620004e562000551565b5b50919050565b620004f782620005af565b810181811067ffffffffffffffff8211171562000519576200051862000580565b5b80604052505050565b7f4e487b7100000000000000000000000000000000000000000000000000000000600052601160045260246000fd5b7f4e487b7100000000000000000000000000000000000000000000000000000000600052602260045260246000fd5b7f4e487b7100000000000000000000000000000000000000000000000000000000600052604160045260246000fd5b6000601f19601f8301169050919050565b620005cb8162000442565b8114620005d757600080fd5b50565b620005e58162000476565b8114620005f157600080fd5b50565b611d4280620006046000396000f3fe6080604052600436106100dd5760003560e01c806378f453401161007f578063c458b65a11610059578063c458b65a14610282578063c486456c146102ad578063d57bde79146102d8578063ef86ce8e14610303576100dd565b806378f453401461020157806391f901571461022c5780639435c88714610257576100dd565b8063389009f0116100bb578063389009f0146101575780633ba88ca11461016e5780633ccfd60b1461019957806362ea82db146101c4576100dd565b80630216f202146100e25780630ac298dc1461010e5780631998aeef14610139575b600080fd5b3480156100ee57600080fd5b506100f761031a565b604051610105929190611754565b60405180910390f35b34801561011a57600080fd5b5061012361043c565b6040516101309190611688565b60405180910390f35b610141610465565b60405161014e91906116cc565b60405180910390f35b34801561016357600080fd5b5061016c6107ff565b005b34801561017a57600080fd5b50610183610917565b60405161019091906116cc565b60405180910390f35b3480156101a557600080fd5b506101ae6109f3565b6040516101bb91906116cc565b60405180910390f35b3480156101d057600080fd5b506101eb60048036038101906101e69190611436565b610bae565b6040516101f891906118cb565b60405180910390f35b34801561020d57600080fd5b50610216610bc6565b60405161022391906118cb565b60405180910390f35b34801561023857600080fd5b50610241610bcc565b60405161024e9190611688565b60405180910390f35b34801561026357600080fd5b5061026c610bf2565b60405161027991906116cc565b60405180910390f35b34801561028e57600080fd5b50610297610e20565b6040516102a491906118cb565b60405180910390f35b3480156102b957600080fd5b506102c2610e26565b6040516102cf91906116e7565b60405180910390f35b3480156102e457600080fd5b506102ed610e39565b6040516102fa91906118cb565b60405180910390f35b34801561030f57600080fd5b50610318610e3f565b005b600580600001805461032b90611a05565b80601f016020809104026020016040519081016040528092919081815260200182805461035790611a05565b80156103a45780601f10610379576101008083540402835291602001916103a4565b820191906000526020600020905b81548152906001019060200180831161038757829003601f168201915b5050505050908060010180546103b990611a05565b80601f01602080910402602001604051908101604052809291908181526020018280546103e590611a05565b80156104325780601f1061040757610100808354040283529160200191610432565b820191906000526020600020905b81548152906001019060200180831161041557829003601f168201915b5050505050905082565b60008060009054906101000a900473ffffffffffffffffffffffffffffffffffffffff16905090565b600060025442111580156104f757506001808111156104ad577f4e487b7100000000000000000000000000000000000000000000000000000000600052602160045260246000fd5b600960009054906101000a900460ff1660018111156104f5577f4e487b7100000000000000000000000000000000000000000000000000000000600052602160045260246000fd5b145b610536576040517f08c379a000000000000000000000000000000000000000000000000000000000815260040161052d9061188b565b60405180910390fd5b60003411610579576040517f08c379a00000000000000000000000000000000000000000000000000000000081526004016105709061184b565b60405180910390fd5b60035434116105bd576040517f08c379a00000000000000000000000000000000000000000000000000000000081526004016105b4906118ab565b60405180910390fd5b6000600354111561063457600460009054906101000a900473ffffffffffffffffffffffffffffffffffffffff1673ffffffffffffffffffffffffffffffffffffffff166108fc6003549081150290604051600060405180830381858888f19350505050158015610632573d6000803e3d6000fd5b505b33600460006101000a81548173ffffffffffffffffffffffffffffffffffffffff021916908373ffffffffffffffffffffffffffffffffffffffff1602179055503460038190555034600860003373ffffffffffffffffffffffffffffffffffffffff1673ffffffffffffffffffffffffffffffffffffffff168152602001908152602001600020819055506000600860003373ffffffffffffffffffffffffffffffffffffffff1673ffffffffffffffffffffffffffffffffffffffff16815260200190815260200160002054148015610715575061071333610fe6565b155b1561077e576007339080600181540180825580915050600190039060005260206000200160009091909190916101000a81548173ffffffffffffffffffffffffffffffffffffffff021916908373ffffffffffffffffffffffffffffffffffffffff1602179055505b600460009054906101000a900473ffffffffffffffffffffffffffffffffffffffff1673ffffffffffffffffffffffffffffffffffffffff167f0d993d4f8a84158f5329713d6d13ef54e77b325040c887c8b3e565cfd0cd3e216003546040516107e891906118cb565b60405180910390a26107f86110bb565b6001905090565b60008054906101000a900473ffffffffffffffffffffffffffffffffffffffff1673ffffffffffffffffffffffffffffffffffffffff163373ffffffffffffffffffffffffffffffffffffffff161461088d576040517f08c379a00000000000000000000000000000000000000000000000000000000081526004016108849061182b565b60405180910390fd5b60025442116108d1576040517f08c379a00000000000000000000000000000000000000000000000000000000081526004016108c8906117eb565b60405180910390fd5b6108db60006110d1565b7fcb3c98892a5c11582e6b5e5caa647ef56c5d646f1bf6884c2cae5aff754639e360024260405161090d92919061172b565b60405180910390a1565b60008060009054906101000a900473ffffffffffffffffffffffffffffffffffffffff1673ffffffffffffffffffffffffffffffffffffffff163373ffffffffffffffffffffffffffffffffffffffff16146109a8576040517f08c379a000000000000000000000000000000000000000000000000000000000815260040161099f9061182b565b60405180910390fd5b6109b260006110d1565b7fcb3c98892a5c11582e6b5e5caa647ef56c5d646f1bf6884c2cae5aff754639e36001426040516109e4929190611702565b60405180910390a16001905090565b600080600860003373ffffffffffffffffffffffffffffffffffffffff1673ffffffffffffffffffffffffffffffffffffffff16815260200190815260200160002054905060008111610a7b576040517f08c379a0000000000000000000000000000000000000000000000000000000008152600401610a729061180b565b60405180910390fd5b6000600860003373ffffffffffffffffffffffffffffffffffffffff1673ffffffffffffffffffffffffffffffffffffffff1681526020019081526020016000208190555060003373ffffffffffffffffffffffffffffffffffffffff1682604051610ae690611673565b60006040518083038185875af1925050503d8060008114610b23576040519150601f19603f3d011682016040523d82523d6000602084013e610b28565b606091505b5050905080610b6c576040517f08c379a0000000000000000000000000000000000000000000000000000000008152600401610b63906117cb565b60405180910390fd5b7f2f174ca282119315c59efaf21147aef438581dabdeb498198ae28964373dd8bc3383604051610b9d9291906116a3565b60405180910390a160019250505090565b60086020528060005260406000206000915090505481565b60015481565b600460009054906101000a900473ffffffffffffffffffffffffffffffffffffffff1681565b600080600860003373ffffffffffffffffffffffffffffffffffffffff1673ffffffffffffffffffffffffffffffffffffffff1681526020019081526020016000205411610c75576040517f08c379a0000000000000000000000000000000000000000000000000000000008152600401610c6c906117ab565b60405180910390fd5b600460009054906101000a900473ffffffffffffffffffffffffffffffffffffffff1673ffffffffffffffffffffffffffffffffffffffff163373ffffffffffffffffffffffffffffffffffffffff161415610d06576040517f08c379a0000000000000000000000000000000000000000000000000000000008152600401610cfd9061186b565b60405180910390fd5b6000600860003373ffffffffffffffffffffffffffffffffffffffff1673ffffffffffffffffffffffffffffffffffffffff1681526020019081526020016000205490506000600860003373ffffffffffffffffffffffffffffffffffffffff1673ffffffffffffffffffffffffffffffffffffffff16815260200190815260200160002081905550610d98336111f8565b3373ffffffffffffffffffffffffffffffffffffffff166108fc829081150290604051600060405180830381858888f19350505050158015610dde573d6000803e3d6000fd5b507f2f174ca282119315c59efaf21147aef438581dabdeb498198ae28964373dd8bc3382604051610e109291906116a3565b60405180910390a1600191505090565b60025481565b600960009054906101000a900460ff1681565b60035481565b60008054906101000a900473ffffffffffffffffffffffffffffffffffffffff1673ffffffffffffffffffffffffffffffffffffffff163373ffffffffffffffffffffffffffffffffffffffff1614610ecd576040517f08c379a0000000000000000000000000000000000000000000000000000000008152600401610ec49061182b565b60405180910390fd5b600047905060008111610f15576040517f08c379a0000000000000000000000000000000000000000000000000000000008152600401610f0c9061178b565b60405180910390fd5b60008060009054906101000a900473ffffffffffffffffffffffffffffffffffffffff1673ffffffffffffffffffffffffffffffffffffffff1682604051610f5c90611673565b60006040518083038185875af1925050503d8060008114610f99576040519150601f19603f3d011682016040523d82523d6000602084013e610f9e565b606091505b5050905080610fe2576040517f08c379a0000000000000000000000000000000000000000000000000000000008152600401610fd9906117cb565b60405180910390fd5b5050565b600080600090505b6007805490508110156110b0578273ffffffffffffffffffffffffffffffffffffffff166007828154811061104c577f4e487b7100000000000000000000000000000000000000000000000000000000600052603260045260246000fd5b9060005260206000200160009054906101000a900473ffffffffffffffffffffffffffffffffffffffff1673ffffffffffffffffffffffffffffffffffffffff16141561109d5760019150506110b6565b80806110a890611a37565b915050610fee565b50600090505b919050565b60025442106110cf576110ce60006110d1565b5b565b60008054906101000a900473ffffffffffffffffffffffffffffffffffffffff1673ffffffffffffffffffffffffffffffffffffffff163373ffffffffffffffffffffffffffffffffffffffff161461115f576040517f08c379a00000000000000000000000000000000000000000000000000000000081526004016111569061182b565b60405180910390fd5b80600960006101000a81548160ff021916908360018111156111aa577f4e487b7100000000000000000000000000000000000000000000000000000000600052602160045260246000fd5b02179055507f23ad33ab6a13a00aa7d06cd167b2abd03dec86af3cf3cc91759dcd3ae8411887600960009054906101000a900460ff166040516111ed91906116e7565b60405180910390a150565b60005b60078054905081101561141d578173ffffffffffffffffffffffffffffffffffffffff1660078281548110611259577f4e487b7100000000000000000000000000000000000000000000000000000000600052603260045260246000fd5b9060005260206000200160009054906101000a900473ffffffffffffffffffffffffffffffffffffffff1673ffffffffffffffffffffffffffffffffffffffff16141561140a57600760016007805490506112b4919061190d565b815481106112eb577f4e487b7100000000000000000000000000000000000000000000000000000000600052603260045260246000fd5b9060005260206000200160009054906101000a900473ffffffffffffffffffffffffffffffffffffffff1660078281548110611350577f4e487b7100000000000000000000000000000000000000000000000000000000600052603260045260246000fd5b9060005260206000200160006101000a81548173ffffffffffffffffffffffffffffffffffffffff021916908373ffffffffffffffffffffffffffffffffffffffff16021790555060078054806113d0577f4e487b7100000000000000000000000000000000000000000000000000000000600052603160045260246000fd5b6001900381819060005260206000200160006101000a81549073ffffffffffffffffffffffffffffffffffffffff0219169055905561141d565b808061141590611a37565b9150506111fb565b5050565b60008135905061143081611cf5565b92915050565b60006020828403121561144857600080fd5b600061145684828501611421565b91505092915050565b61146881611941565b82525050565b61147781611953565b82525050565b6114868161199c565b82525050565b611495816119ae565b82525050565b6114a4816119c0565b82525050565b60006114b5826118e6565b6114bf81856118fc565b93506114cf8185602086016119d2565b6114d881611b0d565b840191505092915050565b60006114f0601d836118fc565b91506114fb82611b1e565b602082019050919050565b60006115136020836118fc565b915061151e82611b47565b602082019050919050565b6000611536600f836118fc565b915061154182611b70565b602082019050919050565b60006115596018836118fc565b915061156482611b99565b602082019050919050565b600061157c6014836118fc565b915061158782611bc2565b602082019050919050565b600061159f6020836118fc565b91506115aa82611beb565b602082019050919050565b60006115c26023836118fc565b91506115cd82611c14565b604082019050919050565b60006115e5601d836118fc565b91506115f082611c63565b602082019050919050565b60006116086011836118fc565b915061161382611c8c565b602082019050919050565b600061162b6020836118fc565b915061163682611cb5565b602082019050919050565b600061164e6000836118f1565b915061165982611cde565b600082019050919050565b61166d81611992565b82525050565b600061167e82611641565b9150819050919050565b600060208201905061169d600083018461145f565b92915050565b60006040820190506116b8600083018561145f565b6116c56020830184611664565b9392505050565b60006020820190506116e1600083018461146e565b92915050565b60006020820190506116fc600083018461147d565b92915050565b6000604082019050611717600083018561148c565b6117246020830184611664565b9392505050565b6000604082019050611740600083018561149b565b61174d6020830184611664565b9392505050565b6000604082019050818103600083015261176e81856114aa565b9050818103602083015261178281846114aa565b90509392505050565b600060208201905081810360008301526117a4816114e3565b9050919050565b600060208201905081810360008301526117c481611506565b9050919050565b600060208201905081810360008301526117e481611529565b9050919050565b600060208201905081810360008301526118048161154c565b9050919050565b600060208201905081810360008301526118248161156f565b9050919050565b6000602082019050818103600083015261184481611592565b9050919050565b60006020820190508181036000830152611864816115b5565b9050919050565b60006020820190508181036000830152611884816115d8565b9050919050565b600060208201905081810360008301526118a4816115fb565b9050919050565b600060208201905081810360008301526118c48161161e565b9050919050565b60006020820190506118e06000830184611664565b92915050565b600081519050919050565b600081905092915050565b600082825260208201905092915050565b600061191882611992565b915061192383611992565b92508282101561193657611935611a80565b5b828203905092915050565b600061194c82611972565b9050919050565b60008115159050919050565b600081905061196d82611ce1565b919050565b600073ffffffffffffffffffffffffffffffffffffffff82169050919050565b6000819050919050565b60006119a78261195f565b9050919050565b60006119b982611992565b9050919050565b60006119cb82611992565b9050919050565b60005b838110156119f05780820151818401526020810190506119d5565b838111156119ff576000848401525b50505050565b60006002820490506001821680611a1d57607f821691505b60208210811415611a3157611a30611ade565b5b50919050565b6000611a4282611992565b91507fffffffffffffffffffffffffffffffffffffffffffffffffffffffffffffffff821415611a7557611a74611a80565b5b600182019050919050565b7f4e487b7100000000000000000000000000000000000000000000000000000000600052601160045260246000fd5b7f4e487b7100000000000000000000000000000000000000000000000000000000600052602160045260246000fd5b7f4e487b7100000000000000000000000000000000000000000000000000000000600052602260045260246000fd5b6000601f19601f8301169050919050565b7f4e6f2066756e6473206c65667420696e2074686520636f6e7472616374000000600082015250565b7f596f752068617665206e6f206163746976652062696420746f2063616e63656c600082015250565b7f5472616e73666572206661696c65640000000000000000000000000000000000600082015250565b7f41756374696f6e206973207374696c6c206f6e676f696e670000000000000000600082015250565b7f4e6f2066756e647320746f207769746864726177000000000000000000000000600082015250565b7f4f6e6c792061756374696f6e206f776e65722063616e2063616c6c2074686973600082015250565b7f4269642076616c7565206d7573742062652067726561746572207468616e207a60008201527f65726f0000000000000000000000000000000000000000000000000000000000602082015250565b7f43616e6e6f742063616e63656c20746865206869676865737420626964000000600082015250565b7f41756374696f6e2068617320656e646564000000000000000000000000000000600082015250565b7f596f752063616e2774206269642c206d616b6520612068696768657220626964600082015250565b50565b60028110611cf257611cf1611aaf565b5b50565b611cfe81611941565b8114611d0957600080fd5b5056fea26469706673582212202abde17aa6e1ca3b89ccb84a165a5b334ea183233d5ee3f371ea34e807fdc3f364736f6c63430008010033",
					"opcodes": "PUSH1 0x80 PUSH1 0x40 MSTORE CALLVALUE DUP1 ISZERO PUSH3 0x11 JUMPI PUSH1 0x0 DUP1 REVERT JUMPDEST POP PUSH1 0x40 MLOAD PUSH3 0x2346 CODESIZE SUB DUP1 PUSH3 0x2346 DUP4 CODECOPY DUP2 DUP2 ADD PUSH1 0x40 MSTORE DUP2 ADD SWAP1 PUSH3 0x37 SWAP2 SWAP1 PUSH3 0x287 JUMP JUMPDEST DUP3 PUSH1 0x0 DUP1 PUSH2 0x100 EXP DUP2 SLOAD DUP2 PUSH20 0xFFFFFFFFFFFFFFFFFFFFFFFFFFFFFFFFFFFFFFFF MUL NOT AND SWAP1 DUP4 PUSH20 0xFFFFFFFFFFFFFFFFFFFFFFFFFFFFFFFFFFFFFFFF AND MUL OR SWAP1 SSTORE POP TIMESTAMP PUSH1 0x1 DUP2 SWAP1 SSTORE POP PUSH2 0xE10 DUP5 PUSH3 0x8E SWAP2 SWAP1 PUSH3 0x3E1 JUMP JUMPDEST PUSH1 0x1 SLOAD PUSH3 0x9D SWAP2 SWAP1 PUSH3 0x384 JUMP JUMPDEST PUSH1 0x2 DUP2 SWAP1 SSTORE POP PUSH1 0x1 PUSH1 0x9 PUSH1 0x0 PUSH2 0x100 EXP DUP2 SLOAD DUP2 PUSH1 0xFF MUL NOT AND SWAP1 DUP4 PUSH1 0x1 DUP2 GT ISZERO PUSH3 0xF0 JUMPI PUSH32 0x4E487B7100000000000000000000000000000000000000000000000000000000 PUSH1 0x0 MSTORE PUSH1 0x21 PUSH1 0x4 MSTORE PUSH1 0x24 PUSH1 0x0 REVERT JUMPDEST MUL OR SWAP1 SSTORE POP DUP2 PUSH1 0x5 PUSH1 0x0 ADD SWAP1 DUP1 MLOAD SWAP1 PUSH1 0x20 ADD SWAP1 PUSH3 0x110 SWAP3 SWAP2 SWAP1 PUSH3 0x137 JUMP JUMPDEST POP DUP1 PUSH1 0x5 PUSH1 0x1 ADD SWAP1 DUP1 MLOAD SWAP1 PUSH1 0x20 ADD SWAP1 PUSH3 0x12C SWAP3 SWAP2 SWAP1 PUSH3 0x137 JUMP JUMPDEST POP POP POP POP POP PUSH3 0x5F4 JUMP JUMPDEST DUP3 DUP1 SLOAD PUSH3 0x145 SWAP1 PUSH3 0x4B6 JUMP JUMPDEST SWAP1 PUSH1 0x0 MSTORE PUSH1 0x20 PUSH1 0x0 KECCAK256 SWAP1 PUSH1 0x1F ADD PUSH1 0x20 SWAP1 DIV DUP2 ADD SWAP3 DUP3 PUSH3 0x169 JUMPI PUSH1 0x0 DUP6 SSTORE PUSH3 0x1B5 JUMP JUMPDEST DUP3 PUSH1 0x1F LT PUSH3 0x184 JUMPI DUP1 MLOAD PUSH1 0xFF NOT AND DUP4 DUP1 ADD OR DUP6 SSTORE PUSH3 0x1B5 JUMP JUMPDEST DUP3 DUP1 ADD PUSH1 0x1 ADD DUP6 SSTORE DUP3 ISZERO PUSH3 0x1B5 JUMPI SWAP2 DUP3 ADD JUMPDEST DUP3 DUP2 GT ISZERO PUSH3 0x1B4 JUMPI DUP3 MLOAD DUP3 SSTORE SWAP2 PUSH1 0x20 ADD SWAP2 SWAP1 PUSH1 0x1 ADD SWAP1 PUSH3 0x197 JUMP JUMPDEST JUMPDEST POP SWAP1 POP PUSH3 0x1C4 SWAP2 SWAP1 PUSH3 0x1C8 JUMP JUMPDEST POP SWAP1 JUMP JUMPDEST JUMPDEST DUP1 DUP3 GT ISZERO PUSH3 0x1E3 JUMPI PUSH1 0x0 DUP2 PUSH1 0x0 SWAP1 SSTORE POP PUSH1 0x1 ADD PUSH3 0x1C9 JUMP JUMPDEST POP SWAP1 JUMP JUMPDEST PUSH1 0x0 PUSH3 0x1FE PUSH3 0x1F8 DUP5 PUSH3 0x34E JUMP JUMPDEST PUSH3 0x325 JUMP JUMPDEST SWAP1 POP DUP3 DUP2 MSTORE PUSH1 0x20 DUP2 ADD DUP5 DUP5 DUP5 ADD GT ISZERO PUSH3 0x217 JUMPI PUSH1 0x0 DUP1 REVERT JUMPDEST PUSH3 0x224 DUP5 DUP3 DUP6 PUSH3 0x480 JUMP JUMPDEST POP SWAP4 SWAP3 POP POP POP JUMP JUMPDEST PUSH1 0x0 DUP2 MLOAD SWAP1 POP PUSH3 0x23D DUP2 PUSH3 0x5C0 JUMP JUMPDEST SWAP3 SWAP2 POP POP JUMP JUMPDEST PUSH1 0x0 DUP3 PUSH1 0x1F DUP4 ADD SLT PUSH3 0x255 JUMPI PUSH1 0x0 DUP1 REVERT JUMPDEST DUP2 MLOAD PUSH3 0x267 DUP5 DUP3 PUSH1 0x20 DUP7 ADD PUSH3 0x1E7 JUMP JUMPDEST SWAP2 POP POP SWAP3 SWAP2 POP POP JUMP JUMPDEST PUSH1 0x0 DUP2 MLOAD SWAP1 POP PUSH3 0x281 DUP2 PUSH3 0x5DA JUMP JUMPDEST SWAP3 SWAP2 POP POP JUMP JUMPDEST PUSH1 0x0 DUP1 PUSH1 0x0 DUP1 PUSH1 0x80 DUP6 DUP8 SUB SLT ISZERO PUSH3 0x29E JUMPI PUSH1 0x0 DUP1 REVERT JUMPDEST PUSH1 0x0 PUSH3 0x2AE DUP8 DUP3 DUP9 ADD PUSH3 0x270 JUMP JUMPDEST SWAP5 POP POP PUSH1 0x20 PUSH3 0x2C1 DUP8 DUP3 DUP9 ADD PUSH3 0x22C JUMP JUMPDEST SWAP4 POP POP PUSH1 0x40 DUP6 ADD MLOAD PUSH8 0xFFFFFFFFFFFFFFFF DUP2 GT ISZERO PUSH3 0x2DF JUMPI PUSH1 0x0 DUP1 REVERT JUMPDEST PUSH3 0x2ED DUP8 DUP3 DUP9 ADD PUSH3 0x243 JUMP JUMPDEST SWAP3 POP POP PUSH1 0x60 DUP6 ADD MLOAD PUSH8 0xFFFFFFFFFFFFFFFF DUP2 GT ISZERO PUSH3 0x30B JUMPI PUSH1 0x0 DUP1 REVERT JUMPDEST PUSH3 0x319 DUP8 DUP3 DUP9 ADD PUSH3 0x243 JUMP JUMPDEST SWAP2 POP POP SWAP3 SWAP6 SWAP2 SWAP5 POP SWAP3 POP JUMP JUMPDEST PUSH1 0x0 PUSH3 0x331 PUSH3 0x344 JUMP JUMPDEST SWAP1 POP PUSH3 0x33F DUP3 DUP3 PUSH3 0x4EC JUMP JUMPDEST SWAP2 SWAP1 POP JUMP JUMPDEST PUSH1 0x0 PUSH1 0x40 MLOAD SWAP1 POP SWAP1 JUMP JUMPDEST PUSH1 0x0 PUSH8 0xFFFFFFFFFFFFFFFF DUP3 GT ISZERO PUSH3 0x36C JUMPI PUSH3 0x36B PUSH3 0x580 JUMP JUMPDEST JUMPDEST PUSH3 0x377 DUP3 PUSH3 0x5AF JUMP JUMPDEST SWAP1 POP PUSH1 0x20 DUP2 ADD SWAP1 POP SWAP2 SWAP1 POP JUMP JUMPDEST PUSH1 0x0 PUSH3 0x391 DUP3 PUSH3 0x476 JUMP JUMPDEST SWAP2 POP PUSH3 0x39E DUP4 PUSH3 0x476 JUMP JUMPDEST SWAP3 POP DUP3 PUSH32 0xFFFFFFFFFFFFFFFFFFFFFFFFFFFFFFFFFFFFFFFFFFFFFFFFFFFFFFFFFFFFFFFF SUB DUP3 GT ISZERO PUSH3 0x3D6 JUMPI PUSH3 0x3D5 PUSH3 0x522 JUMP JUMPDEST JUMPDEST DUP3 DUP3 ADD SWAP1 POP SWAP3 SWAP2 POP POP JUMP JUMPDEST PUSH1 0x0 PUSH3 0x3EE DUP3 PUSH3 0x476 JUMP JUMPDEST SWAP2 POP PUSH3 0x3FB DUP4 PUSH3 0x476 JUMP JUMPDEST SWAP3 POP DUP2 PUSH32 0xFFFFFFFFFFFFFFFFFFFFFFFFFFFFFFFFFFFFFFFFFFFFFFFFFFFFFFFFFFFFFFFF DIV DUP4 GT DUP3 ISZERO ISZERO AND ISZERO PUSH3 0x437 JUMPI PUSH3 0x436 PUSH3 0x522 JUMP JUMPDEST JUMPDEST DUP3 DUP3 MUL SWAP1 POP SWAP3 SWAP2 POP POP JUMP JUMPDEST PUSH1 0x0 PUSH3 0x44F DUP3 PUSH3 0x456 JUMP JUMPDEST SWAP1 POP SWAP2 SWAP1 POP JUMP JUMPDEST PUSH1 0x0 PUSH20 0xFFFFFFFFFFFFFFFFFFFFFFFFFFFFFFFFFFFFFFFF DUP3 AND SWAP1 POP SWAP2 SWAP1 POP JUMP JUMPDEST PUSH1 0x0 DUP2 SWAP1 POP SWAP2 SWAP1 POP JUMP JUMPDEST PUSH1 0x0 JUMPDEST DUP4 DUP2 LT ISZERO PUSH3 0x4A0 JUMPI DUP1 DUP3 ADD MLOAD DUP2 DUP5 ADD MSTORE PUSH1 0x20 DUP2 ADD SWAP1 POP PUSH3 0x483 JUMP JUMPDEST DUP4 DUP2 GT ISZERO PUSH3 0x4B0 JUMPI PUSH1 0x0 DUP5 DUP5 ADD MSTORE JUMPDEST POP POP POP POP JUMP JUMPDEST PUSH1 0x0 PUSH1 0x2 DUP3 DIV SWAP1 POP PUSH1 0x1 DUP3 AND DUP1 PUSH3 0x4CF JUMPI PUSH1 0x7F DUP3 AND SWAP2 POP JUMPDEST PUSH1 0x20 DUP3 LT DUP2 EQ ISZERO PUSH3 0x4E6 JUMPI PUSH3 0x4E5 PUSH3 0x551 JUMP JUMPDEST JUMPDEST POP SWAP2 SWAP1 POP JUMP JUMPDEST PUSH3 0x4F7 DUP3 PUSH3 0x5AF JUMP JUMPDEST DUP2 ADD DUP2 DUP2 LT PUSH8 0xFFFFFFFFFFFFFFFF DUP3 GT OR ISZERO PUSH3 0x519 JUMPI PUSH3 0x518 PUSH3 0x580 JUMP JUMPDEST JUMPDEST DUP1 PUSH1 0x40 MSTORE POP POP POP JUMP JUMPDEST PUSH32 0x4E487B7100000000000000000000000000000000000000000000000000000000 PUSH1 0x0 MSTORE PUSH1 0x11 PUSH1 0x4 MSTORE PUSH1 0x24 PUSH1 0x0 REVERT JUMPDEST PUSH32 0x4E487B7100000000000000000000000000000000000000000000000000000000 PUSH1 0x0 MSTORE PUSH1 0x22 PUSH1 0x4 MSTORE PUSH1 0x24 PUSH1 0x0 REVERT JUMPDEST PUSH32 0x4E487B7100000000000000000000000000000000000000000000000000000000 PUSH1 0x0 MSTORE PUSH1 0x41 PUSH1 0x4 MSTORE PUSH1 0x24 PUSH1 0x0 REVERT JUMPDEST PUSH1 0x0 PUSH1 0x1F NOT PUSH1 0x1F DUP4 ADD AND SWAP1 POP SWAP2 SWAP1 POP JUMP JUMPDEST PUSH3 0x5CB DUP2 PUSH3 0x442 JUMP JUMPDEST DUP2 EQ PUSH3 0x5D7 JUMPI PUSH1 0x0 DUP1 REVERT JUMPDEST POP JUMP JUMPDEST PUSH3 0x5E5 DUP2 PUSH3 0x476 JUMP JUMPDEST DUP2 EQ PUSH3 0x5F1 JUMPI PUSH1 0x0 DUP1 REVERT JUMPDEST POP JUMP JUMPDEST PUSH2 0x1D42 DUP1 PUSH3 0x604 PUSH1 0x0 CODECOPY PUSH1 0x0 RETURN INVALID PUSH1 0x80 PUSH1 0x40 MSTORE PUSH1 0x4 CALLDATASIZE LT PUSH2 0xDD JUMPI PUSH1 0x0 CALLDATALOAD PUSH1 0xE0 SHR DUP1 PUSH4 0x78F45340 GT PUSH2 0x7F JUMPI DUP1 PUSH4 0xC458B65A GT PUSH2 0x59 JUMPI DUP1 PUSH4 0xC458B65A EQ PUSH2 0x282 JUMPI DUP1 PUSH4 0xC486456C EQ PUSH2 0x2AD JUMPI DUP1 PUSH4 0xD57BDE79 EQ PUSH2 0x2D8 JUMPI DUP1 PUSH4 0xEF86CE8E EQ PUSH2 0x303 JUMPI PUSH2 0xDD JUMP JUMPDEST DUP1 PUSH4 0x78F45340 EQ PUSH2 0x201 JUMPI DUP1 PUSH4 0x91F90157 EQ PUSH2 0x22C JUMPI DUP1 PUSH4 0x9435C887 EQ PUSH2 0x257 JUMPI PUSH2 0xDD JUMP JUMPDEST DUP1 PUSH4 0x389009F0 GT PUSH2 0xBB JUMPI DUP1 PUSH4 0x389009F0 EQ PUSH2 0x157 JUMPI DUP1 PUSH4 0x3BA88CA1 EQ PUSH2 0x16E JUMPI DUP1 PUSH4 0x3CCFD60B EQ PUSH2 0x199 JUMPI DUP1 PUSH4 0x62EA82DB EQ PUSH2 0x1C4 JUMPI PUSH2 0xDD JUMP JUMPDEST DUP1 PUSH4 0x216F202 EQ PUSH2 0xE2 JUMPI DUP1 PUSH4 0xAC298DC EQ PUSH2 0x10E JUMPI DUP1 PUSH4 0x1998AEEF EQ PUSH2 0x139 JUMPI JUMPDEST PUSH1 0x0 DUP1 REVERT JUMPDEST CALLVALUE DUP1 ISZERO PUSH2 0xEE JUMPI PUSH1 0x0 DUP1 REVERT JUMPDEST POP PUSH2 0xF7 PUSH2 0x31A JUMP JUMPDEST PUSH1 0x40 MLOAD PUSH2 0x105 SWAP3 SWAP2 SWAP1 PUSH2 0x1754 JUMP JUMPDEST PUSH1 0x40 MLOAD DUP1 SWAP2 SUB SWAP1 RETURN JUMPDEST CALLVALUE DUP1 ISZERO PUSH2 0x11A JUMPI PUSH1 0x0 DUP1 REVERT JUMPDEST POP PUSH2 0x123 PUSH2 0x43C JUMP JUMPDEST PUSH1 0x40 MLOAD PUSH2 0x130 SWAP2 SWAP1 PUSH2 0x1688 JUMP JUMPDEST PUSH1 0x40 MLOAD DUP1 SWAP2 SUB SWAP1 RETURN JUMPDEST PUSH2 0x141 PUSH2 0x465 JUMP JUMPDEST PUSH1 0x40 MLOAD PUSH2 0x14E SWAP2 SWAP1 PUSH2 0x16CC JUMP JUMPDEST PUSH1 0x40 MLOAD DUP1 SWAP2 SUB SWAP1 RETURN JUMPDEST CALLVALUE DUP1 ISZERO PUSH2 0x163 JUMPI PUSH1 0x0 DUP1 REVERT JUMPDEST POP PUSH2 0x16C PUSH2 0x7FF JUMP JUMPDEST STOP JUMPDEST CALLVALUE DUP1 ISZERO PUSH2 0x17A JUMPI PUSH1 0x0 DUP1 REVERT JUMPDEST POP PUSH2 0x183 PUSH2 0x917 JUMP JUMPDEST PUSH1 0x40 MLOAD PUSH2 0x190 SWAP2 SWAP1 PUSH2 0x16CC JUMP JUMPDEST PUSH1 0x40 MLOAD DUP1 SWAP2 SUB SWAP1 RETURN JUMPDEST CALLVALUE DUP1 ISZERO PUSH2 0x1A5 JUMPI PUSH1 0x0 DUP1 REVERT JUMPDEST POP PUSH2 0x1AE PUSH2 0x9F3 JUMP JUMPDEST PUSH1 0x40 MLOAD PUSH2 0x1BB SWAP2 SWAP1 PUSH2 0x16CC JUMP JUMPDEST PUSH1 0x40 MLOAD DUP1 SWAP2 SUB SWAP1 RETURN JUMPDEST CALLVALUE DUP1 ISZERO PUSH2 0x1D0 JUMPI PUSH1 0x0 DUP1 REVERT JUMPDEST POP PUSH2 0x1EB PUSH1 0x4 DUP1 CALLDATASIZE SUB DUP2 ADD SWAP1 PUSH2 0x1E6 SWAP2 SWAP1 PUSH2 0x1436 JUMP JUMPDEST PUSH2 0xBAE JUMP JUMPDEST PUSH1 0x40 MLOAD PUSH2 0x1F8 SWAP2 SWAP1 PUSH2 0x18CB JUMP JUMPDEST PUSH1 0x40 MLOAD DUP1 SWAP2 SUB SWAP1 RETURN JUMPDEST CALLVALUE DUP1 ISZERO PUSH2 0x20D JUMPI PUSH1 0x0 DUP1 REVERT JUMPDEST POP PUSH2 0x216 PUSH2 0xBC6 JUMP JUMPDEST PUSH1 0x40 MLOAD PUSH2 0x223 SWAP2 SWAP1 PUSH2 0x18CB JUMP JUMPDEST PUSH1 0x40 MLOAD DUP1 SWAP2 SUB SWAP1 RETURN JUMPDEST CALLVALUE DUP1 ISZERO PUSH2 0x238 JUMPI PUSH1 0x0 DUP1 REVERT JUMPDEST POP PUSH2 0x241 PUSH2 0xBCC JUMP JUMPDEST PUSH1 0x40 MLOAD PUSH2 0x24E SWAP2 SWAP1 PUSH2 0x1688 JUMP JUMPDEST PUSH1 0x40 MLOAD DUP1 SWAP2 SUB SWAP1 RETURN JUMPDEST CALLVALUE DUP1 ISZERO PUSH2 0x263 JUMPI PUSH1 0x0 DUP1 REVERT JUMPDEST POP PUSH2 0x26C PUSH2 0xBF2 JUMP JUMPDEST PUSH1 0x40 MLOAD PUSH2 0x279 SWAP2 SWAP1 PUSH2 0x16CC JUMP JUMPDEST PUSH1 0x40 MLOAD DUP1 SWAP2 SUB SWAP1 RETURN JUMPDEST CALLVALUE DUP1 ISZERO PUSH2 0x28E JUMPI PUSH1 0x0 DUP1 REVERT JUMPDEST POP PUSH2 0x297 PUSH2 0xE20 JUMP JUMPDEST PUSH1 0x40 MLOAD PUSH2 0x2A4 SWAP2 SWAP1 PUSH2 0x18CB JUMP JUMPDEST PUSH1 0x40 MLOAD DUP1 SWAP2 SUB SWAP1 RETURN JUMPDEST CALLVALUE DUP1 ISZERO PUSH2 0x2B9 JUMPI PUSH1 0x0 DUP1 REVERT JUMPDEST POP PUSH2 0x2C2 PUSH2 0xE26 JUMP JUMPDEST PUSH1 0x40 MLOAD PUSH2 0x2CF SWAP2 SWAP1 PUSH2 0x16E7 JUMP JUMPDEST PUSH1 0x40 MLOAD DUP1 SWAP2 SUB SWAP1 RETURN JUMPDEST CALLVALUE DUP1 ISZERO PUSH2 0x2E4 JUMPI PUSH1 0x0 DUP1 REVERT JUMPDEST POP PUSH2 0x2ED PUSH2 0xE39 JUMP JUMPDEST PUSH1 0x40 MLOAD PUSH2 0x2FA SWAP2 SWAP1 PUSH2 0x18CB JUMP JUMPDEST PUSH1 0x40 MLOAD DUP1 SWAP2 SUB SWAP1 RETURN JUMPDEST CALLVALUE DUP1 ISZERO PUSH2 0x30F JUMPI PUSH1 0x0 DUP1 REVERT JUMPDEST POP PUSH2 0x318 PUSH2 0xE3F JUMP JUMPDEST STOP JUMPDEST PUSH1 0x5 DUP1 PUSH1 0x0 ADD DUP1 SLOAD PUSH2 0x32B SWAP1 PUSH2 0x1A05 JUMP JUMPDEST DUP1 PUSH1 0x1F ADD PUSH1 0x20 DUP1 SWAP2 DIV MUL PUSH1 0x20 ADD PUSH1 0x40 MLOAD SWAP1 DUP2 ADD PUSH1 0x40 MSTORE DUP1 SWAP3 SWAP2 SWAP1 DUP2 DUP2 MSTORE PUSH1 0x20 ADD DUP3 DUP1 SLOAD PUSH2 0x357 SWAP1 PUSH2 0x1A05 JUMP JUMPDEST DUP1 ISZERO PUSH2 0x3A4 JUMPI DUP1 PUSH1 0x1F LT PUSH2 0x379 JUMPI PUSH2 0x100 DUP1 DUP4 SLOAD DIV MUL DUP4 MSTORE SWAP2 PUSH1 0x20 ADD SWAP2 PUSH2 0x3A4 JUMP JUMPDEST DUP3 ADD SWAP2 SWAP1 PUSH1 0x0 MSTORE PUSH1 0x20 PUSH1 0x0 KECCAK256 SWAP1 JUMPDEST DUP2 SLOAD DUP2 MSTORE SWAP1 PUSH1 0x1 ADD SWAP1 PUSH1 0x20 ADD DUP1 DUP4 GT PUSH2 0x387 JUMPI DUP3 SWAP1 SUB PUSH1 0x1F AND DUP3 ADD SWAP2 JUMPDEST POP POP POP POP POP SWAP1 DUP1 PUSH1 0x1 ADD DUP1 SLOAD PUSH2 0x3B9 SWAP1 PUSH2 0x1A05 JUMP JUMPDEST DUP1 PUSH1 0x1F ADD PUSH1 0x20 DUP1 SWAP2 DIV MUL PUSH1 0x20 ADD PUSH1 0x40 MLOAD SWAP1 DUP2 ADD PUSH1 0x40 MSTORE DUP1 SWAP3 SWAP2 SWAP1 DUP2 DUP2 MSTORE PUSH1 0x20 ADD DUP3 DUP1 SLOAD PUSH2 0x3E5 SWAP1 PUSH2 0x1A05 JUMP JUMPDEST DUP1 ISZERO PUSH2 0x432 JUMPI DUP1 PUSH1 0x1F LT PUSH2 0x407 JUMPI PUSH2 0x100 DUP1 DUP4 SLOAD DIV MUL DUP4 MSTORE SWAP2 PUSH1 0x20 ADD SWAP2 PUSH2 0x432 JUMP JUMPDEST DUP3 ADD SWAP2 SWAP1 PUSH1 0x0 MSTORE PUSH1 0x20 PUSH1 0x0 KECCAK256 SWAP1 JUMPDEST DUP2 SLOAD DUP2 MSTORE SWAP1 PUSH1 0x1 ADD SWAP1 PUSH1 0x20 ADD DUP1 DUP4 GT PUSH2 0x415 JUMPI DUP3 SWAP1 SUB PUSH1 0x1F AND DUP3 ADD SWAP2 JUMPDEST POP POP POP POP POP SWAP1 POP DUP3 JUMP JUMPDEST PUSH1 0x0 DUP1 PUSH1 0x0 SWAP1 SLOAD SWAP1 PUSH2 0x100 EXP SWAP1 DIV PUSH20 0xFFFFFFFFFFFFFFFFFFFFFFFFFFFFFFFFFFFFFFFF AND SWAP1 POP SWAP1 JUMP JUMPDEST PUSH1 0x0 PUSH1 0x2 SLOAD TIMESTAMP GT ISZERO DUP1 ISZERO PUSH2 0x4F7 JUMPI POP PUSH1 0x1 DUP1 DUP2 GT ISZERO PUSH2 0x4AD JUMPI PUSH32 0x4E487B7100000000000000000000000000000000000000000000000000000000 PUSH1 0x0 MSTORE PUSH1 0x21 PUSH1 0x4 MSTORE PUSH1 0x24 PUSH1 0x0 REVERT JUMPDEST PUSH1 0x9 PUSH1 0x0 SWAP1 SLOAD SWAP1 PUSH2 0x100 EXP SWAP1 DIV PUSH1 0xFF AND PUSH1 0x1 DUP2 GT ISZERO PUSH2 0x4F5 JUMPI PUSH32 0x4E487B7100000000000000000000000000000000000000000000000000000000 PUSH1 0x0 MSTORE PUSH1 0x21 PUSH1 0x4 MSTORE PUSH1 0x24 PUSH1 0x0 REVERT JUMPDEST EQ JUMPDEST PUSH2 0x536 JUMPI PUSH1 0x40 MLOAD PUSH32 0x8C379A000000000000000000000000000000000000000000000000000000000 DUP2 MSTORE PUSH1 0x4 ADD PUSH2 0x52D SWAP1 PUSH2 0x188B JUMP JUMPDEST PUSH1 0x40 MLOAD DUP1 SWAP2 SUB SWAP1 REVERT JUMPDEST PUSH1 0x0 CALLVALUE GT PUSH2 0x579 JUMPI PUSH1 0x40 MLOAD PUSH32 0x8C379A000000000000000000000000000000000000000000000000000000000 DUP2 MSTORE PUSH1 0x4 ADD PUSH2 0x570 SWAP1 PUSH2 0x184B JUMP JUMPDEST PUSH1 0x40 MLOAD DUP1 SWAP2 SUB SWAP1 REVERT JUMPDEST PUSH1 0x3 SLOAD CALLVALUE GT PUSH2 0x5BD JUMPI PUSH1 0x40 MLOAD PUSH32 0x8C379A000000000000000000000000000000000000000000000000000000000 DUP2 MSTORE PUSH1 0x4 ADD PUSH2 0x5B4 SWAP1 PUSH2 0x18AB JUMP JUMPDEST PUSH1 0x40 MLOAD DUP1 SWAP2 SUB SWAP1 REVERT JUMPDEST PUSH1 0x0 PUSH1 0x3 SLOAD GT ISZERO PUSH2 0x634 JUMPI PUSH1 0x4 PUSH1 0x0 SWAP1 SLOAD SWAP1 PUSH2 0x100 EXP SWAP1 DIV PUSH20 0xFFFFFFFFFFFFFFFFFFFFFFFFFFFFFFFFFFFFFFFF AND PUSH20 0xFFFFFFFFFFFFFFFFFFFFFFFFFFFFFFFFFFFFFFFF AND PUSH2 0x8FC PUSH1 0x3 SLOAD SWAP1 DUP2 ISZERO MUL SWAP1 PUSH1 0x40 MLOAD PUSH1 0x0 PUSH1 0x40 MLOAD DUP1 DUP4 SUB DUP2 DUP6 DUP9 DUP9 CALL SWAP4 POP POP POP POP ISZERO DUP1 ISZERO PUSH2 0x632 JUMPI RETURNDATASIZE PUSH1 0x0 DUP1 RETURNDATACOPY RETURNDATASIZE PUSH1 0x0 REVERT JUMPDEST POP JUMPDEST CALLER PUSH1 0x4 PUSH1 0x0 PUSH2 0x100 EXP DUP2 SLOAD DUP2 PUSH20 0xFFFFFFFFFFFFFFFFFFFFFFFFFFFFFFFFFFFFFFFF MUL NOT AND SWAP1 DUP4 PUSH20 0xFFFFFFFFFFFFFFFFFFFFFFFFFFFFFFFFFFFFFFFF AND MUL OR SWAP1 SSTORE POP CALLVALUE PUSH1 0x3 DUP2 SWAP1 SSTORE POP CALLVALUE PUSH1 0x8 PUSH1 0x0 CALLER PUSH20 0xFFFFFFFFFFFFFFFFFFFFFFFFFFFFFFFFFFFFFFFF AND PUSH20 0xFFFFFFFFFFFFFFFFFFFFFFFFFFFFFFFFFFFFFFFF AND DUP2 MSTORE PUSH1 0x20 ADD SWAP1 DUP2 MSTORE PUSH1 0x20 ADD PUSH1 0x0 KECCAK256 DUP2 SWAP1 SSTORE POP PUSH1 0x0 PUSH1 0x8 PUSH1 0x0 CALLER PUSH20 0xFFFFFFFFFFFFFFFFFFFFFFFFFFFFFFFFFFFFFFFF AND PUSH20 0xFFFFFFFFFFFFFFFFFFFFFFFFFFFFFFFFFFFFFFFF AND DUP2 MSTORE PUSH1 0x20 ADD SWAP1 DUP2 MSTORE PUSH1 0x20 ADD PUSH1 0x0 KECCAK256 SLOAD EQ DUP1 ISZERO PUSH2 0x715 JUMPI POP PUSH2 0x713 CALLER PUSH2 0xFE6 JUMP JUMPDEST ISZERO JUMPDEST ISZERO PUSH2 0x77E JUMPI PUSH1 0x7 CALLER SWAP1 DUP1 PUSH1 0x1 DUP2 SLOAD ADD DUP1 DUP3 SSTORE DUP1 SWAP2 POP POP PUSH1 0x1 SWAP1 SUB SWAP1 PUSH1 0x0 MSTORE PUSH1 0x20 PUSH1 0x0 KECCAK256 ADD PUSH1 0x0 SWAP1 SWAP2 SWAP1 SWAP2 SWAP1 SWAP2 PUSH2 0x100 EXP DUP2 SLOAD DUP2 PUSH20 0xFFFFFFFFFFFFFFFFFFFFFFFFFFFFFFFFFFFFFFFF MUL NOT AND SWAP1 DUP4 PUSH20 0xFFFFFFFFFFFFFFFFFFFFFFFFFFFFFFFFFFFFFFFF AND MUL OR SWAP1 SSTORE POP JUMPDEST PUSH1 0x4 PUSH1 0x0 SWAP1 SLOAD SWAP1 PUSH2 0x100 EXP SWAP1 DIV PUSH20 0xFFFFFFFFFFFFFFFFFFFFFFFFFFFFFFFFFFFFFFFF AND PUSH20 0xFFFFFFFFFFFFFFFFFFFFFFFFFFFFFFFFFFFFFFFF AND PUSH32 0xD993D4F8A84158F5329713D6D13EF54E77B325040C887C8B3E565CFD0CD3E21 PUSH1 0x3 SLOAD PUSH1 0x40 MLOAD PUSH2 0x7E8 SWAP2 SWAP1 PUSH2 0x18CB JUMP JUMPDEST PUSH1 0x40 MLOAD DUP1 SWAP2 SUB SWAP1 LOG2 PUSH2 0x7F8 PUSH2 0x10BB JUMP JUMPDEST PUSH1 0x1 SWAP1 POP SWAP1 JUMP JUMPDEST PUSH1 0x0 DUP1 SLOAD SWAP1 PUSH2 0x100 EXP SWAP1 DIV PUSH20 0xFFFFFFFFFFFFFFFFFFFFFFFFFFFFFFFFFFFFFFFF AND PUSH20 0xFFFFFFFFFFFFFFFFFFFFFFFFFFFFFFFFFFFFFFFF AND CALLER PUSH20 0xFFFFFFFFFFFFFFFFFFFFFFFFFFFFFFFFFFFFFFFF AND EQ PUSH2 0x88D JUMPI PUSH1 0x40 MLOAD PUSH32 0x8C379A000000000000000000000000000000000000000000000000000000000 DUP2 MSTORE PUSH1 0x4 ADD PUSH2 0x884 SWAP1 PUSH2 0x182B JUMP JUMPDEST PUSH1 0x40 MLOAD DUP1 SWAP2 SUB SWAP1 REVERT JUMPDEST PUSH1 0x2 SLOAD TIMESTAMP GT PUSH2 0x8D1 JUMPI PUSH1 0x40 MLOAD PUSH32 0x8C379A000000000000000000000000000000000000000000000000000000000 DUP2 MSTORE PUSH1 0x4 ADD PUSH2 0x8C8 SWAP1 PUSH2 0x17EB JUMP JUMPDEST PUSH1 0x40 MLOAD DUP1 SWAP2 SUB SWAP1 REVERT JUMPDEST PUSH2 0x8DB PUSH1 0x0 PUSH2 0x10D1 JUMP JUMPDEST PUSH32 0xCB3C98892A5C11582E6B5E5CAA647EF56C5D646F1BF6884C2CAE5AFF754639E3 PUSH1 0x2 TIMESTAMP PUSH1 0x40 MLOAD PUSH2 0x90D SWAP3 SWAP2 SWAP1 PUSH2 0x172B JUMP JUMPDEST PUSH1 0x40 MLOAD DUP1 SWAP2 SUB SWAP1 LOG1 JUMP JUMPDEST PUSH1 0x0 DUP1 PUSH1 0x0 SWAP1 SLOAD SWAP1 PUSH2 0x100 EXP SWAP1 DIV PUSH20 0xFFFFFFFFFFFFFFFFFFFFFFFFFFFFFFFFFFFFFFFF AND PUSH20 0xFFFFFFFFFFFFFFFFFFFFFFFFFFFFFFFFFFFFFFFF AND CALLER PUSH20 0xFFFFFFFFFFFFFFFFFFFFFFFFFFFFFFFFFFFFFFFF AND EQ PUSH2 0x9A8 JUMPI PUSH1 0x40 MLOAD PUSH32 0x8C379A000000000000000000000000000000000000000000000000000000000 DUP2 MSTORE PUSH1 0x4 ADD PUSH2 0x99F SWAP1 PUSH2 0x182B JUMP JUMPDEST PUSH1 0x40 MLOAD DUP1 SWAP2 SUB SWAP1 REVERT JUMPDEST PUSH2 0x9B2 PUSH1 0x0 PUSH2 0x10D1 JUMP JUMPDEST PUSH32 0xCB3C98892A5C11582E6B5E5CAA647EF56C5D646F1BF6884C2CAE5AFF754639E3 PUSH1 0x1 TIMESTAMP PUSH1 0x40 MLOAD PUSH2 0x9E4 SWAP3 SWAP2 SWAP1 PUSH2 0x1702 JUMP JUMPDEST PUSH1 0x40 MLOAD DUP1 SWAP2 SUB SWAP1 LOG1 PUSH1 0x1 SWAP1 POP SWAP1 JUMP JUMPDEST PUSH1 0x0 DUP1 PUSH1 0x8 PUSH1 0x0 CALLER PUSH20 0xFFFFFFFFFFFFFFFFFFFFFFFFFFFFFFFFFFFFFFFF AND PUSH20 0xFFFFFFFFFFFFFFFFFFFFFFFFFFFFFFFFFFFFFFFF AND DUP2 MSTORE PUSH1 0x20 ADD SWAP1 DUP2 MSTORE PUSH1 0x20 ADD PUSH1 0x0 KECCAK256 SLOAD SWAP1 POP PUSH1 0x0 DUP2 GT PUSH2 0xA7B JUMPI PUSH1 0x40 MLOAD PUSH32 0x8C379A000000000000000000000000000000000000000000000000000000000 DUP2 MSTORE PUSH1 0x4 ADD PUSH2 0xA72 SWAP1 PUSH2 0x180B JUMP JUMPDEST PUSH1 0x40 MLOAD DUP1 SWAP2 SUB SWAP1 REVERT JUMPDEST PUSH1 0x0 PUSH1 0x8 PUSH1 0x0 CALLER PUSH20 0xFFFFFFFFFFFFFFFFFFFFFFFFFFFFFFFFFFFFFFFF AND PUSH20 0xFFFFFFFFFFFFFFFFFFFFFFFFFFFFFFFFFFFFFFFF AND DUP2 MSTORE PUSH1 0x20 ADD SWAP1 DUP2 MSTORE PUSH1 0x20 ADD PUSH1 0x0 KECCAK256 DUP2 SWAP1 SSTORE POP PUSH1 0x0 CALLER PUSH20 0xFFFFFFFFFFFFFFFFFFFFFFFFFFFFFFFFFFFFFFFF AND DUP3 PUSH1 0x40 MLOAD PUSH2 0xAE6 SWAP1 PUSH2 0x1673 JUMP JUMPDEST PUSH1 0x0 PUSH1 0x40 MLOAD DUP1 DUP4 SUB DUP2 DUP6 DUP8 GAS CALL SWAP3 POP POP POP RETURNDATASIZE DUP1 PUSH1 0x0 DUP2 EQ PUSH2 0xB23 JUMPI PUSH1 0x40 MLOAD SWAP2 POP PUSH1 0x1F NOT PUSH1 0x3F RETURNDATASIZE ADD AND DUP3 ADD PUSH1 0x40 MSTORE RETURNDATASIZE DUP3 MSTORE RETURNDATASIZE PUSH1 0x0 PUSH1 0x20 DUP5 ADD RETURNDATACOPY PUSH2 0xB28 JUMP JUMPDEST PUSH1 0x60 SWAP2 POP JUMPDEST POP POP SWAP1 POP DUP1 PUSH2 0xB6C JUMPI PUSH1 0x40 MLOAD PUSH32 0x8C379A000000000000000000000000000000000000000000000000000000000 DUP2 MSTORE PUSH1 0x4 ADD PUSH2 0xB63 SWAP1 PUSH2 0x17CB JUMP JUMPDEST PUSH1 0x40 MLOAD DUP1 SWAP2 SUB SWAP1 REVERT JUMPDEST PUSH32 0x2F174CA282119315C59EFAF21147AEF438581DABDEB498198AE28964373DD8BC CALLER DUP4 PUSH1 0x40 MLOAD PUSH2 0xB9D SWAP3 SWAP2 SWAP1 PUSH2 0x16A3 JUMP JUMPDEST PUSH1 0x40 MLOAD DUP1 SWAP2 SUB SWAP1 LOG1 PUSH1 0x1 SWAP3 POP POP POP SWAP1 JUMP JUMPDEST PUSH1 0x8 PUSH1 0x20 MSTORE DUP1 PUSH1 0x0 MSTORE PUSH1 0x40 PUSH1 0x0 KECCAK256 PUSH1 0x0 SWAP2 POP SWAP1 POP SLOAD DUP2 JUMP JUMPDEST PUSH1 0x1 SLOAD DUP2 JUMP JUMPDEST PUSH1 0x4 PUSH1 0x0 SWAP1 SLOAD SWAP1 PUSH2 0x100 EXP SWAP1 DIV PUSH20 0xFFFFFFFFFFFFFFFFFFFFFFFFFFFFFFFFFFFFFFFF AND DUP2 JUMP JUMPDEST PUSH1 0x0 DUP1 PUSH1 0x8 PUSH1 0x0 CALLER PUSH20 0xFFFFFFFFFFFFFFFFFFFFFFFFFFFFFFFFFFFFFFFF AND PUSH20 0xFFFFFFFFFFFFFFFFFFFFFFFFFFFFFFFFFFFFFFFF AND DUP2 MSTORE PUSH1 0x20 ADD SWAP1 DUP2 MSTORE PUSH1 0x20 ADD PUSH1 0x0 KECCAK256 SLOAD GT PUSH2 0xC75 JUMPI PUSH1 0x40 MLOAD PUSH32 0x8C379A000000000000000000000000000000000000000000000000000000000 DUP2 MSTORE PUSH1 0x4 ADD PUSH2 0xC6C SWAP1 PUSH2 0x17AB JUMP JUMPDEST PUSH1 0x40 MLOAD DUP1 SWAP2 SUB SWAP1 REVERT JUMPDEST PUSH1 0x4 PUSH1 0x0 SWAP1 SLOAD SWAP1 PUSH2 0x100 EXP SWAP1 DIV PUSH20 0xFFFFFFFFFFFFFFFFFFFFFFFFFFFFFFFFFFFFFFFF AND PUSH20 0xFFFFFFFFFFFFFFFFFFFFFFFFFFFFFFFFFFFFFFFF AND CALLER PUSH20 0xFFFFFFFFFFFFFFFFFFFFFFFFFFFFFFFFFFFFFFFF AND EQ ISZERO PUSH2 0xD06 JUMPI PUSH1 0x40 MLOAD PUSH32 0x8C379A000000000000000000000000000000000000000000000000000000000 DUP2 MSTORE PUSH1 0x4 ADD PUSH2 0xCFD SWAP1 PUSH2 0x186B JUMP JUMPDEST PUSH1 0x40 MLOAD DUP1 SWAP2 SUB SWAP1 REVERT JUMPDEST PUSH1 0x0 PUSH1 0x8 PUSH1 0x0 CALLER PUSH20 0xFFFFFFFFFFFFFFFFFFFFFFFFFFFFFFFFFFFFFFFF AND PUSH20 0xFFFFFFFFFFFFFFFFFFFFFFFFFFFFFFFFFFFFFFFF AND DUP2 MSTORE PUSH1 0x20 ADD SWAP1 DUP2 MSTORE PUSH1 0x20 ADD PUSH1 0x0 KECCAK256 SLOAD SWAP1 POP PUSH1 0x0 PUSH1 0x8 PUSH1 0x0 CALLER PUSH20 0xFFFFFFFFFFFFFFFFFFFFFFFFFFFFFFFFFFFFFFFF AND PUSH20 0xFFFFFFFFFFFFFFFFFFFFFFFFFFFFFFFFFFFFFFFF AND DUP2 MSTORE PUSH1 0x20 ADD SWAP1 DUP2 MSTORE PUSH1 0x20 ADD PUSH1 0x0 KECCAK256 DUP2 SWAP1 SSTORE POP PUSH2 0xD98 CALLER PUSH2 0x11F8 JUMP JUMPDEST CALLER PUSH20 0xFFFFFFFFFFFFFFFFFFFFFFFFFFFFFFFFFFFFFFFF AND PUSH2 0x8FC DUP3 SWAP1 DUP2 ISZERO MUL SWAP1 PUSH1 0x40 MLOAD PUSH1 0x0 PUSH1 0x40 MLOAD DUP1 DUP4 SUB DUP2 DUP6 DUP9 DUP9 CALL SWAP4 POP POP POP POP ISZERO DUP1 ISZERO PUSH2 0xDDE JUMPI RETURNDATASIZE PUSH1 0x0 DUP1 RETURNDATACOPY RETURNDATASIZE PUSH1 0x0 REVERT JUMPDEST POP PUSH32 0x2F174CA282119315C59EFAF21147AEF438581DABDEB498198AE28964373DD8BC CALLER DUP3 PUSH1 0x40 MLOAD PUSH2 0xE10 SWAP3 SWAP2 SWAP1 PUSH2 0x16A3 JUMP JUMPDEST PUSH1 0x40 MLOAD DUP1 SWAP2 SUB SWAP1 LOG1 PUSH1 0x1 SWAP2 POP POP SWAP1 JUMP JUMPDEST PUSH1 0x2 SLOAD DUP2 JUMP JUMPDEST PUSH1 0x9 PUSH1 0x0 SWAP1 SLOAD SWAP1 PUSH2 0x100 EXP SWAP1 DIV PUSH1 0xFF AND DUP2 JUMP JUMPDEST PUSH1 0x3 SLOAD DUP2 JUMP JUMPDEST PUSH1 0x0 DUP1 SLOAD SWAP1 PUSH2 0x100 EXP SWAP1 DIV PUSH20 0xFFFFFFFFFFFFFFFFFFFFFFFFFFFFFFFFFFFFFFFF AND PUSH20 0xFFFFFFFFFFFFFFFFFFFFFFFFFFFFFFFFFFFFFFFF AND CALLER PUSH20 0xFFFFFFFFFFFFFFFFFFFFFFFFFFFFFFFFFFFFFFFF AND EQ PUSH2 0xECD JUMPI PUSH1 0x40 MLOAD PUSH32 0x8C379A000000000000000000000000000000000000000000000000000000000 DUP2 MSTORE PUSH1 0x4 ADD PUSH2 0xEC4 SWAP1 PUSH2 0x182B JUMP JUMPDEST PUSH1 0x40 MLOAD DUP1 SWAP2 SUB SWAP1 REVERT JUMPDEST PUSH1 0x0 SELFBALANCE SWAP1 POP PUSH1 0x0 DUP2 GT PUSH2 0xF15 JUMPI PUSH1 0x40 MLOAD PUSH32 0x8C379A000000000000000000000000000000000000000000000000000000000 DUP2 MSTORE PUSH1 0x4 ADD PUSH2 0xF0C SWAP1 PUSH2 0x178B JUMP JUMPDEST PUSH1 0x40 MLOAD DUP1 SWAP2 SUB SWAP1 REVERT JUMPDEST PUSH1 0x0 DUP1 PUSH1 0x0 SWAP1 SLOAD SWAP1 PUSH2 0x100 EXP SWAP1 DIV PUSH20 0xFFFFFFFFFFFFFFFFFFFFFFFFFFFFFFFFFFFFFFFF AND PUSH20 0xFFFFFFFFFFFFFFFFFFFFFFFFFFFFFFFFFFFFFFFF AND DUP3 PUSH1 0x40 MLOAD PUSH2 0xF5C SWAP1 PUSH2 0x1673 JUMP JUMPDEST PUSH1 0x0 PUSH1 0x40 MLOAD DUP1 DUP4 SUB DUP2 DUP6 DUP8 GAS CALL SWAP3 POP POP POP RETURNDATASIZE DUP1 PUSH1 0x0 DUP2 EQ PUSH2 0xF99 JUMPI PUSH1 0x40 MLOAD SWAP2 POP PUSH1 0x1F NOT PUSH1 0x3F RETURNDATASIZE ADD AND DUP3 ADD PUSH1 0x40 MSTORE RETURNDATASIZE DUP3 MSTORE RETURNDATASIZE PUSH1 0x0 PUSH1 0x20 DUP5 ADD RETURNDATACOPY PUSH2 0xF9E JUMP JUMPDEST PUSH1 0x60 SWAP2 POP JUMPDEST POP POP SWAP1 POP DUP1 PUSH2 0xFE2 JUMPI PUSH1 0x40 MLOAD PUSH32 0x8C379A000000000000000000000000000000000000000000000000000000000 DUP2 MSTORE PUSH1 0x4 ADD PUSH2 0xFD9 SWAP1 PUSH2 0x17CB JUMP JUMPDEST PUSH1 0x40 MLOAD DUP1 SWAP2 SUB SWAP1 REVERT JUMPDEST POP POP JUMP JUMPDEST PUSH1 0x0 DUP1 PUSH1 0x0 SWAP1 POP JUMPDEST PUSH1 0x7 DUP1 SLOAD SWAP1 POP DUP2 LT ISZERO PUSH2 0x10B0 JUMPI DUP3 PUSH20 0xFFFFFFFFFFFFFFFFFFFFFFFFFFFFFFFFFFFFFFFF AND PUSH1 0x7 DUP3 DUP2 SLOAD DUP2 LT PUSH2 0x104C JUMPI PUSH32 0x4E487B7100000000000000000000000000000000000000000000000000000000 PUSH1 0x0 MSTORE PUSH1 0x32 PUSH1 0x4 MSTORE PUSH1 0x24 PUSH1 0x0 REVERT JUMPDEST SWAP1 PUSH1 0x0 MSTORE PUSH1 0x20 PUSH1 0x0 KECCAK256 ADD PUSH1 0x0 SWAP1 SLOAD SWAP1 PUSH2 0x100 EXP SWAP1 DIV PUSH20 0xFFFFFFFFFFFFFFFFFFFFFFFFFFFFFFFFFFFFFFFF AND PUSH20 0xFFFFFFFFFFFFFFFFFFFFFFFFFFFFFFFFFFFFFFFF AND EQ ISZERO PUSH2 0x109D JUMPI PUSH1 0x1 SWAP2 POP POP PUSH2 0x10B6 JUMP JUMPDEST DUP1 DUP1 PUSH2 0x10A8 SWAP1 PUSH2 0x1A37 JUMP JUMPDEST SWAP2 POP POP PUSH2 0xFEE JUMP JUMPDEST POP PUSH1 0x0 SWAP1 POP JUMPDEST SWAP2 SWAP1 POP JUMP JUMPDEST PUSH1 0x2 SLOAD TIMESTAMP LT PUSH2 0x10CF JUMPI PUSH2 0x10CE PUSH1 0x0 PUSH2 0x10D1 JUMP JUMPDEST JUMPDEST JUMP JUMPDEST PUSH1 0x0 DUP1 SLOAD SWAP1 PUSH2 0x100 EXP SWAP1 DIV PUSH20 0xFFFFFFFFFFFFFFFFFFFFFFFFFFFFFFFFFFFFFFFF AND PUSH20 0xFFFFFFFFFFFFFFFFFFFFFFFFFFFFFFFFFFFFFFFF AND CALLER PUSH20 0xFFFFFFFFFFFFFFFFFFFFFFFFFFFFFFFFFFFFFFFF AND EQ PUSH2 0x115F JUMPI PUSH1 0x40 MLOAD PUSH32 0x8C379A000000000000000000000000000000000000000000000000000000000 DUP2 MSTORE PUSH1 0x4 ADD PUSH2 0x1156 SWAP1 PUSH2 0x182B JUMP JUMPDEST PUSH1 0x40 MLOAD DUP1 SWAP2 SUB SWAP1 REVERT JUMPDEST DUP1 PUSH1 0x9 PUSH1 0x0 PUSH2 0x100 EXP DUP2 SLOAD DUP2 PUSH1 0xFF MUL NOT AND SWAP1 DUP4 PUSH1 0x1 DUP2 GT ISZERO PUSH2 0x11AA JUMPI PUSH32 0x4E487B7100000000000000000000000000000000000000000000000000000000 PUSH1 0x0 MSTORE PUSH1 0x21 PUSH1 0x4 MSTORE PUSH1 0x24 PUSH1 0x0 REVERT JUMPDEST MUL OR SWAP1 SSTORE POP PUSH32 0x23AD33AB6A13A00AA7D06CD167B2ABD03DEC86AF3CF3CC91759DCD3AE8411887 PUSH1 0x9 PUSH1 0x0 SWAP1 SLOAD SWAP1 PUSH2 0x100 EXP SWAP1 DIV PUSH1 0xFF AND PUSH1 0x40 MLOAD PUSH2 0x11ED SWAP2 SWAP1 PUSH2 0x16E7 JUMP JUMPDEST PUSH1 0x40 MLOAD DUP1 SWAP2 SUB SWAP1 LOG1 POP JUMP JUMPDEST PUSH1 0x0 JUMPDEST PUSH1 0x7 DUP1 SLOAD SWAP1 POP DUP2 LT ISZERO PUSH2 0x141D JUMPI DUP2 PUSH20 0xFFFFFFFFFFFFFFFFFFFFFFFFFFFFFFFFFFFFFFFF AND PUSH1 0x7 DUP3 DUP2 SLOAD DUP2 LT PUSH2 0x1259 JUMPI PUSH32 0x4E487B7100000000000000000000000000000000000000000000000000000000 PUSH1 0x0 MSTORE PUSH1 0x32 PUSH1 0x4 MSTORE PUSH1 0x24 PUSH1 0x0 REVERT JUMPDEST SWAP1 PUSH1 0x0 MSTORE PUSH1 0x20 PUSH1 0x0 KECCAK256 ADD PUSH1 0x0 SWAP1 SLOAD SWAP1 PUSH2 0x100 EXP SWAP1 DIV PUSH20 0xFFFFFFFFFFFFFFFFFFFFFFFFFFFFFFFFFFFFFFFF AND PUSH20 0xFFFFFFFFFFFFFFFFFFFFFFFFFFFFFFFFFFFFFFFF AND EQ ISZERO PUSH2 0x140A JUMPI PUSH1 0x7 PUSH1 0x1 PUSH1 0x7 DUP1 SLOAD SWAP1 POP PUSH2 0x12B4 SWAP2 SWAP1 PUSH2 0x190D JUMP JUMPDEST DUP2 SLOAD DUP2 LT PUSH2 0x12EB JUMPI PUSH32 0x4E487B7100000000000000000000000000000000000000000000000000000000 PUSH1 0x0 MSTORE PUSH1 0x32 PUSH1 0x4 MSTORE PUSH1 0x24 PUSH1 0x0 REVERT JUMPDEST SWAP1 PUSH1 0x0 MSTORE PUSH1 0x20 PUSH1 0x0 KECCAK256 ADD PUSH1 0x0 SWAP1 SLOAD SWAP1 PUSH2 0x100 EXP SWAP1 DIV PUSH20 0xFFFFFFFFFFFFFFFFFFFFFFFFFFFFFFFFFFFFFFFF AND PUSH1 0x7 DUP3 DUP2 SLOAD DUP2 LT PUSH2 0x1350 JUMPI PUSH32 0x4E487B7100000000000000000000000000000000000000000000000000000000 PUSH1 0x0 MSTORE PUSH1 0x32 PUSH1 0x4 MSTORE PUSH1 0x24 PUSH1 0x0 REVERT JUMPDEST SWAP1 PUSH1 0x0 MSTORE PUSH1 0x20 PUSH1 0x0 KECCAK256 ADD PUSH1 0x0 PUSH2 0x100 EXP DUP2 SLOAD DUP2 PUSH20 0xFFFFFFFFFFFFFFFFFFFFFFFFFFFFFFFFFFFFFFFF MUL NOT AND SWAP1 DUP4 PUSH20 0xFFFFFFFFFFFFFFFFFFFFFFFFFFFFFFFFFFFFFFFF AND MUL OR SWAP1 SSTORE POP PUSH1 0x7 DUP1 SLOAD DUP1 PUSH2 0x13D0 JUMPI PUSH32 0x4E487B7100000000000000000000000000000000000000000000000000000000 PUSH1 0x0 MSTORE PUSH1 0x31 PUSH1 0x4 MSTORE PUSH1 0x24 PUSH1 0x0 REVERT JUMPDEST PUSH1 0x1 SWAP1 SUB DUP2 DUP2 SWAP1 PUSH1 0x0 MSTORE PUSH1 0x20 PUSH1 0x0 KECCAK256 ADD PUSH1 0x0 PUSH2 0x100 EXP DUP2 SLOAD SWAP1 PUSH20 0xFFFFFFFFFFFFFFFFFFFFFFFFFFFFFFFFFFFFFFFF MUL NOT AND SWAP1 SSTORE SWAP1 SSTORE PUSH2 0x141D JUMP JUMPDEST DUP1 DUP1 PUSH2 0x1415 SWAP1 PUSH2 0x1A37 JUMP JUMPDEST SWAP2 POP POP PUSH2 0x11FB JUMP JUMPDEST POP POP JUMP JUMPDEST PUSH1 0x0 DUP2 CALLDATALOAD SWAP1 POP PUSH2 0x1430 DUP2 PUSH2 0x1CF5 JUMP JUMPDEST SWAP3 SWAP2 POP POP JUMP JUMPDEST PUSH1 0x0 PUSH1 0x20 DUP3 DUP5 SUB SLT ISZERO PUSH2 0x1448 JUMPI PUSH1 0x0 DUP1 REVERT JUMPDEST PUSH1 0x0 PUSH2 0x1456 DUP5 DUP3 DUP6 ADD PUSH2 0x1421 JUMP JUMPDEST SWAP2 POP POP SWAP3 SWAP2 POP POP JUMP JUMPDEST PUSH2 0x1468 DUP2 PUSH2 0x1941 JUMP JUMPDEST DUP3 MSTORE POP POP JUMP JUMPDEST PUSH2 0x1477 DUP2 PUSH2 0x1953 JUMP JUMPDEST DUP3 MSTORE POP POP JUMP JUMPDEST PUSH2 0x1486 DUP2 PUSH2 0x199C JUMP JUMPDEST DUP3 MSTORE POP POP JUMP JUMPDEST PUSH2 0x1495 DUP2 PUSH2 0x19AE JUMP JUMPDEST DUP3 MSTORE POP POP JUMP JUMPDEST PUSH2 0x14A4 DUP2 PUSH2 0x19C0 JUMP JUMPDEST DUP3 MSTORE POP POP JUMP JUMPDEST PUSH1 0x0 PUSH2 0x14B5 DUP3 PUSH2 0x18E6 JUMP JUMPDEST PUSH2 0x14BF DUP2 DUP6 PUSH2 0x18FC JUMP JUMPDEST SWAP4 POP PUSH2 0x14CF DUP2 DUP6 PUSH1 0x20 DUP7 ADD PUSH2 0x19D2 JUMP JUMPDEST PUSH2 0x14D8 DUP2 PUSH2 0x1B0D JUMP JUMPDEST DUP5 ADD SWAP2 POP POP SWAP3 SWAP2 POP POP JUMP JUMPDEST PUSH1 0x0 PUSH2 0x14F0 PUSH1 0x1D DUP4 PUSH2 0x18FC JUMP JUMPDEST SWAP2 POP PUSH2 0x14FB DUP3 PUSH2 0x1B1E JUMP JUMPDEST PUSH1 0x20 DUP3 ADD SWAP1 POP SWAP2 SWAP1 POP JUMP JUMPDEST PUSH1 0x0 PUSH2 0x1513 PUSH1 0x20 DUP4 PUSH2 0x18FC JUMP JUMPDEST SWAP2 POP PUSH2 0x151E DUP3 PUSH2 0x1B47 JUMP JUMPDEST PUSH1 0x20 DUP3 ADD SWAP1 POP SWAP2 SWAP1 POP JUMP JUMPDEST PUSH1 0x0 PUSH2 0x1536 PUSH1 0xF DUP4 PUSH2 0x18FC JUMP JUMPDEST SWAP2 POP PUSH2 0x1541 DUP3 PUSH2 0x1B70 JUMP JUMPDEST PUSH1 0x20 DUP3 ADD SWAP1 POP SWAP2 SWAP1 POP JUMP JUMPDEST PUSH1 0x0 PUSH2 0x1559 PUSH1 0x18 DUP4 PUSH2 0x18FC JUMP JUMPDEST SWAP2 POP PUSH2 0x1564 DUP3 PUSH2 0x1B99 JUMP JUMPDEST PUSH1 0x20 DUP3 ADD SWAP1 POP SWAP2 SWAP1 POP JUMP JUMPDEST PUSH1 0x0 PUSH2 0x157C PUSH1 0x14 DUP4 PUSH2 0x18FC JUMP JUMPDEST SWAP2 POP PUSH2 0x1587 DUP3 PUSH2 0x1BC2 JUMP JUMPDEST PUSH1 0x20 DUP3 ADD SWAP1 POP SWAP2 SWAP1 POP JUMP JUMPDEST PUSH1 0x0 PUSH2 0x159F PUSH1 0x20 DUP4 PUSH2 0x18FC JUMP JUMPDEST SWAP2 POP PUSH2 0x15AA DUP3 PUSH2 0x1BEB JUMP JUMPDEST PUSH1 0x20 DUP3 ADD SWAP1 POP SWAP2 SWAP1 POP JUMP JUMPDEST PUSH1 0x0 PUSH2 0x15C2 PUSH1 0x23 DUP4 PUSH2 0x18FC JUMP JUMPDEST SWAP2 POP PUSH2 0x15CD DUP3 PUSH2 0x1C14 JUMP JUMPDEST PUSH1 0x40 DUP3 ADD SWAP1 POP SWAP2 SWAP1 POP JUMP JUMPDEST PUSH1 0x0 PUSH2 0x15E5 PUSH1 0x1D DUP4 PUSH2 0x18FC JUMP JUMPDEST SWAP2 POP PUSH2 0x15F0 DUP3 PUSH2 0x1C63 JUMP JUMPDEST PUSH1 0x20 DUP3 ADD SWAP1 POP SWAP2 SWAP1 POP JUMP JUMPDEST PUSH1 0x0 PUSH2 0x1608 PUSH1 0x11 DUP4 PUSH2 0x18FC JUMP JUMPDEST SWAP2 POP PUSH2 0x1613 DUP3 PUSH2 0x1C8C JUMP JUMPDEST PUSH1 0x20 DUP3 ADD SWAP1 POP SWAP2 SWAP1 POP JUMP JUMPDEST PUSH1 0x0 PUSH2 0x162B PUSH1 0x20 DUP4 PUSH2 0x18FC JUMP JUMPDEST SWAP2 POP PUSH2 0x1636 DUP3 PUSH2 0x1CB5 JUMP JUMPDEST PUSH1 0x20 DUP3 ADD SWAP1 POP SWAP2 SWAP1 POP JUMP JUMPDEST PUSH1 0x0 PUSH2 0x164E PUSH1 0x0 DUP4 PUSH2 0x18F1 JUMP JUMPDEST SWAP2 POP PUSH2 0x1659 DUP3 PUSH2 0x1CDE JUMP JUMPDEST PUSH1 0x0 DUP3 ADD SWAP1 POP SWAP2 SWAP1 POP JUMP JUMPDEST PUSH2 0x166D DUP2 PUSH2 0x1992 JUMP JUMPDEST DUP3 MSTORE POP POP JUMP JUMPDEST PUSH1 0x0 PUSH2 0x167E DUP3 PUSH2 0x1641 JUMP JUMPDEST SWAP2 POP DUP2 SWAP1 POP SWAP2 SWAP1 POP JUMP JUMPDEST PUSH1 0x0 PUSH1 0x20 DUP3 ADD SWAP1 POP PUSH2 0x169D PUSH1 0x0 DUP4 ADD DUP5 PUSH2 0x145F JUMP JUMPDEST SWAP3 SWAP2 POP POP JUMP JUMPDEST PUSH1 0x0 PUSH1 0x40 DUP3 ADD SWAP1 POP PUSH2 0x16B8 PUSH1 0x0 DUP4 ADD DUP6 PUSH2 0x145F JUMP JUMPDEST PUSH2 0x16C5 PUSH1 0x20 DUP4 ADD DUP5 PUSH2 0x1664 JUMP JUMPDEST SWAP4 SWAP3 POP POP POP JUMP JUMPDEST PUSH1 0x0 PUSH1 0x20 DUP3 ADD SWAP1 POP PUSH2 0x16E1 PUSH1 0x0 DUP4 ADD DUP5 PUSH2 0x146E JUMP JUMPDEST SWAP3 SWAP2 POP POP JUMP JUMPDEST PUSH1 0x0 PUSH1 0x20 DUP3 ADD SWAP1 POP PUSH2 0x16FC PUSH1 0x0 DUP4 ADD DUP5 PUSH2 0x147D JUMP JUMPDEST SWAP3 SWAP2 POP POP JUMP JUMPDEST PUSH1 0x0 PUSH1 0x40 DUP3 ADD SWAP1 POP PUSH2 0x1717 PUSH1 0x0 DUP4 ADD DUP6 PUSH2 0x148C JUMP JUMPDEST PUSH2 0x1724 PUSH1 0x20 DUP4 ADD DUP5 PUSH2 0x1664 JUMP JUMPDEST SWAP4 SWAP3 POP POP POP JUMP JUMPDEST PUSH1 0x0 PUSH1 0x40 DUP3 ADD SWAP1 POP PUSH2 0x1740 PUSH1 0x0 DUP4 ADD DUP6 PUSH2 0x149B JUMP JUMPDEST PUSH2 0x174D PUSH1 0x20 DUP4 ADD DUP5 PUSH2 0x1664 JUMP JUMPDEST SWAP4 SWAP3 POP POP POP JUMP JUMPDEST PUSH1 0x0 PUSH1 0x40 DUP3 ADD SWAP1 POP DUP2 DUP2 SUB PUSH1 0x0 DUP4 ADD MSTORE PUSH2 0x176E DUP2 DUP6 PUSH2 0x14AA JUMP JUMPDEST SWAP1 POP DUP2 DUP2 SUB PUSH1 0x20 DUP4 ADD MSTORE PUSH2 0x1782 DUP2 DUP5 PUSH2 0x14AA JUMP JUMPDEST SWAP1 POP SWAP4 SWAP3 POP POP POP JUMP JUMPDEST PUSH1 0x0 PUSH1 0x20 DUP3 ADD SWAP1 POP DUP2 DUP2 SUB PUSH1 0x0 DUP4 ADD MSTORE PUSH2 0x17A4 DUP2 PUSH2 0x14E3 JUMP JUMPDEST SWAP1 POP SWAP2 SWAP1 POP JUMP JUMPDEST PUSH1 0x0 PUSH1 0x20 DUP3 ADD SWAP1 POP DUP2 DUP2 SUB PUSH1 0x0 DUP4 ADD MSTORE PUSH2 0x17C4 DUP2 PUSH2 0x1506 JUMP JUMPDEST SWAP1 POP SWAP2 SWAP1 POP JUMP JUMPDEST PUSH1 0x0 PUSH1 0x20 DUP3 ADD SWAP1 POP DUP2 DUP2 SUB PUSH1 0x0 DUP4 ADD MSTORE PUSH2 0x17E4 DUP2 PUSH2 0x1529 JUMP JUMPDEST SWAP1 POP SWAP2 SWAP1 POP JUMP JUMPDEST PUSH1 0x0 PUSH1 0x20 DUP3 ADD SWAP1 POP DUP2 DUP2 SUB PUSH1 0x0 DUP4 ADD MSTORE PUSH2 0x1804 DUP2 PUSH2 0x154C JUMP JUMPDEST SWAP1 POP SWAP2 SWAP1 POP JUMP JUMPDEST PUSH1 0x0 PUSH1 0x20 DUP3 ADD SWAP1 POP DUP2 DUP2 SUB PUSH1 0x0 DUP4 ADD MSTORE PUSH2 0x1824 DUP2 PUSH2 0x156F JUMP JUMPDEST SWAP1 POP SWAP2 SWAP1 POP JUMP JUMPDEST PUSH1 0x0 PUSH1 0x20 DUP3 ADD SWAP1 POP DUP2 DUP2 SUB PUSH1 0x0 DUP4 ADD MSTORE PUSH2 0x1844 DUP2 PUSH2 0x1592 JUMP JUMPDEST SWAP1 POP SWAP2 SWAP1 POP JUMP JUMPDEST PUSH1 0x0 PUSH1 0x20 DUP3 ADD SWAP1 POP DUP2 DUP2 SUB PUSH1 0x0 DUP4 ADD MSTORE PUSH2 0x1864 DUP2 PUSH2 0x15B5 JUMP JUMPDEST SWAP1 POP SWAP2 SWAP1 POP JUMP JUMPDEST PUSH1 0x0 PUSH1 0x20 DUP3 ADD SWAP1 POP DUP2 DUP2 SUB PUSH1 0x0 DUP4 ADD MSTORE PUSH2 0x1884 DUP2 PUSH2 0x15D8 JUMP JUMPDEST SWAP1 POP SWAP2 SWAP1 POP JUMP JUMPDEST PUSH1 0x0 PUSH1 0x20 DUP3 ADD SWAP1 POP DUP2 DUP2 SUB PUSH1 0x0 DUP4 ADD MSTORE PUSH2 0x18A4 DUP2 PUSH2 0x15FB JUMP JUMPDEST SWAP1 POP SWAP2 SWAP1 POP JUMP JUMPDEST PUSH1 0x0 PUSH1 0x20 DUP3 ADD SWAP1 POP DUP2 DUP2 SUB PUSH1 0x0 DUP4 ADD MSTORE PUSH2 0x18C4 DUP2 PUSH2 0x161E JUMP JUMPDEST SWAP1 POP SWAP2 SWAP1 POP JUMP JUMPDEST PUSH1 0x0 PUSH1 0x20 DUP3 ADD SWAP1 POP PUSH2 0x18E0 PUSH1 0x0 DUP4 ADD DUP5 PUSH2 0x1664 JUMP JUMPDEST SWAP3 SWAP2 POP POP JUMP JUMPDEST PUSH1 0x0 DUP2 MLOAD SWAP1 POP SWAP2 SWAP1 POP JUMP JUMPDEST PUSH1 0x0 DUP2 SWAP1 POP SWAP3 SWAP2 POP POP JUMP JUMPDEST PUSH1 0x0 DUP3 DUP3 MSTORE PUSH1 0x20 DUP3 ADD SWAP1 POP SWAP3 SWAP2 POP POP JUMP JUMPDEST PUSH1 0x0 PUSH2 0x1918 DUP3 PUSH2 0x1992 JUMP JUMPDEST SWAP2 POP PUSH2 0x1923 DUP4 PUSH2 0x1992 JUMP JUMPDEST SWAP3 POP DUP3 DUP3 LT ISZERO PUSH2 0x1936 JUMPI PUSH2 0x1935 PUSH2 0x1A80 JUMP JUMPDEST JUMPDEST DUP3 DUP3 SUB SWAP1 POP SWAP3 SWAP2 POP POP JUMP JUMPDEST PUSH1 0x0 PUSH2 0x194C DUP3 PUSH2 0x1972 JUMP JUMPDEST SWAP1 POP SWAP2 SWAP1 POP JUMP JUMPDEST PUSH1 0x0 DUP2 ISZERO ISZERO SWAP1 POP SWAP2 SWAP1 POP JUMP JUMPDEST PUSH1 0x0 DUP2 SWAP1 POP PUSH2 0x196D DUP3 PUSH2 0x1CE1 JUMP JUMPDEST SWAP2 SWAP1 POP JUMP JUMPDEST PUSH1 0x0 PUSH20 0xFFFFFFFFFFFFFFFFFFFFFFFFFFFFFFFFFFFFFFFF DUP3 AND SWAP1 POP SWAP2 SWAP1 POP JUMP JUMPDEST PUSH1 0x0 DUP2 SWAP1 POP SWAP2 SWAP1 POP JUMP JUMPDEST PUSH1 0x0 PUSH2 0x19A7 DUP3 PUSH2 0x195F JUMP JUMPDEST SWAP1 POP SWAP2 SWAP1 POP JUMP JUMPDEST PUSH1 0x0 PUSH2 0x19B9 DUP3 PUSH2 0x1992 JUMP JUMPDEST SWAP1 POP SWAP2 SWAP1 POP JUMP JUMPDEST PUSH1 0x0 PUSH2 0x19CB DUP3 PUSH2 0x1992 JUMP JUMPDEST SWAP1 POP SWAP2 SWAP1 POP JUMP JUMPDEST PUSH1 0x0 JUMPDEST DUP4 DUP2 LT ISZERO PUSH2 0x19F0 JUMPI DUP1 DUP3 ADD MLOAD DUP2 DUP5 ADD MSTORE PUSH1 0x20 DUP2 ADD SWAP1 POP PUSH2 0x19D5 JUMP JUMPDEST DUP4 DUP2 GT ISZERO PUSH2 0x19FF JUMPI PUSH1 0x0 DUP5 DUP5 ADD MSTORE JUMPDEST POP POP POP POP JUMP JUMPDEST PUSH1 0x0 PUSH1 0x2 DUP3 DIV SWAP1 POP PUSH1 0x1 DUP3 AND DUP1 PUSH2 0x1A1D JUMPI PUSH1 0x7F DUP3 AND SWAP2 POP JUMPDEST PUSH1 0x20 DUP3 LT DUP2 EQ ISZERO PUSH2 0x1A31 JUMPI PUSH2 0x1A30 PUSH2 0x1ADE JUMP JUMPDEST JUMPDEST POP SWAP2 SWAP1 POP JUMP JUMPDEST PUSH1 0x0 PUSH2 0x1A42 DUP3 PUSH2 0x1992 JUMP JUMPDEST SWAP2 POP PUSH32 0xFFFFFFFFFFFFFFFFFFFFFFFFFFFFFFFFFFFFFFFFFFFFFFFFFFFFFFFFFFFFFFFF DUP3 EQ ISZERO PUSH2 0x1A75 JUMPI PUSH2 0x1A74 PUSH2 0x1A80 JUMP JUMPDEST JUMPDEST PUSH1 0x1 DUP3 ADD SWAP1 POP SWAP2 SWAP1 POP JUMP JUMPDEST PUSH32 0x4E487B7100000000000000000000000000000000000000000000000000000000 PUSH1 0x0 MSTORE PUSH1 0x11 PUSH1 0x4 MSTORE PUSH1 0x24 PUSH1 0x0 REVERT JUMPDEST PUSH32 0x4E487B7100000000000000000000000000000000000000000000000000000000 PUSH1 0x0 MSTORE PUSH1 0x21 PUSH1 0x4 MSTORE PUSH1 0x24 PUSH1 0x0 REVERT JUMPDEST PUSH32 0x4E487B7100000000000000000000000000000000000000000000000000000000 PUSH1 0x0 MSTORE PUSH1 0x22 PUSH1 0x4 MSTORE PUSH1 0x24 PUSH1 0x0 REVERT JUMPDEST PUSH1 0x0 PUSH1 0x1F NOT PUSH1 0x1F DUP4 ADD AND SWAP1 POP SWAP2 SWAP1 POP JUMP JUMPDEST PUSH32 0x4E6F2066756E6473206C65667420696E2074686520636F6E7472616374000000 PUSH1 0x0 DUP3 ADD MSTORE POP JUMP JUMPDEST PUSH32 0x596F752068617665206E6F206163746976652062696420746F2063616E63656C PUSH1 0x0 DUP3 ADD MSTORE POP JUMP JUMPDEST PUSH32 0x5472616E73666572206661696C65640000000000000000000000000000000000 PUSH1 0x0 DUP3 ADD MSTORE POP JUMP JUMPDEST PUSH32 0x41756374696F6E206973207374696C6C206F6E676F696E670000000000000000 PUSH1 0x0 DUP3 ADD MSTORE POP JUMP JUMPDEST PUSH32 0x4E6F2066756E647320746F207769746864726177000000000000000000000000 PUSH1 0x0 DUP3 ADD MSTORE POP JUMP JUMPDEST PUSH32 0x4F6E6C792061756374696F6E206F776E65722063616E2063616C6C2074686973 PUSH1 0x0 DUP3 ADD MSTORE POP JUMP JUMPDEST PUSH32 0x4269642076616C7565206D7573742062652067726561746572207468616E207A PUSH1 0x0 DUP3 ADD MSTORE PUSH32 0x65726F0000000000000000000000000000000000000000000000000000000000 PUSH1 0x20 DUP3 ADD MSTORE POP JUMP JUMPDEST PUSH32 0x43616E6E6F742063616E63656C20746865206869676865737420626964000000 PUSH1 0x0 DUP3 ADD MSTORE POP JUMP JUMPDEST PUSH32 0x41756374696F6E2068617320656E646564000000000000000000000000000000 PUSH1 0x0 DUP3 ADD MSTORE POP JUMP JUMPDEST PUSH32 0x596F752063616E2774206269642C206D616B6520612068696768657220626964 PUSH1 0x0 DUP3 ADD MSTORE POP JUMP JUMPDEST POP JUMP JUMPDEST PUSH1 0x2 DUP2 LT PUSH2 0x1CF2 JUMPI PUSH2 0x1CF1 PUSH2 0x1AAF JUMP JUMPDEST JUMPDEST POP JUMP JUMPDEST PUSH2 0x1CFE DUP2 PUSH2 0x1941 JUMP JUMPDEST DUP2 EQ PUSH2 0x1D09 JUMPI PUSH1 0x0 DUP1 REVERT JUMPDEST POP JUMP INVALID LOG2 PUSH5 0x6970667358 0x22 SLT KECCAK256 0x2A 0xBD 0xE1 PUSH27 0xA6E1CA3B89CCB84A165A5B334EA183233D5EE3F371EA34E807FDC3 RETURN PUSH5 0x736F6C6343 STOP ADDMOD ADD STOP CALLER "
				},
				"gasEstimates": {
					"creation": {
						"codeDepositCost": "1498000",
						"executionCost": "infinite",
						"totalCost": "infinite"
					},
					"external": {
						"Mycar()": "infinite",
						"STATE()": "1304",
						"auction_end()": "1151",
						"auction_start()": "1152",
						"bid()": "infinite",
						"bids(address)": "1603",
						"cancelBid()": "infinite",
						"cancel_auction()": "infinite",
						"deactivateAuction()": "infinite",
						"get_owner()": "1268",
						"highestBid()": "1195",
						"highestBidder()": "1259",
						"withdraw()": "infinite",
						"withdrawRemainingFunds()": "infinite"
					},
					"internal": {
						"_checkAuctionEnd()": "infinite",
						"_isBidderAlreadyAdded(address)": "infinite",
						"_removeBidder(address)": "infinite",
						"updateAuctionState(enum Auction.auction_state)": "infinite"
					}
				},
				"methodIdentifiers": {
					"Mycar()": "0216f202",
					"STATE()": "c486456c",
					"auction_end()": "c458b65a",
					"auction_start()": "78f45340",
					"bid()": "1998aeef",
					"bids(address)": "62ea82db",
					"cancelBid()": "9435c887",
					"cancel_auction()": "3ba88ca1",
					"deactivateAuction()": "389009f0",
					"get_owner()": "0ac298dc",
					"highestBid()": "d57bde79",
					"highestBidder()": "91f90157",
					"withdraw()": "3ccfd60b",
					"withdrawRemainingFunds()": "ef86ce8e"
				}
			},
			"storageLayout": {
				"storage": [
					{
						"astId": 3,
						"contract": "contracts/11_Auction.sol:MyAuction",
						"label": "auction_owner",
						"offset": 0,
						"slot": "0",
						"type": "t_address"
					},
					{
						"astId": 5,
						"contract": "contracts/11_Auction.sol:MyAuction",
						"label": "auction_start",
						"offset": 0,
						"slot": "1",
						"type": "t_uint256"
					},
					{
						"astId": 7,
						"contract": "contracts/11_Auction.sol:MyAuction",
						"label": "auction_end",
						"offset": 0,
						"slot": "2",
						"type": "t_uint256"
					},
					{
						"astId": 9,
						"contract": "contracts/11_Auction.sol:MyAuction",
						"label": "highestBid",
						"offset": 0,
						"slot": "3",
						"type": "t_uint256"
					},
					{
						"astId": 11,
						"contract": "contracts/11_Auction.sol:MyAuction",
						"label": "highestBidder",
						"offset": 0,
						"slot": "4",
						"type": "t_address"
					},
					{
						"astId": 22,
						"contract": "contracts/11_Auction.sol:MyAuction",
						"label": "Mycar",
						"offset": 0,
						"slot": "5",
						"type": "t_struct(car)19_storage"
					},
					{
						"astId": 25,
						"contract": "contracts/11_Auction.sol:MyAuction",
						"label": "bidders",
						"offset": 0,
						"slot": "7",
						"type": "t_array(t_address)dyn_storage"
					},
					{
						"astId": 29,
						"contract": "contracts/11_Auction.sol:MyAuction",
						"label": "bids",
						"offset": 0,
						"slot": "8",
						"type": "t_mapping(t_address,t_uint256)"
					},
					{
						"astId": 32,
						"contract": "contracts/11_Auction.sol:MyAuction",
						"label": "STATE",
						"offset": 0,
						"slot": "9",
						"type": "t_enum(auction_state)14"
					}
				],
				"types": {
					"t_address": {
						"encoding": "inplace",
						"label": "address",
						"numberOfBytes": "20"
					},
					"t_array(t_address)dyn_storage": {
						"base": "t_address",
						"encoding": "dynamic_array",
						"label": "address[]",
						"numberOfBytes": "32"
					},
					"t_enum(auction_state)14": {
						"encoding": "inplace",
						"label": "enum Auction.auction_state",
						"numberOfBytes": "1"
					},
					"t_mapping(t_address,t_uint256)": {
						"encoding": "mapping",
						"key": "t_address",
						"label": "mapping(address => uint256)",
						"numberOfBytes": "32",
						"value": "t_uint256"
					},
					"t_string_storage": {
						"encoding": "bytes",
						"label": "string",
						"numberOfBytes": "32"
					},
					"t_struct(car)19_storage": {
						"encoding": "inplace",
						"label": "struct Auction.car",
						"members": [
							{
								"astId": 16,
								"contract": "contracts/11_Auction.sol:MyAuction",
								"label": "Brand",
								"offset": 0,
								"slot": "0",
								"type": "t_string_storage"
							},
							{
								"astId": 18,
								"contract": "contracts/11_Auction.sol:MyAuction",
								"label": "Rnumber",
								"offset": 0,
								"slot": "1",
								"type": "t_string_storage"
							}
						],
						"numberOfBytes": "64"
					},
					"t_uint256": {
						"encoding": "inplace",
						"label": "uint256",
						"numberOfBytes": "32"
					}
				}
			},
			"userdoc": {
				"kind": "user",
				"methods": {},
				"version": 1
			}
		}
	}
}