{
	"contracts/11_Auction.sol": {
		"MyAuction": {
			"abi": [
				{
					"inputs": [
						{
							"internalType": "uint256",
							"name": "_biddingTime",
							"type": "uint256"
						},
						{
							"internalType": "address",
							"name": "_owner",
							"type": "address"
						},
						{
							"internalType": "string",
							"name": "_brand",
							"type": "string"
						},
						{
							"internalType": "string",
							"name": "_Rnumber",
							"type": "string"
						}
					],
					"stateMutability": "nonpayable",
					"type": "constructor"
				},
				{
					"anonymous": false,
					"inputs": [
						{
							"indexed": true,
							"internalType": "address",
							"name": "highestBidder",
							"type": "address"
						},
						{
							"indexed": false,
							"internalType": "uint256",
							"name": "highestBid",
							"type": "uint256"
						}
					],
					"name": "BidEvent",
					"type": "event"
				},
				{
					"anonymous": false,
					"inputs": [
						{
							"indexed": false,
							"internalType": "uint256",
							"name": "message",
							"type": "uint256"
						},
						{
							"indexed": false,
							"internalType": "uint256",
							"name": "time",
							"type": "uint256"
						}
					],
					"name": "CanceledEvent",
					"type": "event"
				},
				{
					"anonymous": false,
					"inputs": [
						{
							"indexed": false,
							"internalType": "enum Auction.auction_state",
							"name": "newState",
							"type": "uint8"
						}
					],
					"name": "StateUpdated",
					"type": "event"
				},
				{
					"anonymous": false,
					"inputs": [
						{
							"indexed": false,
							"internalType": "address",
							"name": "withdrawer",
							"type": "address"
						},
						{
							"indexed": false,
							"internalType": "uint256",
							"name": "amount",
							"type": "uint256"
						}
					],
					"name": "WithdrawalEvent",
					"type": "event"
				},
				{
					"inputs": [],
					"name": "Mycar",
					"outputs": [
						{
							"internalType": "string",
							"name": "Brand",
							"type": "string"
						},
						{
							"internalType": "string",
							"name": "Rnumber",
							"type": "string"
						}
					],
					"stateMutability": "view",
					"type": "function"
				},
				{
					"inputs": [],
					"name": "STATE",
					"outputs": [
						{
							"internalType": "enum Auction.auction_state",
							"name": "",
							"type": "uint8"
						}
					],
					"stateMutability": "view",
					"type": "function"
				},
				{
					"inputs": [],
					"name": "auction_end",
					"outputs": [
						{
							"internalType": "uint256",
							"name": "",
							"type": "uint256"
						}
					],
					"stateMutability": "view",
					"type": "function"
				},
				{
					"inputs": [],
					"name": "auction_start",
					"outputs": [
						{
							"internalType": "uint256",
							"name": "",
							"type": "uint256"
						}
					],
					"stateMutability": "view",
					"type": "function"
				},
				{
					"inputs": [],
					"name": "bid",
					"outputs": [
						{
							"internalType": "bool",
							"name": "",
							"type": "bool"
						}
					],
					"stateMutability": "payable",
					"type": "function"
				},
				{
					"inputs": [
						{
							"internalType": "address",
							"name": "",
							"type": "address"
						}
					],
					"name": "bids",
					"outputs": [
						{
							"internalType": "uint256",
							"name": "",
							"type": "uint256"
						}
					],
					"stateMutability": "view",
					"type": "function"
				},
				{
					"inputs": [],
					"name": "cancel_auction",
					"outputs": [
						{
							"internalType": "bool",
							"name": "",
							"type": "bool"
						}
					],
					"stateMutability": "nonpayable",
					"type": "function"
				},
				{
					"inputs": [],
					"name": "deactivateAuction",
					"outputs": [],
					"stateMutability": "nonpayable",
					"type": "function"
				},
				{
					"inputs": [],
					"name": "get_owner",
					"outputs": [
						{
							"internalType": "address",
							"name": "",
							"type": "address"
						}
					],
					"stateMutability": "view",
					"type": "function"
				},
				{
					"inputs": [],
					"name": "highestBid",
					"outputs": [
						{
							"internalType": "uint256",
							"name": "",
							"type": "uint256"
						}
					],
					"stateMutability": "view",
					"type": "function"
				},
				{
					"inputs": [],
					"name": "highestBidder",
					"outputs": [
						{
							"internalType": "address",
							"name": "",
							"type": "address"
						}
					],
					"stateMutability": "view",
					"type": "function"
				},
				{
					"inputs": [
						{
							"internalType": "enum Auction.auction_state",
							"name": "newState",
							"type": "uint8"
						}
					],
					"name": "updateAuctionState",
					"outputs": [],
					"stateMutability": "nonpayable",
					"type": "function"
				},
				{
					"inputs": [],
					"name": "withdraw",
					"outputs": [
						{
							"internalType": "bool",
							"name": "",
							"type": "bool"
						}
					],
					"stateMutability": "nonpayable",
					"type": "function"
				},
				{
					"inputs": [],
					"name": "withdrawRemainingFunds",
					"outputs": [],
					"stateMutability": "nonpayable",
					"type": "function"
				}
			],
			"devdoc": {
				"kind": "dev",
				"methods": {},
				"version": 1
			},
			"evm": {
				"assembly": "    /* \"contracts/11_Auction.sol\":3117:7147  contract MyAuction is Auction {... */\n  mstore(0x40, 0x80)\n    /* \"contracts/11_Auction.sol\":3232:3877  constructor(uint _biddingTime, address _owner, string memory _brand, string memory _Rnumber) {... */\n  callvalue\n  dup1\n  iszero\n  tag_1\n  jumpi\n  0x00\n  dup1\n  revert\ntag_1:\n  pop\n  mload(0x40)\n  sub(codesize, bytecodeSize)\n  dup1\n  bytecodeSize\n  dup4\n  codecopy\n  dup2\n  dup2\n  add\n  0x40\n  mstore\n  dup2\n  add\n  swap1\n  tag_2\n  swap2\n  swap1\n  tag_3\n  jump\t// in\ntag_2:\n    /* \"contracts/11_Auction.sol\":3391:3397  _owner */\n  dup3\n    /* \"contracts/11_Auction.sol\":3375:3388  auction_owner */\n  0x00\n  dup1\n    /* \"contracts/11_Auction.sol\":3375:3397  auction_owner = _owner */\n  0x0100\n  exp\n  dup2\n  sload\n  dup2\n  0xffffffffffffffffffffffffffffffffffffffff\n  mul\n  not\n  and\n  swap1\n  dup4\n  0xffffffffffffffffffffffffffffffffffffffff\n  and\n  mul\n  or\n  swap1\n  sstore\n  pop\n    /* \"contracts/11_Auction.sol\":3489:3504  block.timestamp */\n  timestamp\n    /* \"contracts/11_Auction.sol\":3473:3486  auction_start */\n  0x01\n    /* \"contracts/11_Auction.sol\":3473:3504  auction_start = block.timestamp */\n  dup2\n  swap1\n  sstore\n  pop\n    /* \"contracts/11_Auction.sol\":3661:3668  1 hours */\n  0x0e10\n    /* \"contracts/11_Auction.sol\":3646:3658  _biddingTime */\n  dup5\n    /* \"contracts/11_Auction.sol\":3646:3668  _biddingTime * 1 hours */\n  tag_6\n  swap2\n  swap1\n  tag_7\n  jump\t// in\ntag_6:\n    /* \"contracts/11_Auction.sol\":3630:3643  auction_start */\n  sload(0x01)\n    /* \"contracts/11_Auction.sol\":3630:3668  auction_start + _biddingTime * 1 hours */\n  tag_8\n  swap2\n  swap1\n  tag_9\n  jump\t// in\ntag_8:\n    /* \"contracts/11_Auction.sol\":3616:3627  auction_end */\n  0x02\n    /* \"contracts/11_Auction.sol\":3616:3668  auction_end = auction_start + _biddingTime * 1 hours */\n  dup2\n  swap1\n  sstore\n  pop\n    /* \"contracts/11_Auction.sol\":3741:3762  auction_state.STARTED */\n  0x01\n    /* \"contracts/11_Auction.sol\":3733:3738  STATE */\n  0x09\n  0x00\n    /* \"contracts/11_Auction.sol\":3733:3762  STATE = auction_state.STARTED */\n  0x0100\n  exp\n  dup2\n  sload\n  dup2\n  0xff\n  mul\n  not\n  and\n  swap1\n  dup4\n  0x01\n  dup2\n  gt\n  iszero\n  tag_10\n  jumpi\n  tag_11\n  tag_12\n  jump\t// in\ntag_11:\ntag_10:\n  mul\n  or\n  swap1\n  sstore\n  pop\n    /* \"contracts/11_Auction.sol\":3828:3834  _brand */\n  dup2\n    /* \"contracts/11_Auction.sol\":3814:3819  Mycar */\n  0x05\n    /* \"contracts/11_Auction.sol\":3814:3825  Mycar.Brand */\n  0x00\n  add\n    /* \"contracts/11_Auction.sol\":3814:3834  Mycar.Brand = _brand */\n  swap1\n  dup2\n  tag_13\n  swap2\n  swap1\n  tag_14\n  jump\t// in\ntag_13:\n  pop\n    /* \"contracts/11_Auction.sol\":3861:3869  _Rnumber */\n  dup1\n    /* \"contracts/11_Auction.sol\":3845:3850  Mycar */\n  0x05\n    /* \"contracts/11_Auction.sol\":3845:3858  Mycar.Rnumber */\n  0x01\n  add\n    /* \"contracts/11_Auction.sol\":3845:3869  Mycar.Rnumber = _Rnumber */\n  swap1\n  dup2\n  tag_15\n  swap2\n  swap1\n  tag_14\n  jump\t// in\ntag_15:\n  pop\n    /* \"contracts/11_Auction.sol\":3232:3877  constructor(uint _biddingTime, address _owner, string memory _brand, string memory _Rnumber) {... */\n  pop\n  pop\n  pop\n  pop\n    /* \"contracts/11_Auction.sol\":3117:7147  contract MyAuction is Auction {... */\n  jump(tag_16)\n    /* \"#utility.yul\":7:82   */\ntag_17:\n    /* \"#utility.yul\":40:46   */\n  0x00\n    /* \"#utility.yul\":73:75   */\n  0x40\n    /* \"#utility.yul\":67:76   */\n  mload\n    /* \"#utility.yul\":57:76   */\n  swap1\n  pop\n    /* \"#utility.yul\":7:82   */\n  swap1\n  jump\t// out\n    /* \"#utility.yul\":88:205   */\ntag_18:\n    /* \"#utility.yul\":197:198   */\n  0x00\n    /* \"#utility.yul\":194:195   */\n  dup1\n    /* \"#utility.yul\":187:199   */\n  revert\n    /* \"#utility.yul\":211:328   */\ntag_19:\n    /* \"#utility.yul\":320:321   */\n  0x00\n    /* \"#utility.yul\":317:318   */\n  dup1\n    /* \"#utility.yul\":310:322   */\n  revert\n    /* \"#utility.yul\":334:411   */\ntag_20:\n    /* \"#utility.yul\":371:378   */\n  0x00\n    /* \"#utility.yul\":400:405   */\n  dup2\n    /* \"#utility.yul\":389:405   */\n  swap1\n  pop\n    /* \"#utility.yul\":334:411   */\n  swap2\n  swap1\n  pop\n  jump\t// out\n    /* \"#utility.yul\":417:539   */\ntag_21:\n    /* \"#utility.yul\":490:514   */\n  tag_62\n    /* \"#utility.yul\":508:513   */\n  dup2\n    /* \"#utility.yul\":490:514   */\n  tag_20\n  jump\t// in\ntag_62:\n    /* \"#utility.yul\":483:488   */\n  dup2\n    /* \"#utility.yul\":480:515   */\n  eq\n    /* \"#utility.yul\":470:533   */\n  tag_63\n  jumpi\n    /* \"#utility.yul\":529:530   */\n  0x00\n    /* \"#utility.yul\":526:527   */\n  dup1\n    /* \"#utility.yul\":519:531   */\n  revert\n    /* \"#utility.yul\":470:533   */\ntag_63:\n    /* \"#utility.yul\":417:539   */\n  pop\n  jump\t// out\n    /* \"#utility.yul\":545:688   */\ntag_22:\n    /* \"#utility.yul\":602:607   */\n  0x00\n    /* \"#utility.yul\":633:639   */\n  dup2\n    /* \"#utility.yul\":627:640   */\n  mload\n    /* \"#utility.yul\":618:640   */\n  swap1\n  pop\n    /* \"#utility.yul\":649:682   */\n  tag_65\n    /* \"#utility.yul\":676:681   */\n  dup2\n    /* \"#utility.yul\":649:682   */\n  tag_21\n  jump\t// in\ntag_65:\n    /* \"#utility.yul\":545:688   */\n  swap3\n  swap2\n  pop\n  pop\n  jump\t// out\n    /* \"#utility.yul\":694:820   */\ntag_23:\n    /* \"#utility.yul\":731:738   */\n  0x00\n    /* \"#utility.yul\":771:813   */\n  0xffffffffffffffffffffffffffffffffffffffff\n    /* \"#utility.yul\":764:769   */\n  dup3\n    /* \"#utility.yul\":760:814   */\n  and\n    /* \"#utility.yul\":749:814   */\n  swap1\n  pop\n    /* \"#utility.yul\":694:820   */\n  swap2\n  swap1\n  pop\n  jump\t// out\n    /* \"#utility.yul\":826:922   */\ntag_24:\n    /* \"#utility.yul\":863:870   */\n  0x00\n    /* \"#utility.yul\":892:916   */\n  tag_68\n    /* \"#utility.yul\":910:915   */\n  dup3\n    /* \"#utility.yul\":892:916   */\n  tag_23\n  jump\t// in\ntag_68:\n    /* \"#utility.yul\":881:916   */\n  swap1\n  pop\n    /* \"#utility.yul\":826:922   */\n  swap2\n  swap1\n  pop\n  jump\t// out\n    /* \"#utility.yul\":928:1050   */\ntag_25:\n    /* \"#utility.yul\":1001:1025   */\n  tag_70\n    /* \"#utility.yul\":1019:1024   */\n  dup2\n    /* \"#utility.yul\":1001:1025   */\n  tag_24\n  jump\t// in\ntag_70:\n    /* \"#utility.yul\":994:999   */\n  dup2\n    /* \"#utility.yul\":991:1026   */\n  eq\n    /* \"#utility.yul\":981:1044   */\n  tag_71\n  jumpi\n    /* \"#utility.yul\":1040:1041   */\n  0x00\n    /* \"#utility.yul\":1037:1038   */\n  dup1\n    /* \"#utility.yul\":1030:1042   */\n  revert\n    /* \"#utility.yul\":981:1044   */\ntag_71:\n    /* \"#utility.yul\":928:1050   */\n  pop\n  jump\t// out\n    /* \"#utility.yul\":1056:1199   */\ntag_26:\n    /* \"#utility.yul\":1113:1118   */\n  0x00\n    /* \"#utility.yul\":1144:1150   */\n  dup2\n    /* \"#utility.yul\":1138:1151   */\n  mload\n    /* \"#utility.yul\":1129:1151   */\n  swap1\n  pop\n    /* \"#utility.yul\":1160:1193   */\n  tag_73\n    /* \"#utility.yul\":1187:1192   */\n  dup2\n    /* \"#utility.yul\":1160:1193   */\n  tag_25\n  jump\t// in\ntag_73:\n    /* \"#utility.yul\":1056:1199   */\n  swap3\n  swap2\n  pop\n  pop\n  jump\t// out\n    /* \"#utility.yul\":1205:1322   */\ntag_27:\n    /* \"#utility.yul\":1314:1315   */\n  0x00\n    /* \"#utility.yul\":1311:1312   */\n  dup1\n    /* \"#utility.yul\":1304:1316   */\n  revert\n    /* \"#utility.yul\":1328:1445   */\ntag_28:\n    /* \"#utility.yul\":1437:1438   */\n  0x00\n    /* \"#utility.yul\":1434:1435   */\n  dup1\n    /* \"#utility.yul\":1427:1439   */\n  revert\n    /* \"#utility.yul\":1451:1553   */\ntag_29:\n    /* \"#utility.yul\":1492:1498   */\n  0x00\n    /* \"#utility.yul\":1543:1545   */\n  0x1f\n    /* \"#utility.yul\":1539:1546   */\n  not\n    /* \"#utility.yul\":1534:1536   */\n  0x1f\n    /* \"#utility.yul\":1527:1532   */\n  dup4\n    /* \"#utility.yul\":1523:1537   */\n  add\n    /* \"#utility.yul\":1519:1547   */\n  and\n    /* \"#utility.yul\":1509:1547   */\n  swap1\n  pop\n    /* \"#utility.yul\":1451:1553   */\n  swap2\n  swap1\n  pop\n  jump\t// out\n    /* \"#utility.yul\":1559:1739   */\ntag_30:\n    /* \"#utility.yul\":1607:1684   */\n  0x4e487b7100000000000000000000000000000000000000000000000000000000\n    /* \"#utility.yul\":1604:1605   */\n  0x00\n    /* \"#utility.yul\":1597:1685   */\n  mstore\n    /* \"#utility.yul\":1704:1708   */\n  0x41\n    /* \"#utility.yul\":1701:1702   */\n  0x04\n    /* \"#utility.yul\":1694:1709   */\n  mstore\n    /* \"#utility.yul\":1728:1732   */\n  0x24\n    /* \"#utility.yul\":1725:1726   */\n  0x00\n    /* \"#utility.yul\":1718:1733   */\n  revert\n    /* \"#utility.yul\":1745:2026   */\ntag_31:\n    /* \"#utility.yul\":1828:1855   */\n  tag_79\n    /* \"#utility.yul\":1850:1854   */\n  dup3\n    /* \"#utility.yul\":1828:1855   */\n  tag_29\n  jump\t// in\ntag_79:\n    /* \"#utility.yul\":1820:1826   */\n  dup2\n    /* \"#utility.yul\":1816:1856   */\n  add\n    /* \"#utility.yul\":1958:1964   */\n  dup2\n    /* \"#utility.yul\":1946:1956   */\n  dup2\n    /* \"#utility.yul\":1943:1965   */\n  lt\n    /* \"#utility.yul\":1922:1940   */\n  0xffffffffffffffff\n    /* \"#utility.yul\":1910:1920   */\n  dup3\n    /* \"#utility.yul\":1907:1941   */\n  gt\n    /* \"#utility.yul\":1904:1966   */\n  or\n    /* \"#utility.yul\":1901:1989   */\n  iszero\n  tag_80\n  jumpi\n    /* \"#utility.yul\":1969:1987   */\n  tag_81\n  tag_30\n  jump\t// in\ntag_81:\n    /* \"#utility.yul\":1901:1989   */\ntag_80:\n    /* \"#utility.yul\":2009:2019   */\n  dup1\n    /* \"#utility.yul\":2005:2007   */\n  0x40\n    /* \"#utility.yul\":1998:2020   */\n  mstore\n    /* \"#utility.yul\":1788:2026   */\n  pop\n    /* \"#utility.yul\":1745:2026   */\n  pop\n  pop\n  jump\t// out\n    /* \"#utility.yul\":2032:2161   */\ntag_32:\n    /* \"#utility.yul\":2066:2072   */\n  0x00\n    /* \"#utility.yul\":2093:2113   */\n  tag_83\n  tag_17\n  jump\t// in\ntag_83:\n    /* \"#utility.yul\":2083:2113   */\n  swap1\n  pop\n    /* \"#utility.yul\":2122:2155   */\n  tag_84\n    /* \"#utility.yul\":2150:2154   */\n  dup3\n    /* \"#utility.yul\":2142:2148   */\n  dup3\n    /* \"#utility.yul\":2122:2155   */\n  tag_31\n  jump\t// in\ntag_84:\n    /* \"#utility.yul\":2032:2161   */\n  swap2\n  swap1\n  pop\n  jump\t// out\n    /* \"#utility.yul\":2167:2475   */\ntag_33:\n    /* \"#utility.yul\":2229:2233   */\n  0x00\n    /* \"#utility.yul\":2319:2337   */\n  0xffffffffffffffff\n    /* \"#utility.yul\":2311:2317   */\n  dup3\n    /* \"#utility.yul\":2308:2338   */\n  gt\n    /* \"#utility.yul\":2305:2361   */\n  iszero\n  tag_86\n  jumpi\n    /* \"#utility.yul\":2341:2359   */\n  tag_87\n  tag_30\n  jump\t// in\ntag_87:\n    /* \"#utility.yul\":2305:2361   */\ntag_86:\n    /* \"#utility.yul\":2379:2408   */\n  tag_88\n    /* \"#utility.yul\":2401:2407   */\n  dup3\n    /* \"#utility.yul\":2379:2408   */\n  tag_29\n  jump\t// in\ntag_88:\n    /* \"#utility.yul\":2371:2408   */\n  swap1\n  pop\n    /* \"#utility.yul\":2463:2467   */\n  0x20\n    /* \"#utility.yul\":2457:2461   */\n  dup2\n    /* \"#utility.yul\":2453:2468   */\n  add\n    /* \"#utility.yul\":2445:2468   */\n  swap1\n  pop\n    /* \"#utility.yul\":2167:2475   */\n  swap2\n  swap1\n  pop\n  jump\t// out\n    /* \"#utility.yul\":2481:2620   */\ntag_34:\n    /* \"#utility.yul\":2570:2576   */\n  dup3\n    /* \"#utility.yul\":2565:2568   */\n  dup2\n    /* \"#utility.yul\":2560:2563   */\n  dup4\n    /* \"#utility.yul\":2554:2577   */\n  mcopy\n    /* \"#utility.yul\":2611:2612   */\n  0x00\n    /* \"#utility.yul\":2602:2608   */\n  dup4\n    /* \"#utility.yul\":2597:2600   */\n  dup4\n    /* \"#utility.yul\":2593:2609   */\n  add\n    /* \"#utility.yul\":2586:2613   */\n  mstore\n    /* \"#utility.yul\":2481:2620   */\n  pop\n  pop\n  pop\n  jump\t// out\n    /* \"#utility.yul\":2626:3060   */\ntag_35:\n    /* \"#utility.yul\":2715:2720   */\n  0x00\n    /* \"#utility.yul\":2740:2806   */\n  tag_91\n    /* \"#utility.yul\":2756:2805   */\n  tag_92\n    /* \"#utility.yul\":2798:2804   */\n  dup5\n    /* \"#utility.yul\":2756:2805   */\n  tag_33\n  jump\t// in\ntag_92:\n    /* \"#utility.yul\":2740:2806   */\n  tag_32\n  jump\t// in\ntag_91:\n    /* \"#utility.yul\":2731:2806   */\n  swap1\n  pop\n    /* \"#utility.yul\":2829:2835   */\n  dup3\n    /* \"#utility.yul\":2822:2827   */\n  dup2\n    /* \"#utility.yul\":2815:2836   */\n  mstore\n    /* \"#utility.yul\":2867:2871   */\n  0x20\n    /* \"#utility.yul\":2860:2865   */\n  dup2\n    /* \"#utility.yul\":2856:2872   */\n  add\n    /* \"#utility.yul\":2905:2908   */\n  dup5\n    /* \"#utility.yul\":2896:2902   */\n  dup5\n    /* \"#utility.yul\":2891:2894   */\n  dup5\n    /* \"#utility.yul\":2887:2903   */\n  add\n    /* \"#utility.yul\":2884:2909   */\n  gt\n    /* \"#utility.yul\":2881:2993   */\n  iszero\n  tag_93\n  jumpi\n    /* \"#utility.yul\":2912:2991   */\n  tag_94\n  tag_28\n  jump\t// in\ntag_94:\n    /* \"#utility.yul\":2881:2993   */\ntag_93:\n    /* \"#utility.yul\":3002:3054   */\n  tag_95\n    /* \"#utility.yul\":3047:3053   */\n  dup5\n    /* \"#utility.yul\":3042:3045   */\n  dup3\n    /* \"#utility.yul\":3037:3040   */\n  dup6\n    /* \"#utility.yul\":3002:3054   */\n  tag_34\n  jump\t// in\ntag_95:\n    /* \"#utility.yul\":2721:3060   */\n  pop\n    /* \"#utility.yul\":2626:3060   */\n  swap4\n  swap3\n  pop\n  pop\n  pop\n  jump\t// out\n    /* \"#utility.yul\":3080:3435   */\ntag_36:\n    /* \"#utility.yul\":3147:3152   */\n  0x00\n    /* \"#utility.yul\":3196:3199   */\n  dup3\n    /* \"#utility.yul\":3189:3193   */\n  0x1f\n    /* \"#utility.yul\":3181:3187   */\n  dup4\n    /* \"#utility.yul\":3177:3194   */\n  add\n    /* \"#utility.yul\":3173:3200   */\n  slt\n    /* \"#utility.yul\":3163:3285   */\n  tag_97\n  jumpi\n    /* \"#utility.yul\":3204:3283   */\n  tag_98\n  tag_27\n  jump\t// in\ntag_98:\n    /* \"#utility.yul\":3163:3285   */\ntag_97:\n    /* \"#utility.yul\":3314:3320   */\n  dup2\n    /* \"#utility.yul\":3308:3321   */\n  mload\n    /* \"#utility.yul\":3339:3429   */\n  tag_99\n    /* \"#utility.yul\":3425:3428   */\n  dup5\n    /* \"#utility.yul\":3417:3423   */\n  dup3\n    /* \"#utility.yul\":3410:3414   */\n  0x20\n    /* \"#utility.yul\":3402:3408   */\n  dup7\n    /* \"#utility.yul\":3398:3415   */\n  add\n    /* \"#utility.yul\":3339:3429   */\n  tag_35\n  jump\t// in\ntag_99:\n    /* \"#utility.yul\":3330:3429   */\n  swap2\n  pop\n    /* \"#utility.yul\":3153:3435   */\n  pop\n    /* \"#utility.yul\":3080:3435   */\n  swap3\n  swap2\n  pop\n  pop\n  jump\t// out\n    /* \"#utility.yul\":3441:4607   */\ntag_3:\n    /* \"#utility.yul\":3558:3564   */\n  0x00\n    /* \"#utility.yul\":3566:3572   */\n  dup1\n    /* \"#utility.yul\":3574:3580   */\n  0x00\n    /* \"#utility.yul\":3582:3588   */\n  dup1\n    /* \"#utility.yul\":3631:3634   */\n  0x80\n    /* \"#utility.yul\":3619:3628   */\n  dup6\n    /* \"#utility.yul\":3610:3617   */\n  dup8\n    /* \"#utility.yul\":3606:3629   */\n  sub\n    /* \"#utility.yul\":3602:3635   */\n  slt\n    /* \"#utility.yul\":3599:3719   */\n  iszero\n  tag_101\n  jumpi\n    /* \"#utility.yul\":3638:3717   */\n  tag_102\n  tag_18\n  jump\t// in\ntag_102:\n    /* \"#utility.yul\":3599:3719   */\ntag_101:\n    /* \"#utility.yul\":3758:3759   */\n  0x00\n    /* \"#utility.yul\":3783:3847   */\n  tag_103\n    /* \"#utility.yul\":3839:3846   */\n  dup8\n    /* \"#utility.yul\":3830:3836   */\n  dup3\n    /* \"#utility.yul\":3819:3828   */\n  dup9\n    /* \"#utility.yul\":3815:3837   */\n  add\n    /* \"#utility.yul\":3783:3847   */\n  tag_22\n  jump\t// in\ntag_103:\n    /* \"#utility.yul\":3773:3847   */\n  swap5\n  pop\n    /* \"#utility.yul\":3729:3857   */\n  pop\n    /* \"#utility.yul\":3896:3898   */\n  0x20\n    /* \"#utility.yul\":3922:3986   */\n  tag_104\n    /* \"#utility.yul\":3978:3985   */\n  dup8\n    /* \"#utility.yul\":3969:3975   */\n  dup3\n    /* \"#utility.yul\":3958:3967   */\n  dup9\n    /* \"#utility.yul\":3954:3976   */\n  add\n    /* \"#utility.yul\":3922:3986   */\n  tag_26\n  jump\t// in\ntag_104:\n    /* \"#utility.yul\":3912:3986   */\n  swap4\n  pop\n    /* \"#utility.yul\":3867:3996   */\n  pop\n    /* \"#utility.yul\":4056:4058   */\n  0x40\n    /* \"#utility.yul\":4045:4054   */\n  dup6\n    /* \"#utility.yul\":4041:4059   */\n  add\n    /* \"#utility.yul\":4035:4060   */\n  mload\n    /* \"#utility.yul\":4087:4105   */\n  0xffffffffffffffff\n    /* \"#utility.yul\":4079:4085   */\n  dup2\n    /* \"#utility.yul\":4076:4106   */\n  gt\n    /* \"#utility.yul\":4073:4190   */\n  iszero\n  tag_105\n  jumpi\n    /* \"#utility.yul\":4109:4188   */\n  tag_106\n  tag_19\n  jump\t// in\ntag_106:\n    /* \"#utility.yul\":4073:4190   */\ntag_105:\n    /* \"#utility.yul\":4214:4288   */\n  tag_107\n    /* \"#utility.yul\":4280:4287   */\n  dup8\n    /* \"#utility.yul\":4271:4277   */\n  dup3\n    /* \"#utility.yul\":4260:4269   */\n  dup9\n    /* \"#utility.yul\":4256:4278   */\n  add\n    /* \"#utility.yul\":4214:4288   */\n  tag_36\n  jump\t// in\ntag_107:\n    /* \"#utility.yul\":4204:4288   */\n  swap3\n  pop\n    /* \"#utility.yul\":4006:4298   */\n  pop\n    /* \"#utility.yul\":4358:4360   */\n  0x60\n    /* \"#utility.yul\":4347:4356   */\n  dup6\n    /* \"#utility.yul\":4343:4361   */\n  add\n    /* \"#utility.yul\":4337:4362   */\n  mload\n    /* \"#utility.yul\":4389:4407   */\n  0xffffffffffffffff\n    /* \"#utility.yul\":4381:4387   */\n  dup2\n    /* \"#utility.yul\":4378:4408   */\n  gt\n    /* \"#utility.yul\":4375:4492   */\n  iszero\n  tag_108\n  jumpi\n    /* \"#utility.yul\":4411:4490   */\n  tag_109\n  tag_19\n  jump\t// in\ntag_109:\n    /* \"#utility.yul\":4375:4492   */\ntag_108:\n    /* \"#utility.yul\":4516:4590   */\n  tag_110\n    /* \"#utility.yul\":4582:4589   */\n  dup8\n    /* \"#utility.yul\":4573:4579   */\n  dup3\n    /* \"#utility.yul\":4562:4571   */\n  dup9\n    /* \"#utility.yul\":4558:4580   */\n  add\n    /* \"#utility.yul\":4516:4590   */\n  tag_36\n  jump\t// in\ntag_110:\n    /* \"#utility.yul\":4506:4590   */\n  swap2\n  pop\n    /* \"#utility.yul\":4308:4600   */\n  pop\n    /* \"#utility.yul\":3441:4607   */\n  swap3\n  swap6\n  swap2\n  swap5\n  pop\n  swap3\n  pop\n  jump\t// out\n    /* \"#utility.yul\":4613:4793   */\ntag_37:\n    /* \"#utility.yul\":4661:4738   */\n  0x4e487b7100000000000000000000000000000000000000000000000000000000\n    /* \"#utility.yul\":4658:4659   */\n  0x00\n    /* \"#utility.yul\":4651:4739   */\n  mstore\n    /* \"#utility.yul\":4758:4762   */\n  0x11\n    /* \"#utility.yul\":4755:4756   */\n  0x04\n    /* \"#utility.yul\":4748:4763   */\n  mstore\n    /* \"#utility.yul\":4782:4786   */\n  0x24\n    /* \"#utility.yul\":4779:4780   */\n  0x00\n    /* \"#utility.yul\":4772:4787   */\n  revert\n    /* \"#utility.yul\":4799:5209   */\ntag_7:\n    /* \"#utility.yul\":4839:4846   */\n  0x00\n    /* \"#utility.yul\":4862:4882   */\n  tag_113\n    /* \"#utility.yul\":4880:4881   */\n  dup3\n    /* \"#utility.yul\":4862:4882   */\n  tag_20\n  jump\t// in\ntag_113:\n    /* \"#utility.yul\":4857:4882   */\n  swap2\n  pop\n    /* \"#utility.yul\":4896:4916   */\n  tag_114\n    /* \"#utility.yul\":4914:4915   */\n  dup4\n    /* \"#utility.yul\":4896:4916   */\n  tag_20\n  jump\t// in\ntag_114:\n    /* \"#utility.yul\":4891:4916   */\n  swap3\n  pop\n    /* \"#utility.yul\":4951:4952   */\n  dup3\n    /* \"#utility.yul\":4948:4949   */\n  dup3\n    /* \"#utility.yul\":4944:4953   */\n  mul\n    /* \"#utility.yul\":4973:5003   */\n  tag_115\n    /* \"#utility.yul\":4991:5002   */\n  dup2\n    /* \"#utility.yul\":4973:5003   */\n  tag_20\n  jump\t// in\ntag_115:\n    /* \"#utility.yul\":4962:5003   */\n  swap2\n  pop\n    /* \"#utility.yul\":5152:5153   */\n  dup3\n    /* \"#utility.yul\":5143:5150   */\n  dup3\n    /* \"#utility.yul\":5139:5154   */\n  div\n    /* \"#utility.yul\":5136:5137   */\n  dup5\n    /* \"#utility.yul\":5133:5155   */\n  eq\n    /* \"#utility.yul\":5113:5114   */\n  dup4\n    /* \"#utility.yul\":5106:5115   */\n  iszero\n    /* \"#utility.yul\":5086:5169   */\n  or\n    /* \"#utility.yul\":5063:5202   */\n  tag_116\n  jumpi\n    /* \"#utility.yul\":5182:5200   */\n  tag_117\n  tag_37\n  jump\t// in\ntag_117:\n    /* \"#utility.yul\":5063:5202   */\ntag_116:\n    /* \"#utility.yul\":4847:5209   */\n  pop\n    /* \"#utility.yul\":4799:5209   */\n  swap3\n  swap2\n  pop\n  pop\n  jump\t// out\n    /* \"#utility.yul\":5215:5406   */\ntag_9:\n    /* \"#utility.yul\":5255:5258   */\n  0x00\n    /* \"#utility.yul\":5274:5294   */\n  tag_119\n    /* \"#utility.yul\":5292:5293   */\n  dup3\n    /* \"#utility.yul\":5274:5294   */\n  tag_20\n  jump\t// in\ntag_119:\n    /* \"#utility.yul\":5269:5294   */\n  swap2\n  pop\n    /* \"#utility.yul\":5308:5328   */\n  tag_120\n    /* \"#utility.yul\":5326:5327   */\n  dup4\n    /* \"#utility.yul\":5308:5328   */\n  tag_20\n  jump\t// in\ntag_120:\n    /* \"#utility.yul\":5303:5328   */\n  swap3\n  pop\n    /* \"#utility.yul\":5351:5352   */\n  dup3\n    /* \"#utility.yul\":5348:5349   */\n  dup3\n    /* \"#utility.yul\":5344:5353   */\n  add\n    /* \"#utility.yul\":5337:5353   */\n  swap1\n  pop\n    /* \"#utility.yul\":5372:5375   */\n  dup1\n    /* \"#utility.yul\":5369:5370   */\n  dup3\n    /* \"#utility.yul\":5366:5376   */\n  gt\n    /* \"#utility.yul\":5363:5399   */\n  iszero\n  tag_121\n  jumpi\n    /* \"#utility.yul\":5379:5397   */\n  tag_122\n  tag_37\n  jump\t// in\ntag_122:\n    /* \"#utility.yul\":5363:5399   */\ntag_121:\n    /* \"#utility.yul\":5215:5406   */\n  swap3\n  swap2\n  pop\n  pop\n  jump\t// out\n    /* \"#utility.yul\":5412:5592   */\ntag_12:\n    /* \"#utility.yul\":5460:5537   */\n  0x4e487b7100000000000000000000000000000000000000000000000000000000\n    /* \"#utility.yul\":5457:5458   */\n  0x00\n    /* \"#utility.yul\":5450:5538   */\n  mstore\n    /* \"#utility.yul\":5557:5561   */\n  0x21\n    /* \"#utility.yul\":5554:5555   */\n  0x04\n    /* \"#utility.yul\":5547:5562   */\n  mstore\n    /* \"#utility.yul\":5581:5585   */\n  0x24\n    /* \"#utility.yul\":5578:5579   */\n  0x00\n    /* \"#utility.yul\":5571:5586   */\n  revert\n    /* \"#utility.yul\":5598:5697   */\ntag_38:\n    /* \"#utility.yul\":5650:5656   */\n  0x00\n    /* \"#utility.yul\":5684:5689   */\n  dup2\n    /* \"#utility.yul\":5678:5690   */\n  mload\n    /* \"#utility.yul\":5668:5690   */\n  swap1\n  pop\n    /* \"#utility.yul\":5598:5697   */\n  swap2\n  swap1\n  pop\n  jump\t// out\n    /* \"#utility.yul\":5703:5883   */\ntag_39:\n    /* \"#utility.yul\":5751:5828   */\n  0x4e487b7100000000000000000000000000000000000000000000000000000000\n    /* \"#utility.yul\":5748:5749   */\n  0x00\n    /* \"#utility.yul\":5741:5829   */\n  mstore\n    /* \"#utility.yul\":5848:5852   */\n  0x22\n    /* \"#utility.yul\":5845:5846   */\n  0x04\n    /* \"#utility.yul\":5838:5853   */\n  mstore\n    /* \"#utility.yul\":5872:5876   */\n  0x24\n    /* \"#utility.yul\":5869:5870   */\n  0x00\n    /* \"#utility.yul\":5862:5877   */\n  revert\n    /* \"#utility.yul\":5889:6209   */\ntag_40:\n    /* \"#utility.yul\":5933:5939   */\n  0x00\n    /* \"#utility.yul\":5970:5971   */\n  0x02\n    /* \"#utility.yul\":5964:5968   */\n  dup3\n    /* \"#utility.yul\":5960:5972   */\n  div\n    /* \"#utility.yul\":5950:5972   */\n  swap1\n  pop\n    /* \"#utility.yul\":6017:6018   */\n  0x01\n    /* \"#utility.yul\":6011:6015   */\n  dup3\n    /* \"#utility.yul\":6007:6019   */\n  and\n    /* \"#utility.yul\":6038:6056   */\n  dup1\n    /* \"#utility.yul\":6028:6109   */\n  tag_127\n  jumpi\n    /* \"#utility.yul\":6094:6098   */\n  0x7f\n    /* \"#utility.yul\":6086:6092   */\n  dup3\n    /* \"#utility.yul\":6082:6099   */\n  and\n    /* \"#utility.yul\":6072:6099   */\n  swap2\n  pop\n    /* \"#utility.yul\":6028:6109   */\ntag_127:\n    /* \"#utility.yul\":6156:6158   */\n  0x20\n    /* \"#utility.yul\":6148:6154   */\n  dup3\n    /* \"#utility.yul\":6145:6159   */\n  lt\n    /* \"#utility.yul\":6125:6143   */\n  dup2\n    /* \"#utility.yul\":6122:6160   */\n  sub\n    /* \"#utility.yul\":6119:6203   */\n  tag_128\n  jumpi\n    /* \"#utility.yul\":6175:6193   */\n  tag_129\n  tag_39\n  jump\t// in\ntag_129:\n    /* \"#utility.yul\":6119:6203   */\ntag_128:\n    /* \"#utility.yul\":5940:6209   */\n  pop\n    /* \"#utility.yul\":5889:6209   */\n  swap2\n  swap1\n  pop\n  jump\t// out\n    /* \"#utility.yul\":6215:6356   */\ntag_41:\n    /* \"#utility.yul\":6264:6268   */\n  0x00\n    /* \"#utility.yul\":6287:6290   */\n  dup2\n    /* \"#utility.yul\":6279:6290   */\n  swap1\n  pop\n    /* \"#utility.yul\":6310:6313   */\n  dup2\n    /* \"#utility.yul\":6307:6308   */\n  0x00\n    /* \"#utility.yul\":6300:6314   */\n  mstore\n    /* \"#utility.yul\":6344:6348   */\n  0x20\n    /* \"#utility.yul\":6341:6342   */\n  0x00\n    /* \"#utility.yul\":6331:6349   */\n  keccak256\n    /* \"#utility.yul\":6323:6349   */\n  swap1\n  pop\n    /* \"#utility.yul\":6215:6356   */\n  swap2\n  swap1\n  pop\n  jump\t// out\n    /* \"#utility.yul\":6362:6455   */\ntag_42:\n    /* \"#utility.yul\":6399:6405   */\n  0x00\n    /* \"#utility.yul\":6446:6448   */\n  0x20\n    /* \"#utility.yul\":6441:6443   */\n  0x1f\n    /* \"#utility.yul\":6434:6439   */\n  dup4\n    /* \"#utility.yul\":6430:6444   */\n  add\n    /* \"#utility.yul\":6426:6449   */\n  div\n    /* \"#utility.yul\":6416:6449   */\n  swap1\n  pop\n    /* \"#utility.yul\":6362:6455   */\n  swap2\n  swap1\n  pop\n  jump\t// out\n    /* \"#utility.yul\":6461:6568   */\ntag_43:\n    /* \"#utility.yul\":6505:6513   */\n  0x00\n    /* \"#utility.yul\":6555:6560   */\n  dup3\n    /* \"#utility.yul\":6549:6553   */\n  dup3\n    /* \"#utility.yul\":6545:6561   */\n  shl\n    /* \"#utility.yul\":6524:6561   */\n  swap1\n  pop\n    /* \"#utility.yul\":6461:6568   */\n  swap3\n  swap2\n  pop\n  pop\n  jump\t// out\n    /* \"#utility.yul\":6574:6967   */\ntag_44:\n    /* \"#utility.yul\":6643:6649   */\n  0x00\n    /* \"#utility.yul\":6693:6694   */\n  0x08\n    /* \"#utility.yul\":6681:6691   */\n  dup4\n    /* \"#utility.yul\":6677:6695   */\n  mul\n    /* \"#utility.yul\":6716:6813   */\n  tag_134\n    /* \"#utility.yul\":6746:6812   */\n  0xffffffffffffffffffffffffffffffffffffffffffffffffffffffffffffffff\n    /* \"#utility.yul\":6735:6744   */\n  dup3\n    /* \"#utility.yul\":6716:6813   */\n  tag_43\n  jump\t// in\ntag_134:\n    /* \"#utility.yul\":6834:6873   */\n  tag_135\n    /* \"#utility.yul\":6864:6872   */\n  dup7\n    /* \"#utility.yul\":6853:6862   */\n  dup4\n    /* \"#utility.yul\":6834:6873   */\n  tag_43\n  jump\t// in\ntag_135:\n    /* \"#utility.yul\":6822:6873   */\n  swap6\n  pop\n    /* \"#utility.yul\":6906:6910   */\n  dup1\n    /* \"#utility.yul\":6902:6911   */\n  not\n    /* \"#utility.yul\":6895:6900   */\n  dup5\n    /* \"#utility.yul\":6891:6912   */\n  and\n    /* \"#utility.yul\":6882:6912   */\n  swap4\n  pop\n    /* \"#utility.yul\":6955:6959   */\n  dup1\n    /* \"#utility.yul\":6945:6953   */\n  dup7\n    /* \"#utility.yul\":6941:6960   */\n  and\n    /* \"#utility.yul\":6934:6939   */\n  dup5\n    /* \"#utility.yul\":6931:6961   */\n  or\n    /* \"#utility.yul\":6921:6961   */\n  swap3\n  pop\n    /* \"#utility.yul\":6650:6967   */\n  pop\n  pop\n    /* \"#utility.yul\":6574:6967   */\n  swap4\n  swap3\n  pop\n  pop\n  pop\n  jump\t// out\n    /* \"#utility.yul\":6973:7033   */\ntag_45:\n    /* \"#utility.yul\":7001:7004   */\n  0x00\n    /* \"#utility.yul\":7022:7027   */\n  dup2\n    /* \"#utility.yul\":7015:7027   */\n  swap1\n  pop\n    /* \"#utility.yul\":6973:7033   */\n  swap2\n  swap1\n  pop\n  jump\t// out\n    /* \"#utility.yul\":7039:7181   */\ntag_46:\n    /* \"#utility.yul\":7089:7098   */\n  0x00\n    /* \"#utility.yul\":7122:7175   */\n  tag_138\n    /* \"#utility.yul\":7140:7174   */\n  tag_139\n    /* \"#utility.yul\":7149:7173   */\n  tag_140\n    /* \"#utility.yul\":7167:7172   */\n  dup5\n    /* \"#utility.yul\":7149:7173   */\n  tag_20\n  jump\t// in\ntag_140:\n    /* \"#utility.yul\":7140:7174   */\n  tag_45\n  jump\t// in\ntag_139:\n    /* \"#utility.yul\":7122:7175   */\n  tag_20\n  jump\t// in\ntag_138:\n    /* \"#utility.yul\":7109:7175   */\n  swap1\n  pop\n    /* \"#utility.yul\":7039:7181   */\n  swap2\n  swap1\n  pop\n  jump\t// out\n    /* \"#utility.yul\":7187:7262   */\ntag_47:\n    /* \"#utility.yul\":7230:7233   */\n  0x00\n    /* \"#utility.yul\":7251:7256   */\n  dup2\n    /* \"#utility.yul\":7244:7256   */\n  swap1\n  pop\n    /* \"#utility.yul\":7187:7262   */\n  swap2\n  swap1\n  pop\n  jump\t// out\n    /* \"#utility.yul\":7268:7537   */\ntag_48:\n    /* \"#utility.yul\":7378:7417   */\n  tag_143\n    /* \"#utility.yul\":7409:7416   */\n  dup4\n    /* \"#utility.yul\":7378:7417   */\n  tag_46\n  jump\t// in\ntag_143:\n    /* \"#utility.yul\":7439:7530   */\n  tag_144\n    /* \"#utility.yul\":7488:7529   */\n  tag_145\n    /* \"#utility.yul\":7512:7528   */\n  dup3\n    /* \"#utility.yul\":7488:7529   */\n  tag_47\n  jump\t// in\ntag_145:\n    /* \"#utility.yul\":7480:7486   */\n  dup5\n    /* \"#utility.yul\":7473:7477   */\n  dup5\n    /* \"#utility.yul\":7467:7478   */\n  sload\n    /* \"#utility.yul\":7439:7530   */\n  tag_44\n  jump\t// in\ntag_144:\n    /* \"#utility.yul\":7433:7437   */\n  dup3\n    /* \"#utility.yul\":7426:7531   */\n  sstore\n    /* \"#utility.yul\":7344:7537   */\n  pop\n    /* \"#utility.yul\":7268:7537   */\n  pop\n  pop\n  pop\n  jump\t// out\n    /* \"#utility.yul\":7543:7616   */\ntag_49:\n    /* \"#utility.yul\":7588:7591   */\n  0x00\n    /* \"#utility.yul\":7543:7616   */\n  swap1\n  jump\t// out\n    /* \"#utility.yul\":7622:7811   */\ntag_50:\n    /* \"#utility.yul\":7699:7731   */\n  tag_148\n  tag_49\n  jump\t// in\ntag_148:\n    /* \"#utility.yul\":7740:7805   */\n  tag_149\n    /* \"#utility.yul\":7798:7804   */\n  dup2\n    /* \"#utility.yul\":7790:7796   */\n  dup5\n    /* \"#utility.yul\":7784:7788   */\n  dup5\n    /* \"#utility.yul\":7740:7805   */\n  tag_48\n  jump\t// in\ntag_149:\n    /* \"#utility.yul\":7675:7811   */\n  pop\n    /* \"#utility.yul\":7622:7811   */\n  pop\n  pop\n  jump\t// out\n    /* \"#utility.yul\":7817:8003   */\ntag_51:\n    /* \"#utility.yul\":7877:7997   */\ntag_151:\n    /* \"#utility.yul\":7894:7897   */\n  dup2\n    /* \"#utility.yul\":7887:7892   */\n  dup2\n    /* \"#utility.yul\":7884:7898   */\n  lt\n    /* \"#utility.yul\":7877:7997   */\n  iszero\n  tag_153\n  jumpi\n    /* \"#utility.yul\":7948:7987   */\n  tag_154\n    /* \"#utility.yul\":7985:7986   */\n  0x00\n    /* \"#utility.yul\":7978:7983   */\n  dup3\n    /* \"#utility.yul\":7948:7987   */\n  tag_50\n  jump\t// in\ntag_154:\n    /* \"#utility.yul\":7921:7922   */\n  0x01\n    /* \"#utility.yul\":7914:7919   */\n  dup2\n    /* \"#utility.yul\":7910:7923   */\n  add\n    /* \"#utility.yul\":7901:7923   */\n  swap1\n  pop\n    /* \"#utility.yul\":7877:7997   */\n  jump(tag_151)\ntag_153:\n    /* \"#utility.yul\":7817:8003   */\n  pop\n  pop\n  jump\t// out\n    /* \"#utility.yul\":8009:8552   */\ntag_52:\n    /* \"#utility.yul\":8110:8112   */\n  0x1f\n    /* \"#utility.yul\":8105:8108   */\n  dup3\n    /* \"#utility.yul\":8102:8113   */\n  gt\n    /* \"#utility.yul\":8099:8545   */\n  iszero\n  tag_156\n  jumpi\n    /* \"#utility.yul\":8144:8182   */\n  tag_157\n    /* \"#utility.yul\":8176:8181   */\n  dup2\n    /* \"#utility.yul\":8144:8182   */\n  tag_41\n  jump\t// in\ntag_157:\n    /* \"#utility.yul\":8228:8257   */\n  tag_158\n    /* \"#utility.yul\":8246:8256   */\n  dup5\n    /* \"#utility.yul\":8228:8257   */\n  tag_42\n  jump\t// in\ntag_158:\n    /* \"#utility.yul\":8218:8226   */\n  dup2\n    /* \"#utility.yul\":8214:8258   */\n  add\n    /* \"#utility.yul\":8411:8413   */\n  0x20\n    /* \"#utility.yul\":8399:8409   */\n  dup6\n    /* \"#utility.yul\":8396:8414   */\n  lt\n    /* \"#utility.yul\":8393:8442   */\n  iszero\n  tag_159\n  jumpi\n    /* \"#utility.yul\":8432:8440   */\n  dup2\n    /* \"#utility.yul\":8417:8440   */\n  swap1\n  pop\n    /* \"#utility.yul\":8393:8442   */\ntag_159:\n    /* \"#utility.yul\":8455:8535   */\n  tag_160\n    /* \"#utility.yul\":8511:8533   */\n  tag_161\n    /* \"#utility.yul\":8529:8532   */\n  dup6\n    /* \"#utility.yul\":8511:8533   */\n  tag_42\n  jump\t// in\ntag_161:\n    /* \"#utility.yul\":8501:8509   */\n  dup4\n    /* \"#utility.yul\":8497:8534   */\n  add\n    /* \"#utility.yul\":8484:8495   */\n  dup3\n    /* \"#utility.yul\":8455:8535   */\n  tag_51\n  jump\t// in\ntag_160:\n    /* \"#utility.yul\":8114:8545   */\n  pop\n  pop\n    /* \"#utility.yul\":8099:8545   */\ntag_156:\n    /* \"#utility.yul\":8009:8552   */\n  pop\n  pop\n  pop\n  jump\t// out\n    /* \"#utility.yul\":8558:8675   */\ntag_53:\n    /* \"#utility.yul\":8612:8620   */\n  0x00\n    /* \"#utility.yul\":8662:8667   */\n  dup3\n    /* \"#utility.yul\":8656:8660   */\n  dup3\n    /* \"#utility.yul\":8652:8668   */\n  shr\n    /* \"#utility.yul\":8631:8668   */\n  swap1\n  pop\n    /* \"#utility.yul\":8558:8675   */\n  swap3\n  swap2\n  pop\n  pop\n  jump\t// out\n    /* \"#utility.yul\":8681:8850   */\ntag_54:\n    /* \"#utility.yul\":8725:8731   */\n  0x00\n    /* \"#utility.yul\":8758:8809   */\n  tag_164\n    /* \"#utility.yul\":8806:8807   */\n  0x00\n    /* \"#utility.yul\":8802:8808   */\n  not\n    /* \"#utility.yul\":8794:8799   */\n  dup5\n    /* \"#utility.yul\":8791:8792   */\n  0x08\n    /* \"#utility.yul\":8787:8800   */\n  mul\n    /* \"#utility.yul\":8758:8809   */\n  tag_53\n  jump\t// in\ntag_164:\n    /* \"#utility.yul\":8754:8810   */\n  not\n    /* \"#utility.yul\":8839:8843   */\n  dup1\n    /* \"#utility.yul\":8833:8837   */\n  dup4\n    /* \"#utility.yul\":8829:8844   */\n  and\n    /* \"#utility.yul\":8819:8844   */\n  swap2\n  pop\n    /* \"#utility.yul\":8732:8850   */\n  pop\n    /* \"#utility.yul\":8681:8850   */\n  swap3\n  swap2\n  pop\n  pop\n  jump\t// out\n    /* \"#utility.yul\":8855:9150   */\ntag_55:\n    /* \"#utility.yul\":8931:8935   */\n  0x00\n    /* \"#utility.yul\":9077:9106   */\n  tag_166\n    /* \"#utility.yul\":9102:9105   */\n  dup4\n    /* \"#utility.yul\":9096:9100   */\n  dup4\n    /* \"#utility.yul\":9077:9106   */\n  tag_54\n  jump\t// in\ntag_166:\n    /* \"#utility.yul\":9069:9106   */\n  swap2\n  pop\n    /* \"#utility.yul\":9139:9142   */\n  dup3\n    /* \"#utility.yul\":9136:9137   */\n  0x02\n    /* \"#utility.yul\":9132:9143   */\n  mul\n    /* \"#utility.yul\":9126:9130   */\n  dup3\n    /* \"#utility.yul\":9123:9144   */\n  or\n    /* \"#utility.yul\":9115:9144   */\n  swap1\n  pop\n    /* \"#utility.yul\":8855:9150   */\n  swap3\n  swap2\n  pop\n  pop\n  jump\t// out\n    /* \"#utility.yul\":9155:10550   */\ntag_14:\n    /* \"#utility.yul\":9272:9309   */\n  tag_168\n    /* \"#utility.yul\":9305:9308   */\n  dup3\n    /* \"#utility.yul\":9272:9309   */\n  tag_38\n  jump\t// in\ntag_168:\n    /* \"#utility.yul\":9374:9392   */\n  0xffffffffffffffff\n    /* \"#utility.yul\":9366:9372   */\n  dup2\n    /* \"#utility.yul\":9363:9393   */\n  gt\n    /* \"#utility.yul\":9360:9416   */\n  iszero\n  tag_169\n  jumpi\n    /* \"#utility.yul\":9396:9414   */\n  tag_170\n  tag_30\n  jump\t// in\ntag_170:\n    /* \"#utility.yul\":9360:9416   */\ntag_169:\n    /* \"#utility.yul\":9440:9478   */\n  tag_171\n    /* \"#utility.yul\":9472:9476   */\n  dup3\n    /* \"#utility.yul\":9466:9477   */\n  sload\n    /* \"#utility.yul\":9440:9478   */\n  tag_40\n  jump\t// in\ntag_171:\n    /* \"#utility.yul\":9525:9592   */\n  tag_172\n    /* \"#utility.yul\":9585:9591   */\n  dup3\n    /* \"#utility.yul\":9577:9583   */\n  dup3\n    /* \"#utility.yul\":9571:9575   */\n  dup6\n    /* \"#utility.yul\":9525:9592   */\n  tag_52\n  jump\t// in\ntag_172:\n    /* \"#utility.yul\":9619:9620   */\n  0x00\n    /* \"#utility.yul\":9643:9647   */\n  0x20\n    /* \"#utility.yul\":9630:9647   */\n  swap1\n  pop\n    /* \"#utility.yul\":9675:9677   */\n  0x1f\n    /* \"#utility.yul\":9667:9673   */\n  dup4\n    /* \"#utility.yul\":9664:9678   */\n  gt\n    /* \"#utility.yul\":9692:9693   */\n  0x01\n    /* \"#utility.yul\":9687:10305   */\n  dup2\n  eq\n  tag_174\n  jumpi\n    /* \"#utility.yul\":10349:10350   */\n  0x00\n    /* \"#utility.yul\":10366:10372   */\n  dup5\n    /* \"#utility.yul\":10363:10440   */\n  iszero\n  tag_175\n  jumpi\n    /* \"#utility.yul\":10415:10424   */\n  dup3\n    /* \"#utility.yul\":10410:10413   */\n  dup8\n    /* \"#utility.yul\":10406:10425   */\n  add\n    /* \"#utility.yul\":10400:10426   */\n  mload\n    /* \"#utility.yul\":10391:10426   */\n  swap1\n  pop\n    /* \"#utility.yul\":10363:10440   */\ntag_175:\n    /* \"#utility.yul\":10466:10533   */\n  tag_176\n    /* \"#utility.yul\":10526:10532   */\n  dup6\n    /* \"#utility.yul\":10519:10524   */\n  dup3\n    /* \"#utility.yul\":10466:10533   */\n  tag_55\n  jump\t// in\ntag_176:\n    /* \"#utility.yul\":10460:10464   */\n  dup7\n    /* \"#utility.yul\":10453:10534   */\n  sstore\n    /* \"#utility.yul\":10322:10544   */\n  pop\n    /* \"#utility.yul\":9657:10544   */\n  jump(tag_173)\n    /* \"#utility.yul\":9687:10305   */\ntag_174:\n    /* \"#utility.yul\":9739:9743   */\n  0x1f\n    /* \"#utility.yul\":9735:9744   */\n  not\n    /* \"#utility.yul\":9727:9733   */\n  dup5\n    /* \"#utility.yul\":9723:9745   */\n  and\n    /* \"#utility.yul\":9773:9810   */\n  tag_177\n    /* \"#utility.yul\":9805:9809   */\n  dup7\n    /* \"#utility.yul\":9773:9810   */\n  tag_41\n  jump\t// in\ntag_177:\n    /* \"#utility.yul\":9832:9833   */\n  0x00\n    /* \"#utility.yul\":9846:10054   */\ntag_178:\n    /* \"#utility.yul\":9860:9867   */\n  dup3\n    /* \"#utility.yul\":9857:9858   */\n  dup2\n    /* \"#utility.yul\":9854:9868   */\n  lt\n    /* \"#utility.yul\":9846:10054   */\n  iszero\n  tag_180\n  jumpi\n    /* \"#utility.yul\":9939:9948   */\n  dup5\n    /* \"#utility.yul\":9934:9937   */\n  dup10\n    /* \"#utility.yul\":9930:9949   */\n  add\n    /* \"#utility.yul\":9924:9950   */\n  mload\n    /* \"#utility.yul\":9916:9922   */\n  dup3\n    /* \"#utility.yul\":9909:9951   */\n  sstore\n    /* \"#utility.yul\":9990:9991   */\n  0x01\n    /* \"#utility.yul\":9982:9988   */\n  dup3\n    /* \"#utility.yul\":9978:9992   */\n  add\n    /* \"#utility.yul\":9968:9992   */\n  swap2\n  pop\n    /* \"#utility.yul\":10037:10039   */\n  0x20\n    /* \"#utility.yul\":10026:10035   */\n  dup6\n    /* \"#utility.yul\":10022:10040   */\n  add\n    /* \"#utility.yul\":10009:10040   */\n  swap5\n  pop\n    /* \"#utility.yul\":9883:9887   */\n  0x20\n    /* \"#utility.yul\":9880:9881   */\n  dup2\n    /* \"#utility.yul\":9876:9888   */\n  add\n    /* \"#utility.yul\":9871:9888   */\n  swap1\n  pop\n    /* \"#utility.yul\":9846:10054   */\n  jump(tag_178)\ntag_180:\n    /* \"#utility.yul\":10082:10088   */\n  dup7\n    /* \"#utility.yul\":10073:10080   */\n  dup4\n    /* \"#utility.yul\":10070:10089   */\n  lt\n    /* \"#utility.yul\":10067:10246   */\n  iszero\n  tag_181\n  jumpi\n    /* \"#utility.yul\":10140:10149   */\n  dup5\n    /* \"#utility.yul\":10135:10138   */\n  dup10\n    /* \"#utility.yul\":10131:10150   */\n  add\n    /* \"#utility.yul\":10125:10151   */\n  mload\n    /* \"#utility.yul\":10183:10231   */\n  tag_182\n    /* \"#utility.yul\":10225:10229   */\n  0x1f\n    /* \"#utility.yul\":10217:10223   */\n  dup10\n    /* \"#utility.yul\":10213:10230   */\n  and\n    /* \"#utility.yul\":10202:10211   */\n  dup3\n    /* \"#utility.yul\":10183:10231   */\n  tag_54\n  jump\t// in\ntag_182:\n    /* \"#utility.yul\":10175:10181   */\n  dup4\n    /* \"#utility.yul\":10168:10232   */\n  sstore\n    /* \"#utility.yul\":10090:10246   */\n  pop\n    /* \"#utility.yul\":10067:10246   */\ntag_181:\n    /* \"#utility.yul\":10292:10293   */\n  0x01\n    /* \"#utility.yul\":10288:10289   */\n  0x02\n    /* \"#utility.yul\":10280:10286   */\n  dup9\n    /* \"#utility.yul\":10276:10290   */\n  mul\n    /* \"#utility.yul\":10272:10294   */\n  add\n    /* \"#utility.yul\":10266:10270   */\n  dup9\n    /* \"#utility.yul\":10259:10295   */\n  sstore\n    /* \"#utility.yul\":9694:10305   */\n  pop\n  pop\n  pop\n    /* \"#utility.yul\":9657:10544   */\ntag_173:\n  pop\n    /* \"#utility.yul\":9247:10550   */\n  pop\n  pop\n  pop\n    /* \"#utility.yul\":9155:10550   */\n  pop\n  pop\n  jump\t// out\n    /* \"contracts/11_Auction.sol\":3117:7147  contract MyAuction is Auction {... */\ntag_16:\n  dataSize(sub_0)\n  dup1\n  dataOffset(sub_0)\n  0x00\n  codecopy\n  0x00\n  return\nstop\n\nsub_0: assembly {\n        /* \"contracts/11_Auction.sol\":3117:7147  contract MyAuction is Auction {... */\n      mstore(0x40, 0x80)\n      jumpi(tag_1, lt(calldatasize, 0x04))\n      shr(0xe0, calldataload(0x00))\n      dup1\n      0x78f45340\n      gt\n      tag_16\n      jumpi\n      dup1\n      0xc458b65a\n      gt\n      tag_17\n      jumpi\n      dup1\n      0xc458b65a\n      eq\n      tag_12\n      jumpi\n      dup1\n      0xc486456c\n      eq\n      tag_13\n      jumpi\n      dup1\n      0xd57bde79\n      eq\n      tag_14\n      jumpi\n      dup1\n      0xef86ce8e\n      eq\n      tag_15\n      jumpi\n      jump(tag_1)\n    tag_17:\n      dup1\n      0x78f45340\n      eq\n      tag_9\n      jumpi\n      dup1\n      0x91f90157\n      eq\n      tag_10\n      jumpi\n      dup1\n      0x956534ed\n      eq\n      tag_11\n      jumpi\n      jump(tag_1)\n    tag_16:\n      dup1\n      0x389009f0\n      gt\n      tag_18\n      jumpi\n      dup1\n      0x389009f0\n      eq\n      tag_5\n      jumpi\n      dup1\n      0x3ba88ca1\n      eq\n      tag_6\n      jumpi\n      dup1\n      0x3ccfd60b\n      eq\n      tag_7\n      jumpi\n      dup1\n      0x62ea82db\n      eq\n      tag_8\n      jumpi\n      jump(tag_1)\n    tag_18:\n      dup1\n      0x0216f202\n      eq\n      tag_2\n      jumpi\n      dup1\n      0x0ac298dc\n      eq\n      tag_3\n      jumpi\n      dup1\n      0x1998aeef\n      eq\n      tag_4\n      jumpi\n    tag_1:\n      0x00\n      dup1\n      revert\n        /* \"contracts/11_Auction.sol\":1141:1157  car public Mycar */\n    tag_2:\n      callvalue\n      dup1\n      iszero\n      tag_19\n      jumpi\n      0x00\n      dup1\n      revert\n    tag_19:\n      pop\n      tag_20\n      tag_21\n      jump\t// in\n    tag_20:\n      mload(0x40)\n      tag_22\n      swap3\n      swap2\n      swap1\n      tag_23\n      jump\t// in\n    tag_22:\n      mload(0x40)\n      dup1\n      swap2\n      sub\n      swap1\n      return\n        /* \"contracts/11_Auction.sol\":6747:6837  function get_owner() public view returns (address) {... */\n    tag_3:\n      callvalue\n      dup1\n      iszero\n      tag_24\n      jumpi\n      0x00\n      dup1\n      revert\n    tag_24:\n      pop\n      tag_25\n      tag_26\n      jump\t// in\n    tag_25:\n      mload(0x40)\n      tag_27\n      swap2\n      swap1\n      tag_28\n      jump\t// in\n    tag_27:\n      mload(0x40)\n      dup1\n      swap2\n      sub\n      swap1\n      return\n        /* \"contracts/11_Auction.sol\":3928:4768  function bid() public payable override an_ongoing_auction returns (bool) {... */\n    tag_4:\n      tag_29\n      tag_30\n      jump\t// in\n    tag_29:\n      mload(0x40)\n      tag_31\n      swap2\n      swap1\n      tag_32\n      jump\t// in\n    tag_31:\n      mload(0x40)\n      dup1\n      swap2\n      sub\n      swap1\n      return\n        /* \"contracts/11_Auction.sol\":5215:5587  function deactivateAuction() external only_owner {... */\n    tag_5:\n      callvalue\n      dup1\n      iszero\n      tag_33\n      jumpi\n      0x00\n      dup1\n      revert\n    tag_33:\n      pop\n      tag_34\n      tag_35\n      jump\t// in\n    tag_34:\n      stop\n        /* \"contracts/11_Auction.sol\":4826:5139  function cancel_auction() external override only_owner an_ongoing_auction returns (bool) {... */\n    tag_6:\n      callvalue\n      dup1\n      iszero\n      tag_36\n      jumpi\n      0x00\n      dup1\n      revert\n    tag_36:\n      pop\n      tag_37\n      tag_38\n      jump\t// in\n    tag_37:\n      mload(0x40)\n      tag_39\n      swap2\n      swap1\n      tag_32\n      jump\t// in\n    tag_39:\n      mload(0x40)\n      dup1\n      swap2\n      sub\n      swap1\n      return\n        /* \"contracts/11_Auction.sol\":6119:6681  function withdraw() public override returns (bool) {... */\n    tag_7:\n      callvalue\n      dup1\n      iszero\n      tag_40\n      jumpi\n      0x00\n      dup1\n      revert\n    tag_40:\n      pop\n      tag_41\n      tag_42\n      jump\t// in\n    tag_41:\n      mload(0x40)\n      tag_43\n      swap2\n      swap1\n      tag_32\n      jump\t// in\n    tag_43:\n      mload(0x40)\n      dup1\n      swap2\n      sub\n      swap1\n      return\n        /* \"contracts/11_Auction.sol\":1337:1373  mapping(address => uint) public bids */\n    tag_8:\n      callvalue\n      dup1\n      iszero\n      tag_44\n      jumpi\n      0x00\n      dup1\n      revert\n    tag_44:\n      pop\n      tag_45\n      0x04\n      dup1\n      calldatasize\n      sub\n      dup2\n      add\n      swap1\n      tag_46\n      swap2\n      swap1\n      tag_47\n      jump\t// in\n    tag_46:\n      tag_48\n      jump\t// in\n    tag_45:\n      mload(0x40)\n      tag_49\n      swap2\n      swap1\n      tag_50\n      jump\t// in\n    tag_49:\n      mload(0x40)\n      dup1\n      swap2\n      sub\n      swap1\n      return\n        /* \"contracts/11_Auction.sol\":382:410  uint256 public auction_start */\n    tag_9:\n      callvalue\n      dup1\n      iszero\n      tag_51\n      jumpi\n      0x00\n      dup1\n      revert\n    tag_51:\n      pop\n      tag_52\n      tag_53\n      jump\t// in\n    tag_52:\n      mload(0x40)\n      tag_54\n      swap2\n      swap1\n      tag_50\n      jump\t// in\n    tag_54:\n      mload(0x40)\n      dup1\n      swap2\n      sub\n      swap1\n      return\n        /* \"contracts/11_Auction.sol\":660:688  address public highestBidder */\n    tag_10:\n      callvalue\n      dup1\n      iszero\n      tag_55\n      jumpi\n      0x00\n      dup1\n      revert\n    tag_55:\n      pop\n      tag_56\n      tag_57\n      jump\t// in\n    tag_56:\n      mload(0x40)\n      tag_58\n      swap2\n      swap1\n      tag_28\n      jump\t// in\n    tag_58:\n      mload(0x40)\n      dup1\n      swap2\n      sub\n      swap1\n      return\n        /* \"contracts/11_Auction.sol\":6896:7144  function updateAuctionState(auction_state newState) external only_owner {... */\n    tag_11:\n      callvalue\n      dup1\n      iszero\n      tag_59\n      jumpi\n      0x00\n      dup1\n      revert\n    tag_59:\n      pop\n      tag_60\n      0x04\n      dup1\n      calldatasize\n      sub\n      dup2\n      add\n      swap1\n      tag_61\n      swap2\n      swap1\n      tag_62\n      jump\t// in\n    tag_61:\n      tag_63\n      jump\t// in\n    tag_60:\n      stop\n        /* \"contracts/11_Auction.sol\":471:497  uint256 public auction_end */\n    tag_12:\n      callvalue\n      dup1\n      iszero\n      tag_64\n      jumpi\n      0x00\n      dup1\n      revert\n    tag_64:\n      pop\n      tag_65\n      tag_66\n      jump\t// in\n    tag_65:\n      mload(0x40)\n      tag_67\n      swap2\n      swap1\n      tag_50\n      jump\t// in\n    tag_67:\n      mload(0x40)\n      dup1\n      swap2\n      sub\n      swap1\n      return\n        /* \"contracts/11_Auction.sol\":1463:1489  auction_state public STATE */\n    tag_13:\n      callvalue\n      dup1\n      iszero\n      tag_68\n      jumpi\n      0x00\n      dup1\n      revert\n    tag_68:\n      pop\n      tag_69\n      tag_70\n      jump\t// in\n    tag_69:\n      mload(0x40)\n      tag_71\n      swap2\n      swap1\n      tag_72\n      jump\t// in\n    tag_71:\n      mload(0x40)\n      dup1\n      swap2\n      sub\n      swap1\n      return\n        /* \"contracts/11_Auction.sol\":561:586  uint256 public highestBid */\n    tag_14:\n      callvalue\n      dup1\n      iszero\n      tag_73\n      jumpi\n      0x00\n      dup1\n      revert\n    tag_73:\n      pop\n      tag_74\n      tag_75\n      jump\t// in\n    tag_74:\n      mload(0x40)\n      tag_76\n      swap2\n      swap1\n      tag_50\n      jump\t// in\n    tag_76:\n      mload(0x40)\n      dup1\n      swap2\n      sub\n      swap1\n      return\n        /* \"contracts/11_Auction.sol\":5660:6033  function withdrawRemainingFunds() external only_owner {... */\n    tag_15:\n      callvalue\n      dup1\n      iszero\n      tag_77\n      jumpi\n      0x00\n      dup1\n      revert\n    tag_77:\n      pop\n      tag_78\n      tag_79\n      jump\t// in\n    tag_78:\n      stop\n        /* \"contracts/11_Auction.sol\":1141:1157  car public Mycar */\n    tag_21:\n      0x05\n      dup1\n      0x00\n      add\n      dup1\n      sload\n      tag_80\n      swap1\n      tag_81\n      jump\t// in\n    tag_80:\n      dup1\n      0x1f\n      add\n      0x20\n      dup1\n      swap2\n      div\n      mul\n      0x20\n      add\n      mload(0x40)\n      swap1\n      dup2\n      add\n      0x40\n      mstore\n      dup1\n      swap3\n      swap2\n      swap1\n      dup2\n      dup2\n      mstore\n      0x20\n      add\n      dup3\n      dup1\n      sload\n      tag_82\n      swap1\n      tag_81\n      jump\t// in\n    tag_82:\n      dup1\n      iszero\n      tag_83\n      jumpi\n      dup1\n      0x1f\n      lt\n      tag_84\n      jumpi\n      0x0100\n      dup1\n      dup4\n      sload\n      div\n      mul\n      dup4\n      mstore\n      swap2\n      0x20\n      add\n      swap2\n      jump(tag_83)\n    tag_84:\n      dup3\n      add\n      swap2\n      swap1\n      0x00\n      mstore\n      keccak256(0x00, 0x20)\n      swap1\n    tag_85:\n      dup2\n      sload\n      dup2\n      mstore\n      swap1\n      0x01\n      add\n      swap1\n      0x20\n      add\n      dup1\n      dup4\n      gt\n      tag_85\n      jumpi\n      dup3\n      swap1\n      sub\n      0x1f\n      and\n      dup3\n      add\n      swap2\n    tag_83:\n      pop\n      pop\n      pop\n      pop\n      pop\n      swap1\n      dup1\n      0x01\n      add\n      dup1\n      sload\n      tag_86\n      swap1\n      tag_81\n      jump\t// in\n    tag_86:\n      dup1\n      0x1f\n      add\n      0x20\n      dup1\n      swap2\n      div\n      mul\n      0x20\n      add\n      mload(0x40)\n      swap1\n      dup2\n      add\n      0x40\n      mstore\n      dup1\n      swap3\n      swap2\n      swap1\n      dup2\n      dup2\n      mstore\n      0x20\n      add\n      dup3\n      dup1\n      sload\n      tag_87\n      swap1\n      tag_81\n      jump\t// in\n    tag_87:\n      dup1\n      iszero\n      tag_88\n      jumpi\n      dup1\n      0x1f\n      lt\n      tag_89\n      jumpi\n      0x0100\n      dup1\n      dup4\n      sload\n      div\n      mul\n      dup4\n      mstore\n      swap2\n      0x20\n      add\n      swap2\n      jump(tag_88)\n    tag_89:\n      dup3\n      add\n      swap2\n      swap1\n      0x00\n      mstore\n      keccak256(0x00, 0x20)\n      swap1\n    tag_90:\n      dup2\n      sload\n      dup2\n      mstore\n      swap1\n      0x01\n      add\n      swap1\n      0x20\n      add\n      dup1\n      dup4\n      gt\n      tag_90\n      jumpi\n      dup3\n      swap1\n      sub\n      0x1f\n      and\n      dup3\n      add\n      swap2\n    tag_88:\n      pop\n      pop\n      pop\n      pop\n      pop\n      swap1\n      pop\n      dup3\n      jump\t// out\n        /* \"contracts/11_Auction.sol\":6747:6837  function get_owner() public view returns (address) {... */\n    tag_26:\n        /* \"contracts/11_Auction.sol\":6789:6796  address */\n      0x00\n        /* \"contracts/11_Auction.sol\":6816:6829  auction_owner */\n      dup1\n      0x00\n      swap1\n      sload\n      swap1\n      0x0100\n      exp\n      swap1\n      div\n      0xffffffffffffffffffffffffffffffffffffffff\n      and\n        /* \"contracts/11_Auction.sol\":6809:6829  return auction_owner */\n      swap1\n      pop\n        /* \"contracts/11_Auction.sol\":6747:6837  function get_owner() public view returns (address) {... */\n      swap1\n      jump\t// out\n        /* \"contracts/11_Auction.sol\":3928:4768  function bid() public payable override an_ongoing_auction returns (bool) {... */\n    tag_30:\n        /* \"contracts/11_Auction.sol\":3995:3999  bool */\n      0x00\n        /* \"contracts/11_Auction.sol\":1749:1760  auction_end */\n      sload(0x02)\n        /* \"contracts/11_Auction.sol\":1730:1745  block.timestamp */\n      timestamp\n        /* \"contracts/11_Auction.sol\":1730:1760  block.timestamp <= auction_end */\n      gt\n      iszero\n        /* \"contracts/11_Auction.sol\":1722:1782  require(block.timestamp <= auction_end, \"Auction has ended\") */\n      tag_93\n      jumpi\n      mload(0x40)\n      0x08c379a000000000000000000000000000000000000000000000000000000000\n      dup2\n      mstore\n      0x04\n      add\n      tag_94\n      swap1\n      tag_95\n      jump\t// in\n    tag_94:\n      mload(0x40)\n      dup1\n      swap2\n      sub\n      swap1\n      revert\n    tag_93:\n        /* \"contracts/11_Auction.sol\":4164:4174  highestBid */\n      sload(0x03)\n        /* \"contracts/11_Auction.sol\":4152:4161  msg.value */\n      callvalue\n        /* \"contracts/11_Auction.sol\":4133:4137  bids */\n      0x08\n        /* \"contracts/11_Auction.sol\":4133:4149  bids[msg.sender] */\n      0x00\n        /* \"contracts/11_Auction.sol\":4138:4148  msg.sender */\n      caller\n        /* \"contracts/11_Auction.sol\":4133:4149  bids[msg.sender] */\n      0xffffffffffffffffffffffffffffffffffffffff\n      and\n      0xffffffffffffffffffffffffffffffffffffffff\n      and\n      dup2\n      mstore\n      0x20\n      add\n      swap1\n      dup2\n      mstore\n      0x20\n      add\n      0x00\n      keccak256\n      sload\n        /* \"contracts/11_Auction.sol\":4133:4161  bids[msg.sender] + msg.value */\n      tag_97\n      swap2\n      swap1\n      tag_98\n      jump\t// in\n    tag_97:\n        /* \"contracts/11_Auction.sol\":4133:4174  bids[msg.sender] + msg.value > highestBid */\n      gt\n        /* \"contracts/11_Auction.sol\":4125:4211  require(bids[msg.sender] + msg.value > highestBid, \"You can't bid, make a higher bid\") */\n      tag_99\n      jumpi\n      mload(0x40)\n      0x08c379a000000000000000000000000000000000000000000000000000000000\n      dup2\n      mstore\n      0x04\n      add\n      tag_100\n      swap1\n      tag_101\n      jump\t// in\n    tag_100:\n      mload(0x40)\n      dup1\n      swap2\n      sub\n      swap1\n      revert\n    tag_99:\n        /* \"contracts/11_Auction.sol\":4315:4325  msg.sender */\n      caller\n        /* \"contracts/11_Auction.sol\":4299:4312  highestBidder */\n      0x04\n      0x00\n        /* \"contracts/11_Auction.sol\":4299:4325  highestBidder = msg.sender */\n      0x0100\n      exp\n      dup2\n      sload\n      dup2\n      0xffffffffffffffffffffffffffffffffffffffff\n      mul\n      not\n      and\n      swap1\n      dup4\n      0xffffffffffffffffffffffffffffffffffffffff\n      and\n      mul\n      or\n      swap1\n      sstore\n      pop\n        /* \"contracts/11_Auction.sol\":4427:4436  msg.value */\n      callvalue\n        /* \"contracts/11_Auction.sol\":4414:4424  highestBid */\n      0x03\n        /* \"contracts/11_Auction.sol\":4414:4436  highestBid = msg.value */\n      dup2\n      swap1\n      sstore\n      pop\n        /* \"contracts/11_Auction.sol\":4501:4508  bidders */\n      0x07\n        /* \"contracts/11_Auction.sol\":4514:4524  msg.sender */\n      caller\n        /* \"contracts/11_Auction.sol\":4501:4525  bidders.push(msg.sender) */\n      swap1\n      dup1\n      0x01\n      dup2\n      sload\n      add\n      dup1\n      dup3\n      sstore\n      dup1\n      swap2\n      pop\n      pop\n      0x01\n      swap1\n      sub\n      swap1\n      0x00\n      mstore\n      keccak256(0x00, 0x20)\n      add\n      0x00\n      swap1\n      swap2\n      swap1\n      swap2\n      swap1\n      swap2\n      0x0100\n      exp\n      dup2\n      sload\n      dup2\n      0xffffffffffffffffffffffffffffffffffffffff\n      mul\n      not\n      and\n      swap1\n      dup4\n      0xffffffffffffffffffffffffffffffffffffffff\n      and\n      mul\n      or\n      swap1\n      sstore\n      pop\n        /* \"contracts/11_Auction.sol\":4638:4647  msg.value */\n      callvalue\n        /* \"contracts/11_Auction.sol\":4619:4623  bids */\n      0x08\n        /* \"contracts/11_Auction.sol\":4619:4635  bids[msg.sender] */\n      0x00\n        /* \"contracts/11_Auction.sol\":4624:4634  msg.sender */\n      caller\n        /* \"contracts/11_Auction.sol\":4619:4635  bids[msg.sender] */\n      0xffffffffffffffffffffffffffffffffffffffff\n      and\n      0xffffffffffffffffffffffffffffffffffffffff\n      and\n      dup2\n      mstore\n      0x20\n      add\n      swap1\n      dup2\n      mstore\n      0x20\n      add\n      0x00\n      keccak256\n      sload\n        /* \"contracts/11_Auction.sol\":4619:4647  bids[msg.sender] + msg.value */\n      tag_103\n      swap2\n      swap1\n      tag_98\n      jump\t// in\n    tag_103:\n        /* \"contracts/11_Auction.sol\":4600:4604  bids */\n      0x08\n        /* \"contracts/11_Auction.sol\":4600:4616  bids[msg.sender] */\n      0x00\n        /* \"contracts/11_Auction.sol\":4605:4615  msg.sender */\n      caller\n        /* \"contracts/11_Auction.sol\":4600:4616  bids[msg.sender] */\n      0xffffffffffffffffffffffffffffffffffffffff\n      and\n      0xffffffffffffffffffffffffffffffffffffffff\n      and\n      dup2\n      mstore\n      0x20\n      add\n      swap1\n      dup2\n      mstore\n      0x20\n      add\n      0x00\n      keccak256\n        /* \"contracts/11_Auction.sol\":4600:4647  bids[msg.sender] = bids[msg.sender] + msg.value */\n      dup2\n      swap1\n      sstore\n      pop\n        /* \"contracts/11_Auction.sol\":4710:4723  highestBidder */\n      0x04\n      0x00\n      swap1\n      sload\n      swap1\n      0x0100\n      exp\n      swap1\n      div\n      0xffffffffffffffffffffffffffffffffffffffff\n      and\n        /* \"contracts/11_Auction.sol\":4701:4736  BidEvent(highestBidder, highestBid) */\n      0xffffffffffffffffffffffffffffffffffffffff\n      and\n      0x0d993d4f8a84158f5329713d6d13ef54e77b325040c887c8b3e565cfd0cd3e21\n        /* \"contracts/11_Auction.sol\":4725:4735  highestBid */\n      sload(0x03)\n        /* \"contracts/11_Auction.sol\":4701:4736  BidEvent(highestBidder, highestBid) */\n      mload(0x40)\n      tag_104\n      swap2\n      swap1\n      tag_50\n      jump\t// in\n    tag_104:\n      mload(0x40)\n      dup1\n      swap2\n      sub\n      swap1\n      log2\n        /* \"contracts/11_Auction.sol\":4756:4760  true */\n      0x01\n        /* \"contracts/11_Auction.sol\":4749:4760  return true */\n      swap1\n      pop\n        /* \"contracts/11_Auction.sol\":3928:4768  function bid() public payable override an_ongoing_auction returns (bool) {... */\n      swap1\n      jump\t// out\n        /* \"contracts/11_Auction.sol\":5215:5587  function deactivateAuction() external only_owner {... */\n    tag_35:\n        /* \"contracts/11_Auction.sol\":2032:2045  auction_owner */\n      0x00\n      dup1\n      sload\n      swap1\n      0x0100\n      exp\n      swap1\n      div\n      0xffffffffffffffffffffffffffffffffffffffff\n      and\n        /* \"contracts/11_Auction.sol\":2018:2045  msg.sender == auction_owner */\n      0xffffffffffffffffffffffffffffffffffffffff\n      and\n        /* \"contracts/11_Auction.sol\":2018:2028  msg.sender */\n      caller\n        /* \"contracts/11_Auction.sol\":2018:2045  msg.sender == auction_owner */\n      0xffffffffffffffffffffffffffffffffffffffff\n      and\n      eq\n        /* \"contracts/11_Auction.sol\":2010:2082  require(msg.sender == auction_owner, \"Only auction owner can call this\") */\n      tag_106\n      jumpi\n      mload(0x40)\n      0x08c379a000000000000000000000000000000000000000000000000000000000\n      dup2\n      mstore\n      0x04\n      add\n      tag_107\n      swap1\n      tag_108\n      jump\t// in\n    tag_107:\n      mload(0x40)\n      dup1\n      swap2\n      sub\n      swap1\n      revert\n    tag_106:\n        /* \"contracts/11_Auction.sol\":5349:5360  auction_end */\n      sload(0x02)\n        /* \"contracts/11_Auction.sol\":5331:5346  block.timestamp */\n      timestamp\n        /* \"contracts/11_Auction.sol\":5331:5360  block.timestamp > auction_end */\n      gt\n        /* \"contracts/11_Auction.sol\":5323:5389  require(block.timestamp > auction_end, \"Auction is still ongoing\") */\n      tag_110\n      jumpi\n      mload(0x40)\n      0x08c379a000000000000000000000000000000000000000000000000000000000\n      dup2\n      mstore\n      0x04\n      add\n      tag_111\n      swap1\n      tag_112\n      jump\t// in\n    tag_111:\n      mload(0x40)\n      dup1\n      swap2\n      sub\n      swap1\n      revert\n    tag_110:\n        /* \"contracts/11_Auction.sol\":5462:5485  auction_state.CANCELLED */\n      0x00\n        /* \"contracts/11_Auction.sol\":5454:5459  STATE */\n      0x09\n      0x00\n        /* \"contracts/11_Auction.sol\":5454:5485  STATE = auction_state.CANCELLED */\n      0x0100\n      exp\n      dup2\n      sload\n      dup2\n      0xff\n      mul\n      not\n      and\n      swap1\n      dup4\n      0x01\n      dup2\n      gt\n      iszero\n      tag_113\n      jumpi\n      tag_114\n      tag_115\n      jump\t// in\n    tag_114:\n    tag_113:\n      mul\n      or\n      swap1\n      sstore\n      pop\n        /* \"contracts/11_Auction.sol\":5546:5579  CanceledEvent(2, block.timestamp) */\n      0xcb3c98892a5c11582e6b5e5caa647ef56c5d646f1bf6884c2cae5aff754639e3\n        /* \"contracts/11_Auction.sol\":5560:5561  2 */\n      0x02\n        /* \"contracts/11_Auction.sol\":5563:5578  block.timestamp */\n      timestamp\n        /* \"contracts/11_Auction.sol\":5546:5579  CanceledEvent(2, block.timestamp) */\n      mload(0x40)\n      tag_116\n      swap3\n      swap2\n      swap1\n      tag_117\n      jump\t// in\n    tag_116:\n      mload(0x40)\n      dup1\n      swap2\n      sub\n      swap1\n      log1\n        /* \"contracts/11_Auction.sol\":5215:5587  function deactivateAuction() external only_owner {... */\n      jump\t// out\n        /* \"contracts/11_Auction.sol\":4826:5139  function cancel_auction() external override only_owner an_ongoing_auction returns (bool) {... */\n    tag_38:\n        /* \"contracts/11_Auction.sol\":4909:4913  bool */\n      0x00\n        /* \"contracts/11_Auction.sol\":2032:2045  auction_owner */\n      dup1\n      0x00\n      swap1\n      sload\n      swap1\n      0x0100\n      exp\n      swap1\n      div\n      0xffffffffffffffffffffffffffffffffffffffff\n      and\n        /* \"contracts/11_Auction.sol\":2018:2045  msg.sender == auction_owner */\n      0xffffffffffffffffffffffffffffffffffffffff\n      and\n        /* \"contracts/11_Auction.sol\":2018:2028  msg.sender */\n      caller\n        /* \"contracts/11_Auction.sol\":2018:2045  msg.sender == auction_owner */\n      0xffffffffffffffffffffffffffffffffffffffff\n      and\n      eq\n        /* \"contracts/11_Auction.sol\":2010:2082  require(msg.sender == auction_owner, \"Only auction owner can call this\") */\n      tag_119\n      jumpi\n      mload(0x40)\n      0x08c379a000000000000000000000000000000000000000000000000000000000\n      dup2\n      mstore\n      0x04\n      add\n      tag_120\n      swap1\n      tag_108\n      jump\t// in\n    tag_120:\n      mload(0x40)\n      dup1\n      swap2\n      sub\n      swap1\n      revert\n    tag_119:\n        /* \"contracts/11_Auction.sol\":1749:1760  auction_end */\n      sload(0x02)\n        /* \"contracts/11_Auction.sol\":1730:1745  block.timestamp */\n      timestamp\n        /* \"contracts/11_Auction.sol\":1730:1760  block.timestamp <= auction_end */\n      gt\n      iszero\n        /* \"contracts/11_Auction.sol\":1722:1782  require(block.timestamp <= auction_end, \"Auction has ended\") */\n      tag_122\n      jumpi\n      mload(0x40)\n      0x08c379a000000000000000000000000000000000000000000000000000000000\n      dup2\n      mstore\n      0x04\n      add\n      tag_123\n      swap1\n      tag_95\n      jump\t// in\n    tag_123:\n      mload(0x40)\n      dup1\n      swap2\n      sub\n      swap1\n      revert\n    tag_122:\n        /* \"contracts/11_Auction.sol\":4992:5015  auction_state.CANCELLED */\n      0x00\n        /* \"contracts/11_Auction.sol\":4984:4989  STATE */\n      0x09\n      0x00\n        /* \"contracts/11_Auction.sol\":4984:5015  STATE = auction_state.CANCELLED */\n      0x0100\n      exp\n      dup2\n      sload\n      dup2\n      0xff\n      mul\n      not\n      and\n      swap1\n      dup4\n      0x01\n      dup2\n      gt\n      iszero\n      tag_125\n      jumpi\n      tag_126\n      tag_115\n      jump\t// in\n    tag_126:\n    tag_125:\n      mul\n      or\n      swap1\n      sstore\n      pop\n        /* \"contracts/11_Auction.sol\":5076:5109  CanceledEvent(1, block.timestamp) */\n      0xcb3c98892a5c11582e6b5e5caa647ef56c5d646f1bf6884c2cae5aff754639e3\n        /* \"contracts/11_Auction.sol\":5090:5091  1 */\n      0x01\n        /* \"contracts/11_Auction.sol\":5093:5108  block.timestamp */\n      timestamp\n        /* \"contracts/11_Auction.sol\":5076:5109  CanceledEvent(1, block.timestamp) */\n      mload(0x40)\n      tag_127\n      swap3\n      swap2\n      swap1\n      tag_128\n      jump\t// in\n    tag_127:\n      mload(0x40)\n      dup1\n      swap2\n      sub\n      swap1\n      log1\n        /* \"contracts/11_Auction.sol\":5127:5131  true */\n      0x01\n        /* \"contracts/11_Auction.sol\":5120:5131  return true */\n      swap1\n      pop\n        /* \"contracts/11_Auction.sol\":4826:5139  function cancel_auction() external override only_owner an_ongoing_auction returns (bool) {... */\n      swap1\n      jump\t// out\n        /* \"contracts/11_Auction.sol\":6119:6681  function withdraw() public override returns (bool) {... */\n    tag_42:\n        /* \"contracts/11_Auction.sol\":6164:6168  bool */\n      0x00\n        /* \"contracts/11_Auction.sol\":6227:6238  uint amount */\n      dup1\n        /* \"contracts/11_Auction.sol\":6241:6245  bids */\n      0x08\n        /* \"contracts/11_Auction.sol\":6241:6257  bids[msg.sender] */\n      0x00\n        /* \"contracts/11_Auction.sol\":6246:6256  msg.sender */\n      caller\n        /* \"contracts/11_Auction.sol\":6241:6257  bids[msg.sender] */\n      0xffffffffffffffffffffffffffffffffffffffff\n      and\n      0xffffffffffffffffffffffffffffffffffffffff\n      and\n      dup2\n      mstore\n      0x20\n      add\n      swap1\n      dup2\n      mstore\n      0x20\n      add\n      0x00\n      keccak256\n      sload\n        /* \"contracts/11_Auction.sol\":6227:6257  uint amount = bids[msg.sender] */\n      swap1\n      pop\n        /* \"contracts/11_Auction.sol\":6285:6286  0 */\n      0x00\n        /* \"contracts/11_Auction.sol\":6276:6282  amount */\n      dup2\n        /* \"contracts/11_Auction.sol\":6276:6286  amount > 0 */\n      gt\n        /* \"contracts/11_Auction.sol\":6268:6311  require(amount > 0, \"No funds to withdraw\") */\n      tag_130\n      jumpi\n      mload(0x40)\n      0x08c379a000000000000000000000000000000000000000000000000000000000\n      dup2\n      mstore\n      0x04\n      add\n      tag_131\n      swap1\n      tag_132\n      jump\t// in\n    tag_131:\n      mload(0x40)\n      dup1\n      swap2\n      sub\n      swap1\n      revert\n    tag_130:\n        /* \"contracts/11_Auction.sol\":6387:6388  0 */\n      0x00\n        /* \"contracts/11_Auction.sol\":6368:6372  bids */\n      0x08\n        /* \"contracts/11_Auction.sol\":6368:6384  bids[msg.sender] */\n      0x00\n        /* \"contracts/11_Auction.sol\":6373:6383  msg.sender */\n      caller\n        /* \"contracts/11_Auction.sol\":6368:6384  bids[msg.sender] */\n      0xffffffffffffffffffffffffffffffffffffffff\n      and\n      0xffffffffffffffffffffffffffffffffffffffff\n      and\n      dup2\n      mstore\n      0x20\n      add\n      swap1\n      dup2\n      mstore\n      0x20\n      add\n      0x00\n      keccak256\n        /* \"contracts/11_Auction.sol\":6368:6388  bids[msg.sender] = 0 */\n      dup2\n      swap1\n      sstore\n      pop\n        /* \"contracts/11_Auction.sol\":6444:6456  bool success */\n      0x00\n        /* \"contracts/11_Auction.sol\":6470:6480  msg.sender */\n      caller\n        /* \"contracts/11_Auction.sol\":6462:6486  payable(msg.sender).call */\n      0xffffffffffffffffffffffffffffffffffffffff\n      and\n        /* \"contracts/11_Auction.sol\":6494:6500  amount */\n      dup3\n        /* \"contracts/11_Auction.sol\":6507:6511  5000 */\n      0x1388\n        /* \"contracts/11_Auction.sol\":6462:6516  payable(msg.sender).call{value: amount, gas: 5000}(\"\") */\n      swap1\n      mload(0x40)\n      tag_133\n      swap1\n      tag_134\n      jump\t// in\n    tag_133:\n      0x00\n      mload(0x40)\n      dup1\n      dup4\n      sub\n      dup2\n      dup6\n      dup9\n      dup9\n      call\n      swap4\n      pop\n      pop\n      pop\n      pop\n      returndatasize\n      dup1\n      0x00\n      dup2\n      eq\n      tag_137\n      jumpi\n      mload(0x40)\n      swap2\n      pop\n      and(add(returndatasize, 0x3f), not(0x1f))\n      dup3\n      add\n      0x40\n      mstore\n      returndatasize\n      dup3\n      mstore\n      returndatasize\n      0x00\n      0x20\n      dup5\n      add\n      returndatacopy\n      jump(tag_136)\n    tag_137:\n      0x60\n      swap2\n      pop\n    tag_136:\n      pop\n        /* \"contracts/11_Auction.sol\":6443:6516  (bool success, ) = payable(msg.sender).call{value: amount, gas: 5000}(\"\") */\n      pop\n      swap1\n      pop\n        /* \"contracts/11_Auction.sol\":6535:6542  success */\n      dup1\n        /* \"contracts/11_Auction.sol\":6527:6562  require(success, \"Transfer failed\") */\n      tag_138\n      jumpi\n      mload(0x40)\n      0x08c379a000000000000000000000000000000000000000000000000000000000\n      dup2\n      mstore\n      0x04\n      add\n      tag_139\n      swap1\n      tag_140\n      jump\t// in\n    tag_139:\n      mload(0x40)\n      dup1\n      swap2\n      sub\n      swap1\n      revert\n    tag_138:\n        /* \"contracts/11_Auction.sol\":6616:6651  WithdrawalEvent(msg.sender, amount) */\n      0x2f174ca282119315c59efaf21147aef438581dabdeb498198ae28964373dd8bc\n        /* \"contracts/11_Auction.sol\":6632:6642  msg.sender */\n      caller\n        /* \"contracts/11_Auction.sol\":6644:6650  amount */\n      dup4\n        /* \"contracts/11_Auction.sol\":6616:6651  WithdrawalEvent(msg.sender, amount) */\n      mload(0x40)\n      tag_141\n      swap3\n      swap2\n      swap1\n      tag_142\n      jump\t// in\n    tag_141:\n      mload(0x40)\n      dup1\n      swap2\n      sub\n      swap1\n      log1\n        /* \"contracts/11_Auction.sol\":6669:6673  true */\n      0x01\n        /* \"contracts/11_Auction.sol\":6662:6673  return true */\n      swap3\n      pop\n      pop\n      pop\n        /* \"contracts/11_Auction.sol\":6119:6681  function withdraw() public override returns (bool) {... */\n      swap1\n      jump\t// out\n        /* \"contracts/11_Auction.sol\":1337:1373  mapping(address => uint) public bids */\n    tag_48:\n      mstore(0x20, 0x08)\n      dup1\n      0x00\n      mstore\n      keccak256(0x00, 0x40)\n      0x00\n      swap2\n      pop\n      swap1\n      pop\n      sload\n      dup2\n      jump\t// out\n        /* \"contracts/11_Auction.sol\":382:410  uint256 public auction_start */\n    tag_53:\n      sload(0x01)\n      dup2\n      jump\t// out\n        /* \"contracts/11_Auction.sol\":660:688  address public highestBidder */\n    tag_57:\n      0x04\n      0x00\n      swap1\n      sload\n      swap1\n      0x0100\n      exp\n      swap1\n      div\n      0xffffffffffffffffffffffffffffffffffffffff\n      and\n      dup2\n      jump\t// out\n        /* \"contracts/11_Auction.sol\":6896:7144  function updateAuctionState(auction_state newState) external only_owner {... */\n    tag_63:\n        /* \"contracts/11_Auction.sol\":2032:2045  auction_owner */\n      0x00\n      dup1\n      sload\n      swap1\n      0x0100\n      exp\n      swap1\n      div\n      0xffffffffffffffffffffffffffffffffffffffff\n      and\n        /* \"contracts/11_Auction.sol\":2018:2045  msg.sender == auction_owner */\n      0xffffffffffffffffffffffffffffffffffffffff\n      and\n        /* \"contracts/11_Auction.sol\":2018:2028  msg.sender */\n      caller\n        /* \"contracts/11_Auction.sol\":2018:2045  msg.sender == auction_owner */\n      0xffffffffffffffffffffffffffffffffffffffff\n      and\n      eq\n        /* \"contracts/11_Auction.sol\":2010:2082  require(msg.sender == auction_owner, \"Only auction owner can call this\") */\n      tag_144\n      jumpi\n      mload(0x40)\n      0x08c379a000000000000000000000000000000000000000000000000000000000\n      dup2\n      mstore\n      0x04\n      add\n      tag_145\n      swap1\n      tag_108\n      jump\t// in\n    tag_145:\n      mload(0x40)\n      dup1\n      swap2\n      sub\n      swap1\n      revert\n    tag_144:\n        /* \"contracts/11_Auction.sol\":7039:7047  newState */\n      dup1\n        /* \"contracts/11_Auction.sol\":7031:7036  STATE */\n      0x09\n      0x00\n        /* \"contracts/11_Auction.sol\":7031:7047  STATE = newState */\n      0x0100\n      exp\n      dup2\n      sload\n      dup2\n      0xff\n      mul\n      not\n      and\n      swap1\n      dup4\n      0x01\n      dup2\n      gt\n      iszero\n      tag_147\n      jumpi\n      tag_148\n      tag_115\n      jump\t// in\n    tag_148:\n    tag_147:\n      mul\n      or\n      swap1\n      sstore\n      pop\n        /* \"contracts/11_Auction.sol\":7114:7136  StateUpdated(newState) */\n      0x23ad33ab6a13a00aa7d06cd167b2abd03dec86af3cf3cc91759dcd3ae8411887\n        /* \"contracts/11_Auction.sol\":7127:7135  newState */\n      dup2\n        /* \"contracts/11_Auction.sol\":7114:7136  StateUpdated(newState) */\n      mload(0x40)\n      tag_149\n      swap2\n      swap1\n      tag_72\n      jump\t// in\n    tag_149:\n      mload(0x40)\n      dup1\n      swap2\n      sub\n      swap1\n      log1\n        /* \"contracts/11_Auction.sol\":6896:7144  function updateAuctionState(auction_state newState) external only_owner {... */\n      pop\n      jump\t// out\n        /* \"contracts/11_Auction.sol\":471:497  uint256 public auction_end */\n    tag_66:\n      sload(0x02)\n      dup2\n      jump\t// out\n        /* \"contracts/11_Auction.sol\":1463:1489  auction_state public STATE */\n    tag_70:\n      0x09\n      0x00\n      swap1\n      sload\n      swap1\n      0x0100\n      exp\n      swap1\n      div\n      0xff\n      and\n      dup2\n      jump\t// out\n        /* \"contracts/11_Auction.sol\":561:586  uint256 public highestBid */\n    tag_75:\n      sload(0x03)\n      dup2\n      jump\t// out\n        /* \"contracts/11_Auction.sol\":5660:6033  function withdrawRemainingFunds() external only_owner {... */\n    tag_79:\n        /* \"contracts/11_Auction.sol\":2032:2045  auction_owner */\n      0x00\n      dup1\n      sload\n      swap1\n      0x0100\n      exp\n      swap1\n      div\n      0xffffffffffffffffffffffffffffffffffffffff\n      and\n        /* \"contracts/11_Auction.sol\":2018:2045  msg.sender == auction_owner */\n      0xffffffffffffffffffffffffffffffffffffffff\n      and\n        /* \"contracts/11_Auction.sol\":2018:2028  msg.sender */\n      caller\n        /* \"contracts/11_Auction.sol\":2018:2045  msg.sender == auction_owner */\n      0xffffffffffffffffffffffffffffffffffffffff\n      and\n      eq\n        /* \"contracts/11_Auction.sol\":2010:2082  require(msg.sender == auction_owner, \"Only auction owner can call this\") */\n      tag_151\n      jumpi\n      mload(0x40)\n      0x08c379a000000000000000000000000000000000000000000000000000000000\n      dup2\n      mstore\n      0x04\n      add\n      tag_152\n      swap1\n      tag_108\n      jump\t// in\n    tag_152:\n      mload(0x40)\n      dup1\n      swap2\n      sub\n      swap1\n      revert\n    tag_151:\n        /* \"contracts/11_Auction.sol\":5758:5770  uint balance */\n      0x00\n        /* \"contracts/11_Auction.sol\":5773:5794  address(this).balance */\n      selfbalance\n        /* \"contracts/11_Auction.sol\":5758:5794  uint balance = address(this).balance */\n      swap1\n      pop\n        /* \"contracts/11_Auction.sol\":5823:5824  0 */\n      0x00\n        /* \"contracts/11_Auction.sol\":5813:5820  balance */\n      dup2\n        /* \"contracts/11_Auction.sol\":5813:5824  balance > 0 */\n      gt\n        /* \"contracts/11_Auction.sol\":5805:5858  require(balance > 0, \"No funds left in the contract\") */\n      tag_154\n      jumpi\n      mload(0x40)\n      0x08c379a000000000000000000000000000000000000000000000000000000000\n      dup2\n      mstore\n      0x04\n      add\n      tag_155\n      swap1\n      tag_156\n      jump\t// in\n    tag_155:\n      mload(0x40)\n      dup1\n      swap2\n      sub\n      swap1\n      revert\n    tag_154:\n        /* \"contracts/11_Auction.sol\":5914:5926  bool success */\n      0x00\n        /* \"contracts/11_Auction.sol\":5940:5953  auction_owner */\n      dup1\n      0x00\n      swap1\n      sload\n      swap1\n      0x0100\n      exp\n      swap1\n      div\n      0xffffffffffffffffffffffffffffffffffffffff\n      and\n        /* \"contracts/11_Auction.sol\":5932:5959  payable(auction_owner).call */\n      0xffffffffffffffffffffffffffffffffffffffff\n      and\n        /* \"contracts/11_Auction.sol\":5967:5974  balance */\n      dup3\n        /* \"contracts/11_Auction.sol\":5932:5979  payable(auction_owner).call{value: balance}(\"\") */\n      mload(0x40)\n      tag_157\n      swap1\n      tag_134\n      jump\t// in\n    tag_157:\n      0x00\n      mload(0x40)\n      dup1\n      dup4\n      sub\n      dup2\n      dup6\n      dup8\n      gas\n      call\n      swap3\n      pop\n      pop\n      pop\n      returndatasize\n      dup1\n      0x00\n      dup2\n      eq\n      tag_160\n      jumpi\n      mload(0x40)\n      swap2\n      pop\n      and(add(returndatasize, 0x3f), not(0x1f))\n      dup3\n      add\n      0x40\n      mstore\n      returndatasize\n      dup3\n      mstore\n      returndatasize\n      0x00\n      0x20\n      dup5\n      add\n      returndatacopy\n      jump(tag_159)\n    tag_160:\n      0x60\n      swap2\n      pop\n    tag_159:\n      pop\n        /* \"contracts/11_Auction.sol\":5913:5979  (bool success, ) = payable(auction_owner).call{value: balance}(\"\") */\n      pop\n      swap1\n      pop\n        /* \"contracts/11_Auction.sol\":5998:6005  success */\n      dup1\n        /* \"contracts/11_Auction.sol\":5990:6025  require(success, \"Transfer failed\") */\n      tag_161\n      jumpi\n      mload(0x40)\n      0x08c379a000000000000000000000000000000000000000000000000000000000\n      dup2\n      mstore\n      0x04\n      add\n      tag_162\n      swap1\n      tag_140\n      jump\t// in\n    tag_162:\n      mload(0x40)\n      dup1\n      swap2\n      sub\n      swap1\n      revert\n    tag_161:\n        /* \"contracts/11_Auction.sol\":5714:6033  {... */\n      pop\n      pop\n        /* \"contracts/11_Auction.sol\":5660:6033  function withdrawRemainingFunds() external only_owner {... */\n      jump\t// out\n        /* \"#utility.yul\":7:106   */\n    tag_163:\n        /* \"#utility.yul\":59:65   */\n      0x00\n        /* \"#utility.yul\":93:98   */\n      dup2\n        /* \"#utility.yul\":87:99   */\n      mload\n        /* \"#utility.yul\":77:99   */\n      swap1\n      pop\n        /* \"#utility.yul\":7:106   */\n      swap2\n      swap1\n      pop\n      jump\t// out\n        /* \"#utility.yul\":112:281   */\n    tag_164:\n        /* \"#utility.yul\":196:207   */\n      0x00\n        /* \"#utility.yul\":230:236   */\n      dup3\n        /* \"#utility.yul\":225:228   */\n      dup3\n        /* \"#utility.yul\":218:237   */\n      mstore\n        /* \"#utility.yul\":270:274   */\n      0x20\n        /* \"#utility.yul\":265:268   */\n      dup3\n        /* \"#utility.yul\":261:275   */\n      add\n        /* \"#utility.yul\":246:275   */\n      swap1\n      pop\n        /* \"#utility.yul\":112:281   */\n      swap3\n      swap2\n      pop\n      pop\n      jump\t// out\n        /* \"#utility.yul\":287:426   */\n    tag_165:\n        /* \"#utility.yul\":376:382   */\n      dup3\n        /* \"#utility.yul\":371:374   */\n      dup2\n        /* \"#utility.yul\":366:369   */\n      dup4\n        /* \"#utility.yul\":360:383   */\n      mcopy\n        /* \"#utility.yul\":417:418   */\n      0x00\n        /* \"#utility.yul\":408:414   */\n      dup4\n        /* \"#utility.yul\":403:406   */\n      dup4\n        /* \"#utility.yul\":399:415   */\n      add\n        /* \"#utility.yul\":392:419   */\n      mstore\n        /* \"#utility.yul\":287:426   */\n      pop\n      pop\n      pop\n      jump\t// out\n        /* \"#utility.yul\":432:534   */\n    tag_166:\n        /* \"#utility.yul\":473:479   */\n      0x00\n        /* \"#utility.yul\":524:526   */\n      0x1f\n        /* \"#utility.yul\":520:527   */\n      not\n        /* \"#utility.yul\":515:517   */\n      0x1f\n        /* \"#utility.yul\":508:513   */\n      dup4\n        /* \"#utility.yul\":504:518   */\n      add\n        /* \"#utility.yul\":500:528   */\n      and\n        /* \"#utility.yul\":490:528   */\n      swap1\n      pop\n        /* \"#utility.yul\":432:534   */\n      swap2\n      swap1\n      pop\n      jump\t// out\n        /* \"#utility.yul\":540:917   */\n    tag_167:\n        /* \"#utility.yul\":628:631   */\n      0x00\n        /* \"#utility.yul\":656:695   */\n      tag_218\n        /* \"#utility.yul\":689:694   */\n      dup3\n        /* \"#utility.yul\":656:695   */\n      tag_163\n      jump\t// in\n    tag_218:\n        /* \"#utility.yul\":711:782   */\n      tag_219\n        /* \"#utility.yul\":775:781   */\n      dup2\n        /* \"#utility.yul\":770:773   */\n      dup6\n        /* \"#utility.yul\":711:782   */\n      tag_164\n      jump\t// in\n    tag_219:\n        /* \"#utility.yul\":704:782   */\n      swap4\n      pop\n        /* \"#utility.yul\":791:856   */\n      tag_220\n        /* \"#utility.yul\":849:855   */\n      dup2\n        /* \"#utility.yul\":844:847   */\n      dup6\n        /* \"#utility.yul\":837:841   */\n      0x20\n        /* \"#utility.yul\":830:835   */\n      dup7\n        /* \"#utility.yul\":826:842   */\n      add\n        /* \"#utility.yul\":791:856   */\n      tag_165\n      jump\t// in\n    tag_220:\n        /* \"#utility.yul\":881:910   */\n      tag_221\n        /* \"#utility.yul\":903:909   */\n      dup2\n        /* \"#utility.yul\":881:910   */\n      tag_166\n      jump\t// in\n    tag_221:\n        /* \"#utility.yul\":876:879   */\n      dup5\n        /* \"#utility.yul\":872:911   */\n      add\n        /* \"#utility.yul\":865:911   */\n      swap2\n      pop\n        /* \"#utility.yul\":632:917   */\n      pop\n        /* \"#utility.yul\":540:917   */\n      swap3\n      swap2\n      pop\n      pop\n      jump\t// out\n        /* \"#utility.yul\":923:1437   */\n    tag_23:\n        /* \"#utility.yul\":1084:1088   */\n      0x00\n        /* \"#utility.yul\":1122:1124   */\n      0x40\n        /* \"#utility.yul\":1111:1120   */\n      dup3\n        /* \"#utility.yul\":1107:1125   */\n      add\n        /* \"#utility.yul\":1099:1125   */\n      swap1\n      pop\n        /* \"#utility.yul\":1171:1180   */\n      dup2\n        /* \"#utility.yul\":1165:1169   */\n      dup2\n        /* \"#utility.yul\":1161:1181   */\n      sub\n        /* \"#utility.yul\":1157:1158   */\n      0x00\n        /* \"#utility.yul\":1146:1155   */\n      dup4\n        /* \"#utility.yul\":1142:1159   */\n      add\n        /* \"#utility.yul\":1135:1182   */\n      mstore\n        /* \"#utility.yul\":1199:1277   */\n      tag_223\n        /* \"#utility.yul\":1272:1276   */\n      dup2\n        /* \"#utility.yul\":1263:1269   */\n      dup6\n        /* \"#utility.yul\":1199:1277   */\n      tag_167\n      jump\t// in\n    tag_223:\n        /* \"#utility.yul\":1191:1277   */\n      swap1\n      pop\n        /* \"#utility.yul\":1324:1333   */\n      dup2\n        /* \"#utility.yul\":1318:1322   */\n      dup2\n        /* \"#utility.yul\":1314:1334   */\n      sub\n        /* \"#utility.yul\":1309:1311   */\n      0x20\n        /* \"#utility.yul\":1298:1307   */\n      dup4\n        /* \"#utility.yul\":1294:1312   */\n      add\n        /* \"#utility.yul\":1287:1335   */\n      mstore\n        /* \"#utility.yul\":1352:1430   */\n      tag_224\n        /* \"#utility.yul\":1425:1429   */\n      dup2\n        /* \"#utility.yul\":1416:1422   */\n      dup5\n        /* \"#utility.yul\":1352:1430   */\n      tag_167\n      jump\t// in\n    tag_224:\n        /* \"#utility.yul\":1344:1430   */\n      swap1\n      pop\n        /* \"#utility.yul\":923:1437   */\n      swap4\n      swap3\n      pop\n      pop\n      pop\n      jump\t// out\n        /* \"#utility.yul\":1443:1569   */\n    tag_168:\n        /* \"#utility.yul\":1480:1487   */\n      0x00\n        /* \"#utility.yul\":1520:1562   */\n      0xffffffffffffffffffffffffffffffffffffffff\n        /* \"#utility.yul\":1513:1518   */\n      dup3\n        /* \"#utility.yul\":1509:1563   */\n      and\n        /* \"#utility.yul\":1498:1563   */\n      swap1\n      pop\n        /* \"#utility.yul\":1443:1569   */\n      swap2\n      swap1\n      pop\n      jump\t// out\n        /* \"#utility.yul\":1575:1671   */\n    tag_169:\n        /* \"#utility.yul\":1612:1619   */\n      0x00\n        /* \"#utility.yul\":1641:1665   */\n      tag_227\n        /* \"#utility.yul\":1659:1664   */\n      dup3\n        /* \"#utility.yul\":1641:1665   */\n      tag_168\n      jump\t// in\n    tag_227:\n        /* \"#utility.yul\":1630:1665   */\n      swap1\n      pop\n        /* \"#utility.yul\":1575:1671   */\n      swap2\n      swap1\n      pop\n      jump\t// out\n        /* \"#utility.yul\":1677:1795   */\n    tag_170:\n        /* \"#utility.yul\":1764:1788   */\n      tag_229\n        /* \"#utility.yul\":1782:1787   */\n      dup2\n        /* \"#utility.yul\":1764:1788   */\n      tag_169\n      jump\t// in\n    tag_229:\n        /* \"#utility.yul\":1759:1762   */\n      dup3\n        /* \"#utility.yul\":1752:1789   */\n      mstore\n        /* \"#utility.yul\":1677:1795   */\n      pop\n      pop\n      jump\t// out\n        /* \"#utility.yul\":1801:2023   */\n    tag_28:\n        /* \"#utility.yul\":1894:1898   */\n      0x00\n        /* \"#utility.yul\":1932:1934   */\n      0x20\n        /* \"#utility.yul\":1921:1930   */\n      dup3\n        /* \"#utility.yul\":1917:1935   */\n      add\n        /* \"#utility.yul\":1909:1935   */\n      swap1\n      pop\n        /* \"#utility.yul\":1945:2016   */\n      tag_231\n        /* \"#utility.yul\":2013:2014   */\n      0x00\n        /* \"#utility.yul\":2002:2011   */\n      dup4\n        /* \"#utility.yul\":1998:2015   */\n      add\n        /* \"#utility.yul\":1989:1995   */\n      dup5\n        /* \"#utility.yul\":1945:2016   */\n      tag_170\n      jump\t// in\n    tag_231:\n        /* \"#utility.yul\":1801:2023   */\n      swap3\n      swap2\n      pop\n      pop\n      jump\t// out\n        /* \"#utility.yul\":2029:2119   */\n    tag_171:\n        /* \"#utility.yul\":2063:2070   */\n      0x00\n        /* \"#utility.yul\":2106:2111   */\n      dup2\n        /* \"#utility.yul\":2099:2112   */\n      iszero\n        /* \"#utility.yul\":2092:2113   */\n      iszero\n        /* \"#utility.yul\":2081:2113   */\n      swap1\n      pop\n        /* \"#utility.yul\":2029:2119   */\n      swap2\n      swap1\n      pop\n      jump\t// out\n        /* \"#utility.yul\":2125:2234   */\n    tag_172:\n        /* \"#utility.yul\":2206:2227   */\n      tag_234\n        /* \"#utility.yul\":2221:2226   */\n      dup2\n        /* \"#utility.yul\":2206:2227   */\n      tag_171\n      jump\t// in\n    tag_234:\n        /* \"#utility.yul\":2201:2204   */\n      dup3\n        /* \"#utility.yul\":2194:2228   */\n      mstore\n        /* \"#utility.yul\":2125:2234   */\n      pop\n      pop\n      jump\t// out\n        /* \"#utility.yul\":2240:2450   */\n    tag_32:\n        /* \"#utility.yul\":2327:2331   */\n      0x00\n        /* \"#utility.yul\":2365:2367   */\n      0x20\n        /* \"#utility.yul\":2354:2363   */\n      dup3\n        /* \"#utility.yul\":2350:2368   */\n      add\n        /* \"#utility.yul\":2342:2368   */\n      swap1\n      pop\n        /* \"#utility.yul\":2378:2443   */\n      tag_236\n        /* \"#utility.yul\":2440:2441   */\n      0x00\n        /* \"#utility.yul\":2429:2438   */\n      dup4\n        /* \"#utility.yul\":2425:2442   */\n      add\n        /* \"#utility.yul\":2416:2422   */\n      dup5\n        /* \"#utility.yul\":2378:2443   */\n      tag_172\n      jump\t// in\n    tag_236:\n        /* \"#utility.yul\":2240:2450   */\n      swap3\n      swap2\n      pop\n      pop\n      jump\t// out\n        /* \"#utility.yul\":2537:2654   */\n    tag_174:\n        /* \"#utility.yul\":2646:2647   */\n      0x00\n        /* \"#utility.yul\":2643:2644   */\n      dup1\n        /* \"#utility.yul\":2636:2648   */\n      revert\n        /* \"#utility.yul\":2783:2905   */\n    tag_176:\n        /* \"#utility.yul\":2856:2880   */\n      tag_241\n        /* \"#utility.yul\":2874:2879   */\n      dup2\n        /* \"#utility.yul\":2856:2880   */\n      tag_169\n      jump\t// in\n    tag_241:\n        /* \"#utility.yul\":2849:2854   */\n      dup2\n        /* \"#utility.yul\":2846:2881   */\n      eq\n        /* \"#utility.yul\":2836:2899   */\n      tag_242\n      jumpi\n        /* \"#utility.yul\":2895:2896   */\n      0x00\n        /* \"#utility.yul\":2892:2893   */\n      dup1\n        /* \"#utility.yul\":2885:2897   */\n      revert\n        /* \"#utility.yul\":2836:2899   */\n    tag_242:\n        /* \"#utility.yul\":2783:2905   */\n      pop\n      jump\t// out\n        /* \"#utility.yul\":2911:3050   */\n    tag_177:\n        /* \"#utility.yul\":2957:2962   */\n      0x00\n        /* \"#utility.yul\":2995:3001   */\n      dup2\n        /* \"#utility.yul\":2982:3002   */\n      calldataload\n        /* \"#utility.yul\":2973:3002   */\n      swap1\n      pop\n        /* \"#utility.yul\":3011:3044   */\n      tag_244\n        /* \"#utility.yul\":3038:3043   */\n      dup2\n        /* \"#utility.yul\":3011:3044   */\n      tag_176\n      jump\t// in\n    tag_244:\n        /* \"#utility.yul\":2911:3050   */\n      swap3\n      swap2\n      pop\n      pop\n      jump\t// out\n        /* \"#utility.yul\":3056:3385   */\n    tag_47:\n        /* \"#utility.yul\":3115:3121   */\n      0x00\n        /* \"#utility.yul\":3164:3166   */\n      0x20\n        /* \"#utility.yul\":3152:3161   */\n      dup3\n        /* \"#utility.yul\":3143:3150   */\n      dup5\n        /* \"#utility.yul\":3139:3162   */\n      sub\n        /* \"#utility.yul\":3135:3167   */\n      slt\n        /* \"#utility.yul\":3132:3251   */\n      iszero\n      tag_246\n      jumpi\n        /* \"#utility.yul\":3170:3249   */\n      tag_247\n      tag_174\n      jump\t// in\n    tag_247:\n        /* \"#utility.yul\":3132:3251   */\n    tag_246:\n        /* \"#utility.yul\":3290:3291   */\n      0x00\n        /* \"#utility.yul\":3315:3368   */\n      tag_248\n        /* \"#utility.yul\":3360:3367   */\n      dup5\n        /* \"#utility.yul\":3351:3357   */\n      dup3\n        /* \"#utility.yul\":3340:3349   */\n      dup6\n        /* \"#utility.yul\":3336:3358   */\n      add\n        /* \"#utility.yul\":3315:3368   */\n      tag_177\n      jump\t// in\n    tag_248:\n        /* \"#utility.yul\":3305:3368   */\n      swap2\n      pop\n        /* \"#utility.yul\":3261:3378   */\n      pop\n        /* \"#utility.yul\":3056:3385   */\n      swap3\n      swap2\n      pop\n      pop\n      jump\t// out\n        /* \"#utility.yul\":3391:3468   */\n    tag_178:\n        /* \"#utility.yul\":3428:3435   */\n      0x00\n        /* \"#utility.yul\":3457:3462   */\n      dup2\n        /* \"#utility.yul\":3446:3462   */\n      swap1\n      pop\n        /* \"#utility.yul\":3391:3468   */\n      swap2\n      swap1\n      pop\n      jump\t// out\n        /* \"#utility.yul\":3474:3592   */\n    tag_179:\n        /* \"#utility.yul\":3561:3585   */\n      tag_251\n        /* \"#utility.yul\":3579:3584   */\n      dup2\n        /* \"#utility.yul\":3561:3585   */\n      tag_178\n      jump\t// in\n    tag_251:\n        /* \"#utility.yul\":3556:3559   */\n      dup3\n        /* \"#utility.yul\":3549:3586   */\n      mstore\n        /* \"#utility.yul\":3474:3592   */\n      pop\n      pop\n      jump\t// out\n        /* \"#utility.yul\":3598:3820   */\n    tag_50:\n        /* \"#utility.yul\":3691:3695   */\n      0x00\n        /* \"#utility.yul\":3729:3731   */\n      0x20\n        /* \"#utility.yul\":3718:3727   */\n      dup3\n        /* \"#utility.yul\":3714:3732   */\n      add\n        /* \"#utility.yul\":3706:3732   */\n      swap1\n      pop\n        /* \"#utility.yul\":3742:3813   */\n      tag_253\n        /* \"#utility.yul\":3810:3811   */\n      0x00\n        /* \"#utility.yul\":3799:3808   */\n      dup4\n        /* \"#utility.yul\":3795:3812   */\n      add\n        /* \"#utility.yul\":3786:3792   */\n      dup5\n        /* \"#utility.yul\":3742:3813   */\n      tag_179\n      jump\t// in\n    tag_253:\n        /* \"#utility.yul\":3598:3820   */\n      swap3\n      swap2\n      pop\n      pop\n      jump\t// out\n        /* \"#utility.yul\":3826:3941   */\n    tag_180:\n        /* \"#utility.yul\":3915:3916   */\n      0x02\n        /* \"#utility.yul\":3908:3913   */\n      dup2\n        /* \"#utility.yul\":3905:3917   */\n      lt\n        /* \"#utility.yul\":3895:3935   */\n      tag_255\n      jumpi\n        /* \"#utility.yul\":3931:3932   */\n      0x00\n        /* \"#utility.yul\":3928:3929   */\n      dup1\n        /* \"#utility.yul\":3921:3933   */\n      revert\n        /* \"#utility.yul\":3895:3935   */\n    tag_255:\n        /* \"#utility.yul\":3826:3941   */\n      pop\n      jump\t// out\n        /* \"#utility.yul\":3947:4118   */\n    tag_181:\n        /* \"#utility.yul\":4009:4014   */\n      0x00\n        /* \"#utility.yul\":4047:4053   */\n      dup2\n        /* \"#utility.yul\":4034:4054   */\n      calldataload\n        /* \"#utility.yul\":4025:4054   */\n      swap1\n      pop\n        /* \"#utility.yul\":4063:4112   */\n      tag_257\n        /* \"#utility.yul\":4106:4111   */\n      dup2\n        /* \"#utility.yul\":4063:4112   */\n      tag_180\n      jump\t// in\n    tag_257:\n        /* \"#utility.yul\":3947:4118   */\n      swap3\n      swap2\n      pop\n      pop\n      jump\t// out\n        /* \"#utility.yul\":4124:4485   */\n    tag_62:\n        /* \"#utility.yul\":4199:4205   */\n      0x00\n        /* \"#utility.yul\":4248:4250   */\n      0x20\n        /* \"#utility.yul\":4236:4245   */\n      dup3\n        /* \"#utility.yul\":4227:4234   */\n      dup5\n        /* \"#utility.yul\":4223:4246   */\n      sub\n        /* \"#utility.yul\":4219:4251   */\n      slt\n        /* \"#utility.yul\":4216:4335   */\n      iszero\n      tag_259\n      jumpi\n        /* \"#utility.yul\":4254:4333   */\n      tag_260\n      tag_174\n      jump\t// in\n    tag_260:\n        /* \"#utility.yul\":4216:4335   */\n    tag_259:\n        /* \"#utility.yul\":4374:4375   */\n      0x00\n        /* \"#utility.yul\":4399:4468   */\n      tag_261\n        /* \"#utility.yul\":4460:4467   */\n      dup5\n        /* \"#utility.yul\":4451:4457   */\n      dup3\n        /* \"#utility.yul\":4440:4449   */\n      dup6\n        /* \"#utility.yul\":4436:4458   */\n      add\n        /* \"#utility.yul\":4399:4468   */\n      tag_181\n      jump\t// in\n    tag_261:\n        /* \"#utility.yul\":4389:4468   */\n      swap2\n      pop\n        /* \"#utility.yul\":4345:4478   */\n      pop\n        /* \"#utility.yul\":4124:4485   */\n      swap3\n      swap2\n      pop\n      pop\n      jump\t// out\n        /* \"#utility.yul\":4491:4671   */\n    tag_115:\n        /* \"#utility.yul\":4539:4616   */\n      0x4e487b7100000000000000000000000000000000000000000000000000000000\n        /* \"#utility.yul\":4536:4537   */\n      0x00\n        /* \"#utility.yul\":4529:4617   */\n      mstore\n        /* \"#utility.yul\":4636:4640   */\n      0x21\n        /* \"#utility.yul\":4633:4634   */\n      0x04\n        /* \"#utility.yul\":4626:4641   */\n      mstore\n        /* \"#utility.yul\":4660:4664   */\n      0x24\n        /* \"#utility.yul\":4657:4658   */\n      0x00\n        /* \"#utility.yul\":4650:4665   */\n      revert\n        /* \"#utility.yul\":4677:4798   */\n    tag_182:\n        /* \"#utility.yul\":4766:4767   */\n      0x02\n        /* \"#utility.yul\":4759:4764   */\n      dup2\n        /* \"#utility.yul\":4756:4768   */\n      lt\n        /* \"#utility.yul\":4746:4792   */\n      tag_264\n      jumpi\n        /* \"#utility.yul\":4772:4790   */\n      tag_265\n      tag_115\n      jump\t// in\n    tag_265:\n        /* \"#utility.yul\":4746:4792   */\n    tag_264:\n        /* \"#utility.yul\":4677:4798   */\n      pop\n      jump\t// out\n        /* \"#utility.yul\":4804:4947   */\n    tag_183:\n        /* \"#utility.yul\":4857:4864   */\n      0x00\n        /* \"#utility.yul\":4886:4891   */\n      dup2\n        /* \"#utility.yul\":4875:4891   */\n      swap1\n      pop\n        /* \"#utility.yul\":4892:4941   */\n      tag_267\n        /* \"#utility.yul\":4935:4940   */\n      dup3\n        /* \"#utility.yul\":4892:4941   */\n      tag_182\n      jump\t// in\n    tag_267:\n        /* \"#utility.yul\":4804:4947   */\n      swap2\n      swap1\n      pop\n      jump\t// out\n        /* \"#utility.yul\":4953:5096   */\n    tag_184:\n        /* \"#utility.yul\":5017:5026   */\n      0x00\n        /* \"#utility.yul\":5050:5090   */\n      tag_269\n        /* \"#utility.yul\":5084:5089   */\n      dup3\n        /* \"#utility.yul\":5050:5090   */\n      tag_183\n      jump\t// in\n    tag_269:\n        /* \"#utility.yul\":5037:5090   */\n      swap1\n      pop\n        /* \"#utility.yul\":4953:5096   */\n      swap2\n      swap1\n      pop\n      jump\t// out\n        /* \"#utility.yul\":5102:5261   */\n    tag_185:\n        /* \"#utility.yul\":5203:5254   */\n      tag_271\n        /* \"#utility.yul\":5248:5253   */\n      dup2\n        /* \"#utility.yul\":5203:5254   */\n      tag_184\n      jump\t// in\n    tag_271:\n        /* \"#utility.yul\":5198:5201   */\n      dup3\n        /* \"#utility.yul\":5191:5255   */\n      mstore\n        /* \"#utility.yul\":5102:5261   */\n      pop\n      pop\n      jump\t// out\n        /* \"#utility.yul\":5267:5517   */\n    tag_72:\n        /* \"#utility.yul\":5374:5378   */\n      0x00\n        /* \"#utility.yul\":5412:5414   */\n      0x20\n        /* \"#utility.yul\":5401:5410   */\n      dup3\n        /* \"#utility.yul\":5397:5415   */\n      add\n        /* \"#utility.yul\":5389:5415   */\n      swap1\n      pop\n        /* \"#utility.yul\":5425:5510   */\n      tag_273\n        /* \"#utility.yul\":5507:5508   */\n      0x00\n        /* \"#utility.yul\":5496:5505   */\n      dup4\n        /* \"#utility.yul\":5492:5509   */\n      add\n        /* \"#utility.yul\":5483:5489   */\n      dup5\n        /* \"#utility.yul\":5425:5510   */\n      tag_185\n      jump\t// in\n    tag_273:\n        /* \"#utility.yul\":5267:5517   */\n      swap3\n      swap2\n      pop\n      pop\n      jump\t// out\n        /* \"#utility.yul\":5523:5703   */\n    tag_186:\n        /* \"#utility.yul\":5571:5648   */\n      0x4e487b7100000000000000000000000000000000000000000000000000000000\n        /* \"#utility.yul\":5568:5569   */\n      0x00\n        /* \"#utility.yul\":5561:5649   */\n      mstore\n        /* \"#utility.yul\":5668:5672   */\n      0x22\n        /* \"#utility.yul\":5665:5666   */\n      0x04\n        /* \"#utility.yul\":5658:5673   */\n      mstore\n        /* \"#utility.yul\":5692:5696   */\n      0x24\n        /* \"#utility.yul\":5689:5690   */\n      0x00\n        /* \"#utility.yul\":5682:5697   */\n      revert\n        /* \"#utility.yul\":5709:6029   */\n    tag_81:\n        /* \"#utility.yul\":5753:5759   */\n      0x00\n        /* \"#utility.yul\":5790:5791   */\n      0x02\n        /* \"#utility.yul\":5784:5788   */\n      dup3\n        /* \"#utility.yul\":5780:5792   */\n      div\n        /* \"#utility.yul\":5770:5792   */\n      swap1\n      pop\n        /* \"#utility.yul\":5837:5838   */\n      0x01\n        /* \"#utility.yul\":5831:5835   */\n      dup3\n        /* \"#utility.yul\":5827:5839   */\n      and\n        /* \"#utility.yul\":5858:5876   */\n      dup1\n        /* \"#utility.yul\":5848:5929   */\n      tag_276\n      jumpi\n        /* \"#utility.yul\":5914:5918   */\n      0x7f\n        /* \"#utility.yul\":5906:5912   */\n      dup3\n        /* \"#utility.yul\":5902:5919   */\n      and\n        /* \"#utility.yul\":5892:5919   */\n      swap2\n      pop\n        /* \"#utility.yul\":5848:5929   */\n    tag_276:\n        /* \"#utility.yul\":5976:5978   */\n      0x20\n        /* \"#utility.yul\":5968:5974   */\n      dup3\n        /* \"#utility.yul\":5965:5979   */\n      lt\n        /* \"#utility.yul\":5945:5963   */\n      dup2\n        /* \"#utility.yul\":5942:5980   */\n      sub\n        /* \"#utility.yul\":5939:6023   */\n      tag_277\n      jumpi\n        /* \"#utility.yul\":5995:6013   */\n      tag_278\n      tag_186\n      jump\t// in\n    tag_278:\n        /* \"#utility.yul\":5939:6023   */\n    tag_277:\n        /* \"#utility.yul\":5760:6029   */\n      pop\n        /* \"#utility.yul\":5709:6029   */\n      swap2\n      swap1\n      pop\n      jump\t// out\n        /* \"#utility.yul\":6035:6202   */\n    tag_187:\n        /* \"#utility.yul\":6175:6194   */\n      0x41756374696f6e2068617320656e646564000000000000000000000000000000\n        /* \"#utility.yul\":6171:6172   */\n      0x00\n        /* \"#utility.yul\":6163:6169   */\n      dup3\n        /* \"#utility.yul\":6159:6173   */\n      add\n        /* \"#utility.yul\":6152:6195   */\n      mstore\n        /* \"#utility.yul\":6035:6202   */\n      pop\n      jump\t// out\n        /* \"#utility.yul\":6208:6574   */\n    tag_188:\n        /* \"#utility.yul\":6350:6353   */\n      0x00\n        /* \"#utility.yul\":6371:6438   */\n      tag_281\n        /* \"#utility.yul\":6435:6437   */\n      0x11\n        /* \"#utility.yul\":6430:6433   */\n      dup4\n        /* \"#utility.yul\":6371:6438   */\n      tag_164\n      jump\t// in\n    tag_281:\n        /* \"#utility.yul\":6364:6438   */\n      swap2\n      pop\n        /* \"#utility.yul\":6447:6540   */\n      tag_282\n        /* \"#utility.yul\":6536:6539   */\n      dup3\n        /* \"#utility.yul\":6447:6540   */\n      tag_187\n      jump\t// in\n    tag_282:\n        /* \"#utility.yul\":6565:6567   */\n      0x20\n        /* \"#utility.yul\":6560:6563   */\n      dup3\n        /* \"#utility.yul\":6556:6568   */\n      add\n        /* \"#utility.yul\":6549:6568   */\n      swap1\n      pop\n        /* \"#utility.yul\":6208:6574   */\n      swap2\n      swap1\n      pop\n      jump\t// out\n        /* \"#utility.yul\":6580:6999   */\n    tag_95:\n        /* \"#utility.yul\":6746:6750   */\n      0x00\n        /* \"#utility.yul\":6784:6786   */\n      0x20\n        /* \"#utility.yul\":6773:6782   */\n      dup3\n        /* \"#utility.yul\":6769:6787   */\n      add\n        /* \"#utility.yul\":6761:6787   */\n      swap1\n      pop\n        /* \"#utility.yul\":6833:6842   */\n      dup2\n        /* \"#utility.yul\":6827:6831   */\n      dup2\n        /* \"#utility.yul\":6823:6843   */\n      sub\n        /* \"#utility.yul\":6819:6820   */\n      0x00\n        /* \"#utility.yul\":6808:6817   */\n      dup4\n        /* \"#utility.yul\":6804:6821   */\n      add\n        /* \"#utility.yul\":6797:6844   */\n      mstore\n        /* \"#utility.yul\":6861:6992   */\n      tag_284\n        /* \"#utility.yul\":6987:6991   */\n      dup2\n        /* \"#utility.yul\":6861:6992   */\n      tag_188\n      jump\t// in\n    tag_284:\n        /* \"#utility.yul\":6853:6992   */\n      swap1\n      pop\n        /* \"#utility.yul\":6580:6999   */\n      swap2\n      swap1\n      pop\n      jump\t// out\n        /* \"#utility.yul\":7005:7185   */\n    tag_189:\n        /* \"#utility.yul\":7053:7130   */\n      0x4e487b7100000000000000000000000000000000000000000000000000000000\n        /* \"#utility.yul\":7050:7051   */\n      0x00\n        /* \"#utility.yul\":7043:7131   */\n      mstore\n        /* \"#utility.yul\":7150:7154   */\n      0x11\n        /* \"#utility.yul\":7147:7148   */\n      0x04\n        /* \"#utility.yul\":7140:7155   */\n      mstore\n        /* \"#utility.yul\":7174:7178   */\n      0x24\n        /* \"#utility.yul\":7171:7172   */\n      0x00\n        /* \"#utility.yul\":7164:7179   */\n      revert\n        /* \"#utility.yul\":7191:7382   */\n    tag_98:\n        /* \"#utility.yul\":7231:7234   */\n      0x00\n        /* \"#utility.yul\":7250:7270   */\n      tag_287\n        /* \"#utility.yul\":7268:7269   */\n      dup3\n        /* \"#utility.yul\":7250:7270   */\n      tag_178\n      jump\t// in\n    tag_287:\n        /* \"#utility.yul\":7245:7270   */\n      swap2\n      pop\n        /* \"#utility.yul\":7284:7304   */\n      tag_288\n        /* \"#utility.yul\":7302:7303   */\n      dup4\n        /* \"#utility.yul\":7284:7304   */\n      tag_178\n      jump\t// in\n    tag_288:\n        /* \"#utility.yul\":7279:7304   */\n      swap3\n      pop\n        /* \"#utility.yul\":7327:7328   */\n      dup3\n        /* \"#utility.yul\":7324:7325   */\n      dup3\n        /* \"#utility.yul\":7320:7329   */\n      add\n        /* \"#utility.yul\":7313:7329   */\n      swap1\n      pop\n        /* \"#utility.yul\":7348:7351   */\n      dup1\n        /* \"#utility.yul\":7345:7346   */\n      dup3\n        /* \"#utility.yul\":7342:7352   */\n      gt\n        /* \"#utility.yul\":7339:7375   */\n      iszero\n      tag_289\n      jumpi\n        /* \"#utility.yul\":7355:7373   */\n      tag_290\n      tag_189\n      jump\t// in\n    tag_290:\n        /* \"#utility.yul\":7339:7375   */\n    tag_289:\n        /* \"#utility.yul\":7191:7382   */\n      swap3\n      swap2\n      pop\n      pop\n      jump\t// out\n        /* \"#utility.yul\":7388:7570   */\n    tag_190:\n        /* \"#utility.yul\":7528:7562   */\n      0x596f752063616e2774206269642c206d616b6520612068696768657220626964\n        /* \"#utility.yul\":7524:7525   */\n      0x00\n        /* \"#utility.yul\":7516:7522   */\n      dup3\n        /* \"#utility.yul\":7512:7526   */\n      add\n        /* \"#utility.yul\":7505:7563   */\n      mstore\n        /* \"#utility.yul\":7388:7570   */\n      pop\n      jump\t// out\n        /* \"#utility.yul\":7576:7942   */\n    tag_191:\n        /* \"#utility.yul\":7718:7721   */\n      0x00\n        /* \"#utility.yul\":7739:7806   */\n      tag_293\n        /* \"#utility.yul\":7803:7805   */\n      0x20\n        /* \"#utility.yul\":7798:7801   */\n      dup4\n        /* \"#utility.yul\":7739:7806   */\n      tag_164\n      jump\t// in\n    tag_293:\n        /* \"#utility.yul\":7732:7806   */\n      swap2\n      pop\n        /* \"#utility.yul\":7815:7908   */\n      tag_294\n        /* \"#utility.yul\":7904:7907   */\n      dup3\n        /* \"#utility.yul\":7815:7908   */\n      tag_190\n      jump\t// in\n    tag_294:\n        /* \"#utility.yul\":7933:7935   */\n      0x20\n        /* \"#utility.yul\":7928:7931   */\n      dup3\n        /* \"#utility.yul\":7924:7936   */\n      add\n        /* \"#utility.yul\":7917:7936   */\n      swap1\n      pop\n        /* \"#utility.yul\":7576:7942   */\n      swap2\n      swap1\n      pop\n      jump\t// out\n        /* \"#utility.yul\":7948:8367   */\n    tag_101:\n        /* \"#utility.yul\":8114:8118   */\n      0x00\n        /* \"#utility.yul\":8152:8154   */\n      0x20\n        /* \"#utility.yul\":8141:8150   */\n      dup3\n        /* \"#utility.yul\":8137:8155   */\n      add\n        /* \"#utility.yul\":8129:8155   */\n      swap1\n      pop\n        /* \"#utility.yul\":8201:8210   */\n      dup2\n        /* \"#utility.yul\":8195:8199   */\n      dup2\n        /* \"#utility.yul\":8191:8211   */\n      sub\n        /* \"#utility.yul\":8187:8188   */\n      0x00\n        /* \"#utility.yul\":8176:8185   */\n      dup4\n        /* \"#utility.yul\":8172:8189   */\n      add\n        /* \"#utility.yul\":8165:8212   */\n      mstore\n        /* \"#utility.yul\":8229:8360   */\n      tag_296\n        /* \"#utility.yul\":8355:8359   */\n      dup2\n        /* \"#utility.yul\":8229:8360   */\n      tag_191\n      jump\t// in\n    tag_296:\n        /* \"#utility.yul\":8221:8360   */\n      swap1\n      pop\n        /* \"#utility.yul\":7948:8367   */\n      swap2\n      swap1\n      pop\n      jump\t// out\n        /* \"#utility.yul\":8373:8555   */\n    tag_192:\n        /* \"#utility.yul\":8513:8547   */\n      0x4f6e6c792061756374696f6e206f776e65722063616e2063616c6c2074686973\n        /* \"#utility.yul\":8509:8510   */\n      0x00\n        /* \"#utility.yul\":8501:8507   */\n      dup3\n        /* \"#utility.yul\":8497:8511   */\n      add\n        /* \"#utility.yul\":8490:8548   */\n      mstore\n        /* \"#utility.yul\":8373:8555   */\n      pop\n      jump\t// out\n        /* \"#utility.yul\":8561:8927   */\n    tag_193:\n        /* \"#utility.yul\":8703:8706   */\n      0x00\n        /* \"#utility.yul\":8724:8791   */\n      tag_299\n        /* \"#utility.yul\":8788:8790   */\n      0x20\n        /* \"#utility.yul\":8783:8786   */\n      dup4\n        /* \"#utility.yul\":8724:8791   */\n      tag_164\n      jump\t// in\n    tag_299:\n        /* \"#utility.yul\":8717:8791   */\n      swap2\n      pop\n        /* \"#utility.yul\":8800:8893   */\n      tag_300\n        /* \"#utility.yul\":8889:8892   */\n      dup3\n        /* \"#utility.yul\":8800:8893   */\n      tag_192\n      jump\t// in\n    tag_300:\n        /* \"#utility.yul\":8918:8920   */\n      0x20\n        /* \"#utility.yul\":8913:8916   */\n      dup3\n        /* \"#utility.yul\":8909:8921   */\n      add\n        /* \"#utility.yul\":8902:8921   */\n      swap1\n      pop\n        /* \"#utility.yul\":8561:8927   */\n      swap2\n      swap1\n      pop\n      jump\t// out\n        /* \"#utility.yul\":8933:9352   */\n    tag_108:\n        /* \"#utility.yul\":9099:9103   */\n      0x00\n        /* \"#utility.yul\":9137:9139   */\n      0x20\n        /* \"#utility.yul\":9126:9135   */\n      dup3\n        /* \"#utility.yul\":9122:9140   */\n      add\n        /* \"#utility.yul\":9114:9140   */\n      swap1\n      pop\n        /* \"#utility.yul\":9186:9195   */\n      dup2\n        /* \"#utility.yul\":9180:9184   */\n      dup2\n        /* \"#utility.yul\":9176:9196   */\n      sub\n        /* \"#utility.yul\":9172:9173   */\n      0x00\n        /* \"#utility.yul\":9161:9170   */\n      dup4\n        /* \"#utility.yul\":9157:9174   */\n      add\n        /* \"#utility.yul\":9150:9197   */\n      mstore\n        /* \"#utility.yul\":9214:9345   */\n      tag_302\n        /* \"#utility.yul\":9340:9344   */\n      dup2\n        /* \"#utility.yul\":9214:9345   */\n      tag_193\n      jump\t// in\n    tag_302:\n        /* \"#utility.yul\":9206:9345   */\n      swap1\n      pop\n        /* \"#utility.yul\":8933:9352   */\n      swap2\n      swap1\n      pop\n      jump\t// out\n        /* \"#utility.yul\":9358:9532   */\n    tag_194:\n        /* \"#utility.yul\":9498:9524   */\n      0x41756374696f6e206973207374696c6c206f6e676f696e670000000000000000\n        /* \"#utility.yul\":9494:9495   */\n      0x00\n        /* \"#utility.yul\":9486:9492   */\n      dup3\n        /* \"#utility.yul\":9482:9496   */\n      add\n        /* \"#utility.yul\":9475:9525   */\n      mstore\n        /* \"#utility.yul\":9358:9532   */\n      pop\n      jump\t// out\n        /* \"#utility.yul\":9538:9904   */\n    tag_195:\n        /* \"#utility.yul\":9680:9683   */\n      0x00\n        /* \"#utility.yul\":9701:9768   */\n      tag_305\n        /* \"#utility.yul\":9765:9767   */\n      0x18\n        /* \"#utility.yul\":9760:9763   */\n      dup4\n        /* \"#utility.yul\":9701:9768   */\n      tag_164\n      jump\t// in\n    tag_305:\n        /* \"#utility.yul\":9694:9768   */\n      swap2\n      pop\n        /* \"#utility.yul\":9777:9870   */\n      tag_306\n        /* \"#utility.yul\":9866:9869   */\n      dup3\n        /* \"#utility.yul\":9777:9870   */\n      tag_194\n      jump\t// in\n    tag_306:\n        /* \"#utility.yul\":9895:9897   */\n      0x20\n        /* \"#utility.yul\":9890:9893   */\n      dup3\n        /* \"#utility.yul\":9886:9898   */\n      add\n        /* \"#utility.yul\":9879:9898   */\n      swap1\n      pop\n        /* \"#utility.yul\":9538:9904   */\n      swap2\n      swap1\n      pop\n      jump\t// out\n        /* \"#utility.yul\":9910:10329   */\n    tag_112:\n        /* \"#utility.yul\":10076:10080   */\n      0x00\n        /* \"#utility.yul\":10114:10116   */\n      0x20\n        /* \"#utility.yul\":10103:10112   */\n      dup3\n        /* \"#utility.yul\":10099:10117   */\n      add\n        /* \"#utility.yul\":10091:10117   */\n      swap1\n      pop\n        /* \"#utility.yul\":10163:10172   */\n      dup2\n        /* \"#utility.yul\":10157:10161   */\n      dup2\n        /* \"#utility.yul\":10153:10173   */\n      sub\n        /* \"#utility.yul\":10149:10150   */\n      0x00\n        /* \"#utility.yul\":10138:10147   */\n      dup4\n        /* \"#utility.yul\":10134:10151   */\n      add\n        /* \"#utility.yul\":10127:10174   */\n      mstore\n        /* \"#utility.yul\":10191:10322   */\n      tag_308\n        /* \"#utility.yul\":10317:10321   */\n      dup2\n        /* \"#utility.yul\":10191:10322   */\n      tag_195\n      jump\t// in\n    tag_308:\n        /* \"#utility.yul\":10183:10322   */\n      swap1\n      pop\n        /* \"#utility.yul\":9910:10329   */\n      swap2\n      swap1\n      pop\n      jump\t// out\n        /* \"#utility.yul\":10335:10420   */\n    tag_196:\n        /* \"#utility.yul\":10380:10387   */\n      0x00\n        /* \"#utility.yul\":10409:10414   */\n      dup2\n        /* \"#utility.yul\":10398:10414   */\n      swap1\n      pop\n        /* \"#utility.yul\":10335:10420   */\n      swap2\n      swap1\n      pop\n      jump\t// out\n        /* \"#utility.yul\":10426:10486   */\n    tag_197:\n        /* \"#utility.yul\":10454:10457   */\n      0x00\n        /* \"#utility.yul\":10475:10480   */\n      dup2\n        /* \"#utility.yul\":10468:10480   */\n      swap1\n      pop\n        /* \"#utility.yul\":10426:10486   */\n      swap2\n      swap1\n      pop\n      jump\t// out\n        /* \"#utility.yul\":10492:10650   */\n    tag_198:\n        /* \"#utility.yul\":10550:10559   */\n      0x00\n        /* \"#utility.yul\":10583:10644   */\n      tag_312\n        /* \"#utility.yul\":10601:10643   */\n      tag_313\n        /* \"#utility.yul\":10610:10642   */\n      tag_314\n        /* \"#utility.yul\":10636:10641   */\n      dup5\n        /* \"#utility.yul\":10610:10642   */\n      tag_196\n      jump\t// in\n    tag_314:\n        /* \"#utility.yul\":10601:10643   */\n      tag_197\n      jump\t// in\n    tag_313:\n        /* \"#utility.yul\":10583:10644   */\n      tag_178\n      jump\t// in\n    tag_312:\n        /* \"#utility.yul\":10570:10644   */\n      swap1\n      pop\n        /* \"#utility.yul\":10492:10650   */\n      swap2\n      swap1\n      pop\n      jump\t// out\n        /* \"#utility.yul\":10656:10803   */\n    tag_199:\n        /* \"#utility.yul\":10751:10796   */\n      tag_316\n        /* \"#utility.yul\":10790:10795   */\n      dup2\n        /* \"#utility.yul\":10751:10796   */\n      tag_198\n      jump\t// in\n    tag_316:\n        /* \"#utility.yul\":10746:10749   */\n      dup3\n        /* \"#utility.yul\":10739:10797   */\n      mstore\n        /* \"#utility.yul\":10656:10803   */\n      pop\n      pop\n      jump\t// out\n        /* \"#utility.yul\":10809:11157   */\n    tag_117:\n        /* \"#utility.yul\":10938:10942   */\n      0x00\n        /* \"#utility.yul\":10976:10978   */\n      0x40\n        /* \"#utility.yul\":10965:10974   */\n      dup3\n        /* \"#utility.yul\":10961:10979   */\n      add\n        /* \"#utility.yul\":10953:10979   */\n      swap1\n      pop\n        /* \"#utility.yul\":10989:11068   */\n      tag_318\n        /* \"#utility.yul\":11065:11066   */\n      0x00\n        /* \"#utility.yul\":11054:11063   */\n      dup4\n        /* \"#utility.yul\":11050:11067   */\n      add\n        /* \"#utility.yul\":11041:11047   */\n      dup6\n        /* \"#utility.yul\":10989:11068   */\n      tag_199\n      jump\t// in\n    tag_318:\n        /* \"#utility.yul\":11078:11150   */\n      tag_319\n        /* \"#utility.yul\":11146:11148   */\n      0x20\n        /* \"#utility.yul\":11135:11144   */\n      dup4\n        /* \"#utility.yul\":11131:11149   */\n      add\n        /* \"#utility.yul\":11122:11128   */\n      dup5\n        /* \"#utility.yul\":11078:11150   */\n      tag_179\n      jump\t// in\n    tag_319:\n        /* \"#utility.yul\":10809:11157   */\n      swap4\n      swap3\n      pop\n      pop\n      pop\n      jump\t// out\n        /* \"#utility.yul\":11163:11248   */\n    tag_200:\n        /* \"#utility.yul\":11208:11215   */\n      0x00\n        /* \"#utility.yul\":11237:11242   */\n      dup2\n        /* \"#utility.yul\":11226:11242   */\n      swap1\n      pop\n        /* \"#utility.yul\":11163:11248   */\n      swap2\n      swap1\n      pop\n      jump\t// out\n        /* \"#utility.yul\":11254:11412   */\n    tag_201:\n        /* \"#utility.yul\":11312:11321   */\n      0x00\n        /* \"#utility.yul\":11345:11406   */\n      tag_322\n        /* \"#utility.yul\":11363:11405   */\n      tag_323\n        /* \"#utility.yul\":11372:11404   */\n      tag_324\n        /* \"#utility.yul\":11398:11403   */\n      dup5\n        /* \"#utility.yul\":11372:11404   */\n      tag_200\n      jump\t// in\n    tag_324:\n        /* \"#utility.yul\":11363:11405   */\n      tag_197\n      jump\t// in\n    tag_323:\n        /* \"#utility.yul\":11345:11406   */\n      tag_178\n      jump\t// in\n    tag_322:\n        /* \"#utility.yul\":11332:11406   */\n      swap1\n      pop\n        /* \"#utility.yul\":11254:11412   */\n      swap2\n      swap1\n      pop\n      jump\t// out\n        /* \"#utility.yul\":11418:11565   */\n    tag_202:\n        /* \"#utility.yul\":11513:11558   */\n      tag_326\n        /* \"#utility.yul\":11552:11557   */\n      dup2\n        /* \"#utility.yul\":11513:11558   */\n      tag_201\n      jump\t// in\n    tag_326:\n        /* \"#utility.yul\":11508:11511   */\n      dup3\n        /* \"#utility.yul\":11501:11559   */\n      mstore\n        /* \"#utility.yul\":11418:11565   */\n      pop\n      pop\n      jump\t// out\n        /* \"#utility.yul\":11571:11919   */\n    tag_128:\n        /* \"#utility.yul\":11700:11704   */\n      0x00\n        /* \"#utility.yul\":11738:11740   */\n      0x40\n        /* \"#utility.yul\":11727:11736   */\n      dup3\n        /* \"#utility.yul\":11723:11741   */\n      add\n        /* \"#utility.yul\":11715:11741   */\n      swap1\n      pop\n        /* \"#utility.yul\":11751:11830   */\n      tag_328\n        /* \"#utility.yul\":11827:11828   */\n      0x00\n        /* \"#utility.yul\":11816:11825   */\n      dup4\n        /* \"#utility.yul\":11812:11829   */\n      add\n        /* \"#utility.yul\":11803:11809   */\n      dup6\n        /* \"#utility.yul\":11751:11830   */\n      tag_202\n      jump\t// in\n    tag_328:\n        /* \"#utility.yul\":11840:11912   */\n      tag_329\n        /* \"#utility.yul\":11908:11910   */\n      0x20\n        /* \"#utility.yul\":11897:11906   */\n      dup4\n        /* \"#utility.yul\":11893:11911   */\n      add\n        /* \"#utility.yul\":11884:11890   */\n      dup5\n        /* \"#utility.yul\":11840:11912   */\n      tag_179\n      jump\t// in\n    tag_329:\n        /* \"#utility.yul\":11571:11919   */\n      swap4\n      swap3\n      pop\n      pop\n      pop\n      jump\t// out\n        /* \"#utility.yul\":11925:12095   */\n    tag_203:\n        /* \"#utility.yul\":12065:12087   */\n      0x4e6f2066756e647320746f207769746864726177000000000000000000000000\n        /* \"#utility.yul\":12061:12062   */\n      0x00\n        /* \"#utility.yul\":12053:12059   */\n      dup3\n        /* \"#utility.yul\":12049:12063   */\n      add\n        /* \"#utility.yul\":12042:12088   */\n      mstore\n        /* \"#utility.yul\":11925:12095   */\n      pop\n      jump\t// out\n        /* \"#utility.yul\":12101:12467   */\n    tag_204:\n        /* \"#utility.yul\":12243:12246   */\n      0x00\n        /* \"#utility.yul\":12264:12331   */\n      tag_332\n        /* \"#utility.yul\":12328:12330   */\n      0x14\n        /* \"#utility.yul\":12323:12326   */\n      dup4\n        /* \"#utility.yul\":12264:12331   */\n      tag_164\n      jump\t// in\n    tag_332:\n        /* \"#utility.yul\":12257:12331   */\n      swap2\n      pop\n        /* \"#utility.yul\":12340:12433   */\n      tag_333\n        /* \"#utility.yul\":12429:12432   */\n      dup3\n        /* \"#utility.yul\":12340:12433   */\n      tag_203\n      jump\t// in\n    tag_333:\n        /* \"#utility.yul\":12458:12460   */\n      0x20\n        /* \"#utility.yul\":12453:12456   */\n      dup3\n        /* \"#utility.yul\":12449:12461   */\n      add\n        /* \"#utility.yul\":12442:12461   */\n      swap1\n      pop\n        /* \"#utility.yul\":12101:12467   */\n      swap2\n      swap1\n      pop\n      jump\t// out\n        /* \"#utility.yul\":12473:12892   */\n    tag_132:\n        /* \"#utility.yul\":12639:12643   */\n      0x00\n        /* \"#utility.yul\":12677:12679   */\n      0x20\n        /* \"#utility.yul\":12666:12675   */\n      dup3\n        /* \"#utility.yul\":12662:12680   */\n      add\n        /* \"#utility.yul\":12654:12680   */\n      swap1\n      pop\n        /* \"#utility.yul\":12726:12735   */\n      dup2\n        /* \"#utility.yul\":12720:12724   */\n      dup2\n        /* \"#utility.yul\":12716:12736   */\n      sub\n        /* \"#utility.yul\":12712:12713   */\n      0x00\n        /* \"#utility.yul\":12701:12710   */\n      dup4\n        /* \"#utility.yul\":12697:12714   */\n      add\n        /* \"#utility.yul\":12690:12737   */\n      mstore\n        /* \"#utility.yul\":12754:12885   */\n      tag_335\n        /* \"#utility.yul\":12880:12884   */\n      dup2\n        /* \"#utility.yul\":12754:12885   */\n      tag_204\n      jump\t// in\n    tag_335:\n        /* \"#utility.yul\":12746:12885   */\n      swap1\n      pop\n        /* \"#utility.yul\":12473:12892   */\n      swap2\n      swap1\n      pop\n      jump\t// out\n        /* \"#utility.yul\":12898:13045   */\n    tag_205:\n        /* \"#utility.yul\":12999:13010   */\n      0x00\n        /* \"#utility.yul\":13036:13039   */\n      dup2\n        /* \"#utility.yul\":13021:13039   */\n      swap1\n      pop\n        /* \"#utility.yul\":12898:13045   */\n      swap3\n      swap2\n      pop\n      pop\n      jump\t// out\n        /* \"#utility.yul\":13051:13165   */\n    tag_206:\n      pop\n      jump\t// out\n        /* \"#utility.yul\":13171:13569   */\n    tag_207:\n        /* \"#utility.yul\":13330:13333   */\n      0x00\n        /* \"#utility.yul\":13351:13434   */\n      tag_339\n        /* \"#utility.yul\":13432:13433   */\n      0x00\n        /* \"#utility.yul\":13427:13430   */\n      dup4\n        /* \"#utility.yul\":13351:13434   */\n      tag_205\n      jump\t// in\n    tag_339:\n        /* \"#utility.yul\":13344:13434   */\n      swap2\n      pop\n        /* \"#utility.yul\":13443:13536   */\n      tag_340\n        /* \"#utility.yul\":13532:13535   */\n      dup3\n        /* \"#utility.yul\":13443:13536   */\n      tag_206\n      jump\t// in\n    tag_340:\n        /* \"#utility.yul\":13561:13562   */\n      0x00\n        /* \"#utility.yul\":13556:13559   */\n      dup3\n        /* \"#utility.yul\":13552:13563   */\n      add\n        /* \"#utility.yul\":13545:13563   */\n      swap1\n      pop\n        /* \"#utility.yul\":13171:13569   */\n      swap2\n      swap1\n      pop\n      jump\t// out\n        /* \"#utility.yul\":13575:13954   */\n    tag_134:\n        /* \"#utility.yul\":13759:13762   */\n      0x00\n        /* \"#utility.yul\":13781:13928   */\n      tag_342\n        /* \"#utility.yul\":13924:13927   */\n      dup3\n        /* \"#utility.yul\":13781:13928   */\n      tag_207\n      jump\t// in\n    tag_342:\n        /* \"#utility.yul\":13774:13928   */\n      swap2\n      pop\n        /* \"#utility.yul\":13945:13948   */\n      dup2\n        /* \"#utility.yul\":13938:13948   */\n      swap1\n      pop\n        /* \"#utility.yul\":13575:13954   */\n      swap2\n      swap1\n      pop\n      jump\t// out\n        /* \"#utility.yul\":13960:14125   */\n    tag_208:\n        /* \"#utility.yul\":14100:14117   */\n      0x5472616e73666572206661696c65640000000000000000000000000000000000\n        /* \"#utility.yul\":14096:14097   */\n      0x00\n        /* \"#utility.yul\":14088:14094   */\n      dup3\n        /* \"#utility.yul\":14084:14098   */\n      add\n        /* \"#utility.yul\":14077:14118   */\n      mstore\n        /* \"#utility.yul\":13960:14125   */\n      pop\n      jump\t// out\n        /* \"#utility.yul\":14131:14497   */\n    tag_209:\n        /* \"#utility.yul\":14273:14276   */\n      0x00\n        /* \"#utility.yul\":14294:14361   */\n      tag_345\n        /* \"#utility.yul\":14358:14360   */\n      0x0f\n        /* \"#utility.yul\":14353:14356   */\n      dup4\n        /* \"#utility.yul\":14294:14361   */\n      tag_164\n      jump\t// in\n    tag_345:\n        /* \"#utility.yul\":14287:14361   */\n      swap2\n      pop\n        /* \"#utility.yul\":14370:14463   */\n      tag_346\n        /* \"#utility.yul\":14459:14462   */\n      dup3\n        /* \"#utility.yul\":14370:14463   */\n      tag_208\n      jump\t// in\n    tag_346:\n        /* \"#utility.yul\":14488:14490   */\n      0x20\n        /* \"#utility.yul\":14483:14486   */\n      dup3\n        /* \"#utility.yul\":14479:14491   */\n      add\n        /* \"#utility.yul\":14472:14491   */\n      swap1\n      pop\n        /* \"#utility.yul\":14131:14497   */\n      swap2\n      swap1\n      pop\n      jump\t// out\n        /* \"#utility.yul\":14503:14922   */\n    tag_140:\n        /* \"#utility.yul\":14669:14673   */\n      0x00\n        /* \"#utility.yul\":14707:14709   */\n      0x20\n        /* \"#utility.yul\":14696:14705   */\n      dup3\n        /* \"#utility.yul\":14692:14710   */\n      add\n        /* \"#utility.yul\":14684:14710   */\n      swap1\n      pop\n        /* \"#utility.yul\":14756:14765   */\n      dup2\n        /* \"#utility.yul\":14750:14754   */\n      dup2\n        /* \"#utility.yul\":14746:14766   */\n      sub\n        /* \"#utility.yul\":14742:14743   */\n      0x00\n        /* \"#utility.yul\":14731:14740   */\n      dup4\n        /* \"#utility.yul\":14727:14744   */\n      add\n        /* \"#utility.yul\":14720:14767   */\n      mstore\n        /* \"#utility.yul\":14784:14915   */\n      tag_348\n        /* \"#utility.yul\":14910:14914   */\n      dup2\n        /* \"#utility.yul\":14784:14915   */\n      tag_209\n      jump\t// in\n    tag_348:\n        /* \"#utility.yul\":14776:14915   */\n      swap1\n      pop\n        /* \"#utility.yul\":14503:14922   */\n      swap2\n      swap1\n      pop\n      jump\t// out\n        /* \"#utility.yul\":14928:15260   */\n    tag_142:\n        /* \"#utility.yul\":15049:15053   */\n      0x00\n        /* \"#utility.yul\":15087:15089   */\n      0x40\n        /* \"#utility.yul\":15076:15085   */\n      dup3\n        /* \"#utility.yul\":15072:15090   */\n      add\n        /* \"#utility.yul\":15064:15090   */\n      swap1\n      pop\n        /* \"#utility.yul\":15100:15171   */\n      tag_350\n        /* \"#utility.yul\":15168:15169   */\n      0x00\n        /* \"#utility.yul\":15157:15166   */\n      dup4\n        /* \"#utility.yul\":15153:15170   */\n      add\n        /* \"#utility.yul\":15144:15150   */\n      dup6\n        /* \"#utility.yul\":15100:15171   */\n      tag_170\n      jump\t// in\n    tag_350:\n        /* \"#utility.yul\":15181:15253   */\n      tag_351\n        /* \"#utility.yul\":15249:15251   */\n      0x20\n        /* \"#utility.yul\":15238:15247   */\n      dup4\n        /* \"#utility.yul\":15234:15252   */\n      add\n        /* \"#utility.yul\":15225:15231   */\n      dup5\n        /* \"#utility.yul\":15181:15253   */\n      tag_179\n      jump\t// in\n    tag_351:\n        /* \"#utility.yul\":14928:15260   */\n      swap4\n      swap3\n      pop\n      pop\n      pop\n      jump\t// out\n        /* \"#utility.yul\":15266:15445   */\n    tag_210:\n        /* \"#utility.yul\":15406:15437   */\n      0x4e6f2066756e6473206c65667420696e2074686520636f6e7472616374000000\n        /* \"#utility.yul\":15402:15403   */\n      0x00\n        /* \"#utility.yul\":15394:15400   */\n      dup3\n        /* \"#utility.yul\":15390:15404   */\n      add\n        /* \"#utility.yul\":15383:15438   */\n      mstore\n        /* \"#utility.yul\":15266:15445   */\n      pop\n      jump\t// out\n        /* \"#utility.yul\":15451:15817   */\n    tag_211:\n        /* \"#utility.yul\":15593:15596   */\n      0x00\n        /* \"#utility.yul\":15614:15681   */\n      tag_354\n        /* \"#utility.yul\":15678:15680   */\n      0x1d\n        /* \"#utility.yul\":15673:15676   */\n      dup4\n        /* \"#utility.yul\":15614:15681   */\n      tag_164\n      jump\t// in\n    tag_354:\n        /* \"#utility.yul\":15607:15681   */\n      swap2\n      pop\n        /* \"#utility.yul\":15690:15783   */\n      tag_355\n        /* \"#utility.yul\":15779:15782   */\n      dup3\n        /* \"#utility.yul\":15690:15783   */\n      tag_210\n      jump\t// in\n    tag_355:\n        /* \"#utility.yul\":15808:15810   */\n      0x20\n        /* \"#utility.yul\":15803:15806   */\n      dup3\n        /* \"#utility.yul\":15799:15811   */\n      add\n        /* \"#utility.yul\":15792:15811   */\n      swap1\n      pop\n        /* \"#utility.yul\":15451:15817   */\n      swap2\n      swap1\n      pop\n      jump\t// out\n        /* \"#utility.yul\":15823:16242   */\n    tag_156:\n        /* \"#utility.yul\":15989:15993   */\n      0x00\n        /* \"#utility.yul\":16027:16029   */\n      0x20\n        /* \"#utility.yul\":16016:16025   */\n      dup3\n        /* \"#utility.yul\":16012:16030   */\n      add\n        /* \"#utility.yul\":16004:16030   */\n      swap1\n      pop\n        /* \"#utility.yul\":16076:16085   */\n      dup2\n        /* \"#utility.yul\":16070:16074   */\n      dup2\n        /* \"#utility.yul\":16066:16086   */\n      sub\n        /* \"#utility.yul\":16062:16063   */\n      0x00\n        /* \"#utility.yul\":16051:16060   */\n      dup4\n        /* \"#utility.yul\":16047:16064   */\n      add\n        /* \"#utility.yul\":16040:16087   */\n      mstore\n        /* \"#utility.yul\":16104:16235   */\n      tag_357\n        /* \"#utility.yul\":16230:16234   */\n      dup2\n        /* \"#utility.yul\":16104:16235   */\n      tag_211\n      jump\t// in\n    tag_357:\n        /* \"#utility.yul\":16096:16235   */\n      swap1\n      pop\n        /* \"#utility.yul\":15823:16242   */\n      swap2\n      swap1\n      pop\n      jump\t// out\n\n    auxdata: 0xa2646970667358221220050d3259fa69ae56a9a69aab180485555b34ab0ec0b8530bcdade5c95a3d95c964736f6c634300081a0033\n}\n",
				"bytecode": {
					"linkReferences": {},
					"object": "608060405234801561000f575f80fd5b50604051611c82380380611c82833981810160405281019061003191906102ca565b825f806101000a81548173ffffffffffffffffffffffffffffffffffffffff021916908373ffffffffffffffffffffffffffffffffffffffff16021790555042600181905550610e10846100859190610393565b60015461009291906103d4565b600281905550600160095f6101000a81548160ff021916908360018111156100bd576100bc610407565b5b02179055508160055f0190816100d39190610638565b5080600560010190816100e69190610638565b5050505050610707565b5f604051905090565b5f80fd5b5f80fd5b5f819050919050565b61011381610101565b811461011d575f80fd5b50565b5f8151905061012e8161010a565b92915050565b5f73ffffffffffffffffffffffffffffffffffffffff82169050919050565b5f61015d82610134565b9050919050565b61016d81610153565b8114610177575f80fd5b50565b5f8151905061018881610164565b92915050565b5f80fd5b5f80fd5b5f601f19601f8301169050919050565b7f4e487b71000000000000000000000000000000000000000000000000000000005f52604160045260245ffd5b6101dc82610196565b810181811067ffffffffffffffff821117156101fb576101fa6101a6565b5b80604052505050565b5f61020d6100f0565b905061021982826101d3565b919050565b5f67ffffffffffffffff821115610238576102376101a6565b5b61024182610196565b9050602081019050919050565b8281835e5f83830152505050565b5f61026e6102698461021e565b610204565b90508281526020810184848401111561028a57610289610192565b5b61029584828561024e565b509392505050565b5f82601f8301126102b1576102b061018e565b5b81516102c184826020860161025c565b91505092915050565b5f805f80608085870312156102e2576102e16100f9565b5b5f6102ef87828801610120565b94505060206103008782880161017a565b935050604085015167ffffffffffffffff811115610321576103206100fd565b5b61032d8782880161029d565b925050606085015167ffffffffffffffff81111561034e5761034d6100fd565b5b61035a8782880161029d565b91505092959194509250565b7f4e487b71000000000000000000000000000000000000000000000000000000005f52601160045260245ffd5b5f61039d82610101565b91506103a883610101565b92508282026103b681610101565b915082820484148315176103cd576103cc610366565b5b5092915050565b5f6103de82610101565b91506103e983610101565b925082820190508082111561040157610400610366565b5b92915050565b7f4e487b71000000000000000000000000000000000000000000000000000000005f52602160045260245ffd5b5f81519050919050565b7f4e487b71000000000000000000000000000000000000000000000000000000005f52602260045260245ffd5b5f600282049050600182168061048257607f821691505b6020821081036104955761049461043e565b5b50919050565b5f819050815f5260205f209050919050565b5f6020601f8301049050919050565b5f82821b905092915050565b5f600883026104f77fffffffffffffffffffffffffffffffffffffffffffffffffffffffffffffffff826104bc565b61050186836104bc565b95508019841693508086168417925050509392505050565b5f819050919050565b5f61053c61053761053284610101565b610519565b610101565b9050919050565b5f819050919050565b61055583610522565b61056961056182610543565b8484546104c8565b825550505050565b5f90565b61057d610571565b61058881848461054c565b505050565b5b818110156105ab576105a05f82610575565b60018101905061058e565b5050565b601f8211156105f0576105c18161049b565b6105ca846104ad565b810160208510156105d9578190505b6105ed6105e5856104ad565b83018261058d565b50505b505050565b5f82821c905092915050565b5f6106105f19846008026105f5565b1980831691505092915050565b5f6106288383610601565b9150826002028217905092915050565b61064182610434565b67ffffffffffffffff81111561065a576106596101a6565b5b610664825461046b565b61066f8282856105af565b5f60209050601f8311600181146106a0575f841561068e578287015190505b610698858261061d565b8655506106ff565b601f1984166106ae8661049b565b5f5b828110156106d5578489015182556001820191506020850194506020810190506106b0565b868310156106f257848901516106ee601f891682610601565b8355505b6001600288020188555050505b505050505050565b61156e806107145f395ff3fe6080604052600436106100dc575f3560e01c806378f453401161007e578063c458b65a11610058578063c458b65a14610275578063c486456c1461029f578063d57bde79146102c9578063ef86ce8e146102f3576100dc565b806378f45340146101f957806391f9015714610223578063956534ed1461024d576100dc565b8063389009f0116100ba578063389009f0146101535780633ba88ca1146101695780633ccfd60b1461019357806362ea82db146101bd576100dc565b80630216f202146100e05780630ac298dc1461010b5780631998aeef14610135575b5f80fd5b3480156100eb575f80fd5b506100f4610309565b604051610102929190610e4e565b60405180910390f35b348015610116575f80fd5b5061011f610426565b60405161012c9190610ec2565b60405180910390f35b61013d61044d565b60405161014a9190610ef5565b60405180910390f35b34801561015e575f80fd5b506101676106c8565b005b348015610174575f80fd5b5061017d6107fe565b60405161018a9190610ef5565b60405180910390f35b34801561019e575f80fd5b506101a761093c565b6040516101b49190610ef5565b60405180910390f35b3480156101c8575f80fd5b506101e360048036038101906101de9190610f3c565b610af1565b6040516101f09190610f7f565b60405180910390f35b348015610204575f80fd5b5061020d610b06565b60405161021a9190610f7f565b60405180910390f35b34801561022e575f80fd5b50610237610b0c565b6040516102449190610ec2565b60405180910390f35b348015610258575f80fd5b50610273600480360381019061026e9190610fbb565b610b31565b005b348015610280575f80fd5b50610289610c21565b6040516102969190610f7f565b60405180910390f35b3480156102aa575f80fd5b506102b3610c27565b6040516102c09190611059565b60405180910390f35b3480156102d4575f80fd5b506102dd610c39565b6040516102ea9190610f7f565b60405180910390f35b3480156102fe575f80fd5b50610307610c3f565b005b6005805f0180546103199061109f565b80601f01602080910402602001604051908101604052809291908181526020018280546103459061109f565b80156103905780601f1061036757610100808354040283529160200191610390565b820191905f5260205f20905b81548152906001019060200180831161037357829003601f168201915b5050505050908060010180546103a59061109f565b80601f01602080910402602001604051908101604052809291908181526020018280546103d19061109f565b801561041c5780601f106103f35761010080835404028352916020019161041c565b820191905f5260205f20905b8154815290600101906020018083116103ff57829003601f168201915b5050505050905082565b5f805f9054906101000a900473ffffffffffffffffffffffffffffffffffffffff16905090565b5f600254421115610493576040517f08c379a000000000000000000000000000000000000000000000000000000000815260040161048a90611119565b60405180910390fd5b6003543460085f3373ffffffffffffffffffffffffffffffffffffffff1673ffffffffffffffffffffffffffffffffffffffff1681526020019081526020015f20546104df9190611164565b1161051f576040517f08c379a0000000000000000000000000000000000000000000000000000000008152600401610516906111e1565b60405180910390fd5b3360045f6101000a81548173ffffffffffffffffffffffffffffffffffffffff021916908373ffffffffffffffffffffffffffffffffffffffff16021790555034600381905550600733908060018154018082558091505060019003905f5260205f20015f9091909190916101000a81548173ffffffffffffffffffffffffffffffffffffffff021916908373ffffffffffffffffffffffffffffffffffffffff1602179055503460085f3373ffffffffffffffffffffffffffffffffffffffff1673ffffffffffffffffffffffffffffffffffffffff1681526020019081526020015f205461060f9190611164565b60085f3373ffffffffffffffffffffffffffffffffffffffff1673ffffffffffffffffffffffffffffffffffffffff1681526020019081526020015f208190555060045f9054906101000a900473ffffffffffffffffffffffffffffffffffffffff1673ffffffffffffffffffffffffffffffffffffffff167f0d993d4f8a84158f5329713d6d13ef54e77b325040c887c8b3e565cfd0cd3e216003546040516106b99190610f7f565b60405180910390a26001905090565b5f8054906101000a900473ffffffffffffffffffffffffffffffffffffffff1673ffffffffffffffffffffffffffffffffffffffff163373ffffffffffffffffffffffffffffffffffffffff1614610755576040517f08c379a000000000000000000000000000000000000000000000000000000000815260040161074c90611249565b60405180910390fd5b6002544211610799576040517f08c379a0000000000000000000000000000000000000000000000000000000008152600401610790906112b1565b60405180910390fd5b5f60095f6101000a81548160ff021916908360018111156107bd576107bc610fe6565b5b02179055507fcb3c98892a5c11582e6b5e5caa647ef56c5d646f1bf6884c2cae5aff754639e36002426040516107f4929190611311565b60405180910390a1565b5f805f9054906101000a900473ffffffffffffffffffffffffffffffffffffffff1673ffffffffffffffffffffffffffffffffffffffff163373ffffffffffffffffffffffffffffffffffffffff161461088d576040517f08c379a000000000000000000000000000000000000000000000000000000000815260040161088490611249565b60405180910390fd5b6002544211156108d2576040517f08c379a00000000000000000000000000000000000000000000000000000000081526004016108c990611119565b60405180910390fd5b5f60095f6101000a81548160ff021916908360018111156108f6576108f5610fe6565b5b02179055507fcb3c98892a5c11582e6b5e5caa647ef56c5d646f1bf6884c2cae5aff754639e360014260405161092d929190611371565b60405180910390a16001905090565b5f8060085f3373ffffffffffffffffffffffffffffffffffffffff1673ffffffffffffffffffffffffffffffffffffffff1681526020019081526020015f205490505f81116109c0576040517f08c379a00000000000000000000000000000000000000000000000000000000081526004016109b7906113e2565b60405180910390fd5b5f60085f3373ffffffffffffffffffffffffffffffffffffffff1673ffffffffffffffffffffffffffffffffffffffff1681526020019081526020015f20819055505f3373ffffffffffffffffffffffffffffffffffffffff168261138890604051610a2b9061142d565b5f60405180830381858888f193505050503d805f8114610a66576040519150601f19603f3d011682016040523d82523d5f602084013e610a6b565b606091505b5050905080610aaf576040517f08c379a0000000000000000000000000000000000000000000000000000000008152600401610aa69061148b565b60405180910390fd5b7f2f174ca282119315c59efaf21147aef438581dabdeb498198ae28964373dd8bc3383604051610ae09291906114a9565b60405180910390a160019250505090565b6008602052805f5260405f205f915090505481565b60015481565b60045f9054906101000a900473ffffffffffffffffffffffffffffffffffffffff1681565b5f8054906101000a900473ffffffffffffffffffffffffffffffffffffffff1673ffffffffffffffffffffffffffffffffffffffff163373ffffffffffffffffffffffffffffffffffffffff1614610bbe576040517f08c379a0000000000000000000000000000000000000000000000000000000008152600401610bb590611249565b60405180910390fd5b8060095f6101000a81548160ff02191690836001811115610be257610be1610fe6565b5b02179055507f23ad33ab6a13a00aa7d06cd167b2abd03dec86af3cf3cc91759dcd3ae841188781604051610c169190611059565b60405180910390a150565b60025481565b60095f9054906101000a900460ff1681565b60035481565b5f8054906101000a900473ffffffffffffffffffffffffffffffffffffffff1673ffffffffffffffffffffffffffffffffffffffff163373ffffffffffffffffffffffffffffffffffffffff1614610ccc576040517f08c379a0000000000000000000000000000000000000000000000000000000008152600401610cc390611249565b60405180910390fd5b5f4790505f8111610d12576040517f08c379a0000000000000000000000000000000000000000000000000000000008152600401610d099061151a565b60405180910390fd5b5f805f9054906101000a900473ffffffffffffffffffffffffffffffffffffffff1673ffffffffffffffffffffffffffffffffffffffff1682604051610d579061142d565b5f6040518083038185875af1925050503d805f8114610d91576040519150601f19603f3d011682016040523d82523d5f602084013e610d96565b606091505b5050905080610dda576040517f08c379a0000000000000000000000000000000000000000000000000000000008152600401610dd19061148b565b60405180910390fd5b5050565b5f81519050919050565b5f82825260208201905092915050565b8281835e5f83830152505050565b5f601f19601f8301169050919050565b5f610e2082610dde565b610e2a8185610de8565b9350610e3a818560208601610df8565b610e4381610e06565b840191505092915050565b5f6040820190508181035f830152610e668185610e16565b90508181036020830152610e7a8184610e16565b90509392505050565b5f73ffffffffffffffffffffffffffffffffffffffff82169050919050565b5f610eac82610e83565b9050919050565b610ebc81610ea2565b82525050565b5f602082019050610ed55f830184610eb3565b92915050565b5f8115159050919050565b610eef81610edb565b82525050565b5f602082019050610f085f830184610ee6565b92915050565b5f80fd5b610f1b81610ea2565b8114610f25575f80fd5b50565b5f81359050610f3681610f12565b92915050565b5f60208284031215610f5157610f50610f0e565b5b5f610f5e84828501610f28565b91505092915050565b5f819050919050565b610f7981610f67565b82525050565b5f602082019050610f925f830184610f70565b92915050565b60028110610fa4575f80fd5b50565b5f81359050610fb581610f98565b92915050565b5f60208284031215610fd057610fcf610f0e565b5b5f610fdd84828501610fa7565b91505092915050565b7f4e487b71000000000000000000000000000000000000000000000000000000005f52602160045260245ffd5b6002811061102457611023610fe6565b5b50565b5f81905061103482611013565b919050565b5f61104382611027565b9050919050565b61105381611039565b82525050565b5f60208201905061106c5f83018461104a565b92915050565b7f4e487b71000000000000000000000000000000000000000000000000000000005f52602260045260245ffd5b5f60028204905060018216806110b657607f821691505b6020821081036110c9576110c8611072565b5b50919050565b7f41756374696f6e2068617320656e6465640000000000000000000000000000005f82015250565b5f611103601183610de8565b915061110e826110cf565b602082019050919050565b5f6020820190508181035f830152611130816110f7565b9050919050565b7f4e487b71000000000000000000000000000000000000000000000000000000005f52601160045260245ffd5b5f61116e82610f67565b915061117983610f67565b925082820190508082111561119157611190611137565b5b92915050565b7f596f752063616e2774206269642c206d616b65206120686967686572206269645f82015250565b5f6111cb602083610de8565b91506111d682611197565b602082019050919050565b5f6020820190508181035f8301526111f8816111bf565b9050919050565b7f4f6e6c792061756374696f6e206f776e65722063616e2063616c6c20746869735f82015250565b5f611233602083610de8565b915061123e826111ff565b602082019050919050565b5f6020820190508181035f83015261126081611227565b9050919050565b7f41756374696f6e206973207374696c6c206f6e676f696e6700000000000000005f82015250565b5f61129b601883610de8565b91506112a682611267565b602082019050919050565b5f6020820190508181035f8301526112c88161128f565b9050919050565b5f819050919050565b5f819050919050565b5f6112fb6112f66112f1846112cf565b6112d8565b610f67565b9050919050565b61130b816112e1565b82525050565b5f6040820190506113245f830185611302565b6113316020830184610f70565b9392505050565b5f819050919050565b5f61135b61135661135184611338565b6112d8565b610f67565b9050919050565b61136b81611341565b82525050565b5f6040820190506113845f830185611362565b6113916020830184610f70565b9392505050565b7f4e6f2066756e647320746f2077697468647261770000000000000000000000005f82015250565b5f6113cc601483610de8565b91506113d782611398565b602082019050919050565b5f6020820190508181035f8301526113f9816113c0565b9050919050565b5f81905092915050565b50565b5f6114185f83611400565b91506114238261140a565b5f82019050919050565b5f6114378261140d565b9150819050919050565b7f5472616e73666572206661696c656400000000000000000000000000000000005f82015250565b5f611475600f83610de8565b915061148082611441565b602082019050919050565b5f6020820190508181035f8301526114a281611469565b9050919050565b5f6040820190506114bc5f830185610eb3565b6114c96020830184610f70565b9392505050565b7f4e6f2066756e6473206c65667420696e2074686520636f6e74726163740000005f82015250565b5f611504601d83610de8565b915061150f826114d0565b602082019050919050565b5f6020820190508181035f830152611531816114f8565b905091905056fea2646970667358221220050d3259fa69ae56a9a69aab180485555b34ab0ec0b8530bcdade5c95a3d95c964736f6c634300081a0033",
					"opcodes": "PUSH1 0x80 PUSH1 0x40 MSTORE CALLVALUE DUP1 ISZERO PUSH2 0xF JUMPI PUSH0 DUP1 REVERT JUMPDEST POP PUSH1 0x40 MLOAD PUSH2 0x1C82 CODESIZE SUB DUP1 PUSH2 0x1C82 DUP4 CODECOPY DUP2 DUP2 ADD PUSH1 0x40 MSTORE DUP2 ADD SWAP1 PUSH2 0x31 SWAP2 SWAP1 PUSH2 0x2CA JUMP JUMPDEST DUP3 PUSH0 DUP1 PUSH2 0x100 EXP DUP2 SLOAD DUP2 PUSH20 0xFFFFFFFFFFFFFFFFFFFFFFFFFFFFFFFFFFFFFFFF MUL NOT AND SWAP1 DUP4 PUSH20 0xFFFFFFFFFFFFFFFFFFFFFFFFFFFFFFFFFFFFFFFF AND MUL OR SWAP1 SSTORE POP TIMESTAMP PUSH1 0x1 DUP2 SWAP1 SSTORE POP PUSH2 0xE10 DUP5 PUSH2 0x85 SWAP2 SWAP1 PUSH2 0x393 JUMP JUMPDEST PUSH1 0x1 SLOAD PUSH2 0x92 SWAP2 SWAP1 PUSH2 0x3D4 JUMP JUMPDEST PUSH1 0x2 DUP2 SWAP1 SSTORE POP PUSH1 0x1 PUSH1 0x9 PUSH0 PUSH2 0x100 EXP DUP2 SLOAD DUP2 PUSH1 0xFF MUL NOT AND SWAP1 DUP4 PUSH1 0x1 DUP2 GT ISZERO PUSH2 0xBD JUMPI PUSH2 0xBC PUSH2 0x407 JUMP JUMPDEST JUMPDEST MUL OR SWAP1 SSTORE POP DUP2 PUSH1 0x5 PUSH0 ADD SWAP1 DUP2 PUSH2 0xD3 SWAP2 SWAP1 PUSH2 0x638 JUMP JUMPDEST POP DUP1 PUSH1 0x5 PUSH1 0x1 ADD SWAP1 DUP2 PUSH2 0xE6 SWAP2 SWAP1 PUSH2 0x638 JUMP JUMPDEST POP POP POP POP POP PUSH2 0x707 JUMP JUMPDEST PUSH0 PUSH1 0x40 MLOAD SWAP1 POP SWAP1 JUMP JUMPDEST PUSH0 DUP1 REVERT JUMPDEST PUSH0 DUP1 REVERT JUMPDEST PUSH0 DUP2 SWAP1 POP SWAP2 SWAP1 POP JUMP JUMPDEST PUSH2 0x113 DUP2 PUSH2 0x101 JUMP JUMPDEST DUP2 EQ PUSH2 0x11D JUMPI PUSH0 DUP1 REVERT JUMPDEST POP JUMP JUMPDEST PUSH0 DUP2 MLOAD SWAP1 POP PUSH2 0x12E DUP2 PUSH2 0x10A JUMP JUMPDEST SWAP3 SWAP2 POP POP JUMP JUMPDEST PUSH0 PUSH20 0xFFFFFFFFFFFFFFFFFFFFFFFFFFFFFFFFFFFFFFFF DUP3 AND SWAP1 POP SWAP2 SWAP1 POP JUMP JUMPDEST PUSH0 PUSH2 0x15D DUP3 PUSH2 0x134 JUMP JUMPDEST SWAP1 POP SWAP2 SWAP1 POP JUMP JUMPDEST PUSH2 0x16D DUP2 PUSH2 0x153 JUMP JUMPDEST DUP2 EQ PUSH2 0x177 JUMPI PUSH0 DUP1 REVERT JUMPDEST POP JUMP JUMPDEST PUSH0 DUP2 MLOAD SWAP1 POP PUSH2 0x188 DUP2 PUSH2 0x164 JUMP JUMPDEST SWAP3 SWAP2 POP POP JUMP JUMPDEST PUSH0 DUP1 REVERT JUMPDEST PUSH0 DUP1 REVERT JUMPDEST PUSH0 PUSH1 0x1F NOT PUSH1 0x1F DUP4 ADD AND SWAP1 POP SWAP2 SWAP1 POP JUMP JUMPDEST PUSH32 0x4E487B7100000000000000000000000000000000000000000000000000000000 PUSH0 MSTORE PUSH1 0x41 PUSH1 0x4 MSTORE PUSH1 0x24 PUSH0 REVERT JUMPDEST PUSH2 0x1DC DUP3 PUSH2 0x196 JUMP JUMPDEST DUP2 ADD DUP2 DUP2 LT PUSH8 0xFFFFFFFFFFFFFFFF DUP3 GT OR ISZERO PUSH2 0x1FB JUMPI PUSH2 0x1FA PUSH2 0x1A6 JUMP JUMPDEST JUMPDEST DUP1 PUSH1 0x40 MSTORE POP POP POP JUMP JUMPDEST PUSH0 PUSH2 0x20D PUSH2 0xF0 JUMP JUMPDEST SWAP1 POP PUSH2 0x219 DUP3 DUP3 PUSH2 0x1D3 JUMP JUMPDEST SWAP2 SWAP1 POP JUMP JUMPDEST PUSH0 PUSH8 0xFFFFFFFFFFFFFFFF DUP3 GT ISZERO PUSH2 0x238 JUMPI PUSH2 0x237 PUSH2 0x1A6 JUMP JUMPDEST JUMPDEST PUSH2 0x241 DUP3 PUSH2 0x196 JUMP JUMPDEST SWAP1 POP PUSH1 0x20 DUP2 ADD SWAP1 POP SWAP2 SWAP1 POP JUMP JUMPDEST DUP3 DUP2 DUP4 MCOPY PUSH0 DUP4 DUP4 ADD MSTORE POP POP POP JUMP JUMPDEST PUSH0 PUSH2 0x26E PUSH2 0x269 DUP5 PUSH2 0x21E JUMP JUMPDEST PUSH2 0x204 JUMP JUMPDEST SWAP1 POP DUP3 DUP2 MSTORE PUSH1 0x20 DUP2 ADD DUP5 DUP5 DUP5 ADD GT ISZERO PUSH2 0x28A JUMPI PUSH2 0x289 PUSH2 0x192 JUMP JUMPDEST JUMPDEST PUSH2 0x295 DUP5 DUP3 DUP6 PUSH2 0x24E JUMP JUMPDEST POP SWAP4 SWAP3 POP POP POP JUMP JUMPDEST PUSH0 DUP3 PUSH1 0x1F DUP4 ADD SLT PUSH2 0x2B1 JUMPI PUSH2 0x2B0 PUSH2 0x18E JUMP JUMPDEST JUMPDEST DUP2 MLOAD PUSH2 0x2C1 DUP5 DUP3 PUSH1 0x20 DUP7 ADD PUSH2 0x25C JUMP JUMPDEST SWAP2 POP POP SWAP3 SWAP2 POP POP JUMP JUMPDEST PUSH0 DUP1 PUSH0 DUP1 PUSH1 0x80 DUP6 DUP8 SUB SLT ISZERO PUSH2 0x2E2 JUMPI PUSH2 0x2E1 PUSH2 0xF9 JUMP JUMPDEST JUMPDEST PUSH0 PUSH2 0x2EF DUP8 DUP3 DUP9 ADD PUSH2 0x120 JUMP JUMPDEST SWAP5 POP POP PUSH1 0x20 PUSH2 0x300 DUP8 DUP3 DUP9 ADD PUSH2 0x17A JUMP JUMPDEST SWAP4 POP POP PUSH1 0x40 DUP6 ADD MLOAD PUSH8 0xFFFFFFFFFFFFFFFF DUP2 GT ISZERO PUSH2 0x321 JUMPI PUSH2 0x320 PUSH2 0xFD JUMP JUMPDEST JUMPDEST PUSH2 0x32D DUP8 DUP3 DUP9 ADD PUSH2 0x29D JUMP JUMPDEST SWAP3 POP POP PUSH1 0x60 DUP6 ADD MLOAD PUSH8 0xFFFFFFFFFFFFFFFF DUP2 GT ISZERO PUSH2 0x34E JUMPI PUSH2 0x34D PUSH2 0xFD JUMP JUMPDEST JUMPDEST PUSH2 0x35A DUP8 DUP3 DUP9 ADD PUSH2 0x29D JUMP JUMPDEST SWAP2 POP POP SWAP3 SWAP6 SWAP2 SWAP5 POP SWAP3 POP JUMP JUMPDEST PUSH32 0x4E487B7100000000000000000000000000000000000000000000000000000000 PUSH0 MSTORE PUSH1 0x11 PUSH1 0x4 MSTORE PUSH1 0x24 PUSH0 REVERT JUMPDEST PUSH0 PUSH2 0x39D DUP3 PUSH2 0x101 JUMP JUMPDEST SWAP2 POP PUSH2 0x3A8 DUP4 PUSH2 0x101 JUMP JUMPDEST SWAP3 POP DUP3 DUP3 MUL PUSH2 0x3B6 DUP2 PUSH2 0x101 JUMP JUMPDEST SWAP2 POP DUP3 DUP3 DIV DUP5 EQ DUP4 ISZERO OR PUSH2 0x3CD JUMPI PUSH2 0x3CC PUSH2 0x366 JUMP JUMPDEST JUMPDEST POP SWAP3 SWAP2 POP POP JUMP JUMPDEST PUSH0 PUSH2 0x3DE DUP3 PUSH2 0x101 JUMP JUMPDEST SWAP2 POP PUSH2 0x3E9 DUP4 PUSH2 0x101 JUMP JUMPDEST SWAP3 POP DUP3 DUP3 ADD SWAP1 POP DUP1 DUP3 GT ISZERO PUSH2 0x401 JUMPI PUSH2 0x400 PUSH2 0x366 JUMP JUMPDEST JUMPDEST SWAP3 SWAP2 POP POP JUMP JUMPDEST PUSH32 0x4E487B7100000000000000000000000000000000000000000000000000000000 PUSH0 MSTORE PUSH1 0x21 PUSH1 0x4 MSTORE PUSH1 0x24 PUSH0 REVERT JUMPDEST PUSH0 DUP2 MLOAD SWAP1 POP SWAP2 SWAP1 POP JUMP JUMPDEST PUSH32 0x4E487B7100000000000000000000000000000000000000000000000000000000 PUSH0 MSTORE PUSH1 0x22 PUSH1 0x4 MSTORE PUSH1 0x24 PUSH0 REVERT JUMPDEST PUSH0 PUSH1 0x2 DUP3 DIV SWAP1 POP PUSH1 0x1 DUP3 AND DUP1 PUSH2 0x482 JUMPI PUSH1 0x7F DUP3 AND SWAP2 POP JUMPDEST PUSH1 0x20 DUP3 LT DUP2 SUB PUSH2 0x495 JUMPI PUSH2 0x494 PUSH2 0x43E JUMP JUMPDEST JUMPDEST POP SWAP2 SWAP1 POP JUMP JUMPDEST PUSH0 DUP2 SWAP1 POP DUP2 PUSH0 MSTORE PUSH1 0x20 PUSH0 KECCAK256 SWAP1 POP SWAP2 SWAP1 POP JUMP JUMPDEST PUSH0 PUSH1 0x20 PUSH1 0x1F DUP4 ADD DIV SWAP1 POP SWAP2 SWAP1 POP JUMP JUMPDEST PUSH0 DUP3 DUP3 SHL SWAP1 POP SWAP3 SWAP2 POP POP JUMP JUMPDEST PUSH0 PUSH1 0x8 DUP4 MUL PUSH2 0x4F7 PUSH32 0xFFFFFFFFFFFFFFFFFFFFFFFFFFFFFFFFFFFFFFFFFFFFFFFFFFFFFFFFFFFFFFFF DUP3 PUSH2 0x4BC JUMP JUMPDEST PUSH2 0x501 DUP7 DUP4 PUSH2 0x4BC JUMP JUMPDEST SWAP6 POP DUP1 NOT DUP5 AND SWAP4 POP DUP1 DUP7 AND DUP5 OR SWAP3 POP POP POP SWAP4 SWAP3 POP POP POP JUMP JUMPDEST PUSH0 DUP2 SWAP1 POP SWAP2 SWAP1 POP JUMP JUMPDEST PUSH0 PUSH2 0x53C PUSH2 0x537 PUSH2 0x532 DUP5 PUSH2 0x101 JUMP JUMPDEST PUSH2 0x519 JUMP JUMPDEST PUSH2 0x101 JUMP JUMPDEST SWAP1 POP SWAP2 SWAP1 POP JUMP JUMPDEST PUSH0 DUP2 SWAP1 POP SWAP2 SWAP1 POP JUMP JUMPDEST PUSH2 0x555 DUP4 PUSH2 0x522 JUMP JUMPDEST PUSH2 0x569 PUSH2 0x561 DUP3 PUSH2 0x543 JUMP JUMPDEST DUP5 DUP5 SLOAD PUSH2 0x4C8 JUMP JUMPDEST DUP3 SSTORE POP POP POP POP JUMP JUMPDEST PUSH0 SWAP1 JUMP JUMPDEST PUSH2 0x57D PUSH2 0x571 JUMP JUMPDEST PUSH2 0x588 DUP2 DUP5 DUP5 PUSH2 0x54C JUMP JUMPDEST POP POP POP JUMP JUMPDEST JUMPDEST DUP2 DUP2 LT ISZERO PUSH2 0x5AB JUMPI PUSH2 0x5A0 PUSH0 DUP3 PUSH2 0x575 JUMP JUMPDEST PUSH1 0x1 DUP2 ADD SWAP1 POP PUSH2 0x58E JUMP JUMPDEST POP POP JUMP JUMPDEST PUSH1 0x1F DUP3 GT ISZERO PUSH2 0x5F0 JUMPI PUSH2 0x5C1 DUP2 PUSH2 0x49B JUMP JUMPDEST PUSH2 0x5CA DUP5 PUSH2 0x4AD JUMP JUMPDEST DUP2 ADD PUSH1 0x20 DUP6 LT ISZERO PUSH2 0x5D9 JUMPI DUP2 SWAP1 POP JUMPDEST PUSH2 0x5ED PUSH2 0x5E5 DUP6 PUSH2 0x4AD JUMP JUMPDEST DUP4 ADD DUP3 PUSH2 0x58D JUMP JUMPDEST POP POP JUMPDEST POP POP POP JUMP JUMPDEST PUSH0 DUP3 DUP3 SHR SWAP1 POP SWAP3 SWAP2 POP POP JUMP JUMPDEST PUSH0 PUSH2 0x610 PUSH0 NOT DUP5 PUSH1 0x8 MUL PUSH2 0x5F5 JUMP JUMPDEST NOT DUP1 DUP4 AND SWAP2 POP POP SWAP3 SWAP2 POP POP JUMP JUMPDEST PUSH0 PUSH2 0x628 DUP4 DUP4 PUSH2 0x601 JUMP JUMPDEST SWAP2 POP DUP3 PUSH1 0x2 MUL DUP3 OR SWAP1 POP SWAP3 SWAP2 POP POP JUMP JUMPDEST PUSH2 0x641 DUP3 PUSH2 0x434 JUMP JUMPDEST PUSH8 0xFFFFFFFFFFFFFFFF DUP2 GT ISZERO PUSH2 0x65A JUMPI PUSH2 0x659 PUSH2 0x1A6 JUMP JUMPDEST JUMPDEST PUSH2 0x664 DUP3 SLOAD PUSH2 0x46B JUMP JUMPDEST PUSH2 0x66F DUP3 DUP3 DUP6 PUSH2 0x5AF JUMP JUMPDEST PUSH0 PUSH1 0x20 SWAP1 POP PUSH1 0x1F DUP4 GT PUSH1 0x1 DUP2 EQ PUSH2 0x6A0 JUMPI PUSH0 DUP5 ISZERO PUSH2 0x68E JUMPI DUP3 DUP8 ADD MLOAD SWAP1 POP JUMPDEST PUSH2 0x698 DUP6 DUP3 PUSH2 0x61D JUMP JUMPDEST DUP7 SSTORE POP PUSH2 0x6FF JUMP JUMPDEST PUSH1 0x1F NOT DUP5 AND PUSH2 0x6AE DUP7 PUSH2 0x49B JUMP JUMPDEST PUSH0 JUMPDEST DUP3 DUP2 LT ISZERO PUSH2 0x6D5 JUMPI DUP5 DUP10 ADD MLOAD DUP3 SSTORE PUSH1 0x1 DUP3 ADD SWAP2 POP PUSH1 0x20 DUP6 ADD SWAP5 POP PUSH1 0x20 DUP2 ADD SWAP1 POP PUSH2 0x6B0 JUMP JUMPDEST DUP7 DUP4 LT ISZERO PUSH2 0x6F2 JUMPI DUP5 DUP10 ADD MLOAD PUSH2 0x6EE PUSH1 0x1F DUP10 AND DUP3 PUSH2 0x601 JUMP JUMPDEST DUP4 SSTORE POP JUMPDEST PUSH1 0x1 PUSH1 0x2 DUP9 MUL ADD DUP9 SSTORE POP POP POP JUMPDEST POP POP POP POP POP POP JUMP JUMPDEST PUSH2 0x156E DUP1 PUSH2 0x714 PUSH0 CODECOPY PUSH0 RETURN INVALID PUSH1 0x80 PUSH1 0x40 MSTORE PUSH1 0x4 CALLDATASIZE LT PUSH2 0xDC JUMPI PUSH0 CALLDATALOAD PUSH1 0xE0 SHR DUP1 PUSH4 0x78F45340 GT PUSH2 0x7E JUMPI DUP1 PUSH4 0xC458B65A GT PUSH2 0x58 JUMPI DUP1 PUSH4 0xC458B65A EQ PUSH2 0x275 JUMPI DUP1 PUSH4 0xC486456C EQ PUSH2 0x29F JUMPI DUP1 PUSH4 0xD57BDE79 EQ PUSH2 0x2C9 JUMPI DUP1 PUSH4 0xEF86CE8E EQ PUSH2 0x2F3 JUMPI PUSH2 0xDC JUMP JUMPDEST DUP1 PUSH4 0x78F45340 EQ PUSH2 0x1F9 JUMPI DUP1 PUSH4 0x91F90157 EQ PUSH2 0x223 JUMPI DUP1 PUSH4 0x956534ED EQ PUSH2 0x24D JUMPI PUSH2 0xDC JUMP JUMPDEST DUP1 PUSH4 0x389009F0 GT PUSH2 0xBA JUMPI DUP1 PUSH4 0x389009F0 EQ PUSH2 0x153 JUMPI DUP1 PUSH4 0x3BA88CA1 EQ PUSH2 0x169 JUMPI DUP1 PUSH4 0x3CCFD60B EQ PUSH2 0x193 JUMPI DUP1 PUSH4 0x62EA82DB EQ PUSH2 0x1BD JUMPI PUSH2 0xDC JUMP JUMPDEST DUP1 PUSH4 0x216F202 EQ PUSH2 0xE0 JUMPI DUP1 PUSH4 0xAC298DC EQ PUSH2 0x10B JUMPI DUP1 PUSH4 0x1998AEEF EQ PUSH2 0x135 JUMPI JUMPDEST PUSH0 DUP1 REVERT JUMPDEST CALLVALUE DUP1 ISZERO PUSH2 0xEB JUMPI PUSH0 DUP1 REVERT JUMPDEST POP PUSH2 0xF4 PUSH2 0x309 JUMP JUMPDEST PUSH1 0x40 MLOAD PUSH2 0x102 SWAP3 SWAP2 SWAP1 PUSH2 0xE4E JUMP JUMPDEST PUSH1 0x40 MLOAD DUP1 SWAP2 SUB SWAP1 RETURN JUMPDEST CALLVALUE DUP1 ISZERO PUSH2 0x116 JUMPI PUSH0 DUP1 REVERT JUMPDEST POP PUSH2 0x11F PUSH2 0x426 JUMP JUMPDEST PUSH1 0x40 MLOAD PUSH2 0x12C SWAP2 SWAP1 PUSH2 0xEC2 JUMP JUMPDEST PUSH1 0x40 MLOAD DUP1 SWAP2 SUB SWAP1 RETURN JUMPDEST PUSH2 0x13D PUSH2 0x44D JUMP JUMPDEST PUSH1 0x40 MLOAD PUSH2 0x14A SWAP2 SWAP1 PUSH2 0xEF5 JUMP JUMPDEST PUSH1 0x40 MLOAD DUP1 SWAP2 SUB SWAP1 RETURN JUMPDEST CALLVALUE DUP1 ISZERO PUSH2 0x15E JUMPI PUSH0 DUP1 REVERT JUMPDEST POP PUSH2 0x167 PUSH2 0x6C8 JUMP JUMPDEST STOP JUMPDEST CALLVALUE DUP1 ISZERO PUSH2 0x174 JUMPI PUSH0 DUP1 REVERT JUMPDEST POP PUSH2 0x17D PUSH2 0x7FE JUMP JUMPDEST PUSH1 0x40 MLOAD PUSH2 0x18A SWAP2 SWAP1 PUSH2 0xEF5 JUMP JUMPDEST PUSH1 0x40 MLOAD DUP1 SWAP2 SUB SWAP1 RETURN JUMPDEST CALLVALUE DUP1 ISZERO PUSH2 0x19E JUMPI PUSH0 DUP1 REVERT JUMPDEST POP PUSH2 0x1A7 PUSH2 0x93C JUMP JUMPDEST PUSH1 0x40 MLOAD PUSH2 0x1B4 SWAP2 SWAP1 PUSH2 0xEF5 JUMP JUMPDEST PUSH1 0x40 MLOAD DUP1 SWAP2 SUB SWAP1 RETURN JUMPDEST CALLVALUE DUP1 ISZERO PUSH2 0x1C8 JUMPI PUSH0 DUP1 REVERT JUMPDEST POP PUSH2 0x1E3 PUSH1 0x4 DUP1 CALLDATASIZE SUB DUP2 ADD SWAP1 PUSH2 0x1DE SWAP2 SWAP1 PUSH2 0xF3C JUMP JUMPDEST PUSH2 0xAF1 JUMP JUMPDEST PUSH1 0x40 MLOAD PUSH2 0x1F0 SWAP2 SWAP1 PUSH2 0xF7F JUMP JUMPDEST PUSH1 0x40 MLOAD DUP1 SWAP2 SUB SWAP1 RETURN JUMPDEST CALLVALUE DUP1 ISZERO PUSH2 0x204 JUMPI PUSH0 DUP1 REVERT JUMPDEST POP PUSH2 0x20D PUSH2 0xB06 JUMP JUMPDEST PUSH1 0x40 MLOAD PUSH2 0x21A SWAP2 SWAP1 PUSH2 0xF7F JUMP JUMPDEST PUSH1 0x40 MLOAD DUP1 SWAP2 SUB SWAP1 RETURN JUMPDEST CALLVALUE DUP1 ISZERO PUSH2 0x22E JUMPI PUSH0 DUP1 REVERT JUMPDEST POP PUSH2 0x237 PUSH2 0xB0C JUMP JUMPDEST PUSH1 0x40 MLOAD PUSH2 0x244 SWAP2 SWAP1 PUSH2 0xEC2 JUMP JUMPDEST PUSH1 0x40 MLOAD DUP1 SWAP2 SUB SWAP1 RETURN JUMPDEST CALLVALUE DUP1 ISZERO PUSH2 0x258 JUMPI PUSH0 DUP1 REVERT JUMPDEST POP PUSH2 0x273 PUSH1 0x4 DUP1 CALLDATASIZE SUB DUP2 ADD SWAP1 PUSH2 0x26E SWAP2 SWAP1 PUSH2 0xFBB JUMP JUMPDEST PUSH2 0xB31 JUMP JUMPDEST STOP JUMPDEST CALLVALUE DUP1 ISZERO PUSH2 0x280 JUMPI PUSH0 DUP1 REVERT JUMPDEST POP PUSH2 0x289 PUSH2 0xC21 JUMP JUMPDEST PUSH1 0x40 MLOAD PUSH2 0x296 SWAP2 SWAP1 PUSH2 0xF7F JUMP JUMPDEST PUSH1 0x40 MLOAD DUP1 SWAP2 SUB SWAP1 RETURN JUMPDEST CALLVALUE DUP1 ISZERO PUSH2 0x2AA JUMPI PUSH0 DUP1 REVERT JUMPDEST POP PUSH2 0x2B3 PUSH2 0xC27 JUMP JUMPDEST PUSH1 0x40 MLOAD PUSH2 0x2C0 SWAP2 SWAP1 PUSH2 0x1059 JUMP JUMPDEST PUSH1 0x40 MLOAD DUP1 SWAP2 SUB SWAP1 RETURN JUMPDEST CALLVALUE DUP1 ISZERO PUSH2 0x2D4 JUMPI PUSH0 DUP1 REVERT JUMPDEST POP PUSH2 0x2DD PUSH2 0xC39 JUMP JUMPDEST PUSH1 0x40 MLOAD PUSH2 0x2EA SWAP2 SWAP1 PUSH2 0xF7F JUMP JUMPDEST PUSH1 0x40 MLOAD DUP1 SWAP2 SUB SWAP1 RETURN JUMPDEST CALLVALUE DUP1 ISZERO PUSH2 0x2FE JUMPI PUSH0 DUP1 REVERT JUMPDEST POP PUSH2 0x307 PUSH2 0xC3F JUMP JUMPDEST STOP JUMPDEST PUSH1 0x5 DUP1 PUSH0 ADD DUP1 SLOAD PUSH2 0x319 SWAP1 PUSH2 0x109F JUMP JUMPDEST DUP1 PUSH1 0x1F ADD PUSH1 0x20 DUP1 SWAP2 DIV MUL PUSH1 0x20 ADD PUSH1 0x40 MLOAD SWAP1 DUP2 ADD PUSH1 0x40 MSTORE DUP1 SWAP3 SWAP2 SWAP1 DUP2 DUP2 MSTORE PUSH1 0x20 ADD DUP3 DUP1 SLOAD PUSH2 0x345 SWAP1 PUSH2 0x109F JUMP JUMPDEST DUP1 ISZERO PUSH2 0x390 JUMPI DUP1 PUSH1 0x1F LT PUSH2 0x367 JUMPI PUSH2 0x100 DUP1 DUP4 SLOAD DIV MUL DUP4 MSTORE SWAP2 PUSH1 0x20 ADD SWAP2 PUSH2 0x390 JUMP JUMPDEST DUP3 ADD SWAP2 SWAP1 PUSH0 MSTORE PUSH1 0x20 PUSH0 KECCAK256 SWAP1 JUMPDEST DUP2 SLOAD DUP2 MSTORE SWAP1 PUSH1 0x1 ADD SWAP1 PUSH1 0x20 ADD DUP1 DUP4 GT PUSH2 0x373 JUMPI DUP3 SWAP1 SUB PUSH1 0x1F AND DUP3 ADD SWAP2 JUMPDEST POP POP POP POP POP SWAP1 DUP1 PUSH1 0x1 ADD DUP1 SLOAD PUSH2 0x3A5 SWAP1 PUSH2 0x109F JUMP JUMPDEST DUP1 PUSH1 0x1F ADD PUSH1 0x20 DUP1 SWAP2 DIV MUL PUSH1 0x20 ADD PUSH1 0x40 MLOAD SWAP1 DUP2 ADD PUSH1 0x40 MSTORE DUP1 SWAP3 SWAP2 SWAP1 DUP2 DUP2 MSTORE PUSH1 0x20 ADD DUP3 DUP1 SLOAD PUSH2 0x3D1 SWAP1 PUSH2 0x109F JUMP JUMPDEST DUP1 ISZERO PUSH2 0x41C JUMPI DUP1 PUSH1 0x1F LT PUSH2 0x3F3 JUMPI PUSH2 0x100 DUP1 DUP4 SLOAD DIV MUL DUP4 MSTORE SWAP2 PUSH1 0x20 ADD SWAP2 PUSH2 0x41C JUMP JUMPDEST DUP3 ADD SWAP2 SWAP1 PUSH0 MSTORE PUSH1 0x20 PUSH0 KECCAK256 SWAP1 JUMPDEST DUP2 SLOAD DUP2 MSTORE SWAP1 PUSH1 0x1 ADD SWAP1 PUSH1 0x20 ADD DUP1 DUP4 GT PUSH2 0x3FF JUMPI DUP3 SWAP1 SUB PUSH1 0x1F AND DUP3 ADD SWAP2 JUMPDEST POP POP POP POP POP SWAP1 POP DUP3 JUMP JUMPDEST PUSH0 DUP1 PUSH0 SWAP1 SLOAD SWAP1 PUSH2 0x100 EXP SWAP1 DIV PUSH20 0xFFFFFFFFFFFFFFFFFFFFFFFFFFFFFFFFFFFFFFFF AND SWAP1 POP SWAP1 JUMP JUMPDEST PUSH0 PUSH1 0x2 SLOAD TIMESTAMP GT ISZERO PUSH2 0x493 JUMPI PUSH1 0x40 MLOAD PUSH32 0x8C379A000000000000000000000000000000000000000000000000000000000 DUP2 MSTORE PUSH1 0x4 ADD PUSH2 0x48A SWAP1 PUSH2 0x1119 JUMP JUMPDEST PUSH1 0x40 MLOAD DUP1 SWAP2 SUB SWAP1 REVERT JUMPDEST PUSH1 0x3 SLOAD CALLVALUE PUSH1 0x8 PUSH0 CALLER PUSH20 0xFFFFFFFFFFFFFFFFFFFFFFFFFFFFFFFFFFFFFFFF AND PUSH20 0xFFFFFFFFFFFFFFFFFFFFFFFFFFFFFFFFFFFFFFFF AND DUP2 MSTORE PUSH1 0x20 ADD SWAP1 DUP2 MSTORE PUSH1 0x20 ADD PUSH0 KECCAK256 SLOAD PUSH2 0x4DF SWAP2 SWAP1 PUSH2 0x1164 JUMP JUMPDEST GT PUSH2 0x51F JUMPI PUSH1 0x40 MLOAD PUSH32 0x8C379A000000000000000000000000000000000000000000000000000000000 DUP2 MSTORE PUSH1 0x4 ADD PUSH2 0x516 SWAP1 PUSH2 0x11E1 JUMP JUMPDEST PUSH1 0x40 MLOAD DUP1 SWAP2 SUB SWAP1 REVERT JUMPDEST CALLER PUSH1 0x4 PUSH0 PUSH2 0x100 EXP DUP2 SLOAD DUP2 PUSH20 0xFFFFFFFFFFFFFFFFFFFFFFFFFFFFFFFFFFFFFFFF MUL NOT AND SWAP1 DUP4 PUSH20 0xFFFFFFFFFFFFFFFFFFFFFFFFFFFFFFFFFFFFFFFF AND MUL OR SWAP1 SSTORE POP CALLVALUE PUSH1 0x3 DUP2 SWAP1 SSTORE POP PUSH1 0x7 CALLER SWAP1 DUP1 PUSH1 0x1 DUP2 SLOAD ADD DUP1 DUP3 SSTORE DUP1 SWAP2 POP POP PUSH1 0x1 SWAP1 SUB SWAP1 PUSH0 MSTORE PUSH1 0x20 PUSH0 KECCAK256 ADD PUSH0 SWAP1 SWAP2 SWAP1 SWAP2 SWAP1 SWAP2 PUSH2 0x100 EXP DUP2 SLOAD DUP2 PUSH20 0xFFFFFFFFFFFFFFFFFFFFFFFFFFFFFFFFFFFFFFFF MUL NOT AND SWAP1 DUP4 PUSH20 0xFFFFFFFFFFFFFFFFFFFFFFFFFFFFFFFFFFFFFFFF AND MUL OR SWAP1 SSTORE POP CALLVALUE PUSH1 0x8 PUSH0 CALLER PUSH20 0xFFFFFFFFFFFFFFFFFFFFFFFFFFFFFFFFFFFFFFFF AND PUSH20 0xFFFFFFFFFFFFFFFFFFFFFFFFFFFFFFFFFFFFFFFF AND DUP2 MSTORE PUSH1 0x20 ADD SWAP1 DUP2 MSTORE PUSH1 0x20 ADD PUSH0 KECCAK256 SLOAD PUSH2 0x60F SWAP2 SWAP1 PUSH2 0x1164 JUMP JUMPDEST PUSH1 0x8 PUSH0 CALLER PUSH20 0xFFFFFFFFFFFFFFFFFFFFFFFFFFFFFFFFFFFFFFFF AND PUSH20 0xFFFFFFFFFFFFFFFFFFFFFFFFFFFFFFFFFFFFFFFF AND DUP2 MSTORE PUSH1 0x20 ADD SWAP1 DUP2 MSTORE PUSH1 0x20 ADD PUSH0 KECCAK256 DUP2 SWAP1 SSTORE POP PUSH1 0x4 PUSH0 SWAP1 SLOAD SWAP1 PUSH2 0x100 EXP SWAP1 DIV PUSH20 0xFFFFFFFFFFFFFFFFFFFFFFFFFFFFFFFFFFFFFFFF AND PUSH20 0xFFFFFFFFFFFFFFFFFFFFFFFFFFFFFFFFFFFFFFFF AND PUSH32 0xD993D4F8A84158F5329713D6D13EF54E77B325040C887C8B3E565CFD0CD3E21 PUSH1 0x3 SLOAD PUSH1 0x40 MLOAD PUSH2 0x6B9 SWAP2 SWAP1 PUSH2 0xF7F JUMP JUMPDEST PUSH1 0x40 MLOAD DUP1 SWAP2 SUB SWAP1 LOG2 PUSH1 0x1 SWAP1 POP SWAP1 JUMP JUMPDEST PUSH0 DUP1 SLOAD SWAP1 PUSH2 0x100 EXP SWAP1 DIV PUSH20 0xFFFFFFFFFFFFFFFFFFFFFFFFFFFFFFFFFFFFFFFF AND PUSH20 0xFFFFFFFFFFFFFFFFFFFFFFFFFFFFFFFFFFFFFFFF AND CALLER PUSH20 0xFFFFFFFFFFFFFFFFFFFFFFFFFFFFFFFFFFFFFFFF AND EQ PUSH2 0x755 JUMPI PUSH1 0x40 MLOAD PUSH32 0x8C379A000000000000000000000000000000000000000000000000000000000 DUP2 MSTORE PUSH1 0x4 ADD PUSH2 0x74C SWAP1 PUSH2 0x1249 JUMP JUMPDEST PUSH1 0x40 MLOAD DUP1 SWAP2 SUB SWAP1 REVERT JUMPDEST PUSH1 0x2 SLOAD TIMESTAMP GT PUSH2 0x799 JUMPI PUSH1 0x40 MLOAD PUSH32 0x8C379A000000000000000000000000000000000000000000000000000000000 DUP2 MSTORE PUSH1 0x4 ADD PUSH2 0x790 SWAP1 PUSH2 0x12B1 JUMP JUMPDEST PUSH1 0x40 MLOAD DUP1 SWAP2 SUB SWAP1 REVERT JUMPDEST PUSH0 PUSH1 0x9 PUSH0 PUSH2 0x100 EXP DUP2 SLOAD DUP2 PUSH1 0xFF MUL NOT AND SWAP1 DUP4 PUSH1 0x1 DUP2 GT ISZERO PUSH2 0x7BD JUMPI PUSH2 0x7BC PUSH2 0xFE6 JUMP JUMPDEST JUMPDEST MUL OR SWAP1 SSTORE POP PUSH32 0xCB3C98892A5C11582E6B5E5CAA647EF56C5D646F1BF6884C2CAE5AFF754639E3 PUSH1 0x2 TIMESTAMP PUSH1 0x40 MLOAD PUSH2 0x7F4 SWAP3 SWAP2 SWAP1 PUSH2 0x1311 JUMP JUMPDEST PUSH1 0x40 MLOAD DUP1 SWAP2 SUB SWAP1 LOG1 JUMP JUMPDEST PUSH0 DUP1 PUSH0 SWAP1 SLOAD SWAP1 PUSH2 0x100 EXP SWAP1 DIV PUSH20 0xFFFFFFFFFFFFFFFFFFFFFFFFFFFFFFFFFFFFFFFF AND PUSH20 0xFFFFFFFFFFFFFFFFFFFFFFFFFFFFFFFFFFFFFFFF AND CALLER PUSH20 0xFFFFFFFFFFFFFFFFFFFFFFFFFFFFFFFFFFFFFFFF AND EQ PUSH2 0x88D JUMPI PUSH1 0x40 MLOAD PUSH32 0x8C379A000000000000000000000000000000000000000000000000000000000 DUP2 MSTORE PUSH1 0x4 ADD PUSH2 0x884 SWAP1 PUSH2 0x1249 JUMP JUMPDEST PUSH1 0x40 MLOAD DUP1 SWAP2 SUB SWAP1 REVERT JUMPDEST PUSH1 0x2 SLOAD TIMESTAMP GT ISZERO PUSH2 0x8D2 JUMPI PUSH1 0x40 MLOAD PUSH32 0x8C379A000000000000000000000000000000000000000000000000000000000 DUP2 MSTORE PUSH1 0x4 ADD PUSH2 0x8C9 SWAP1 PUSH2 0x1119 JUMP JUMPDEST PUSH1 0x40 MLOAD DUP1 SWAP2 SUB SWAP1 REVERT JUMPDEST PUSH0 PUSH1 0x9 PUSH0 PUSH2 0x100 EXP DUP2 SLOAD DUP2 PUSH1 0xFF MUL NOT AND SWAP1 DUP4 PUSH1 0x1 DUP2 GT ISZERO PUSH2 0x8F6 JUMPI PUSH2 0x8F5 PUSH2 0xFE6 JUMP JUMPDEST JUMPDEST MUL OR SWAP1 SSTORE POP PUSH32 0xCB3C98892A5C11582E6B5E5CAA647EF56C5D646F1BF6884C2CAE5AFF754639E3 PUSH1 0x1 TIMESTAMP PUSH1 0x40 MLOAD PUSH2 0x92D SWAP3 SWAP2 SWAP1 PUSH2 0x1371 JUMP JUMPDEST PUSH1 0x40 MLOAD DUP1 SWAP2 SUB SWAP1 LOG1 PUSH1 0x1 SWAP1 POP SWAP1 JUMP JUMPDEST PUSH0 DUP1 PUSH1 0x8 PUSH0 CALLER PUSH20 0xFFFFFFFFFFFFFFFFFFFFFFFFFFFFFFFFFFFFFFFF AND PUSH20 0xFFFFFFFFFFFFFFFFFFFFFFFFFFFFFFFFFFFFFFFF AND DUP2 MSTORE PUSH1 0x20 ADD SWAP1 DUP2 MSTORE PUSH1 0x20 ADD PUSH0 KECCAK256 SLOAD SWAP1 POP PUSH0 DUP2 GT PUSH2 0x9C0 JUMPI PUSH1 0x40 MLOAD PUSH32 0x8C379A000000000000000000000000000000000000000000000000000000000 DUP2 MSTORE PUSH1 0x4 ADD PUSH2 0x9B7 SWAP1 PUSH2 0x13E2 JUMP JUMPDEST PUSH1 0x40 MLOAD DUP1 SWAP2 SUB SWAP1 REVERT JUMPDEST PUSH0 PUSH1 0x8 PUSH0 CALLER PUSH20 0xFFFFFFFFFFFFFFFFFFFFFFFFFFFFFFFFFFFFFFFF AND PUSH20 0xFFFFFFFFFFFFFFFFFFFFFFFFFFFFFFFFFFFFFFFF AND DUP2 MSTORE PUSH1 0x20 ADD SWAP1 DUP2 MSTORE PUSH1 0x20 ADD PUSH0 KECCAK256 DUP2 SWAP1 SSTORE POP PUSH0 CALLER PUSH20 0xFFFFFFFFFFFFFFFFFFFFFFFFFFFFFFFFFFFFFFFF AND DUP3 PUSH2 0x1388 SWAP1 PUSH1 0x40 MLOAD PUSH2 0xA2B SWAP1 PUSH2 0x142D JUMP JUMPDEST PUSH0 PUSH1 0x40 MLOAD DUP1 DUP4 SUB DUP2 DUP6 DUP9 DUP9 CALL SWAP4 POP POP POP POP RETURNDATASIZE DUP1 PUSH0 DUP2 EQ PUSH2 0xA66 JUMPI PUSH1 0x40 MLOAD SWAP2 POP PUSH1 0x1F NOT PUSH1 0x3F RETURNDATASIZE ADD AND DUP3 ADD PUSH1 0x40 MSTORE RETURNDATASIZE DUP3 MSTORE RETURNDATASIZE PUSH0 PUSH1 0x20 DUP5 ADD RETURNDATACOPY PUSH2 0xA6B JUMP JUMPDEST PUSH1 0x60 SWAP2 POP JUMPDEST POP POP SWAP1 POP DUP1 PUSH2 0xAAF JUMPI PUSH1 0x40 MLOAD PUSH32 0x8C379A000000000000000000000000000000000000000000000000000000000 DUP2 MSTORE PUSH1 0x4 ADD PUSH2 0xAA6 SWAP1 PUSH2 0x148B JUMP JUMPDEST PUSH1 0x40 MLOAD DUP1 SWAP2 SUB SWAP1 REVERT JUMPDEST PUSH32 0x2F174CA282119315C59EFAF21147AEF438581DABDEB498198AE28964373DD8BC CALLER DUP4 PUSH1 0x40 MLOAD PUSH2 0xAE0 SWAP3 SWAP2 SWAP1 PUSH2 0x14A9 JUMP JUMPDEST PUSH1 0x40 MLOAD DUP1 SWAP2 SUB SWAP1 LOG1 PUSH1 0x1 SWAP3 POP POP POP SWAP1 JUMP JUMPDEST PUSH1 0x8 PUSH1 0x20 MSTORE DUP1 PUSH0 MSTORE PUSH1 0x40 PUSH0 KECCAK256 PUSH0 SWAP2 POP SWAP1 POP SLOAD DUP2 JUMP JUMPDEST PUSH1 0x1 SLOAD DUP2 JUMP JUMPDEST PUSH1 0x4 PUSH0 SWAP1 SLOAD SWAP1 PUSH2 0x100 EXP SWAP1 DIV PUSH20 0xFFFFFFFFFFFFFFFFFFFFFFFFFFFFFFFFFFFFFFFF AND DUP2 JUMP JUMPDEST PUSH0 DUP1 SLOAD SWAP1 PUSH2 0x100 EXP SWAP1 DIV PUSH20 0xFFFFFFFFFFFFFFFFFFFFFFFFFFFFFFFFFFFFFFFF AND PUSH20 0xFFFFFFFFFFFFFFFFFFFFFFFFFFFFFFFFFFFFFFFF AND CALLER PUSH20 0xFFFFFFFFFFFFFFFFFFFFFFFFFFFFFFFFFFFFFFFF AND EQ PUSH2 0xBBE JUMPI PUSH1 0x40 MLOAD PUSH32 0x8C379A000000000000000000000000000000000000000000000000000000000 DUP2 MSTORE PUSH1 0x4 ADD PUSH2 0xBB5 SWAP1 PUSH2 0x1249 JUMP JUMPDEST PUSH1 0x40 MLOAD DUP1 SWAP2 SUB SWAP1 REVERT JUMPDEST DUP1 PUSH1 0x9 PUSH0 PUSH2 0x100 EXP DUP2 SLOAD DUP2 PUSH1 0xFF MUL NOT AND SWAP1 DUP4 PUSH1 0x1 DUP2 GT ISZERO PUSH2 0xBE2 JUMPI PUSH2 0xBE1 PUSH2 0xFE6 JUMP JUMPDEST JUMPDEST MUL OR SWAP1 SSTORE POP PUSH32 0x23AD33AB6A13A00AA7D06CD167B2ABD03DEC86AF3CF3CC91759DCD3AE8411887 DUP2 PUSH1 0x40 MLOAD PUSH2 0xC16 SWAP2 SWAP1 PUSH2 0x1059 JUMP JUMPDEST PUSH1 0x40 MLOAD DUP1 SWAP2 SUB SWAP1 LOG1 POP JUMP JUMPDEST PUSH1 0x2 SLOAD DUP2 JUMP JUMPDEST PUSH1 0x9 PUSH0 SWAP1 SLOAD SWAP1 PUSH2 0x100 EXP SWAP1 DIV PUSH1 0xFF AND DUP2 JUMP JUMPDEST PUSH1 0x3 SLOAD DUP2 JUMP JUMPDEST PUSH0 DUP1 SLOAD SWAP1 PUSH2 0x100 EXP SWAP1 DIV PUSH20 0xFFFFFFFFFFFFFFFFFFFFFFFFFFFFFFFFFFFFFFFF AND PUSH20 0xFFFFFFFFFFFFFFFFFFFFFFFFFFFFFFFFFFFFFFFF AND CALLER PUSH20 0xFFFFFFFFFFFFFFFFFFFFFFFFFFFFFFFFFFFFFFFF AND EQ PUSH2 0xCCC JUMPI PUSH1 0x40 MLOAD PUSH32 0x8C379A000000000000000000000000000000000000000000000000000000000 DUP2 MSTORE PUSH1 0x4 ADD PUSH2 0xCC3 SWAP1 PUSH2 0x1249 JUMP JUMPDEST PUSH1 0x40 MLOAD DUP1 SWAP2 SUB SWAP1 REVERT JUMPDEST PUSH0 SELFBALANCE SWAP1 POP PUSH0 DUP2 GT PUSH2 0xD12 JUMPI PUSH1 0x40 MLOAD PUSH32 0x8C379A000000000000000000000000000000000000000000000000000000000 DUP2 MSTORE PUSH1 0x4 ADD PUSH2 0xD09 SWAP1 PUSH2 0x151A JUMP JUMPDEST PUSH1 0x40 MLOAD DUP1 SWAP2 SUB SWAP1 REVERT JUMPDEST PUSH0 DUP1 PUSH0 SWAP1 SLOAD SWAP1 PUSH2 0x100 EXP SWAP1 DIV PUSH20 0xFFFFFFFFFFFFFFFFFFFFFFFFFFFFFFFFFFFFFFFF AND PUSH20 0xFFFFFFFFFFFFFFFFFFFFFFFFFFFFFFFFFFFFFFFF AND DUP3 PUSH1 0x40 MLOAD PUSH2 0xD57 SWAP1 PUSH2 0x142D JUMP JUMPDEST PUSH0 PUSH1 0x40 MLOAD DUP1 DUP4 SUB DUP2 DUP6 DUP8 GAS CALL SWAP3 POP POP POP RETURNDATASIZE DUP1 PUSH0 DUP2 EQ PUSH2 0xD91 JUMPI PUSH1 0x40 MLOAD SWAP2 POP PUSH1 0x1F NOT PUSH1 0x3F RETURNDATASIZE ADD AND DUP3 ADD PUSH1 0x40 MSTORE RETURNDATASIZE DUP3 MSTORE RETURNDATASIZE PUSH0 PUSH1 0x20 DUP5 ADD RETURNDATACOPY PUSH2 0xD96 JUMP JUMPDEST PUSH1 0x60 SWAP2 POP JUMPDEST POP POP SWAP1 POP DUP1 PUSH2 0xDDA JUMPI PUSH1 0x40 MLOAD PUSH32 0x8C379A000000000000000000000000000000000000000000000000000000000 DUP2 MSTORE PUSH1 0x4 ADD PUSH2 0xDD1 SWAP1 PUSH2 0x148B JUMP JUMPDEST PUSH1 0x40 MLOAD DUP1 SWAP2 SUB SWAP1 REVERT JUMPDEST POP POP JUMP JUMPDEST PUSH0 DUP2 MLOAD SWAP1 POP SWAP2 SWAP1 POP JUMP JUMPDEST PUSH0 DUP3 DUP3 MSTORE PUSH1 0x20 DUP3 ADD SWAP1 POP SWAP3 SWAP2 POP POP JUMP JUMPDEST DUP3 DUP2 DUP4 MCOPY PUSH0 DUP4 DUP4 ADD MSTORE POP POP POP JUMP JUMPDEST PUSH0 PUSH1 0x1F NOT PUSH1 0x1F DUP4 ADD AND SWAP1 POP SWAP2 SWAP1 POP JUMP JUMPDEST PUSH0 PUSH2 0xE20 DUP3 PUSH2 0xDDE JUMP JUMPDEST PUSH2 0xE2A DUP2 DUP6 PUSH2 0xDE8 JUMP JUMPDEST SWAP4 POP PUSH2 0xE3A DUP2 DUP6 PUSH1 0x20 DUP7 ADD PUSH2 0xDF8 JUMP JUMPDEST PUSH2 0xE43 DUP2 PUSH2 0xE06 JUMP JUMPDEST DUP5 ADD SWAP2 POP POP SWAP3 SWAP2 POP POP JUMP JUMPDEST PUSH0 PUSH1 0x40 DUP3 ADD SWAP1 POP DUP2 DUP2 SUB PUSH0 DUP4 ADD MSTORE PUSH2 0xE66 DUP2 DUP6 PUSH2 0xE16 JUMP JUMPDEST SWAP1 POP DUP2 DUP2 SUB PUSH1 0x20 DUP4 ADD MSTORE PUSH2 0xE7A DUP2 DUP5 PUSH2 0xE16 JUMP JUMPDEST SWAP1 POP SWAP4 SWAP3 POP POP POP JUMP JUMPDEST PUSH0 PUSH20 0xFFFFFFFFFFFFFFFFFFFFFFFFFFFFFFFFFFFFFFFF DUP3 AND SWAP1 POP SWAP2 SWAP1 POP JUMP JUMPDEST PUSH0 PUSH2 0xEAC DUP3 PUSH2 0xE83 JUMP JUMPDEST SWAP1 POP SWAP2 SWAP1 POP JUMP JUMPDEST PUSH2 0xEBC DUP2 PUSH2 0xEA2 JUMP JUMPDEST DUP3 MSTORE POP POP JUMP JUMPDEST PUSH0 PUSH1 0x20 DUP3 ADD SWAP1 POP PUSH2 0xED5 PUSH0 DUP4 ADD DUP5 PUSH2 0xEB3 JUMP JUMPDEST SWAP3 SWAP2 POP POP JUMP JUMPDEST PUSH0 DUP2 ISZERO ISZERO SWAP1 POP SWAP2 SWAP1 POP JUMP JUMPDEST PUSH2 0xEEF DUP2 PUSH2 0xEDB JUMP JUMPDEST DUP3 MSTORE POP POP JUMP JUMPDEST PUSH0 PUSH1 0x20 DUP3 ADD SWAP1 POP PUSH2 0xF08 PUSH0 DUP4 ADD DUP5 PUSH2 0xEE6 JUMP JUMPDEST SWAP3 SWAP2 POP POP JUMP JUMPDEST PUSH0 DUP1 REVERT JUMPDEST PUSH2 0xF1B DUP2 PUSH2 0xEA2 JUMP JUMPDEST DUP2 EQ PUSH2 0xF25 JUMPI PUSH0 DUP1 REVERT JUMPDEST POP JUMP JUMPDEST PUSH0 DUP2 CALLDATALOAD SWAP1 POP PUSH2 0xF36 DUP2 PUSH2 0xF12 JUMP JUMPDEST SWAP3 SWAP2 POP POP JUMP JUMPDEST PUSH0 PUSH1 0x20 DUP3 DUP5 SUB SLT ISZERO PUSH2 0xF51 JUMPI PUSH2 0xF50 PUSH2 0xF0E JUMP JUMPDEST JUMPDEST PUSH0 PUSH2 0xF5E DUP5 DUP3 DUP6 ADD PUSH2 0xF28 JUMP JUMPDEST SWAP2 POP POP SWAP3 SWAP2 POP POP JUMP JUMPDEST PUSH0 DUP2 SWAP1 POP SWAP2 SWAP1 POP JUMP JUMPDEST PUSH2 0xF79 DUP2 PUSH2 0xF67 JUMP JUMPDEST DUP3 MSTORE POP POP JUMP JUMPDEST PUSH0 PUSH1 0x20 DUP3 ADD SWAP1 POP PUSH2 0xF92 PUSH0 DUP4 ADD DUP5 PUSH2 0xF70 JUMP JUMPDEST SWAP3 SWAP2 POP POP JUMP JUMPDEST PUSH1 0x2 DUP2 LT PUSH2 0xFA4 JUMPI PUSH0 DUP1 REVERT JUMPDEST POP JUMP JUMPDEST PUSH0 DUP2 CALLDATALOAD SWAP1 POP PUSH2 0xFB5 DUP2 PUSH2 0xF98 JUMP JUMPDEST SWAP3 SWAP2 POP POP JUMP JUMPDEST PUSH0 PUSH1 0x20 DUP3 DUP5 SUB SLT ISZERO PUSH2 0xFD0 JUMPI PUSH2 0xFCF PUSH2 0xF0E JUMP JUMPDEST JUMPDEST PUSH0 PUSH2 0xFDD DUP5 DUP3 DUP6 ADD PUSH2 0xFA7 JUMP JUMPDEST SWAP2 POP POP SWAP3 SWAP2 POP POP JUMP JUMPDEST PUSH32 0x4E487B7100000000000000000000000000000000000000000000000000000000 PUSH0 MSTORE PUSH1 0x21 PUSH1 0x4 MSTORE PUSH1 0x24 PUSH0 REVERT JUMPDEST PUSH1 0x2 DUP2 LT PUSH2 0x1024 JUMPI PUSH2 0x1023 PUSH2 0xFE6 JUMP JUMPDEST JUMPDEST POP JUMP JUMPDEST PUSH0 DUP2 SWAP1 POP PUSH2 0x1034 DUP3 PUSH2 0x1013 JUMP JUMPDEST SWAP2 SWAP1 POP JUMP JUMPDEST PUSH0 PUSH2 0x1043 DUP3 PUSH2 0x1027 JUMP JUMPDEST SWAP1 POP SWAP2 SWAP1 POP JUMP JUMPDEST PUSH2 0x1053 DUP2 PUSH2 0x1039 JUMP JUMPDEST DUP3 MSTORE POP POP JUMP JUMPDEST PUSH0 PUSH1 0x20 DUP3 ADD SWAP1 POP PUSH2 0x106C PUSH0 DUP4 ADD DUP5 PUSH2 0x104A JUMP JUMPDEST SWAP3 SWAP2 POP POP JUMP JUMPDEST PUSH32 0x4E487B7100000000000000000000000000000000000000000000000000000000 PUSH0 MSTORE PUSH1 0x22 PUSH1 0x4 MSTORE PUSH1 0x24 PUSH0 REVERT JUMPDEST PUSH0 PUSH1 0x2 DUP3 DIV SWAP1 POP PUSH1 0x1 DUP3 AND DUP1 PUSH2 0x10B6 JUMPI PUSH1 0x7F DUP3 AND SWAP2 POP JUMPDEST PUSH1 0x20 DUP3 LT DUP2 SUB PUSH2 0x10C9 JUMPI PUSH2 0x10C8 PUSH2 0x1072 JUMP JUMPDEST JUMPDEST POP SWAP2 SWAP1 POP JUMP JUMPDEST PUSH32 0x41756374696F6E2068617320656E646564000000000000000000000000000000 PUSH0 DUP3 ADD MSTORE POP JUMP JUMPDEST PUSH0 PUSH2 0x1103 PUSH1 0x11 DUP4 PUSH2 0xDE8 JUMP JUMPDEST SWAP2 POP PUSH2 0x110E DUP3 PUSH2 0x10CF JUMP JUMPDEST PUSH1 0x20 DUP3 ADD SWAP1 POP SWAP2 SWAP1 POP JUMP JUMPDEST PUSH0 PUSH1 0x20 DUP3 ADD SWAP1 POP DUP2 DUP2 SUB PUSH0 DUP4 ADD MSTORE PUSH2 0x1130 DUP2 PUSH2 0x10F7 JUMP JUMPDEST SWAP1 POP SWAP2 SWAP1 POP JUMP JUMPDEST PUSH32 0x4E487B7100000000000000000000000000000000000000000000000000000000 PUSH0 MSTORE PUSH1 0x11 PUSH1 0x4 MSTORE PUSH1 0x24 PUSH0 REVERT JUMPDEST PUSH0 PUSH2 0x116E DUP3 PUSH2 0xF67 JUMP JUMPDEST SWAP2 POP PUSH2 0x1179 DUP4 PUSH2 0xF67 JUMP JUMPDEST SWAP3 POP DUP3 DUP3 ADD SWAP1 POP DUP1 DUP3 GT ISZERO PUSH2 0x1191 JUMPI PUSH2 0x1190 PUSH2 0x1137 JUMP JUMPDEST JUMPDEST SWAP3 SWAP2 POP POP JUMP JUMPDEST PUSH32 0x596F752063616E2774206269642C206D616B6520612068696768657220626964 PUSH0 DUP3 ADD MSTORE POP JUMP JUMPDEST PUSH0 PUSH2 0x11CB PUSH1 0x20 DUP4 PUSH2 0xDE8 JUMP JUMPDEST SWAP2 POP PUSH2 0x11D6 DUP3 PUSH2 0x1197 JUMP JUMPDEST PUSH1 0x20 DUP3 ADD SWAP1 POP SWAP2 SWAP1 POP JUMP JUMPDEST PUSH0 PUSH1 0x20 DUP3 ADD SWAP1 POP DUP2 DUP2 SUB PUSH0 DUP4 ADD MSTORE PUSH2 0x11F8 DUP2 PUSH2 0x11BF JUMP JUMPDEST SWAP1 POP SWAP2 SWAP1 POP JUMP JUMPDEST PUSH32 0x4F6E6C792061756374696F6E206F776E65722063616E2063616C6C2074686973 PUSH0 DUP3 ADD MSTORE POP JUMP JUMPDEST PUSH0 PUSH2 0x1233 PUSH1 0x20 DUP4 PUSH2 0xDE8 JUMP JUMPDEST SWAP2 POP PUSH2 0x123E DUP3 PUSH2 0x11FF JUMP JUMPDEST PUSH1 0x20 DUP3 ADD SWAP1 POP SWAP2 SWAP1 POP JUMP JUMPDEST PUSH0 PUSH1 0x20 DUP3 ADD SWAP1 POP DUP2 DUP2 SUB PUSH0 DUP4 ADD MSTORE PUSH2 0x1260 DUP2 PUSH2 0x1227 JUMP JUMPDEST SWAP1 POP SWAP2 SWAP1 POP JUMP JUMPDEST PUSH32 0x41756374696F6E206973207374696C6C206F6E676F696E670000000000000000 PUSH0 DUP3 ADD MSTORE POP JUMP JUMPDEST PUSH0 PUSH2 0x129B PUSH1 0x18 DUP4 PUSH2 0xDE8 JUMP JUMPDEST SWAP2 POP PUSH2 0x12A6 DUP3 PUSH2 0x1267 JUMP JUMPDEST PUSH1 0x20 DUP3 ADD SWAP1 POP SWAP2 SWAP1 POP JUMP JUMPDEST PUSH0 PUSH1 0x20 DUP3 ADD SWAP1 POP DUP2 DUP2 SUB PUSH0 DUP4 ADD MSTORE PUSH2 0x12C8 DUP2 PUSH2 0x128F JUMP JUMPDEST SWAP1 POP SWAP2 SWAP1 POP JUMP JUMPDEST PUSH0 DUP2 SWAP1 POP SWAP2 SWAP1 POP JUMP JUMPDEST PUSH0 DUP2 SWAP1 POP SWAP2 SWAP1 POP JUMP JUMPDEST PUSH0 PUSH2 0x12FB PUSH2 0x12F6 PUSH2 0x12F1 DUP5 PUSH2 0x12CF JUMP JUMPDEST PUSH2 0x12D8 JUMP JUMPDEST PUSH2 0xF67 JUMP JUMPDEST SWAP1 POP SWAP2 SWAP1 POP JUMP JUMPDEST PUSH2 0x130B DUP2 PUSH2 0x12E1 JUMP JUMPDEST DUP3 MSTORE POP POP JUMP JUMPDEST PUSH0 PUSH1 0x40 DUP3 ADD SWAP1 POP PUSH2 0x1324 PUSH0 DUP4 ADD DUP6 PUSH2 0x1302 JUMP JUMPDEST PUSH2 0x1331 PUSH1 0x20 DUP4 ADD DUP5 PUSH2 0xF70 JUMP JUMPDEST SWAP4 SWAP3 POP POP POP JUMP JUMPDEST PUSH0 DUP2 SWAP1 POP SWAP2 SWAP1 POP JUMP JUMPDEST PUSH0 PUSH2 0x135B PUSH2 0x1356 PUSH2 0x1351 DUP5 PUSH2 0x1338 JUMP JUMPDEST PUSH2 0x12D8 JUMP JUMPDEST PUSH2 0xF67 JUMP JUMPDEST SWAP1 POP SWAP2 SWAP1 POP JUMP JUMPDEST PUSH2 0x136B DUP2 PUSH2 0x1341 JUMP JUMPDEST DUP3 MSTORE POP POP JUMP JUMPDEST PUSH0 PUSH1 0x40 DUP3 ADD SWAP1 POP PUSH2 0x1384 PUSH0 DUP4 ADD DUP6 PUSH2 0x1362 JUMP JUMPDEST PUSH2 0x1391 PUSH1 0x20 DUP4 ADD DUP5 PUSH2 0xF70 JUMP JUMPDEST SWAP4 SWAP3 POP POP POP JUMP JUMPDEST PUSH32 0x4E6F2066756E647320746F207769746864726177000000000000000000000000 PUSH0 DUP3 ADD MSTORE POP JUMP JUMPDEST PUSH0 PUSH2 0x13CC PUSH1 0x14 DUP4 PUSH2 0xDE8 JUMP JUMPDEST SWAP2 POP PUSH2 0x13D7 DUP3 PUSH2 0x1398 JUMP JUMPDEST PUSH1 0x20 DUP3 ADD SWAP1 POP SWAP2 SWAP1 POP JUMP JUMPDEST PUSH0 PUSH1 0x20 DUP3 ADD SWAP1 POP DUP2 DUP2 SUB PUSH0 DUP4 ADD MSTORE PUSH2 0x13F9 DUP2 PUSH2 0x13C0 JUMP JUMPDEST SWAP1 POP SWAP2 SWAP1 POP JUMP JUMPDEST PUSH0 DUP2 SWAP1 POP SWAP3 SWAP2 POP POP JUMP JUMPDEST POP JUMP JUMPDEST PUSH0 PUSH2 0x1418 PUSH0 DUP4 PUSH2 0x1400 JUMP JUMPDEST SWAP2 POP PUSH2 0x1423 DUP3 PUSH2 0x140A JUMP JUMPDEST PUSH0 DUP3 ADD SWAP1 POP SWAP2 SWAP1 POP JUMP JUMPDEST PUSH0 PUSH2 0x1437 DUP3 PUSH2 0x140D JUMP JUMPDEST SWAP2 POP DUP2 SWAP1 POP SWAP2 SWAP1 POP JUMP JUMPDEST PUSH32 0x5472616E73666572206661696C65640000000000000000000000000000000000 PUSH0 DUP3 ADD MSTORE POP JUMP JUMPDEST PUSH0 PUSH2 0x1475 PUSH1 0xF DUP4 PUSH2 0xDE8 JUMP JUMPDEST SWAP2 POP PUSH2 0x1480 DUP3 PUSH2 0x1441 JUMP JUMPDEST PUSH1 0x20 DUP3 ADD SWAP1 POP SWAP2 SWAP1 POP JUMP JUMPDEST PUSH0 PUSH1 0x20 DUP3 ADD SWAP1 POP DUP2 DUP2 SUB PUSH0 DUP4 ADD MSTORE PUSH2 0x14A2 DUP2 PUSH2 0x1469 JUMP JUMPDEST SWAP1 POP SWAP2 SWAP1 POP JUMP JUMPDEST PUSH0 PUSH1 0x40 DUP3 ADD SWAP1 POP PUSH2 0x14BC PUSH0 DUP4 ADD DUP6 PUSH2 0xEB3 JUMP JUMPDEST PUSH2 0x14C9 PUSH1 0x20 DUP4 ADD DUP5 PUSH2 0xF70 JUMP JUMPDEST SWAP4 SWAP3 POP POP POP JUMP JUMPDEST PUSH32 0x4E6F2066756E6473206C65667420696E2074686520636F6E7472616374000000 PUSH0 DUP3 ADD MSTORE POP JUMP JUMPDEST PUSH0 PUSH2 0x1504 PUSH1 0x1D DUP4 PUSH2 0xDE8 JUMP JUMPDEST SWAP2 POP PUSH2 0x150F DUP3 PUSH2 0x14D0 JUMP JUMPDEST PUSH1 0x20 DUP3 ADD SWAP1 POP SWAP2 SWAP1 POP JUMP JUMPDEST PUSH0 PUSH1 0x20 DUP3 ADD SWAP1 POP DUP2 DUP2 SUB PUSH0 DUP4 ADD MSTORE PUSH2 0x1531 DUP2 PUSH2 0x14F8 JUMP JUMPDEST SWAP1 POP SWAP2 SWAP1 POP JUMP INVALID LOG2 PUSH5 0x6970667358 0x22 SLT KECCAK256 SDIV 0xD ORIGIN MSIZE STATICCALL PUSH10 0xAE56A9A69AAB18048555 JUMPDEST CALLVALUE 0xAB 0xE 0xC0 0xB8 MSTORE8 SIGNEXTEND 0xCD 0xAD 0xE5 0xC9 GAS RETURNDATASIZE SWAP6 0xC9 PUSH5 0x736F6C6343 STOP ADDMOD BYTE STOP CALLER "
				},
				"gasEstimates": {
					"creation": {
						"codeDepositCost": "1097200",
						"executionCost": "infinite",
						"totalCost": "infinite"
					},
					"external": {
						"Mycar()": "infinite",
						"STATE()": "2598",
						"auction_end()": "2447",
						"auction_start()": "2448",
						"bid()": "infinite",
						"bids(address)": "2891",
						"cancel_auction()": "infinite",
						"deactivateAuction()": "infinite",
						"get_owner()": "2561",
						"highestBid()": "2491",
						"highestBidder()": "2553",
						"updateAuctionState(uint8)": "28160",
						"withdraw()": "infinite",
						"withdrawRemainingFunds()": "infinite"
					}
				},
				"methodIdentifiers": {
					"Mycar()": "0216f202",
					"STATE()": "c486456c",
					"auction_end()": "c458b65a",
					"auction_start()": "78f45340",
					"bid()": "1998aeef",
					"bids(address)": "62ea82db",
					"cancel_auction()": "3ba88ca1",
					"deactivateAuction()": "389009f0",
					"get_owner()": "0ac298dc",
					"highestBid()": "d57bde79",
					"highestBidder()": "91f90157",
					"updateAuctionState(uint8)": "956534ed",
					"withdraw()": "3ccfd60b",
					"withdrawRemainingFunds()": "ef86ce8e"
				}
			},
			"storageLayout": {
				"storage": [
					{
						"astId": 3,
						"contract": "contracts/11_Auction.sol:MyAuction",
						"label": "auction_owner",
						"offset": 0,
						"slot": "0",
						"type": "t_address"
					},
					{
						"astId": 5,
						"contract": "contracts/11_Auction.sol:MyAuction",
						"label": "auction_start",
						"offset": 0,
						"slot": "1",
						"type": "t_uint256"
					},
					{
						"astId": 7,
						"contract": "contracts/11_Auction.sol:MyAuction",
						"label": "auction_end",
						"offset": 0,
						"slot": "2",
						"type": "t_uint256"
					},
					{
						"astId": 9,
						"contract": "contracts/11_Auction.sol:MyAuction",
						"label": "highestBid",
						"offset": 0,
						"slot": "3",
						"type": "t_uint256"
					},
					{
						"astId": 11,
						"contract": "contracts/11_Auction.sol:MyAuction",
						"label": "highestBidder",
						"offset": 0,
						"slot": "4",
						"type": "t_address"
					},
					{
						"astId": 22,
						"contract": "contracts/11_Auction.sol:MyAuction",
						"label": "Mycar",
						"offset": 0,
						"slot": "5",
						"type": "t_struct(car)19_storage"
					},
					{
						"astId": 25,
						"contract": "contracts/11_Auction.sol:MyAuction",
						"label": "bidders",
						"offset": 0,
						"slot": "7",
						"type": "t_array(t_address)dyn_storage"
					},
					{
						"astId": 29,
						"contract": "contracts/11_Auction.sol:MyAuction",
						"label": "bids",
						"offset": 0,
						"slot": "8",
						"type": "t_mapping(t_address,t_uint256)"
					},
					{
						"astId": 32,
						"contract": "contracts/11_Auction.sol:MyAuction",
						"label": "STATE",
						"offset": 0,
						"slot": "9",
						"type": "t_enum(auction_state)14"
					}
				],
				"types": {
					"t_address": {
						"encoding": "inplace",
						"label": "address",
						"numberOfBytes": "20"
					},
					"t_array(t_address)dyn_storage": {
						"base": "t_address",
						"encoding": "dynamic_array",
						"label": "address[]",
						"numberOfBytes": "32"
					},
					"t_enum(auction_state)14": {
						"encoding": "inplace",
						"label": "enum Auction.auction_state",
						"numberOfBytes": "1"
					},
					"t_mapping(t_address,t_uint256)": {
						"encoding": "mapping",
						"key": "t_address",
						"label": "mapping(address => uint256)",
						"numberOfBytes": "32",
						"value": "t_uint256"
					},
					"t_string_storage": {
						"encoding": "bytes",
						"label": "string",
						"numberOfBytes": "32"
					},
					"t_struct(car)19_storage": {
						"encoding": "inplace",
						"label": "struct Auction.car",
						"members": [
							{
								"astId": 16,
								"contract": "contracts/11_Auction.sol:MyAuction",
								"label": "Brand",
								"offset": 0,
								"slot": "0",
								"type": "t_string_storage"
							},
							{
								"astId": 18,
								"contract": "contracts/11_Auction.sol:MyAuction",
								"label": "Rnumber",
								"offset": 0,
								"slot": "1",
								"type": "t_string_storage"
							}
						],
						"numberOfBytes": "64"
					},
					"t_uint256": {
						"encoding": "inplace",
						"label": "uint256",
						"numberOfBytes": "32"
					}
				}
			},
			"userdoc": {
				"kind": "user",
				"methods": {},
				"version": 1
			}
		}
	}
}